:020000040800F2
:100000007007002079020008F1190008CD170008D8
:10001000ED19000881030008291B000800000000FA
:100020000000000000000000000000006D1A000841
:100030008503000800000000211A0008A11A00082A
:10004000930200089302000893020008930200083C
:10005000930200089302000893020008930200082C
:10006000930200089302000893020008930200081C
:10007000930200089302000893020008930200080C
:1000800093020008930200089302000893020008FC
:1000900093020008930200089302000893020008EC
:1000A00093020008930200089302000893020008DC
:1000B00093020008930200089302000893020008CC
:1000C00093020008930200089302000893020008BC
:1000D00093020008930200089302000893020008AC
:1000E000930200089302000893020008930200089C
:1000F000930200089302000893020008930200088C
:10010000930200089302000893020008930200087B
:10011000930200089302000893020008930200086B
:10012000930200089302000893020008930200085B
:10013000930200089302000893020008930200084B
:10014000930200089302000893020008930200083B
:10015000930200089302000893020008930200082B
:10016000930200089302000893020008930200081B
:10017000930200089302000893020008930200080B
:1001800093020008930200089302000893020008FB
:100190009302000800000000930200089302000888
:1001A00093020008930200089302000893020008DB
:1001B00093020008930200089302000893020008CB
:1001C00093020008930200089302000893020008BB
:1001D000930200089302000800F002F800F03CF8D7
:1001E0000AA090E8000C82448344AAF10107DA4592
:1001F00001D100F031F8AFF2090EBAE80F0013F0A8
:10020000010F18BFFB1A43F001031847D41900006F
:10021000F4190000103A24BF78C878C1FAD8520700
:1002200024BF30C830C144BF04680C607047000070
:100230000023002400250026103A28BF78C1FBD8EF
:10024000520728BF30C148BF0B6070471FB501F08F
:10025000B2FC1FBD10B510BD00F058F81146FFF7F5
:10026000F5FF01F08DFC00F076F803B4FFF7F2FF24
:1002700003BC00F07DF800000948804709480047AA
:10028000FEE7FEE7FEE7FEE7FEE7FEE7FEE7FEE746
:10029000FEE7FEE704480549054A064B70470000A3
:1002A000151B0008D901000870010020700700200C
:1002B00070030020700300204FF0000200B51346C9
:1002C00094469646203922BFA0E80C50A0E80C5076
:1002D000B1F12001BFF4F7AF090728BFA0E80C5027
:1002E00048BF0CC05DF804EB890028BF40F8042B20
:1002F00008BF704748BF20F8022B11F0804F18BF8D
:1003000000F8012B7047704770477047754600F042
:100310002BF8AE4605006946534620F00700854697
:1003200018B020B5FFF7B6FFBDE820404FF000063B
:100330004FF000074FF000084FF0000BAC46ACE860
:10034000C009ACE8C009ACE8C009ACE8C00921F0BC
:1003500007018D46704710B50446AFF30080204674
:10036000BDE81040FFF781BF004870471000002033
:1003700001491820ABBEFEE72600020070470000CE
:10038000FEE7000070470000EFF3108072B600BF78
:10039000FEE700002DE9F04F83B00D68002D00F05E
:1003A000C58000F138424FEAB22241F20047019283
:1003B000C4F600070622002600244FF0010AB842C6
:1003C00008BF0522009209E00D68043435FA0AF2EC
:1003D0000AF1010A06F1020600F0A880AAF1010C58
:1003E000012202FA0CFB15EA0B09EDD0D1F80480CA
:1003F00008F00305A5F1010EBEF1010F11D88768C1
:100400000322CB68B24027EA0202B3401A4382605B
:100410004268C8F3001322EA0B0203FA0CF31A43F2
:100420004260032D1CD0C26803238F68B3409A43F7
:1004300007FA06F31A43022DC26011D16FF00302CE
:1004400002EA5C02024404F01C070F23D2F820E009
:1004500003FA07F50B692EEA0505BB402B4313622F
:10046000026803234F68B3409A4307F00303B34085
:100470001A4317F4403F0260A6D041F26003C4F271
:1004800002031A6840F2004E42F001021A601A6834
:10049000C4F2010E02F001020292029A2CF0030251
:1004A0004FF608487244CFF6FF7852F8083004F04F
:1004B0000C070F25BD4023EA050C019B009D052B71
:1004C00038BF1D4605FA07F747EA0C0342F8083023
:1004D000DEF808204B6842EA090740F20C4CDD02C6
:1004E00058BF22EA0907CEF80870C4F2010CDCF804
:1004F00000209D0242EA090758BF22EA0907CCF80A
:100500000070DEF804209D0342EA090758BF22EA82
:100510000907CEF80470DEF80020DB0342EA090781
:1005200058BF22EA0907CEF800704DE703B0BDE8D6
:10053000F08F000040F26C10C2F2000000687047BB
:1005400070B590F8DD20022A04BF022070BD90F83B
:10055000DC20012A4FF0020229D080F8DD20026859
:1005600040F2FE73D2F8A0C3D1E902462CEA030C94
:10057000D1E9003E06F4806603F0020363440EF006
:100580003C052B4424F480650C692B43C2F8A4433A
:100590004D693344C2F8A8538969C2F8AC13C2F854
:1005A000A0330121002280F8DD1080F8DC20104605
:1005B00070BD000090F8DD20022A04BF02207047C1
:1005C00090F8DC20012A4FF002020FD080F8DD20E5
:1005D0000268D2F8A03323F001031943C2F8A01334
:1005E0000121002280F8DD1080F8DC2010467047E1
:1005F00090F8DC20012A4FF0020221D0012380F87C
:10060000DC3080F8DD2002684B1CD2F8CCC309D066
:100610004CF00203C2F8CC33D2F8CC3323F00C03F5
:10062000194301E02CF00201C2F8CC13D2F8CC132C
:1006300041F00101C2F8CC130121002280F8DD1045
:1006400010467047002804BF0120704710B582B0E3
:100650000446022084F8DD00207AC0074FF0000035
:10066000C4E93800C4E93A00C4E93C00C4F8F80021
:100670001FD0206846F60001C4F2010188420CD167
:1006800041F26001C4F202010A6842F080620A602D
:10069000096801F08061019101990168D4E904239E
:1006A00021F4704102F44042114403F440521144D9
:1006B0000160204600F01EF8207A800706D52068E9
:1006C000E1680268090A61F309220260012084F8E6
:1006D000DD0000206FF01B0184F8DC0062181C3183
:1006E000A829D064C2E90D00C2E90F005064F5D119
:1006F00002B010BD81B0006846F60001C4F20101ED
:10070000884201D001B0704741F26000C4F202009B
:10071000016841F080610160006800F08060009035
:10072000009801B07047000080B586B0006846F6BA
:100730000002C4F2010200219042CDE90411CDE98A
:100740000211019101D006B080BD41F24C00C4F20B
:100750000200026842F001020260006800F001003D
:10076000009000984FF4407001900220CDE9020102
:10077000032004900D20059001A94FF09040FFF751
:1007800009FE06B080BD0000F0B581B00D460446FC
:10079000FFF7D0FE2168D1F88813C90315D40646A7
:1007A0006F1C04E02068D0F88803C0030DD4002F2C
:1007B000F8D0FFF7BFFE15B1801BA842F2D9072081
:1007C00084F8DD00032001B0F0BD012084F8DD00D5
:1007D000002084F8DC0001B0F0BD000010B5044634
:1007E00090F8DD0002284FF0020008BF10BD062976
:1007F00084F8DD00204603D1114600F0FFFD01E042
:1008000000F0D4FE012084F8DD00002010BD0000BF
:1008100080B590F8DDC0BCF1020F04BF022080BD9E
:1008200090F8DCC0BCF1010F4FF0020C00F0948096
:100830004FF0010E062980F8DCE080F8DDC00ED113
:10084000511E072923D80FF20602DFE801F0041C2D
:1008500020272020202B19680268D16125E0A2F111
:10086000010CBCF1070F3BD80FF20402DFE80CF0DB
:100870000424383F3838384602681B6802EBC1113F
:10088000C1F89C305BE01968026851620DE00721F5
:1008900080F8DD10002180F8DC1006E0196802689D
:1008A000916202E019680268D16290F8DD100729B0
:1008B00004BF012080BD48E0026802EBC11CD3E9FF
:1008C000001ECCF8A410614651F8802FBEF1000F35
:1008D00022F440520A6032D00A6842EA0E0220E056
:1008E000072180F8DD10002180F8DC1027E0026885
:1008F0001B6802EBC111C1F8A83020E0026802EBCE
:10090000C11CD3E9001ECCF8AC10614651F8802F11
:10091000BEF1000F22F440420A6010D00A6842EA99
:100920008E02BEF5405F0A6006D0BEF5005F06D1BC
:100930009968CCF89C1002E09968CCF8A81090F85F
:10094000DD10072904BF012080BD01214FF0000CFC
:1009500080F8DD1080F8DCC0604680BD90F8DC20B7
:10096000012A4FF002020BD080F8DD2002681368E4
:10097000194311600121002280F8DD1080F8DC208D
:1009800010467047B0B5044690F8DD00022804BF59
:100990000220B0BD94F8DC0001284FF0020008BF2F
:1009A000B0BD012584F8DC5084F8DD00204600F05D
:1009B00081FD002084F8DD5084F8DC00B0BD00002B
:1009C00090F8DC20012A4FF002020DD080F8DD20E3
:1009D0000268D2F894331943C2F89413012100221B
:1009E00080F8DD1080F8DC201046704770B50446B2
:1009F00090F8DD00022804BF022070BD94F8DC00EE
:100A000001284FF0020008BF70BD0E4601211546B7
:100A100084F8DC10062E84F8DD00204603D1294638
:100A200000F000FD03E031462A4600F0D7FDC6EB9A
:100A3000C60004EB800095E80E1000F1200E8EE851
:100A40000E002969C0E90BC12046314600F0BAFC0E
:100A5000062E0DD0E86A58B9206800EBC610D0F811
:100A60008010EA6D21F4007141EA4221C0F8801043
:100A7000012084F8DD00002084F8DC0070BD000057
:100A800070B5044690F8DD00022804BF022070BD56
:100A900094F8DC0001284FF0020008BF70BD012669
:100AA00084F8DC6084F8DD0020460D4600F062FE2C
:100AB0002046294600F086FC002084F8DD6084F89A
:100AC000DC0070BD40F2040040F26C11C2F2000084
:100AD000C2F2000100680A68104408607047000014
:100AE00080B5032000F064F80F2000F009F800281A
:100AF0001CBF012080BD00F02FF8002080BD000049
:100B0000B0B540F20401C2F20001096801B3044625
:100B100040F20000C2F200004FF47A720068B2FBAB
:100B2000F1F1B0FBF1F000F049FC0F2C4FF00105A2
:100B30000CD858B94FF0FF3021460022002500F0B4
:100B400027F840F20800C2F2000004602846B0BD59
:100B500001252846B0BD000080B582B041F25800A2
:100B6000C4F20200816841F001018160816801F0F6
:100B7000010101910199016841F080510160006813
:100B800000F080500090009800F08EF802B080BD18
:100B900070B514460D46064600F0C8FF29462246A9
:100BA00000F028FF0146304600F0C8FF70BD00008D
:100BB00080B500F0D5FF80BDB0F5007F35D00028AE
:100BC00066D147F20000C4F200000168D0F880202E
:100BD00001F4C06122F48072B1F5806FC0F880200A
:100BE00021D10168012262F34A21016040F2000133
:100BF000C2F200010968322359434DF68363C4F2FF
:100C00001B33A1FB031302EB934100BF43694A1E50
:100C10008A4203D213F480611146F7D1406940053E
:100C200044BF032070470020704747F20000C4F221
:100C300000000168D0F8802001F4C06142F48072A5
:100C4000B1F5806FC0F88020EDD10168012262F318
:100C50004A21016040F20001C2F20001096832231A
:100C600059434DF68363C4F21B33A1FB031302EB1C
:100C7000934100BF43694A1E8A4203D213F4806144
:100C80001146F7D14069400544BF03207047CAE7C9
:100C900047F20000C4F200000168022262F34A2118
:100CA000016000207047000047F20800C4F2000015
:100CB000016841F480410160704700002DE9F04770
:100CC000002800F0CA8042F2000AC4F2020A044678
:100CD000DAF800000D4600F00F0088420DD2DAF875
:100CE000000020F00F002843CAF80000DAF80000E6
:100CF00000F00F00A84240F0B080207841F20808D0
:100D0000C007C4F202080CD14FF000092068810727
:100D10002BD4B9F1800F41D1D8F8000020F0F000B9
:100D20003AE06068022800F08C80032840F091804F
:100D300058F8080C800140F1908000F073FE4BF2EF
:100D40000041C0F2C44188420CD9D8F8000010F02C
:100D5000F00F00F08E802078800703D5A06800286F
:100D600000F087804FF000098CE0410705D5D8F8E6
:100D7000001041F4E061C8F80010000706D5D8F86B
:100D80000000072161F30D20C8F80000D8F800002A
:100D9000A16820F0F0000843C8F80000DAF800006D
:100DA00000F00F00A84219D9DAF8000020F00F0077
:100DB0002843CAF80000FFF7BDFB064641F288371A
:100DC000DAF8000000F00F00A84207D0FFF7B2FBEE
:100DD000801BB842F4D90320BDE8F08720684107A2
:100DE00007D5D8F80010E26821F4E0611143C8F893
:100DF0000010000708D5D8F80000216920F46050E1
:100E000040EAC100C8F8000000F05CF8D8F8001013
:100E100041F6D032C1F30311C0F60002515C40F23A
:100E2000000201F01F0120FA01F140F20800C2F2B5
:100E300000000068C2F200021160FFF761FEBDE829
:100E4000F08758F8080C80035CBF0120BDE8F087EC
:100E500006E058F8080C400502D40120BDE8F087F0
:100E600000F030F84BF20041C0F2C44188427FF6F6
:100E700079AFD8F80000082161F307104FF080091E
:100E8000C8F80000D8F80000616820F003000843AB
:100E9000C8F80000FFF74EFB064641F2883700BF56
:100EA000D8F80000616800F00C00B0EB810F3FF44F
:100EB0002DAFFFF73FFB801BB842F1D90320BDE8FF
:100EC000F087000041F20C01C4F2020151F8040C59
:100ED00042F20042C0F2F40200F00C000428104676
:100EE00008BF704751F8040C00F00C00082841F2CC
:100EF0000020C0F27A0021D051F8043C03F00C032A
:100F00000C2B1CBF00207047D1F800C00B680CF000
:100F1000030CC3F303130133BCF1030F08BF0246F4
:100F20000868B2FBF3F20968C0F306205043C1F32E
:100F30004161022202EB4101B0FBF1F07047000079
:100F40002DE9F04182B0002800F0018104460078CC
:100F500041F20006C007C4F2020654D1207880078F
:100F600072D42078000700F195802078400700F1C6
:100F7000B3802078800600F10081E569002D00F043
:100F80001882B06800F00C000C2840F05981012D47
:100F900000F0DD80F068216A00F003028A4240F030
:100FA000D680626A6FF00F0300F0F00103EB0212CB
:100FB000914240F0CC80A16A00F4FE42B2EB012FD6
:100FC00040F0C580E16A00F07842B2EBC16F40F0BA
:100FD000BE80226B0023CFF6E07303EB025200F4D5
:100FE000C0016FF31402914240F0B180616B4FF089
:100FF0007E4202EB016100F0C06001F07E41884258
:1010000040F0A580D5E1B06800F00C01F068082937
:1010100059D0032281F00C0122EA00000844B0FA02
:1010200080F040094FD16568B5F5A02F00F0D3805E
:10103000B5F5803F00F0D380306820F48030306018
:10104000306820F48020CDE0B068F16800F00C003A
:10105000042866D001F0030180F00C0081F0020149
:101060000844B0FA80F040095BD1E168306800299B
:1010700000F0D38040F480703060FFF75BFA0546E3
:101080003068400500F1FE80FFF754FA401B02284B
:10109000F6D930E16169D6F89400002900F0898022
:1010A00040F00100C6F89400FFF744FA054600BF7F
:1010B000D6F8940080073FF558AFFFF73BFA401B86
:1010C0000228F5D917E1306880037FF547AF6068E3
:1010D00000287FF443AF3AE0B06D10F0805808D19B
:1010E000B06D40F08050B065B06D00F08050019060
:1010F000019847F20007C4F200073868C0052AD4F7
:10110000386840F480703860FFF714FA054600BF75
:101110003868C0051FD4FFF70DFA401B0228F7D925
:10112000E9E03068400501D5E06880B17068216968
:1011300020F0FE4040EA0160706040F20800C2F218
:1011400000000068FFF7DCFC00283FF40AAF012034
:1011500002B0BDE8F081A568052D00F0B080012D3A
:1011600000F0B380D6F8900020F00100C6F890009F
:10117000D6F8900020F00400ABE0A169D6F8980002
:10118000002900F0878040F00100C6F89800FFF7C2
:10119000D1F90546D6F8980080073FF5EEAEFFF787
:1011A000C9F9401B02284FF00300F3D902B0BDE893
:1011B000F08120F00100C6F89400FFF7BBF9054666
:1011C000D6F8940080077FF5D0AEFFF7B3F9401B47
:1011D0000228F5D98FE0306840F480203060306814
:1011E00040F480303060FFF7A5F9002D054610D09F
:1011F000306880033FF5B2AEFFF79CF9401B6428CE
:10120000F6D978E0FFF796F9401B64284FF0030009
:10121000CCD830688003F5D4A0E620F4807030602C
:10122000FFF788F9054600BF306840057FF599AEA5
:10123000FFF780F9401B02284FF00300F4D9B5E70F
:10124000306820F080703060FFF774F9022D054699
:101250000CD100BF3068800167D5FFF76BF9401BE8
:1012600002284FF00300F5D9A0E700BF30688001E5
:1012700040F19880FFF75EF9401B02284FF0030011
:10128000F4D993E77068216920F0FE4040EA0160DC
:10129000706066E620F00100C6F89800FFF74AF992
:1012A000054600BFD6F8980080077FF566AEFFF7C9
:1012B00041F9401B02284FF00300F3D976E7D6F836
:1012C000900040F00400C6F89000D6F8900040F07E
:1012D0000100C6F89000FFF72DF9002D054641F2F8
:1012E000883715D0D6F89000800715D4FFF722F97B
:1012F000401BB842F6D9032002B0BDE8F08100BF20
:10130000FFF718F9401BB8424FF003003FF64EAF0D
:10131000D6F890008007F3D4B8F1000F7FF429AE1F
:10132000B06D20F08050B06523E6F06848F20C0103
:10133000C0F29F1104F1200700EA010C8ECF6FF07C
:101340000F00D4E90C5400EB02100022CFF6E0723B
:1013500041EA0C0102EB055208436FF314024FF00F
:101360007E4540EA032005EB0465104305F07E4509
:1013700040EAC7602843F060306840F08070306019
:10138000F06840F08070F060FFF7D4F804463068F1
:1013900080010ED4FFF7CEF8001B02284FF00300A7
:1013A000F5D903E7F0684FF6FC71CFF6EE6108401F
:1013B000F060002002B0BDE8F081000080B500F0D0
:1013C00057FB80BD062988BF7047006804A252F809
:1013D0002110D0F884231143C0F88413704700BF54
:1013E00002000000040000000800000010000000DF
:1013F00020000000400000000100000080B50068EF
:101400000268D1E900ECD1E9023122F01F0223F099
:1014100018031A4311430160C0F814E0C0F818C063
:1014200080BD000070B5D0F800E0DEF80020DEF8E6
:10143000A0C34B6922F0E00223F0C000202B40EA59
:10144000020306D08A69042A2BD0032A2CD0022A50
:101450002DD143F020034FF2FF30C3F2FF1001F112
:101460001C0603EA000278CE00F500601840104325
:1014700024F06E42104325F06842104326F060428B
:10148000CB6A104340EA83004A6B20F00050096B9E
:1014900010432CF480321143CEF80000CEF8A01394
:1014A00070BD43F08003D6E743F04003D3E723F059
:1014B000E003D0E72DE9F04100687F2A00EBC1147A
:1014C000A04658F8E4EF4FF0000158F82CCC00F398
:1014D0002E80013A3F2A00F24280DFE802F02039F4
:1014E0004020404040394040404040404020404043
:1014F00040404040404040404040404040394040F3
:1015000040404040404040404040404040404040DB
:101510004040404040404040404040404020D3E9AF
:101520000112C4F8BC10C4F8C020002117E0B2F5C5
:10153000007F07DB0CD0B2F5006F09D0B2F5806FE9
:10154000EDD00CE0802A03D0B2F5807FE7D006E032
:10155000D3E90112C4F8C4101021C4F8C820FE2237
:101560001D6803F10C078A40D1CF2EEA02028D409C
:101570002A438840104304FA01F2104306FA01F2AC
:10158000104307FA01F21CF0022F42EA000208BFE2
:10159000082C03D0C8F80020BDE8F081D869884045
:1015A0000243C8F80020BDE8F081000080B5006863
:1015B00000EBC110D0F88010D2E900ECD2E9023281
:1015C00021F01F0123F0180319431143C0F88010C4
:1015D000C0F894E0C0F898C080BD00002DE9F04F3D
:1015E0008CB0046804EBC110034653F8807F864634
:1015F00027F070471F601F685EF8E86F84460A9600
:101600005CF8E48F0B94D4F8A043566927F02007C8
:10161000202E47EA0607099409D09669042E00F0A7
:101620009280032E00F09380022E40F0948027F4E5
:10163000D0772037546A956D0194946A0695029488
:10164000D46AD2E9079A0394546B0494D2E90EB495
:101650000894146C0794D2E9114646F48055B5F508
:10166000F05F156D059528F4807544EA050802D1F0
:10167000BBF1400F03D128F4F05444EA0608D56CBE
:10168000546D052900940BD834A656F82160126BCE
:10169000099C0131264002FA01F141EA060400E00A
:1016A000099C4FF2FF31C0F2FF1107EA010201F578
:1016B000006101EA090111431FFA8AF211434FF652
:1016C000BF72019EC0F2006216403143029E02F1D9
:1016D000006232401143039A11434FF6BF72CFF6B6
:1016E00000621140049AB2F1005F4FF6FF72CFF62C
:1016F000026208BF01F500310BEA02063143069E83
:1017000002F5802232401143059A114319604FF6C9
:10171000C0710A9AC7F6FF711140089A02F03F02A1
:101720001144079A1143CEF8001028F48041294350
:10173000CCF800100099C0F8D4100B98C0F8A04362
:101740000CB0BDE8F08F022666F3C81772E70126D9
:1017500066F3C8176EE727F4D0776BE7FFFFFDFF4E
:10176000FFFFFBFFFFFFF7FFFFFFEFFFFFFFDFFFC5
:10177000FFFFBFFFB0B500684FF6EF7300EBC1107D
:1017800050F8EC1FCFF6EC7301EA030CD2E9001E0F
:101790000133D2E9024503EA011141EA0C012EF4BA
:1017A0004033194325F4003395691943012D41EA6B
:1017B000040109D1D2E9043221F0060123F0020329
:1017C0001943114341F001010160B0BDFEE7000083
:1017D00083B041F24C00C4F20200016841F0040100
:1017E0000160016801F0040102910299016841F071
:1017F00020010160016801F0200101910199016857
:1018000041F001010160006800F0010000900098C3
:1018100003B07047B0B5B6B000240CA86021CDE984
:101820003444CDE93244CDE93044CDE92E44CDE90C
:101830002C44CDE92A44CDE92844CDE92644CDE91C
:101840002444FEF739FD40F2700046F60001C2F272
:101850000000C4F201010B94CDE90944CDE907442D
:10186000CDE90544CDE90344CDE90144C0E90014C4
:101870008460FEF7E7FE002818BFFEF785FD40F202
:101880007000C2F200000C21FEF7B2FE002818BF63
:10189000FEF77AFD40F27000C2F200000A21FEF766
:1018A00073FF002818BFFEF76FFD0024042080217D
:1018B000CDE93004CDE933100920359040F27000B5
:1018C000C2F200002FA92F943294FEF739FE0028AF
:1018D00018BFFEF759FD4EF66020CDE92B0402201B
:1018E0002D9008202E9040F27000C2F200002BAA2A
:1018F0000021FEF773FF002818BFFEF745FD40F2F8
:1019000070000024C2F2000024AA0021249427942D
:101910002A94FFF7B5F8002818BFFEF735FD01201F
:10192000CDE910044FF00060CDE916044FF00050EF
:10193000CDE9190440F27000C2F200000CAA0021A7
:10194000CDE90E44CDE90C44CDE91244CDE914446F
:101950001894CDE91B44CDE91D44CDE92244CDE9DD
:101960002044FFF743F8002818BFFEF70DFD47F2AB
:101970003050099040F27000C2F2000009AB002123
:1019800001220025FEF744FF002818BFFEF7FCFCEB
:101990000820CDE9030540F270000424C2F20000E3
:1019A00001AB0021012201950294CDE90555CDE955
:1019B0000755FEF7E7FF002818BFFEF7E5FC40F2E9
:1019C0007000C2F2000001AB002102220494FEF775
:1019D000D9FF002818BFFEF7D7FC40F27000C2F212
:1019E0000000FEF7A1FE36B0B0BD0000FEE700002B
:1019F000FEE7000000F0070080F00703042B28BF7B
:101A000004234FF0FF3C03380CFA03F338BF0020E7
:101A1000994381400CFA00F022EA00000843704725
:101A20007047000041F20C00C4F202000168026835
:101A300042F2004301F00301C2F30312C0F2F403C7
:101A40000132032904BF41F20023C0F27A03016886
:101A5000B3FBF2F20068C1F306215143C0F34160C9
:101A6000022202EB4000B1FBF0F07047704700002B
:101A7000B0B501380024B4EB106F1CBF0120B0BD1D
:101A80004EF21005CEF2000568604FF0FF300F21D6
:101A900000F054F80720AC6028602046B0BD00007C
:101AA00080B5FFF70FF880BDB0B594B006AC204606
:101AB0003821FEF701FC00254FF400700595CDE9B3
:101AC0000355CDE90155FFF777F84FF4807109917F
:101AD00040210A91042102200F914B210690CDE96B
:101AE0000D00CDE91010CDE912002046FFF728FACD
:101AF00070B90F2001900320CDE9020501A804214F
:101B0000CDE90455FFF7DAF8002804BF14B0B0BDE2
:101B1000FEF73AFC4EF68850CEF20000016841F420
:101B20007001016070470000FEE700004EF60C50A7
:101B3000CEF200000068C0F3022070474EF6145346
:101B400000F00F02CEF2000309011A4400F16043D5
:101B5000B0F1FF3FC8BF03F5644211707047000049
:101B60004EF60C51CEF200010A684FF6FF031A4000
:101B700060F30A2242F0806040F0FD700860704718
:101B8000FEF7AEFFFFF790FFFFF722FEFFF742FEE2
:101B900040F27004C2F2000420460121FEF70AFD63
:101BA00020464FF40031FEF7D9FE20460321FEF710
:101BB00007FF00BFFEE7F1EE100A4FF6FF71C0F21B
:101BC000C03120EA010040F04070E1EE100A704799
:101BD00000000000000000000102030406070809DD
:101BE000001C000800000020100000001402000883
:101BF000101C0008100000206007000030020008E0
:101C00000024F400010000001000000000000000AB
:04000005080001D915
:00000001FF
