:020000040800F2
:10000000480A0020790200084125000871230008F1
:100010003D25000881030008B1260008000000000B
:10002000000000000000000000000000492500085A
:10003000F103000800000000452500084D250008D8
:10004000930200089302000893020008930200083C
:10005000930200089302000893020008930200082C
:10006000930200089302000893020008E5030008C9
:10007000930200089302000893020008930200080C
:1000800093020008930200089302000893020008FC
:1000900093020008930200089302000893020008EC
:1000A00093020008930200089302000893020008DC
:1000B00093020008930200089302000893020008CC
:1000C00093020008930200089302000893020008BC
:1000D00093020008930200089302000893020008AC
:1000E000930200089302000893020008930200089C
:1000F000930200089302000893020008930200088C
:10010000930200089302000893020008930200087B
:10011000930200089302000893020008930200086B
:10012000930200089302000893020008930200085B
:10013000930200089302000893020008930200084B
:10014000930200089302000893020008930200083B
:10015000930200089302000893020008930200082B
:10016000930200089302000893020008930200081B
:10017000930200089302000893020008930200080B
:1001800093020008930200089302000893020008FB
:100190009302000800000000930200089302000888
:1001A00093020008930200089302000893020008DB
:1001B00093020008930200089302000893020008CB
:1001C00093020008930200089302000893020008BB
:1001D000930200089302000800F002F800F03CF8D7
:1001E0000AA090E8000C82448344AAF10107DA4592
:1001F00001D100F031F8AFF2090EBAE80F0013F0A8
:10020000010F18BFFB1A43F00103184790250000A7
:10021000B0250000103A24BF78C878C1FAD8520738
:1002200024BF30C830C144BF04680C607047000070
:100230000023002400250026103A28BF78C1FBD8EF
:10024000520728BF30C148BF0B6070471FB502F08E
:1002500090FA1FBD10B510BD00F058F81146FFF719
:10026000F5FF02F027FA00F076F803B4FFF7F2FF8B
:1002700003BC00F07DF800000948804709480047AA
:10028000FEE7FEE7FEE7FEE7FEE7FEE7FEE7FEE746
:10029000FEE7FEE704480549054A064B70470000A3
:1002A00051250008D901000848040020480A002010
:1002B00048060020480600204FF0000200B5134613
:1002C00094469646203922BFA0E80C50A0E80C5076
:1002D000B1F12001BFF4F7AF090728BFA0E80C5027
:1002E00048BF0CC05DF804EB890028BF40F8042B20
:1002F00008BF704748BF20F8022B11F0804F18BF8D
:1003000000F8012B7047704770477047754600F042
:100310002BF8AE4605006946534620F00700854697
:1003200018B020B5FFF7B6FFBDE820404FF000063B
:100330004FF000074FF000084FF0000BAC46ACE860
:10034000C009ACE8C009ACE8C009ACE8C00921F0BC
:1003500007018D46704710B50446AFF30080204674
:10036000BDE81040FFF781BF00487047B802002089
:1003700001491820ABBEFEE72600020070470000CE
:10038000FEE7000010B5846A204600F0ADFC0120B5
:10039000207110BD10B5846A204600F0A5FB012035
:1003A000207110BD10B5846A206940F004002061FE
:1003B000204600F09DFC0120207110BD10B5846A1C
:1003C000206940F004002061204600F091FB0120EC
:1003D000207110BD806A00F089BC0000806A00F0C6
:1003E00085BB000040F29830C2F2000000F092BDE0
:1003F00070470000EFF3108072B600BFFEE7000008
:10040000F0B581B00022009290F85820012A03D163
:100410000221084601B0F0BD0123076880F858307A
:10042000BB685B0734D4D1E900531F26C3F3012412
:1004300007EB8404226B03F01F039E40B243C5F315
:10044000846606FA03F31A432263BA68BB68DB08C2
:1004500043EA9202D20740F0BC800A6807F1140315
:100460000426C2F34064D1F808E006EAD25C53F8EF
:100470002440C2F304550722AA40BEF1004F24EAEB
:1004800002040BD143F80C401A6842F000430DE01F
:10049000C16D41F02001C16501219DE10EFA05F217
:1004A000224343F80C201A6822F000437B61D1E913
:1004B0000435FC68042B5FD13A6E3A6E0B68C2F3C8
:1004C000846293FAA3F6C3F3846C6FF3DF43B6FA46
:1004D00086F5002B2C464FF6FF7E08BF6446A242ED
:1004E000C0F2070E0CD13A6E22F000423A660A685A
:1004F00002EA0E03C2F3846C92FAA2F2B2FA82F517
:100500007A6E7A6E002BC2F384622C4608BF644672
:10051000A2420CD17A6E22F000427A660A6802EAA0
:100520000E03C2F3846C92FAA2F2B2FA82F5BA6EAA
:10053000BA6E002BC2F384622C4608BF6446A24206
:100540000CD1BA6E22F00042BA660A6802EA0E03C3
:10055000C2F3846C92FAA2F2B2FA82F5FA6EFA6EE3
:10056000002BC2F3846208BF6546AA4231D1FA6EFD
:1005700022F00042FA662CE0062202EA940205FA12
:1005800002FC0E6807F1600555F823404FF20002A7
:10059000C0F2FF3206F0F846224046EA0C0632432B
:1005A00042F0004245F823200A698B6955F8226021
:1005B00026F08076334345F822300A690B7F55F8E0
:1005C0002260012B26F0007608BF06F1007645F880
:1005D0002260BA68D20750D10D68CA68D7F8B060F7
:1005E0002B466FF3DF4326EA030C4FF6FF7602F04B
:1005F0001804C0F20706E64000242E40C4F27F042F
:1006000046EA0C06A242C7F8B06036D193B195FA1B
:10061000A5F2B2FA82F2013202F01E03092B02F0B7
:100620001F0310D801229A4003EB430342EA03530D
:1006300015E000BF012202EB956202F01E030A2BB7
:1006400002F01F03EED3012200269A4003EB43037E
:10065000CFF6206606EB03531A4342F00073C3F350
:10066000406607EB86068A687569C3F3045307245E
:100670009C40A5439A402A4372610B680021C8F24E
:1006800008010B4266D040F2003EC5F2000EAEF506
:1006900000710EF580648F4204BF40F20034C5F251
:1006A00000042146B7F1A04F04BF40F20031C5F26B
:1006B00000018D680022CCF22132934205F0E07CEB
:1006C00004D01022C9F2C002934245D12A0261D45B
:1006D00040F20062C5F20002974202D0B7F1A04F8B
:1006E0005AD18A6822F0E07242EA0C0242F4000217
:1006F0008A6040F20801C2F20001096842F66352C2
:100700008909C0F23E52A1FB0212910901EB41019D
:100710000C2202EB810100910099002948D0009938
:10072000013900910099002944D0009901390091C4
:100730000099002940D000990139009100990029C1
:100740003CD0009901390091009900294FF0000137
:10075000E5D141E000213FE00022CCF25272934209
:1007600008BF15F0807219D00021CCF684318B427D
:100770004FF0000108BF15F480022DD1B7F1A04F52
:100780001FD040F20011C5F200018F4218D10021A4
:1007900022E000BF00211FE000211DE08A6822F056
:1007A000E07242EA0C0242F080728A60002113E09B
:1007B000002111E000210FE000210DE000210BE0FD
:1007C000A646DEF8081021F0E07141EA0C0141F480
:1007D0008001CEF808100021002280F85820084639
:1007E00001B0F0BDB0B582B00446002001904CB11C
:1007F000E06D58B121688868800012D48868C00014
:1008000019D54CE0012002B0B0BD00BF204600F079
:1008100023F90020206684F8580021688868800049
:10082000ECD588684FF6C072C5F6FF72104088603C
:100830008868C00033D44FF6C0728868C5F6FF726E
:1008400002F18052104000F18050886040F20800B0
:10085000C2F20000006842F663528009C0F23E52C4
:10086000A0FB02029009022202EB400001900198D5
:10087000A8B100BF019801380190019878B10198A2
:1008800001380190019850B1019801380190019808
:1008900028B101980138019001980028EAD18868B0
:1008A000C00009D4E06D40F01000E065206E40F01B
:1008B00001002066012000E000208A68E36DC2F399
:1008C000800203F01003D218E26D05D042F010014F
:1008D0000120E16502B0B0BD22F481720232E2650E
:1008E0008A68D20729D140F2001341F48072C5F220
:1008F000000340F2080C9A42C5F2000C6CD1DCF8FF
:100900000030DCF800211A43D20716D10CF1F802AE
:100910004FF4E063D4F804E0914208BF4FF4407311
:10092000B1F1A04F08BF4FF440735CF8032022F4EC
:100930007C1242EA0E024CF80320627FE36B43EA2A
:100940004232D4E902C31A4394F8243042EA0C023A
:10095000012B42EA034207D1D4F828C00023CFF686
:10096000FE7303EB4C431A43E36A33B103F4787329
:10097000D4F830C01A4342EA0C02D1F80CC044F259
:100980000703CFF6F07303EA0C031A43CA600A693F
:10099000636B22F040621A430A618A6812074AD4E4
:1009A00094F83820237F520042EA833CCB6844F21B
:1009B000020223EA020242EA0C02CA6022690B69BF
:1009C000B2B143F480330B61D1F8C0C043F6FF737A
:1009D0002CEA03031A4313E0DCF800E4DCF80025FA
:1009E000DCF8003642EA0E021A43D2078ED0A4E7A2
:1009F00023F480320A61D1F8C02043F6FF739A4392
:100A0000C1F8C02094F840300A69012B10D140F29F
:100A1000FD7322EA030CD4E91132D4E913E543EA69
:100A20000C031A4342EA0E022A4342F0010201E09B
:100A300022F001020A6162690B6B012A23F00F02A6
:100A400002D1236A013B1A430A63E16D012262F37A
:100A50000101E16502B0B0BD10B59CB004460020B4
:100A60001B90CDE91900CDE9170002A804305021F0
:100A7000FFF722FC206840F20011C5F20001884215
:100A800002D01CB010BD00BF4FF4004002904FF0E8
:100A90000050139002A800F0E7FD002818BFFFF7F0
:100AA000A9FC41F24C00C4F20200016841F400517B
:100AB0000160016801F4005101910199016841F060
:100AC00001010160006817A900F001000190019880
:100AD0000120179003201890002019904FF09040AB
:100AE00000F07AFB1CB010BD70470000704700009A
:100AF000704700002DE9F04381B0044600284FF014
:100B0000010000F0ED800D46002900F0E9806079D9
:100B100001284FF0020000F0E380A9681646012288
:100B200004296271207131D100F044FC21684A6BC4
:100B300007469EB1B2F1FF3F05DD686A486411E0E7
:100B4000486B0028F9D500F035FCC01B216802284D
:100B5000F6D3486BB0F1FF3FF2DC33E0100428D449
:100B6000686A0864886C06F0100240F2FF33934014
:100B70009843D5E90A37934018438864C86CFF232B
:100B80009340984307FA02F21043C864E969206869
:100B9000012921D1816B06F010061F222B6AB24079
:100BA000914303FA06F21143816317E0486B000496
:100BB000D6D500F0FFFBC01B21680228F6D3486B96
:100BC0000004F3D5206940F0080020610320207163
:100BD00001B0BDE8F08300BF06F01006D0F83CC0BD
:100BE000AA690721012A01FA06FE05D0022A07D1C7
:100BF0004FF0010809E000BF4FF0000805E000BF1A
:100C00006A69B2FA82F24FEA5218AB686F692979C1
:100C10004FF4007243EA08034FF4807002FA06F9B9
:100C20006A791F4301296FF4404100FA06F008BFBA
:100C300047F4807781EA0E01012A08BF47F4007764
:100C400021EA0000296820EA0900022900EA0C08CC
:100C50000AD100F0FFFF46F60101C0F68911884273
:100C600006D348F400480BE048EA010808E000BF5A
:100C70004BF20041C0F2C441884288BF48F480482A
:100C800007FA06F0216840EA0800C8634FF4804084
:100C90000A68B04022EA00000860086840F6FE7268
:100CA000B2409043D5E9032302FA06F738430860BF
:100CB000C0200F68B04027EA00000860C2F383003C
:100CC00003F03C0240EA82100A6E40F60F73B34014
:100CD0009A43B040104308660120207100206071E3
:100CE00001B0BDE8F08300007047000070470000CD
:100CF00070470000002804BF0120704710B504466B
:100D0000007920B900206071204600F007F8022029
:100D10002071002001212061217110BDF0B587B044
:100D20000446006840F60041C5F2000100268842F2
:100D30000696059602D007B0F0BD00BF41F24C0008
:100D4000C4F20200016841F400310160016801F45D
:100D5000003101910199016841F0010101600068D1
:100D600002A900F0010001900198402002900320A8
:100D7000CDE903064FF0904000F02EFA40F298358E
:100D80000820C2F20005C4F20200292110228023AB
:100D900085E8470005F110004FF4007C4FF4806EA9
:100DA000202780E808502846C5E9077600F00CF9AE
:100DB000002818BFFFF71EFBA560AC6207B0F0BDAE
:100DC000F0B581B070B30446407901284FF00200BD
:100DD00061D00D46DDF818C00121617120712DB37D
:100DE000E06840F2953740F2DD3640F2BD3E2168C2
:100DF000C0F60007C0F60006C0F6000EC0E90B768C
:100E0000C0F834E00F68BCF1040F47F080570F6062
:100E10002ED0BCF1000F14BF01F11C0C01F1140C19
:100E200028E000BF012001B0F0BD00BFA06840F283
:100E3000853E40F2D53640F2A5372168C0F6000E57
:100E4000C0F60006C0F60007C0E90BE647630F686E
:100E5000BCF1040F47F480570F6055D0BCF1000F70
:100E600014BF01F1100C01F1080C4FF4005E03E017
:100E700001F1180C4FF0005E0E6846EA0E070F6095
:100E80001146624600F036F90021617130B12169E6
:100E900041F00401216101B0F0BD00BF216805F0FF
:100EA000100001220B6802FA00F01843086040F2BB
:100EB0000800C2F20000006842F663518009C0F2E7
:100EC0003E51A0FB010102EB911000900098B8B1D7
:100ED000009801380090009890B100980138009077
:100EE000009868B1009801380090009840B10098CF
:100EF00001380090009800284FF00000E8D1CAE7C0
:100F0000002001B0F0BD00BF01F10C0C4FF4005EF9
:100F1000B2E70000B0B50268D0E910C4DCF80050B8
:100F2000136804F01F0E590714D5042101FA0EF4BA
:100F300014EA05010ED01168890603D4116821F066
:100F400004011160CCF80440016B00293AD0BDE8DF
:100F5000B0400847990719D5022101FA0EF414EAA6
:100F6000050113D01168890606D4116821F00A0121
:100F70001160012180F82510CCF80440C16A0022DC
:100F800080F82420F1B1BDE8B0400847190719D511
:100F9000082101FA0EF1294008BFB0BD116821F007
:100FA0000E011160012101FA0EF2CCF80420C16398
:100FB00080F82510416B002280F8242011B1BDE893
:100FC000B0400847B0BD000000284FF0010100F01C
:100FD0008E802DE9F04740F2000CC4F2020C036849
:100FE0004FF6F8320CF5816ECBF6FD72734538BFC3
:100FF00002F580624CF6CD441A44CCF6CC44A2FBF8
:1010000004286FF0070252FA83F2A2FB04290CF5C0
:1010100080656FF00304D0E90262D0F810A03CBFF5
:101020000025C4F2020504EA9804C0E91054022520
:1010300080F825501D6847F6F07725EA0707374303
:101040003A43476942EA0A0285693A43C7692A4333
:10105000056A3A432A431A600CF50262734538BFA9
:101060000CF50062A3180CF50862C264C9F30412FF
:1010700040F6840C01FA02F2B6F5804FC4F2020C7D
:101080008364026506D1002141601960CCF800201C
:101090001EE000BF41685FFA81FE013903294FF06D
:1010A0000001C3F800E0CCF8002011D8AEF1010235
:1010B0000CEB820747F87C1F02F01F01012202FAA5
:1010C00001F30CF1BC023946CCF8C03002E000BF9D
:1010D0000022002300F1540C8CE80E0000210122B4
:1010E000C16380F8252080F82410BDE8F047084649
:1010F000704700002DE9F04190F824C0BCF1010FC9
:1011000043D04FF0010C80F824C090F825C0BCF10A
:10111000010F37D14FF0020C80F825C04FF0000CC2
:10112000C0F83CC0D0F800C000F14C0E9EE8304042
:10113000DCF80060BEF1000F26F00106CCF800607C
:1011400065601CBFD0E916456560D0E910760125C1
:1011500006F01F068468B540D0F830807D60CCF87A
:1011600004300B46102C04BF13460A46CCF8083056
:10117000CCF80C20DCF80010B8F1000F08D041F0DA
:101180000E010DE0002180F824100220BDE8F0815E
:1011900021F00401CCF80010DCF8001041F00A0145
:1011A000CCF80010806C0168C90303D5016841F4D4
:1011B00080710160BEF1000F05D0DEF8000040F440
:1011C0008070CEF80000DCF8000040F00100CCF8A0
:1011D00000000020BDE8F0812DE9F04F84B00C68DC
:1011E0000190002C00F0E280019841F2004600F1ED
:1011F0003842C4F600068E464FEAB2270621B042B6
:1012000008BF0521052F4FF000054FF001074FF0F3
:1012100000064FF0000838BF4FEAB2210091CDF828
:1012200008E00DE0DEF8004008F1010834FA07F1AB
:1012300006F1020607F1010705F1040500F0B6808A
:10124000A7F1010A012000FA0AF214EA0209E9D022
:10125000DEF804C00CF0030BABF10104012C17D82D
:101260000198744681680323E468B3409943B4400D
:101270002143816041684FEA480E9143CCF300124C
:1012800002FA0AF20446D843114361600CE000BF41
:101290000321B140019CC843BBF1030FB64603D103
:1012A000B6464FF0030B23E0E168029B01409A68C9
:1012B000BBF1020F02FA0EF241EA0201E16017D11E
:1012C0006FF0030101EA5A01214405F01C040F22CA
:1012D000D1F820C002FA04FB1A692CEA0B0CA240D8
:1012E00042EA0C02019C0A62D3F804C00CF0030B22
:1012F00021680BFA0EF2014011432160DDF808E08D
:101300001CF4403F8ED041F26000C4F2020001683C
:1013100040F2004C41F0010101600168C4F2010C8F
:1013200001F00101039103992AF003014FF6084AE5
:101330006144CFF6FF7A05F00C030F2051F80A2024
:1013400000FA03F40098A24300FA03F31A4341F8A9
:101350000A20DCF80810DEF8042041EA090340F214
:101360000C40D40258BF21EA0903CCF80830C4F27B
:1013700001000168940241EA090358BF21EA090308
:101380000360DCF80410940341EA090358BF21EA22
:101390000903CCF80430DCF80010D20341EA090359
:1013A00058BF21EA0903CCF800303BE704B0BDE8A0
:1013B000F08F000040F24440C2F200000068704725
:1013C00040F2000040F24441C2F20000C2F20001CB
:1013D00040680A68104408607047000080B5032028
:1013E00000F08AF80F2000F009F800281CBF012047
:1013F00080BD00F02BF8002080BD000070B540F2E9
:101400000006C2F200067168E1B1044640F208002D
:10141000C2F200004FF47A720068B2FBF1F1B0FB47
:10142000F1F000F073FE0F2C4FF0010508D838B929
:101430004FF0FF3021460022002500F031F83460E3
:10144000284670BD0125284670BD000082B041F2DB
:101450005800C4F20200816841F001018160816896
:1014600001F0010101910199016841F08051016091
:10147000006800F080500090009802B000F0EAB8D8
:10148000002848BF704700F01F01012202FA01F155
:101490004EF200124009CEF2000242F820107047CE
:1014A00010B54EF60C5CCEF2000CDCF80030C3F345
:1014B000022E8EF00704042C28BF0424BEF103037F
:1014C0004FF0FF3E0EFA04F438BF0023A1439940C9
:1014D0000EFA03F39A4300F00F03043B11436344F5
:1014E00009010C3300F16042B0F1FF3FC8BF02F5C3
:1014F0006443197010BD00004EF60C51CEF200018D
:101500000A684FF6FF031A4060F30A2242F0806037
:1015100040F0FD7008607047B0F5007F48D00028AB
:1015200040F08A8047F21400C4F2000050F8141C06
:10153000C26E01F4C06122F48072B1F5806FC266A0
:1015400033D150F8141C012262F34A2140F8141CD4
:1015500040F20801C2F200010968322251434DF6FF
:101560008362C4F21B32A1FB0212910C02684B1C75
:1015700018BF12F4806213D00268002918BF12F459
:1015800080620DD00268012918BF12F4806207D072
:101590000268022904D012F48062A1F10401E5D1AD
:1015A0000068400544BF032070470020704700BF1B
:1015B00047F21400C4F2000050F8141CC26E01F48B
:1015C000C06142F48072B1F5806FC266EDD150F80F
:1015D000141C012262F34A2140F8141C40F2080155
:1015E000C2F200010968322251434DF68362C4F20F
:1015F0001B32A1FB0212910C02684B1C18BF12F4A3
:10160000806213D00268002918BF12F480620DD0E6
:101610000268012918BF12F4806207D0026802290B
:1016200004D012F48062A1F10401E5D10068400504
:1016300044BF03207047B8E747F21400C4F200002B
:1016400050F8141C022262F34A2140F8141C0020B6
:101650007047000047F20800C4F20000016841F43E
:1016600080410160704700002DE9F04182B00446DE
:10167000807841F288060007C4F2020602D40020F6
:101680002FE000BF56F8300C10F080580BD156F800
:10169000300C40F0805046F8300C56F8300C00F01A
:1016A00080500190019847F20007C4F200073868A3
:1016B00040F480703860FFF77DFE05463868C0054D
:1016C00000F10C81FFF776FE401B0228F6D90320BB
:1016D000B8F1000F05D156F8301C21F0805146F8C2
:1016E000301C2168CA0717D18A071DD44A0723D4A2
:1016F0000A0729D4CA062FD48A0635D44A063BD411
:101700000A0641D4CA0547D48A034DD48A0553D466
:101710004A0559D467E000BF3268636822F00302CB
:101720001A4332608A07E1D53268A36822F00C02BE
:101730001A4332604A07DBD53268E36822F0300290
:101740001A4332600A07D5D53268236922F0C002F5
:101750001A433260CA06CFD53268636922F44072F8
:101760001A4332608A06C9D53268A36922F44062FE
:101770001A4332604A06C3D53268E36922F4405204
:101780001A4332600A06BDD53268236A22F4404209
:101790001A433260CA05B7D53268636A22F4403210
:1017A0001A4332608A03B1D57269A36A22F0030238
:1017B0001A4372618A05ABD53268E36A22F440228B
:1017C0001A4332604A050ED53268236B22F4401268
:1017D0001A43B3F5801F326005D156F87C2C42F4D1
:1017E000801246F87C2C0A050ED53268636B22F411
:1017F00040021A43B3F5800F326005D156F87C2CB5
:1018000042F4801246F87C2CCA040ED53268A36BD1
:1018100022F040721A43B3F1807F326005D156F84E
:101820007C2C42F4801246F87C2C8A040ED5326857
:10183000E36B22F040621A43B3F1006F326005D1CE
:1018400056F87C2C42F4801246F87C2C4A040ED5C3
:101850003268236C22F040621A43B3F1006F3260A9
:1018600005D156F87C2C42F4801246F87C2C0A04F0
:101870000ED53268636C22F040521A43B3F1805F98
:10188000326005D156F87C2C42F4803246F87C2C2C
:10189000CA030ED53268A36C22F040421A43B3F15A
:1018A000804F326005D156F87C2C42F4803246F8E5
:1018B0007C2C49030ED57169E26C21F4401111436F
:1018C000B2F5001F716105D156F87C1C41F48011FE
:1018D00046F87C1C02B0BDE8F08100BFB06810F48F
:1018E000407010D0216D88420BD0B068B16820F4F0
:1018F000407041F48031B160B16821F48031B16051
:10190000B060C0070CD1B068216D20F4407008436E
:10191000B0600020B8F1000F7FF4E3AEDBE600BF5B
:10192000FFF748FD054641F2883700BFB0688007E1
:10193000E9D4FFF73FFD401BB842F7D9C7E60000E6
:101940002DE9F04700286DD042F2000AC4F2020AE5
:101950000446DAF800000D4600F00F0088420CD271
:10196000DAF8000020F00F002843CAF80000DAF887
:10197000000000F00F00A84254D1216841F208088D
:10198000C807C4F2020803D1880740F1D880BDE03F
:10199000606802283AD0032840D158F8082C9201F8
:1019A00040D5D8F80420D8F8043042F2004702F0BD
:1019B0000302C3F30313C0F2F4070133032A04BF85
:1019C00041F20027C0F27A07D8F80420B7FBF3F3FE
:1019D000D8F80470C2F306225A43C7F341630227C2
:1019E00007EB4303B2FBF3F24BF20043C0F2C443F4
:1019F0009A4261D9D8F8002012F0F00F51D089072F
:101A00005AD5A168002957D14BE000BF58F8081CEF
:101A100089035CBF0120BDE8F08707E058F8081C87
:101A2000490503D40120BDE8F08700BFD8F80010B5
:101A300001F00C0104293FD0D8F8001001F00C018E
:101A4000082939D0D8F8001001F00C010C2933D145
:101A5000D8F80410D8F8042042F2004301F0030142
:101A6000C2F30312C0F2F4030132032904BF41F2AE
:101A70000023C0F27A03D8F80410B3FBF2F2D8F8CE
:101A80000430C1F306215143C3F34162022303EB47
:101A90004202B1FBF2F14BF20042C0F2C442914269
:101AA0000AD9D8F80010082262F307114FF0010993
:101AB000C8F8001002E000BF4FF00009D8F800108D
:101AC00021F003010843C8F80000FFF773FC064645
:101AD00041F28837D8F80000616800F00C00B0EBE4
:101AE000810F07D0FFF766FC801BB842F2D90320B4
:101AF000BDE8F0872168880708D4B9F1000F1ED02F
:101B0000D8F8000020F0F00017E000BF480705D526
:101B1000D8F8000040F4E060C8F80000080706D5D7
:101B2000D8F80000072262F30D20C8F80000D8F8AA
:101B30000000A26820F0F0001043C8F80000DAF8B6
:101B4000000000F00F00A8421BD9DAF8000020F0D6
:101B50000F002843CAF80000FFF72CFC064641F2AC
:101B6000883700BFDAF8000000F00F00A84207D065
:101B7000FFF720FC801BB842F4D90320BDE8F087B2
:101B80002168480707D5D8F80000E26820F4E06033
:101B90001043C8F80000080708D5D8F800002169EC
:101BA00020F4605040EAC100C8F80000D8F80000F6
:101BB00042F20041C0F2F40100F00C000428084693
:101BC0002DD0D8F8000000F00C00082841F20020C9
:101BD000C0F27A0023D0D8F8002002F00C020C2AC0
:101BE0001CD1D8F80420D8F8043002F00302C3F363
:101BF00003130133032A08BF0146D8F80400B1FBE0
:101C0000F3F1D8F80420C0F306204843C2F3416141
:101C1000022202EB4101B0FBF1F000E00020D8F815
:101C2000001042F28C72C1F30311C0F60002515C45
:101C300040F2080201F01F0120FA01F140F2000019
:101C4000C2F200000068C2F200021160BDE8F04775
:101C5000FFF7D4BB40F20800C2F2000000687047F2
:101C60002DE9F04182B0002800F00681044600789A
:101C700041F20006C007C4F2020655D12078800761
:101C800074D42078000700F197802078400700F195
:101C9000B7802078800600F10781E569002D00F00B
:101CA0003082B06800F00C000C2840F05981012D02
:101CB00000F0E280F068216A00F003028A4240F0FE
:101CC000DB80626A6FF00F0300F0F00103EB021299
:101CD000914240F0D180A16A00F4FE42B2EB012FA4
:101CE00040F0CA80E16A00F07842B2EBC16F40F088
:101CF000C380226B0023CFF6E07303EB025200F4A3
:101D0000C0016FF31402914240F0B680616B4FF056
:101D10007E4202EB016100F0C06001F07E4188422A
:101D200040F0AA80EDE100BFB06800F00C01F0685F
:101D300008295BD0032281F00C0122EA000008444C
:101D4000B0FA80F0400951D16068B0F5803F07D00B
:101D5000B0F5A02F40F0DA80306840F48020306089
:101D6000306840F480303060DBE000BFB068F1687C
:101D700000F00C00042869D001F0030180F00C0091
:101D800081F002010844B0FA80F040095ED1E168B8
:101D90003068002900F0D28040F480703060FFF796
:101DA00009FB05463068400500F1FC80FFF702FBA7
:101DB000401B0228F6D92EE16169D6F8940000296B
:101DC00000F0908040F00100C6F89400FFF7F2FAAE
:101DD000054600BFD6F8940080073FF556AFFFF7E1
:101DE000E9FA401B0228F5D915E100BF30688003ED
:101DF0007FF544AF606800287FF440AF3CE000BF4F
:101E0000B06D10F0805808D1B06D40F08050B065D2
:101E1000B06D00F080500190019847F20007C4F2C5
:101E200000073868C0052BD4386840F480703860EB
:101E3000FFF7C0FA054600BF3868C00520D4FFF799
:101E4000B9FA401B0228F7D9E5E000BF3068400529
:101E500001D5E06880B17068216920F0FE4040EA59
:101E60000160706040F20000C2F200000068FFF7FD
:101E7000C5FA00283FF405AF012002B0BDE8F081AB
:101E8000A068012808D0052840F0AA80D6F8900064
:101E900040F00400C6F89000D6F8900040F0010031
:101EA000C6F89000A9E000BFA169D6F89800002903
:101EB00000F0808040F00100C6F89800FFF77AFA41
:101EC000054600BFD6F8980080073FF5E6AEFFF75D
:101ED00071FA401B02284FF00300F3D902B0BDE8AD
:101EE000F08100BF20F00100C6F89400FFF762FA0D
:101EF000054600BFD6F8940080077FF5C6AEFFF711
:101F000059FA401B0228F5D985E000BF3168002846
:101F100021F480313160316821F48021316000F09A
:101F20007F80FFF747FA0546306880033FF5A6AE8D
:101F3000FFF740FA401B6428F6D96CE020F480706B
:101F40003060FFF737FA0546306840057FF599AEF7
:101F5000FFF730FA401B02284FF00300F4D9BDE729
:101F6000306820F080703060FFF724FA022D0546BB
:101F70000CD100BF3068800140F17E80FFF71AFA73
:101F8000401B02284FF00300F4D9A7E73068800116
:101F900040F1B080FFF70EFA401B02284FF003001B
:101FA000F4D99BE77068216920F0FE4040EA0160A7
:101FB000706066E620F00100C6F89800FFF7FAF9B5
:101FC000054600BFD6F8980080077FF566AEFFF79C
:101FD000F1F9401B02284FF00300F3D97EE700BF60
:101FE000D6F8901021F00101C6F89010D6F89010A4
:101FF00021F00401C6F8901010B3FFF7DBF9054695
:1020000041F28837D6F8900080072BD4FFF7D2F939
:10201000401BB842F6D9032002B0BDE8F08100BFF2
:10202000FFF7C8F9054600BF306880037FF526AE8C
:10203000FFF7C0F9401B64284FF00300F4D94DE7C7
:10204000FFF7B8F9054641F2883700BFD6F890008F
:10205000800707D5FFF7AEF9401BB8424FF00300E9
:10206000F4D93BE7B8F1000F7FF413AEB06D20F068
:102070008050B0650DE600BFF06848F20C01C0F278
:102080009F1104F1200700EA010C8ECF6FF00F00C2
:10209000D4E90C5400EB02100022CFF6E07241EAC2
:1020A0000C0102EB055208436FF314024FF07E451A
:1020B00040EA032005EB0465104305F07E4540EA45
:1020C000C7602843F060306840F080703060F0688E
:1020D00040F08070F060FFF76DF9044630688001D1
:1020E0000FD4FFF767F9001B02284FF00300F5D962
:1020F000F4E600BFF0684FF6FC71CFF6EE610840E1
:10210000F060002002B0BDE8F0810000411E002018
:10211000B0EB116F1CBF012070474EF21002CEF2DF
:10212000000251604EF62351CEF20001F0230B70F5
:10213000072190601160704770B590F83C20012A2B
:102140004FF0020265D080F83D20026842F600435D
:102150005468D2F808C0C4F2010345F2000E9A4256
:10216000C4F2010E18BF72452CD14D6824F47004DE
:102170002C434FF68F75CFF6FF550E682C4042F674
:10218000FF35C4F201053443AA4254600EDC40F22C
:10219000FF73C4F200039A421CDCB2F1804F2DD0D1
:1021A00040F20043C4F2000326E000BF43F6FF7490
:1021B000C4F20104A24219DC9A421FD043F2004348
:1021C00018E000BF43F20045C4F20105AA42CCD09A
:1021D000CFE700BF40F60003C4F200039A420DD0DF
:1021E00040F60043C4F2000306E000BF724505D08C
:1021F00044F20003C4F201039A4204D189682CF02E
:102200008003194391600121002280F83D1080F87D
:102210003C20104670BD0000002804BF012070471C
:1022200010B5044690F83D0028B9002084F83C0021
:10223000204600F023F8022084F83D002068211D8C
:1022400000F090F9012084F8480084F83E0084F8FA
:102250003F0084F8400084F8410084F8420084F88C
:10226000430084F8440084F8450084F8460084F86C
:10227000470084F83D00002010BD000081B00068D8
:1022800041F20001C4F20001884201D001B0704760
:1022900041F25800C4F20200016841F010010160EF
:1022A000006800F010000090009801B07047000036
:1022B00090F83D1001291CBF01207047022180F8D1
:1022C0003D10016842F6FF30C4F2010081420DDC8E
:1022D00040F2FF70C4F20000814217DCB1F1804F80
:1022E0002CD040F20040C4F2000025E043F6FF701D
:1022F000C4F20100814215DC42F60040C4F2010044
:1023000081421BD043F2004014E000BF40F60000C1
:10231000C4F20000814211D040F60040C4F2000037
:102320000AE000BF45F20000C4F20100814205D07E
:1023300044F20000C4F20100814213D188680722F0
:10234000C0F201020240062A4FF000000FD0B2F5A1
:10235000803F08BF7047086840F001000860002017
:10236000704700BF086840F0010008600020704717
:10237000FEE70000B0B588B040F2183040F200111E
:10238000C2F20000C5F2000100244FF4403280E8A0
:1023900016000121042501624FF4B4614FF48062FC
:1023A000CDE90644C0E90344C0E90545848380F8CB
:1023B0002440C0E90B1280F83840C46380F84040E4
:1023C000FEF710FA002818BFFEF714F80220C0F23A
:1023D000304000900620CDE901047F20CDE90305BF
:1023E00040F21830C2F2000069460594FEF708F882
:1023F000002818BFFDF7FEFF08B0B0BD80B58CB057
:1024000068463021FDF758FF40F2843040F6004125
:10241000C2F20000C5F200010160FEF76BFC00286B
:1024200018BFFDF7E7FF0220009000201E21CDE934
:1024300003100121ADF8040002900590CDE90610CB
:1024400040F28430C2F2000069460022FEF752FBDF
:10245000002818BFFDF7CEFF0CB080BD80B582B05C
:1024600041F24800C4F202000168002241F0040178
:102470000160016801F0040101910199016841F0D6
:10248000010101600068002100F001000090009847
:102490000B20FFF705F80B2002B0BDE88040FEF7E7
:1024A000EFBF000083B041F24C00C4F202000168AB
:1024B00041F004010160016801F0040102910299F8
:1024C000016841F020010160016801F020010191E3
:1024D0000199016841F001010160006800F001000C
:1024E0000090009803B0704710B584B040F2F83007
:1024F00041F200010024C2F20000C4F2000142F2E5
:102500000F72C0E9001480210294C0E90242816187
:10251000FFF782FE002818BFFDF76CFF2020019016
:1025200040F2F830C2F2000001A90394FFF704FE64
:10253000002818BFFDF75EFF04B010BDFEE70000E5
:10254000FEE700007047000070470000FEF738BF4C
:102550004EF68850CEF20000016841F4700101602F
:102560007047000080B540F6FF330268C4F20003F4
:1025700043F2FF3C9842C4F2010C0BDD60452FDCB6
:1025800040F60043C4F20003984235D042F60043BF
:102590002EE000BFB0F1804F2ED040F20043C4F2D5
:1025A0000003984228D040F60003C4F2000398428A
:1025B00022D0604526DC40F2FF73C4F2000398424B
:1025C00036DD40F60003C4F20003984244D040F6E2
:1025D0000043C4F2000398423ED042F6004337E085
:1025E00045F20003C4F20103984205D043F20043D0
:1025F000C4F201039842DCD14B6822F070021A4306
:102600006045D8DD44F2FF33C4F20103984217DD80
:1026100044F20043C4F2010398421DD045F2000386
:10262000C4F20103984217D044F6000310E000BF43
:10263000B0F1804F10D040F20043C4F2000309E033
:1026400043F20043C4F20103984205D044F2000370
:10265000C4F20103984203D1CB6822F440721A43BA
:102660004B6922F0800E8A6843EA0E03D1F800C05D
:102670000360C262A0F18042A2F596324FEAB22214
:10268000092AC0F828C008D8012303FA02F240F250
:10269000E5231A421CBF09690163012141610169F7
:1026A000C90708BF80BD016921F00101016180BD3A
:1026B000FEE7000094B0FEF791FE00240020CDE973
:1026C0000B44CDE90944CDE907440594CDE9034421
:1026D000CDE90144FEF720FF4FF4807109914021BC
:1026E0000A91042102200F9155210690CDE90D0099
:1026F000CDE91010CDE9120006A8FFF7B1FA28B114
:10270000EFF3108072B600BFFEE700BF0F2001900C
:102710000320CDE9020401A80421CDE90444FFF718
:102720000FF928B1EFF3108072B600BFFEE700BFCB
:10273000FFF7B8FEFFF792FEFFF71CFEFFF75EFE05
:10274000FFF7D2FE40F2F830C2F20000FFF7B0FD12
:1027500040F2843040F20C020024C2F20000C2F2C7
:10276000000200214FF4AA730094FEF729FB00BF7A
:10277000FEE7F1EE100A4FF6FF71C0F2C03120EA19
:10278000010040F04070E1EE100A704700000000C8
:10279000000000000102030406070809C027000822
:1027A00000000020B802000014020008782A000887
:1027B000B80200209007000030020008000000006E
:1027C00010000000010000000024F4001208380886
:1027D0005E088308A908CF08F4081A093F096509AB
:1027E0008A09AF09D409F8091D0A410A660A8A0A4A
:1027F000AD0AD10AF40A170B3A0B5C0B7E0BA00B47
:10280000C20BE30B040C240C450C640C840CA30CCD
:10281000C10CE00CFD0C1B0D380D540D700D8B0D13
:10282000A60DC10DDB0DF40D0D0E260E3E0E550E40
:102830006C0E820E980EAD0EC10ED50EE90EFB0E7B
:102840000D0F1F0F300F400F500F5F0F6D0F7B0FDD
:10285000880F940FA00FAB0FB50FBF0FC80FD00F8D
:10286000D80FDF0FE50FEA0FEF0FF30FF70FFA0F97
:10287000FC0FFD0FFE0FFE0FFD0FFC0FFA0FF70F01
:10288000F30FEF0FEA0FE50FDF0FD80FD00FC80FD0
:10289000BF0FB50FAB0FA00F940F880F7B0F6D0FFD
:1028A0005F0F500F400F300F1F0F0D0FFB0EE90E83
:1028B000D50EC10EAD0E980E820E6C0E550E3E0E4C
:1028C000260E0D0EF40DDB0DC10DA60D8B0D700D3A
:1028D000540D380D1B0DFD0CE00CC10CA30C840C29
:1028E000640C450C240C040CE30BC20BA00B7E0BF8
:1028F0005C0B3A0B170BF40AD10AAD0A8A0A660A76
:10290000410A1D0AF809D409AF098A0965093F0976
:102910001A09F408CF08A90883085E0838081208C5
:10292000EC07C607A0077B0755072F070A07E40631
:10293000BF06990674064F062A060606E105BD0580
:102940009805740551052D050A05E704C404A20481
:1029500080045E043C041B04FA03DA03B9039A03FF
:102960007A035B033D031E030103E302C602AA02CE
:102970008E02730258023D0223020A02F101D801BD
:10298000C001A90192017C01660151013D012901AB
:1029900015010301F100DF00CE00BE00AE009F0074
:1029A0009100830076006A005E00530049003F00FA
:1029B00036002E0026001F00190014000F000B0027
:1029C00007000400020001000000000001000200F6
:1029D000040007000B000F00140019001F00260060
:1029E0002E0036003F00490053005E006A0076006A
:1029F000830091009F00AE00BE00CE00DF00F1001A
:102A00000301150129013D01510166017C0192017B
:102A1000A901C001D801F1010A0223023D025802B6
:102A200073028E02AA02C602E30201031E033D03E3
:102A30005B037A039A03B903DA03FA031B043C0429
:102A40005E048004A204C404E7040A052D055105B0
:102A500074059805BD05E10506062A064F067406AD
:102A60009906BF06E4060A072F0755077B07A0074C
:082A7000C607EC07000000009E
:04000005080001D915
:00000001FF
