:020000040800F2
:10000000C0060020790200083915000869140008AC
:100010003515000835030008B5160008000000007B
:100020000000000000000000000000004115000872
:1000300039030008000000003D15000845150008C0
:10004000930200089302000893020008930200083C
:10005000930200089302000893020008930200082C
:10006000930200089302000893020008930200081C
:10007000930200089302000893020008930200080C
:1000800093020008930200089302000893020008FC
:1000900093020008930200089302000893020008EC
:1000A00093020008930200089302000893020008DC
:1000B00093020008930200089302000893020008CC
:1000C00093020008930200089302000893020008BC
:1000D00093020008930200089302000893020008AC
:1000E000930200089302000893020008930200089C
:1000F000930200089302000893020008930200088C
:10010000930200089302000893020008930200087B
:1001100093020008930200085D150008930200088E
:10012000930200089302000893020008930200085B
:10013000930200089302000893020008930200084B
:10014000930200089302000893020008930200083B
:10015000930200089302000893020008930200082B
:10016000930200089302000893020008930200081B
:10017000930200089302000893020008930200080B
:1001800093020008930200089302000893020008FB
:100190009302000800000000930200089302000888
:1001A00093020008930200089302000893020008DB
:1001B00093020008930200089302000893020008CB
:1001C00093020008930200089302000893020008BB
:1001D000930200089302000800F002F800F03CF8D7
:1001E0000AA090E8000C82448344AAF10107DA4592
:1001F00001D100F031F8AFF2090EBAE80F0013F0A8
:10020000010F18BFFB1A43F00103184768150000DF
:1002100088150000103A24BF78C878C1FAD8520770
:1002200024BF30C830C144BF04680C607047000070
:100230000023002400250026103A28BF78C1FBD8EF
:10024000520728BF30C148BF0B6070471FB501F08F
:100250007CFA1FBD10B510BD00F031F81146FFF754
:10026000F5FF01F029FA00F04FF803B4FFF7F2FFB1
:1002700003BC00F057F800000948804709480047D0
:10028000FEE7FEE7FEE7FEE7FEE7FEE7FEE7FEE746
:10029000FEE7FEE704480549054A064B70470000A3
:1002A00049150008D9010008C0000020C006002040
:1002B000C0020020C002002070477047704775469A
:1002C00000F02CF8AE4605006946534620F00700C2
:1002D000854618B020B5FFF7DDFFBDE820404FF0A0
:1002E00000064FF000074FF000084FF0000BAC463F
:1002F000ACE8C009ACE8C009ACE8C009ACE8C0098A
:1003000021F007018D46704710B50446AFF3008019
:100310002046BDE81040FFF7A8BF00000048704726
:100320001000002001491820ABBEFEE726000200A5
:1003300070470000FEE7000070470000EFF31080F8
:1003400072B600BFFEE700002DE9F04F84B00C68E4
:100350000190002C00F0E280019841F2004600F18B
:100360003842C4F600068E464FEAB2270621B04254
:1003700008BF0521052F4FF000054FF001074FF092
:1003800000064FF0000838BF4FEAB2210091CDF8C7
:1003900008E00DE0DEF8004008F1010834FA07F14A
:1003A00006F1020607F1010705F1040500F0B68029
:1003B000A7F1010A012000FA0AF214EA0209E9D0C1
:1003C000DEF804C00CF0030BABF10104012C17D8CC
:1003D0000198744681680323E468B3409943B440AC
:1003E0002143816041684FEA480E9143CCF30012EB
:1003F00002FA0AF20446D843114361600CE000BFE0
:100400000321B140019CC843BBF1030FB64603D1A1
:10041000B6464FF0030B23E0E168029B01409A6867
:10042000BBF1020F02FA0EF241EA0201E16017D1BC
:100430006FF0030101EA5A01214405F01C040F2268
:10044000D1F820C002FA04FB1A692CEA0B0CA24076
:1004500042EA0C02019C0A62D3F804C00CF0030BC0
:1004600021680BFA0EF2014011432160DDF808E02B
:100470001CF4403F8ED041F26000C4F202000168DB
:1004800040F2004C41F0010101600168C4F2010C2E
:1004900001F00101039103992AF003014FF6084A84
:1004A0006144CFF6FF7A05F00C030F2051F80A20C3
:1004B00000FA03F40098A24300FA03F31A4341F848
:1004C0000A20DCF80810DEF8042041EA090340F2B3
:1004D0000C40D40258BF21EA0903CCF80830C4F21A
:1004E00001000168940241EA090358BF21EA0903A7
:1004F0000360DCF80410940341EA090358BF21EAC1
:100500000903CCF80430DCF80010D20341EA0903F7
:1005100058BF21EA0903CCF800303BE704B0BDE83E
:10052000F08F0000426902EA0103914341EA03416E
:10053000816170471823002A08BF2823C1507047E3
:1005400040F2BC00C2F200000068704740F20000B8
:1005500040F2BC01C2F20000C2F2000140680A6829
:10056000104408607047000080B5032000F08AF84E
:100570000F2000F009F800281CBF012080BD00F00A
:100580002BF8002080BD000070B540F20006C2F2DA
:1005900000067168E1B1044640F20800C2F20000B2
:1005A0004FF47A720068B2FBF1F1B0FBF1F000F0A9
:1005B00001FD0F2C4FF0010508D838B94FF0FF307E
:1005C00021460022002500F031F83460284670BD35
:1005D0000125284670BD000082B041F25800C4F2E7
:1005E0000200816841F001018160816801F0010130
:1005F00001910199016841F080510160006800F0AB
:1006000080500090009802B000F0EAB8002848BF7F
:10061000704700F01F01012202FA01F14EF20012B0
:100620004009CEF2000242F82010704710B54EF695
:100630000C5CCEF2000CDCF80030C3F3022E8EF01E
:100640000704042C28BF0424BEF103034FF0FF3E2F
:100650000EFA04F438BF0023A14399400EFA03F3C5
:100660009A4300F00F03043B1143634409010C3328
:1006700000F16042B0F1FF3FC8BF02F5644319705A
:1006800010BD00004EF60C51CEF200010A684FF684
:10069000FF031A4060F30A2242F0806040F0FD70D0
:1006A00008607047B0F5007F48D0002840F08A808D
:1006B00047F21400C4F2000050F8141CC26E01F49A
:1006C000C06122F48072B1F5806FC26633D150F8F8
:1006D000141C012262F34A2140F8141C40F2080164
:1006E000C2F200010968322251434DF68362C4F21E
:1006F0001B32A1FB0212910C02684B1C18BF12F4B2
:10070000806213D00268002918BF12F480620DD0F5
:100710000268012918BF12F4806207D0026802291A
:1007200004D012F48062A1F10401E5D10068400513
:1007300044BF032070470020704700BF47F21400F9
:10074000C4F2000050F8141CC26E01F4C06142F4FF
:100750008072B1F5806FC266EDD150F8141C012291
:1007600062F34A2140F8141C40F20801C2F2000171
:100770000968322251434DF68362C4F21B32A1FB59
:100780000212910C02684B1C18BF12F4806213D045
:100790000268002918BF12F480620DD00268012996
:1007A00018BF12F4806207D00268022904D012F444
:1007B0008062A1F10401E5D10068400544BF032037
:1007C0007047B8E747F21400C4F2000050F8141C58
:1007D000022262F34A2140F8141C002070470000F6
:1007E00047F20800C4F20000016841F48041016052
:1007F000704700002DE9F04700286DD042F2000A52
:10080000C4F2020A0446DAF800000D4600F00F00B8
:1008100088420CD2DAF8000020F00F002843CAF812
:100820000000DAF8000000F00F00A84254D121685F
:1008300041F20808C807C4F2020803D1880740F152
:10084000D880BDE0606802283AD0032840D158F82B
:10085000082C920140D5D8F80420D8F8043042F290
:10086000004702F00302C3F30313C0F2F40701339D
:10087000032A04BF41F20027C0F27A07D8F8042007
:10088000B7FBF3F3D8F80470C2F306225A43C7F358
:100890004163022707EB4303B2FBF3F24BF2004341
:1008A000C0F2C4439A4261D9D8F8002012F0F00F88
:1008B00051D089075AD5A168002957D14BE000BF14
:1008C00058F8081C89035CBF0120BDE8F08707E0E9
:1008D00058F8081C490503D40120BDE8F08700BF83
:1008E000D8F8001001F00C0104293FD0D8F800100E
:1008F00001F00C01082939D0D8F8001001F00C01E2
:100900000C2933D1D8F80410D8F8042042F200435F
:1009100001F00301C2F30312C0F2F4030132032910
:1009200004BF41F20023C0F27A03D8F80410B3FBED
:10093000F2F2D8F80430C1F306215143C3F3416207
:10094000022303EB4202B1FBF2F14BF20042C0F290
:10095000C44291420AD9D8F80010082262F3071164
:100960004FF00109C8F8001002E000BF4FF0000985
:10097000D8F8001021F003010843C8F80000FFF781
:10098000DFFD064641F28837D8F80000616800F0C4
:100990000C00B0EB810F07D0FFF7D2FD801BB842EF
:1009A000F2D90320BDE8F0872168880708D4B9F19F
:1009B000000F1ED0D8F8000020F0F00017E000BFB4
:1009C000480705D5D8F8000040F4E060C8F80000FA
:1009D000080706D5D8F80000072262F30D20C8F8F2
:1009E0000000D8F80000A26820F0F0001043C8F81A
:1009F0000000DAF8000000F00F00A8421BD9DAF876
:100A0000000020F00F002843CAF80000FFF798FD0F
:100A1000064641F2883700BFDAF8000000F00F0008
:100A2000A84207D0FFF78CFD801BB842F4D9032001
:100A3000BDE8F0872168480707D5D8F80000E268CC
:100A400020F4E0601043C8F80000080708D5D8F883
:100A50000000216920F4605040EAC100C8F800009D
:100A6000D8F8000042F20041C0F2F40100F00C009E
:100A7000042808462DD0D8F8000000F00C00082803
:100A800041F20020C0F27A0023D0D8F8002002F012
:100A90000C020C2A1CD1D8F80420D8F8043002F03B
:100AA0000302C3F303130133032A08BF0146D8F836
:100AB0000400B1FBF3F1D8F80420C0F3062048434A
:100AC000C2F34161022202EB4101B0FBF1F000E010
:100AD0000020D8F8001041F26472C1F30311C0F68F
:100AE0000002515C40F2080201F01F0120FA01F1FE
:100AF00040F20000C2F200000068C2F20002116081
:100B0000BDE8F047FFF740BD2DE9F04182B0002875
:100B100000F006810446007841F20006C007C4F2E6
:100B2000020655D12078800774D42078000700F1A0
:100B300097802078400700F1B7802078800600F188
:100B40000781E569002D00F03082B06800F00C00EC
:100B50000C2840F05981012D00F0E280F068216AF4
:100B600000F003028A4240F0DB80626A6FF00F03FC
:100B700000F0F00103EB0212914240F0D180A16A33
:100B800000F4FE42B2EB012F40F0CA80E16A00F0AF
:100B90007842B2EBC16F40F0C380226B0023CFF6E6
:100BA000E07303EB025200F4C0016FF314029142B0
:100BB00040F0B680616B4FF07E4202EB016100F0C5
:100BC000C06001F07E41884240F0AA80EDE100BFA4
:100BD000B06800F00C01F06808295BD0032281F0B6
:100BE0000C0122EA00000844B0FA80F0400951D11B
:100BF0006068B0F5803F07D0B0F5A02F40F0DA80F4
:100C0000306840F480203060306840F480303060DC
:100C1000DBE000BFB068F16800F00C00042869D088
:100C200001F0030180F00C0081F002010844B0FAE9
:100C300080F040095ED1E1683068002900F0D28080
:100C400040F480703060FFF77BFC0546306840055B
:100C500000F1FC80FFF774FC401B0228F6D92EE15E
:100C60006169D6F89400002900F0908040F00100FE
:100C7000C6F89400FFF764FC054600BFD6F8940060
:100C800080073FF556AFFFF75BFC401B0228F5D904
:100C900015E100BF306880037FF544AF606800282D
:100CA0007FF440AF3CE000BFB06D10F0805808D139
:100CB000B06D40F08050B065B06D00F08050019094
:100CC000019847F20007C4F200073868C0052BD42A
:100CD000386840F480703860FFF732FC054600BF8A
:100CE0003868C00520D4FFF72BFC401B0228F7D939
:100CF000E5E000BF3068400501D5E06880B170686C
:100D0000216920F0FE4040EA0160706040F200007E
:100D1000C2F200000068FFF737FC00283FF405AF7F
:100D2000012002B0BDE8F081A068012808D00528A4
:100D300040F0AA80D6F8900040F00400C6F8900079
:100D4000D6F8900040F00100C6F89000A9E000BF7E
:100D5000A169D6F89800002900F0808040F00100D9
:100D6000C6F89800FFF7ECFB054600BFD6F89800E0
:100D700080073FF5E6AEFFF7E3FB401B02284FF08C
:100D80000300F3D902B0BDE8F08100BF20F00100FC
:100D9000C6F89400FFF7D4FB054600BFD6F89400D0
:100DA00080077FF5C6AEFFF7CBFB401B0228F5D9C5
:100DB00085E000BF3168002821F48031316031685E
:100DC00021F48021316000F07F80FFF7B9FB0546F8
:100DD000306880033FF5A6AEFFF7B2FB401B6428E6
:100DE000F6D96CE020F480703060FFF7A9FB05466F
:100DF000306840057FF599AEFFF7A2FB401B022843
:100E00004FF00300F4D9BDE7306820F08070306007
:100E1000FFF796FB022D05460CD100BF306880011C
:100E200040F17E80FFF78CFB401B02284FF003004F
:100E3000F4D9A7E73068800140F1B080FFF780FB6C
:100E4000401B02284FF00300F4D99BE7706821692A
:100E500020F0FE4040EA0160706066E620F001008C
:100E6000C6F89800FFF76CFB054600BFD6F898005F
:100E700080077FF566AEFFF763FB401B02284FF04B
:100E80000300F3D97EE700BFD6F8901021F00101EE
:100E9000C6F89010D6F8901021F00401C6F8901012
:100EA00010B3FFF74DFB054641F28837D6F89000A6
:100EB00080072BD4FFF744FB401BB842F6D9032030
:100EC00002B0BDE8F08100BFFFF73AFB054600BF66
:100ED000306880037FF526AEFFF732FB401B6428A5
:100EE0004FF00300F4D94DE7FFF72AFB054641F226
:100EF000883700BFD6F89000800707D5FFF720FBA2
:100F0000401BB8424FF00300F4D93BE7B8F1000FA3
:100F10007FF413AEB06D20F08050B0650DE600BFD9
:100F2000F06848F20C01C0F29F1104F1200700EABA
:100F3000010C8ECF6FF00F00D4E90C5400EB0210BF
:100F40000022CFF6E07241EA0C0102EB05520843A1
:100F50006FF314024FF07E4540EA032005EB046571
:100F6000104305F07E4540EAC7602843F0603068D2
:100F700040F080703060F06840F08070F060FFF703
:100F8000DFFA0446306880010FD4FFF7D9FA001B5E
:100F900002284FF00300F5D9F4E600BFF0684FF6E1
:100FA000FC71CFF6EE610840F060002002B0BDE8B1
:100FB000F0810000411E0020B0EB116F1CBF01202A
:100FC00070474EF21002CEF2000251604EF62351ED
:100FD000CEF20001F0230B70072190601160704782
:100FE0007047000070470000704700007047000025
:100FF000704700007047000070B590F83C20012A4F
:101000004FF0020265D080F83D20026842F60043AE
:101010005468D2F808C0C4F2010345F2000E9A42A7
:10102000C4F2010E18BF72452CD14D6824F470042F
:101030002C434FF68F75CFF6FF550E682C4042F6C5
:10104000FF35C4F201053443AA4254600EDC40F27D
:10105000FF73C4F200039A421CDCB2F1804F2DD022
:1010600040F20043C4F2000326E000BF43F6FF74E1
:10107000C4F20104A24219DC9A421FD043F2004399
:1010800018E000BF43F20045C4F20105AA42CCD0EB
:10109000CFE700BF40F60003C4F200039A420DD030
:1010A00040F60043C4F2000306E000BF724505D0DD
:1010B00044F20003C4F201039A4204D189682CF07F
:1010C0008003194391600121002280F83D1080F8CF
:1010D0003C20104670BD000070470000002804BF8F
:1010E0000120704710B5044690F83D0028B9002053
:1010F00084F83C00204600F023F8022084F83D00EC
:101100002068211D00F030FA012084F8480084F89E
:101110003E0084F83F0084F8400084F8410084F8E1
:10112000420084F8430084F8440084F8450084F8C1
:10113000460084F8470084F83D00002010BD000000
:1011400080B582B0006841F20001C4F2000188421B
:101150001CBF02B080BD41F25800C4F20200016819
:10116000002241F0100101600068002100F0100031
:10117000019001983620FFF759FA362002B0BDE8F9
:101180008040FFF743BA000090F83D1001291CBFD2
:1011900001207047022180F83D10016842F6FF32BD
:1011A000C868C4F20102914240F00100C8600DDC41
:1011B00040F2FF70C4F20000814217DCB1F1804FB1
:1011C0002CD040F20040C4F2000025E043F6FF704E
:1011D000C4F20100814215DC42F60040C4F2010075
:1011E00081421BD043F2004014E000BF40F60000F3
:1011F000C4F20000814211D040F60040C4F2000069
:101200000AE000BF45F20000C4F20100814205D0AF
:1012100044F20000C4F20100814213D18868072221
:10122000C0F201020240062A4FF000000FD0B2F5D2
:10123000803F08BF7047086840F001000860002048
:10124000704700BF086840F0010008600020704748
:1012500070470000F0B581B004460068C7680669B1
:1012600006EA0705A90739D468074DD4280763D4CF
:10127000E8067AD4E80740F0928017F0800718BF9C
:1012800016F4025040F09980002F18BF16F48070B9
:1012900040F0A080680600F1A780A80600F1AE80AB
:1012A000E80200F1B580A80200F1BC80680206D512
:1012B00020686FF4800101612046FFF79BFE280241
:1012C0005CBF01B0F0BD21686FF4000220460A61E6
:1012D00001B0BDE8F040FFF7FFBE00BF6FF00201B4
:1012E0000161012121778069800703D02046FFF743
:1012F000AFFF05E0204600F0A1F8204600F0A0F87E
:10130000002020776807B1D520686FF004010161E3
:1013100002212177806910F4407F03D02046FFF737
:1013200097FF05E0204600F089F8204600F088F895
:101330000020207728079BD520686FF00801016105
:1013400004212177C069800704D02046FFF780FF81
:1013500006E000BF204600F071F8204600F070F86B
:1013600000202077E8067FF585AF20686FF0100138
:10137000016108212177C06910F4407F04D0204624
:10138000FFF766FF06E000BF204600F057F8204652
:1013900000F056F800202077E8073FF46EAF206891
:1013A0006FF001010161204600F04CF817F0800752
:1013B00018BF16F402503FF467AF20686FF4025173
:1013C00001612046FFF70EFE002F18BF16F4807053
:1013D0003FF460AF20686FF4807101612046FFF731
:1013E000FFFD68067FF559AF20686FF0400101618D
:1013F000204600F037F8A8067FF552AF20686FF05E
:10140000200101612046FFF7EFFDE8027FF54BAFB9
:1014100020686FF4801101612046FFF7E9FDA80202
:101420007FF544AF20686FF4001101612046FFF79B
:10143000DDFD68027FF543AF3AE70000704700002A
:1014400070470000006841F20001C4F200018842C8
:1014500018BF704740F60000C4F600000121FFF7F6
:1014600061B8000070470000FEE7000070B586B06C
:10147000002541F24C000595C4F20200016840F6D7
:10148000000441F0040101600168C4F6000401F0A9
:101490000401009100990168002241F020010160DF
:1014A0000168012601F0200100910099016841F0D6
:1014B000010101600068012100F001000090009826
:1014C0002046FFF737F801A92046CDE90166CDE9AE
:1014D0000355FEF739FF06B070BD000010B584B0AB
:1014E00040F2700041F20001C2F20000C4F20001BB
:1014F000002442F20F7244F2672380E81600802134
:101500000294C3608161FFF7E9FD002818BFFEF770
:1015100015FF2020019040F27000C2F2000001A9E6
:101520000394FFF769FD002818BFFEF707FF04B01A
:1015300010BD0000FEE70000FEE70000704700005D
:1015400070470000FFF702B84EF68850CEF2000058
:10155000016841F4700101607047000040F27000C2
:10156000C2F20000FFF776BE80B540F6FF33026896
:10157000C4F2000343F2FF3C9842C4F2010C0BDDBD
:1015800060452FDC40F60043C4F20003984235D09A
:1015900042F600432EE000BFB0F1804F2ED040F263
:1015A0000043C4F20003984228D040F60003C4F27E
:1015B0000003984222D0604526DC40F2FF73C4F25B
:1015C0000003984236DD40F60003C4F2000398425F
:1015D00044D040F60043C4F2000398423ED042F6A5
:1015E000004337E045F20003C4F20103984205D0FE
:1015F00043F20043C4F201039842DCD14B6822F06D
:1016000070021A436045D8DD44F2FF33C4F201038F
:10161000984217DD44F20043C4F2010398421DD002
:1016200045F20003C4F20103984217D044F60003C8
:1016300010E000BFB0F1804F10D040F20043C4F280
:10164000000309E043F20043C4F20103984205D0CD
:1016500044F20003C4F20103984203D1CB6822F4A0
:1016600040721A434B6922F0800E8A6843EA0E03E7
:10167000D1F800C00360C262A0F18042A2F59632A8
:101680004FEAB222092AC0F828C008D8012303FA79
:1016900002F240F2E5231A421CBF096901630121ED
:1016A00041610169C90708BF80BD016921F00101DD
:1016B000016180BDFEE7000094B0FEF755FF0024F5
:1016C0000020CDE90B44CDE90944CDE90744059458
:1016D000CDE90344CDE90144FEF7E4FF4FF4807106
:1016E000099140210A91042102200F915521069071
:1016F000CDE90D00CDE91010CDE9120006A8FFF7E5
:1017000003FA28B1EFF3108072B600BFFEE700BF06
:101710000F2001900320CDE9020401A80421CDE9A6
:101720000444FFF767F828B1EFF3108072B600BFEA
:10173000FEE700BFFFF79AFEFFF7D0FE40F2700011
:10174000C2F20000FFF720FDFEE7F1EE100A4FF6AF
:10175000FF71C0F2C03120EA010040F04070E1EEBC
:10176000100A70470000000000000000010203049E
:101770000607080998170008000000201000000064
:1017800014020008A817000810000020B00600008E
:1017900030020008000000001000000001000000FE
:0817A0000024F4000000000029
:04000005080001D915
:00000001FF
