:020000040800F2
:10000000780600207902000845100008CD0F00088E
:1000100041100008350300086910000800000000C6
:100020000000000000000000000000004D1000086B
:1000300039030008000000004910000851100008B2
:10004000930200089302000893020008930200083C
:10005000930200089302000893020008930200082C
:10006000930200089302000893020008930200081C
:10007000930200089302000893020008930200080C
:1000800093020008930200089302000893020008FC
:1000900093020008930200089302000893020008EC
:1000A00093020008930200089302000893020008DC
:1000B00093020008930200089302000893020008CC
:1000C00093020008930200089302000893020008BC
:1000D00093020008930200089302000893020008AC
:1000E000930200089302000893020008930200089C
:1000F000930200089302000893020008930200088C
:10010000930200089302000893020008930200087B
:10011000930200089302000893020008930200086B
:10012000930200089302000893020008930200085B
:10013000930200089302000893020008930200084B
:10014000930200089302000893020008930200083B
:10015000930200089302000893020008930200082B
:10016000930200089302000893020008930200081B
:10017000930200089302000893020008930200080B
:1001800093020008930200089302000893020008FB
:100190009302000800000000930200089302000888
:1001A00093020008930200089302000893020008DB
:1001B00093020008930200089302000893020008CB
:1001C00093020008930200089302000893020008BB
:1001D000930200089302000800F002F800F03CF8D7
:1001E0000AA090E8000C82448344AAF10107DA4592
:1001F00001D100F031F8AFF2090EBAE80F0013F0A8
:10020000010F18BFFB1A43F001031847380F000015
:10021000580F0000103A24BF78C878C1FAD85207A6
:1002200024BF30C830C144BF04680C607047000070
:100230000023002400250026103A28BF78C1FBD8EF
:10024000520728BF30C148BF0B6070471FB500F090
:1002500064FF1FBD10B510BD00F031F81146FFF767
:10026000F5FF00F003FF00F04FF803B4FFF7F2FFD3
:1002700003BC00F057F800000948804709480047D0
:10028000FEE7FEE7FEE7FEE7FEE7FEE7FEE7FEE746
:10029000FEE7FEE704480549054A064B70470000A3
:1002A00055100008D90100087800002078060020C9
:1002B000780200207802002070477047704775462A
:1002C00000F02CF8AE4605006946534620F00700C2
:1002D000854618B020B5FFF7DDFFBDE820404FF0A0
:1002E00000064FF000074FF000084FF0000BAC463F
:1002F000ACE8C009ACE8C009ACE8C009ACE8C0098A
:1003000021F007018D46704710B50446AFF3008019
:100310002046BDE81040FFF7A8BF00000048704726
:100320001000002001491820ABBEFEE726000200A5
:1003300070470000FEE7000070470000B0B50446BB
:1003400000F004F9054640F20000C2F200004068E7
:10035000611C18BF044400BF00F0F8F8401BA04225
:10036000FAD3B0BD2DE9F04F84B00C680190002C99
:1003700000F0E280019841F2004600F13842C4F6F4
:1003800000068E464FEAB2270621B04208BF05217B
:10039000052F4FF000054FF001074FF000064FF01A
:1003A000000838BF4FEAB2210091CDF808E00DE017
:1003B000DEF8004008F1010834FA07F106F1020600
:1003C00007F1010705F1040500F0B680A7F1010A65
:1003D000012000FA0AF214EA0209E9D0DEF804C0AA
:1003E0000CF0030BABF10104012C17D801987446F3
:1003F00081680323E468B3409943B440214381609A
:1004000041684FEA480E9143CCF3001202FA0AF217
:100410000446D843114361600CE000BF0321B140A2
:10042000019CC843BBF1030FB64603D1B6464FF05B
:10043000030B23E0E168029B01409A68BBF1020FC5
:1004400002FA0EF241EA0201E16017D16FF00301F6
:1004500001EA5A01214405F01C040F22D1F820C002
:1004600002FA04FB1A692CEA0B0CA24042EA0C02C5
:10047000019C0A62D3F804C00CF0030B21680BFA4C
:100480000EF2014011432160DDF808E01CF4403F0A
:100490008ED041F26000C4F20200016840F2004CCC
:1004A00041F0010101600168C4F2010C01F0010199
:1004B000039103992AF003014FF6084A6144CFF6ED
:1004C000FF7A05F00C030F2051F80A2000FA03F41C
:1004D0000098A24300FA03F31A4341F80A20DCF81B
:1004E0000810DEF8042041EA090340F20C40D4026F
:1004F00058BF21EA0903CCF80830C4F201000168B2
:10050000940241EA090358BF21EA09030360DCF8B9
:100510000410940341EA090358BF21EA0903CCF807
:100520000430DCF80010D20341EA090358BF21EA85
:100530000903CCF800303BE704B0BDE8F08F0000C1
:100540001823002A08BF2823C150704740F27000CA
:10055000C2F200000068704740F2000040F27001F3
:10056000C2F20000C2F2000140680A68104408604C
:100570007047000080B5032000F07AF80F2000F0EB
:1005800009F800281CBF012080BD00F02BF80020D6
:1005900080BD000070B540F20006C2F2000671682E
:1005A000E1B1044640F20800C2F200004FF47A7252
:1005B0000068B2FBF1F1B0FBF1F000F0F1FC0F2CA0
:1005C0004FF0010508D838B94FF0FF30214600221E
:1005D000002500F021F83460284670BD012528462A
:1005E00070BD000082B041F25800C4F20200816880
:1005F00041F001018160816801F0010101910199DF
:10060000016841F080510160006800F08050009066
:10061000009802B000F0DAB810B54EF60C5CCEF2DD
:10062000000CDCF80030C3F3022E8EF00704042C1B
:1006300028BF0424BEF103034FF0FF3E0EFA04F47A
:1006400038BF0023A14399400EFA03F39A4300F008
:100650000F03043B1143634409010C3300F1604272
:10066000B0F1FF3FC8BF02F56443197010BD000030
:100670004EF60C51CEF200010A684FF6FF031A4005
:1006800060F30A2242F0806040F0FD70086070471D
:10069000B0F5007F48D0002840F08A8047F214006F
:1006A000C4F2000050F8141CC26E01F4C06122F4C0
:1006B0008072B1F5806FC26633D150F8141C0122EC
:1006C00062F34A2140F8141C40F20801C2F2000112
:1006D0000968322251434DF68362C4F21B32A1FBFA
:1006E0000212910C02684B1C18BF12F4806213D0E6
:1006F0000268002918BF12F480620DD00268012937
:1007000018BF12F4806207D00268022904D012F4E4
:100710008062A1F10401E5D10068400544BF0320D7
:1007200070470020704700BF47F21400C4F2000079
:1007300050F8141CC26E01F4C06142F48072B1F52D
:10074000806FC266EDD150F8141C012262F34A2179
:1007500040F8141C40F20801C2F20001096832227C
:1007600051434DF68362C4F21B32A1FB0212910C7D
:1007700002684B1C18BF12F4806213D00268002973
:1007800018BF12F480620DD00268012918BF12F45C
:10079000806207D00268022904D012F48062A1F1BD
:1007A0000401E5D10068400544BF03207047B8E765
:1007B00047F21400C4F2000050F8141C022262F345
:1007C0004A2140F8141C00207047000047F208003E
:1007D000C4F20000016841F48041016070470000EC
:1007E0002DE9F04700286DD042F2000AC4F2020A57
:1007F0000446DAF800000D4600F00F0088420CD2E3
:10080000DAF8000020F00F002843CAF80000DAF8F8
:10081000000000F00F00A84254D1216841F20808FE
:10082000C807C4F2020803D1880740F1D880BDE0B0
:10083000606802283AD0032840D158F8082C920169
:1008400040D5D8F80420D8F8043042F2004702F02E
:100850000302C3F30313C0F2F4070133032A04BFF6
:1008600041F20027C0F27A07D8F80420B7FBF3F36F
:10087000D8F80470C2F306225A43C7F34163022733
:1008800007EB4303B2FBF3F24BF20043C0F2C44365
:100890009A4261D9D8F8002012F0F00F51D08907A0
:1008A0005AD5A168002957D14BE000BF58F8081C61
:1008B00089035CBF0120BDE8F08707E058F8081CF9
:1008C000490503D40120BDE8F08700BFD8F8001027
:1008D00001F00C0104293FD0D8F8001001F00C0100
:1008E000082939D0D8F8001001F00C010C2933D1B7
:1008F000D8F80410D8F8042042F2004301F00301B4
:10090000C2F30312C0F2F4030132032904BF41F21F
:100910000023C0F27A03D8F80410B3FBF2F2D8F83F
:100920000430C1F306215143C3F34162022303EBB8
:100930004202B1FBF2F14BF20042C0F2C4429142DA
:100940000AD9D8F80010082262F307114FF0010904
:10095000C8F8001002E000BF4FF00009D8F80010FE
:1009600021F003010843C8F80000FFF7EFFD064639
:1009700041F28837D8F80000616800F00C00B0EB55
:10098000810F07D0FFF7E2FD801BB842F2D90320A8
:10099000BDE8F0872168880708D4B9F1000F1ED0A0
:1009A000D8F8000020F0F00017E000BF480705D598
:1009B000D8F8000040F4E060C8F80000080706D549
:1009C000D8F80000072262F30D20C8F80000D8F81C
:1009D0000000A26820F0F0001043C8F80000DAF828
:1009E000000000F00F00A8421BD9DAF8000020F048
:1009F0000F002843CAF80000FFF7A8FD064641F2A1
:100A0000883700BFDAF8000000F00F00A84207D0D6
:100A1000FFF79CFD801BB842F4D90320BDE8F087A6
:100A20002168480707D5D8F80000E26820F4E060A4
:100A30001043C8F80000080708D5D8F8000021695D
:100A400020F4605040EAC100C8F80000D8F8000067
:100A500042F20041C0F2F40100F00C000428084604
:100A60002DD0D8F8000000F00C00082841F200203A
:100A7000C0F27A0023D0D8F8002002F00C020C2A31
:100A80001CD1D8F80420D8F8043002F00302C3F3D4
:100A900003130133032A08BF0146D8F80400B1FB51
:100AA000F3F1D8F80420C0F306204843C2F34161B3
:100AB000022202EB4101B0FBF1F000E00020D8F887
:100AC000001041F23412C1F30311C0F60002515C70
:100AD00040F2080201F01F0120FA01F140F200008B
:100AE000C2F200000068C2F200021160BDE8F047E7
:100AF000FFF750BD2DE9F04182B0002800F00681DB
:100B00000446007841F20006C007C4F2020655D13F
:100B10002078800774D42078000700F1978020782F
:100B2000400700F1B7802078800600F10781E56971
:100B3000002D00F03082B06800F00C000C2840F06E
:100B40005981012D00F0E280F068216A00F0030273
:100B50008A4240F0DB80626A6FF00F0300F0F00120
:100B600003EB0212914240F0D180A16A00F4FE42F0
:100B7000B2EB012F40F0CA80E16A00F07842B2EB9C
:100B8000C16F40F0C380226B0023CFF6E07303EB0C
:100B9000025200F4C0016FF31402914240F0B6809B
:100BA000616B4FF07E4202EB016100F0C06001F02A
:100BB0007E41884240F0AA80EDE100BFB06800F0BD
:100BC0000C01F06808295BD0032281F00C0122EAB5
:100BD00000000844B0FA80F0400951D16068B0F5D7
:100BE000803F07D0B0F5A02F40F0DA80306840F4A5
:100BF00080203060306840F480303060DBE000BF3F
:100C0000B068F16800F00C00042869D001F003011D
:100C100080F00C0081F002010844B0FA80F0400935
:100C20005ED1E1683068002900F0D28040F4807025
:100C30003060FFF78BFC05463068400500F1FC8012
:100C4000FFF784FC401B0228F6D92EE16169D6F833
:100C50009400002900F0908040F00100C6F8940054
:100C6000FFF774FC054600BFD6F8940080073FF5F7
:100C700056AFFFF76BFC401B0228F5D915E100BF0A
:100C8000306880037FF544AF606800287FF440AF90
:100C90003CE000BFB06D10F0805808D1B06D40F05E
:100CA0008050B065B06D00F080500190019847F21F
:100CB0000007C4F200073868C0052BD4386840F438
:100CC00080703860FFF742FC054600BF3868C005F9
:100CD00020D4FFF73BFC401B0228F7D9E5E000BF1A
:100CE0003068400501D5E06880B17068216920F066
:100CF000FE4040EA0160706040F20000C2F2000075
:100D00000068FFF747FC00283FF405AF012002B060
:100D1000BDE8F081A068012808D0052840F0AA802D
:100D2000D6F8900040F00400C6F89000D6F8900085
:100D300040F00100C6F89000A9E000BFA169D6F814
:100D40009800002900F0808040F00100C6F898006B
:100D5000FFF7FCFB054600BFD6F8980080073FF57B
:100D6000E6AEFFF7F3FB401B02284FF00300F3D978
:100D700002B0BDE8F08100BF20F00100C6F8940089
:100D8000FFF7E4FB054600BFD6F8940080077FF527
:100D9000C6AEFFF7DBFB401B0228F5D985E000BF9C
:100DA0003168002821F480313160316821F48021DC
:100DB000316000F07F80FFF7C9FB05463068800393
:100DC0003FF5A6AEFFF7C2FB401B6428F6D96CE0E6
:100DD00020F480703060FFF7B9FB054630684005AD
:100DE0007FF599AEFFF7B2FB401B02284FF00300DE
:100DF000F4D9BDE7306820F080703060FFF7A6FBC3
:100E0000022D05460CD100BF3068800140F17E8084
:100E1000FFF79CFB401B02284FF00300F4D9A7E723
:100E20003068800140F1B080FFF790FB401B022842
:100E30004FF00300F4D99BE77068216920F0FE4071
:100E400040EA0160706066E620F00100C6F8980094
:100E5000FFF77CFB054600BFD6F8980080077FF5BA
:100E600066AEFFF773FB401B02284FF00300F3D977
:100E70007EE700BFD6F8901021F00101C6F890106F
:100E8000D6F8901021F00401C6F8901010B3FFF7C7
:100E90005DFB054641F28837D6F8900080072BD4D9
:100EA000FFF754FB401BB842F6D9032002B0BDE85F
:100EB000F08100BFFFF74AFB054600BF30688003A2
:100EC0007FF526AEFFF742FB401B64284FF003007E
:100ED000F4D94DE7FFF73AFB054641F2883700BFEA
:100EE000D6F89000800707D5FFF730FB401BB842CB
:100EF0004FF00300F4D93BE7B8F1000F7FF413AED5
:100F0000B06D20F08050B0650DE600BFF06848F28B
:100F10000C01C0F29F1104F1200700EA010C8ECFF2
:100F20006FF00F00D4E90C5400EB02100022CFF652
:100F3000E07241EA0C0102EB055208436FF3140220
:100F40004FF07E4540EA032005EB0465104305F0B1
:100F50007E4540EAC7602843F060306840F080700A
:100F60003060F06840F08070F060FFF7EFFA044600
:100F7000306880010FD4FFF7E9FA001B02284FF018
:100F80000300F5D9F4E600BFF0684FF6FC71CFF628
:100F9000EE610840F060002002B0BDE8F081000082
:100FA000411E0020B0EB116F1CBF012070474EF2B4
:100FB0001002CEF2000251604EF62351CEF2000133
:100FC000F0230B700721906011607047FEE700006E
:100FD00070B586B0002541F24C000595C4F20200C0
:100FE000016840F6000441F0040101600168C4F6A4
:100FF000000401F00401009100990168002241F011
:10100000200101600168012601F020010091009992
:10101000016841F0010101600068012100F0010058
:10102000009000982046FFF78BFA01A92046CDE9F1
:101030000166CDE90355FFF795F906B070BD0000D4
:10104000FEE70000FEE70000704700007047000068
:10105000FFF782BA4EF68850CEF20000016841F4E4
:101060007001016070470000FEE7000094B0FFF7D8
:1010700081FA00240020CDE90B44CDE90944CDE9F3
:1010800007440594CDE90344CDE90144FFF700FB93
:101090004FF48071099140210A91042102200F919F
:1010A00055210690CDE90D00CDE91010CDE91200D3
:1010B00006A8FFF71FFD28B1EFF3108072B600BF3E
:1010C000FEE700BF0F2001900320CDE9020401A834
:1010D0000421CDE90444FFF783FB28B1EFF310802E
:1010E00072B600BFFEE700BF40F60004C4F600047D
:1010F000FFF76EFF204601210022FFF721FA4FF48F
:101100007A70FFF71BF9204601210122FFF718FA38
:101110004FF47A70FFF712F9ECE7F1EE100A4FF690
:10112000FF71C0F2C03120EA010040F04070E1EEF2
:10113000100A7047000000000000000001020304D4
:1011400006070809681100080000002010000000D0
:101150001402000878110008100000206806000042
:101160003002000800000000100000000100000034
:081170000024F400000000005F
:04000005080001D915
:00000001FF
