:020000040800F2
:10000000800700207902000889260008C92200081C
:1000100085260008F10400080929000800000000F6
:10002000000000000000000000000000052700089C
:10003000F504000800000000B92600083927000870
:10004000930200089302000893020008930200083C
:10005000930200089302000893020008930200082C
:10006000930200089302000893020008930200081C
:10007000930200089302000893020008930200080C
:1000800093020008930200089302000893020008FC
:1000900093020008930200089302000893020008EC
:1000A00093020008930200089302000893020008DC
:1000B00093020008930200089302000893020008CC
:1000C00093020008930200089302000893020008BC
:1000D00093020008930200089302000893020008AC
:1000E000930200089302000893020008930200089C
:1000F000930200089302000893020008930200088C
:10010000930200089302000893020008930200087B
:10011000930200089302000893020008930200086B
:10012000930200089302000893020008930200085B
:10013000930200089302000893020008930200084B
:10014000930200089302000893020008930200083B
:10015000930200089302000893020008930200082B
:10016000930200089302000893020008930200081B
:10017000930200089302000893020008930200080B
:1001800093020008930200089302000893020008FB
:100190009302000800000000930200089302000888
:1001A00093020008930200089302000893020008DB
:1001B00093020008930200089302000893020008CB
:1001C00093020008930200089302000893020008BB
:1001D000930200089302000800F002F800F03CF8D7
:1001E0000AA090E8000C82448344AAF10107DA4592
:1001F00001D100F031F8AFF2090EBAE80F0013F0A8
:10020000010F18BFFB1A43F001031847F82700003D
:1002100018280000103A24BF78C878C1FAD85207CD
:1002200024BF30C830C144BF04680C607047000070
:100230000023002400250026103A28BF78C1FBD8EF
:10024000520728BF30C148BF0B6070471FB502F08E
:10025000C4FB1FBD10B510BD00F058F81146FFF7E4
:10026000F5FF02F07DFB00F076F803B4FFF7F2FF34
:1002700003BC00F07DF800000948804709480047AA
:10028000FEE7FEE7FEE7FEE7FEE7FEE7FEE7FEE746
:10029000FEE7FEE704480549054A064B70470000A3
:1002A000AD270008D9010008800100208007002048
:1002B00080030020800300204FF0000200B51346A9
:1002C00094469646203922BFA0E80C50A0E80C5076
:1002D000B1F12001BFF4F7AF090728BFA0E80C5027
:1002E00048BF0CC05DF804EB890028BF40F8042B20
:1002F00008BF704748BF20F8022B11F0804F18BF8D
:1003000000F8012B7047704770477047754600F042
:100310002BF8AE4605006946534620F00700854697
:1003200018B020B5FFF7B6FFBDE820404FF000063B
:100330004FF000074FF000084FF0000BAC46ACE860
:10034000C009ACE8C009ACE8C009ACE8C00921F0BC
:1003500007018D46704710B50446AFF30080204674
:10036000BDE81040FFF781BF004870471000002033
:1003700001491820ABBEFEE72600020070470000CE
:10038000B0B50446006801F0E1FF21680546084663
:1003900001F0E0FF01464FF000007DBB002908BFDF
:1003A000B0BD2068816801F00D0101291BD101F069
:1003B0008DFF20680321016000F09AFF21688968A1
:1003C000C90704BF0020B0BD054603E0206880686F
:1003D000C00712D000F08CFF401B0328F6D3206822
:1003E0008068C007F2D0E06D40F01000E065206E3C
:1003F00040F0010020660120B0BD0020B0BD00002B
:10040000B0B582B0002501950446006801F0A2FF56
:10041000002869D120683F228168C8F20002114299
:1004200009D0E06D012540F01000E065206E40F03D
:100430000100206658E001F05BFF40F20012C5F2B7
:100440000002216802F500731846914218BF02F5B8
:10045000C060B1F1A04F08BF184601F05DFF000277
:1004600026D400F045FF21680A68D20739D1054635
:1004700004E000BF21680868C00734D1084601F0D5
:1004800069FF10B9206801F033FF00F031FF401B15
:100490000328EFD320680068C007EBD1E06D012589
:1004A00040F01000E065206E40F0010020661BE087
:1004B00040F20000C2F20000006842F66351800979
:1004C000C0F23E51A0FB0101880900EB40000C2165
:1004D00001EB8000019001980028C2D001980138FA
:1004E000F8E7002500E00025284602B0B0BD000076
:1004F000FEE7000070470000EFF3108072B600BF07
:10050000FEE7000070B582B004460020019094F828
:100510005800012801D1022533E0012084F8580059
:1005200020460E46FFF72CFF0546E06D15B140F062
:10053000100022E041F2021188430230E065206899
:10054000314601F09DFF4DF60266C0F2040600BF81
:10055000206801F0F3FE60B101980130019001982C
:10056000B042F5D3E06D012540F0100020F002000C
:1005700003E0E06D012161F30100E065002084F8F3
:100580005800284602B070BD2DE9F04383B0044600
:1005900090F85800012803D1022003B0BDE8F08391
:1005A0000E460120002184F8580002910191206834
:1005B00040F20015B0F1A04FC5F200050AD040F29C
:1005C0000041C5F20001884207D105F58060002195
:1005D00031B10EE0284619B10BE00020012141B9EC
:1005E00001F0C8FE21680746084601F0C3FE384303
:1005F0000AD0E06D40F02000E0650120002184F881
:10060000581003B0BDE8F08320684FF4C16731682B
:10061000A84208BF4FF40277B0F1A04F08BF4FF4D3
:100620000277EA59002922F4604118D0726894F8E0
:100630003830114340F4807041EA4331A842E95117
:100640001CD14FF0A04001F089FE8146284601F000
:1006500085FE804658EA090023D00020CEE740F40A
:100660008070A842E95125D14FF0A04001F076FEFC
:100670000646284601F072FE80462BE005F54070E4
:1006800001F06CFE804605F5806001F067FE48EAE7
:10069000000805F5A06001F061FE814658EA0900F6
:1006A000DBD1E85940F61F7188433168B2680843CE
:1006B000104318E005F5407001F050FE064605F5C0
:1006C000806001F04BFE40EA060805F5A06001F0ED
:1006D00045FE064658EA060001D000208EE7E8599C
:1006E00040F61F718843E851002087E72DE9F0416B
:1006F00082B004460020019094F85800012801D1EE
:100700000221BCE120680D46012184F8581001F057
:100710002DFE28B1E06D012140F02000E065ABE145
:100720002068D5E9002101F029FE206801F01EFEB5
:1007300021680646084601F0FDFD304340F0B880D0
:10074000AB68296803F10040B0FA80F047092068DF
:10075000B3F1004218BF1A46FE0701F02DFE2068D3
:10076000314601F087FE206829696B69C268042957
:1007700040F088804FF6FF770021C0F2070701F0B4
:10078000D3FD216806460846002101F0CDFD720325
:1007900090FAA0F12A68B1FA81F108BFC0F3846130
:1007A00092FAA2F0B0FA80F0530308BFC2F384605B
:1007B000814203D12068002101F054FE206801210C
:1007C00001F0B2FD216806460846012101F0ACFDAA
:1007D00090FAA0F12A68B1FA81F13E4208BFC0F355
:1007E000846192FAA2F0B0FA80F03A4208BFC2F3F4
:1007F0008460814203D12068012101F033FE20682A
:10080000022101F091FD216806460846022101F00F
:100810008BFD90FAA0F12A68B1FA81F13E4208BF3F
:10082000C0F3846192FAA2F0B0FA80F03A4208BFB5
:10083000C2F38460814203D12068022101F012FEDC
:100840002068032101F070FD216806460846032157
:1008500001F06AFD90FAA0F12A68B1FA81F13E42F6
:1008600008BFC0F3846192FAA2F0B0FA80F03A4275
:1008700008BFC2F3846081421AD12068032101F0CD
:10088000F1FD15E0062707EA92072A68BB4001F050
:10089000C7FD20682969AA6901F0DCFD2A7F20686C
:1008A000013AB2FA82F229695209520601F0CAFDF0
:1008B000206801F04FFD00284DD120682968EA68C2
:1008C00001F08CFDE8680021C4F27F01884242D12A
:1008D000D5F800E04FF080619EFAAEF27346B2FAAE
:1008E00082F76FF3DF433A462068002B08BF4FEAD8
:1008F0009E62561C01EB826106F01E0C01F0F8426C
:1009000006F01F010126BCF1090F06FA01F60DD809
:1009100042EA0601002B08BF4FEA9E677A1C02F0EC
:100920001F0202EB420241EA025111E0002B08BF14
:100930004FEA9E67791C01F01F01002301EB410182
:10094000CFF6206303EB01513243114341F00071B4
:10095000AA6801F031FD688848F20801084274D0A5
:1009600040F20036C5F20006216806F58067A6F55C
:1009700000783846414504BF40F20030C5F200001F
:10098000B1F1A04F04BF40F20030C5F2000001F009
:10099000C3FC29680022CCF22132914204D01022FB
:1009A000C9F2C002914234D1020232D4216840F22D
:1009B0000062C5F20002914202D0B1F1A04F44D1D1
:1009C000414508BF3746B1F1A04F08BF374640F454
:1009D0000001384601F01EFD40F20000C2F20000A6
:1009E000006842F663518009C0F23E51A0FB01014C
:1009F000880900EB40000C2101EB80000190019878
:100A000018B300BF01980138019001980028F9D16E
:100A10001BE00022CCF25272914208BF10F08072AB
:100A200015D00022CCF6843291424FF0000108BF6D
:100A300010F4800220D12168B1F1A04F16D040F20D
:100A40000012C5F2000291420DD1002114E021688C
:100A5000414508BF3746B1F1A04F08BF374640F0C7
:100A60008071384605E0414518BF3E4640F480019C
:100A7000304601F0CFFC0021002084F858000846E1
:100A800002B0BDE8F08100000068006C7047000013
:100A90002DE9F04182B0044600200190CCB1E06D18
:100AA00030B9204600F006F90020206684F858008E
:100AB000206801F047FC10B1206801F011FC2068AB
:100AC00001F050FC38B1206801F04CFCE8B1002581
:100AD00024E00125D5E0206801F014FC40F200007C
:100AE000C2F20000006842F663518009C0F23E5134
:100AF000A0FB01018809022101EB4000019001984F
:100B00000028E0D001980138F8E7E06D012540F0B9
:100B10001000E065206E40F001002066206801F0C2
:100B200025FCE16D01F010010843E06D03D040F0B9
:100B300010000125A4E020F481700230E0652068F7
:100B400001F008FC20BB206840F20018C5F2000844
:100B500040F48070404540F098804FF0A04001F094
:100B6000F9FB0646404601F0F5FB074657EA06004A
:100B70000ED108F50072D4E900311046434518BF84
:100B800008F5C060B3F1A04F08BF104601F03CFC6F
:100B9000607FE16B41EA4030D4E90221084394F8D8
:100BA00024101043012940EA014106D1A06A002225
:100BB000CFF6FE7202EB40400143E06A28B100F438
:100BC0007870226B084340EA02012068626BC368B8
:100BD00044F20707CFF6F0773B401943C160016943
:100BE00021F040611143016101F0A4FBC8BB94F8FE
:100BF0003800217F400040EA813220682169C368C3
:100C000044F20207BB431A43C260026949B142F48D
:100C100080320261D0F8C02043F6FF739A4311433B
:100C200007E022F480310161D0F8C01043F6FF7272
:100C30009143C0F8C01094F840200169012A0DD1F9
:100C400040F2FD7204F1440791438CCF266D1143AD
:100C500019433943314341F0010101E021F0010121
:100C6000016120686169026B012922F00F0102D144
:100C7000226A013A11430163E06D012161F3010031
:100C8000E065284602B0BDE8F08108F5407001F04B
:100C900061FB064608F5806001F05CFB40EA060750
:100CA00008F5A06001F056FB064657EA06007FF4FF
:100CB0006FAF5EE710B596B0044601A85421FFF768
:100CC000FBFA2068B0F1A04F01D016B010BD4FF470
:100CD000004001904FF00050129001A800F0CEFCAF
:100CE000002818BFFFF708FC41F24C00C4F20200D4
:100CF000016841F400510160006800F40050009068
:100D0000009816B010BD0000F0B581B040F2004769
:100D1000C5F2000701680446A7F54070A7F5807288
:100D20008142104618BF07F54070B1F1A04F08BFCF
:100D3000104601F0F5FA21680646084601F016FB58
:100D400008B102255FE094F85800012801D102257E
:100D500059E0012084F858002046FFF751FB054672
:100D600018B1002084F858004DE02068E16D40F68D
:100D70000172914340F20012C5F2000240F2005CA1
:100D800001F580719042C5F2000CE16504D0034684
:100D9000604508BF3B4601E04FF0A043002E18BF5E
:100DA000834203D1E16D21F48011E165E16D0023FF
:100DB000C9044FF0000144BF216E21F006012166F5
:100DC0001C219042016084F8583006D003466045EB
:100DD00008BF3B46834204D10BE04FF0A04383425F
:100DE00007D0092E12D80121B14040F22123194227
:100DF0000CD0C168890104D5E16D012262F30D3187
:100E0000E16501F0CFFA284601B0F0BDE16D9042F6
:100E100041F48011E16503D0604508BF384601E028
:100E20004FF0A040C0688001EDD5E06D012161F375
:100E30000D30E065E7E700002DE9F04381B004469E
:100E400000284FF0010000F0ED800D46002900F071
:100E5000E980607901284FF0020000F0E380A96882
:100E60001646012204296271207133D100F040FA44
:100E700021684A6B0746A6B1B2F1FF3F06DD686AFA
:100E8000486412E02168486B0028F8D500F030FA79
:100E9000C01B0228F6D32068406BB0F1FF3FF1DCA5
:100EA00045E010043AD4686A0864206806F010022D
:100EB000816C40F2FF3393409943D5E90A37934060
:100EC00019438164C16CFF239340994307FA02F2EE
:100ED0001143C164E86901280BD1206806F01002B3
:100EE000816B1F232F6A9340994307FA02F2114343
:100EF0008163206806F01006D0F83CC0AA6907217B
:100F0000012A01FA06FE1BD0022A1CD14FF001086B
:100F10001EE000BF2168486B0004C4D500F0E8F96A
:100F2000C01B0228F6D32068406B0004F2D520696C
:100F300040F0080020610320207101B0BDE8F0837B
:100F40004FF0000804E06A69B2FA82F24FEA5218E0
:100F5000AB686F6929794FF4007243EA08034FF4D4
:100F6000807002FA06F96A791F4301296FF4404143
:100F700000FA06F008BF47F4807781EA0E01012AE3
:100F800008BF47F4007721EA0000296820EA090039
:100F9000022900EA0C080AD100F0F8FD46F601012A
:100FA000C0F68911884205D348F400480AE048EAAF
:100FB000010807E04BF20041C0F2C441884288BFFB
:100FC00048F4804807FA06F0216840EA0800C86340
:100FD0004FF480400A68B04022EA000008600868C8
:100FE00040F6FE72B2409043D5E9032302FA06F7B9
:100FF00038430860C0200F68B04027EA000008604E
:10100000C2F3830003F03C0240EA82100A6E40F60D
:101010000F73B3409A43B04010430866012020711B
:101020000020607101B0BDE8F0830000002804BF1B
:101030000120704710B50446007920B90020607186
:10104000204600F007F802202071002001212061D5
:10105000217110BD81B0006841F20001C5F20001AC
:10106000884201D001B0704741F24C00C4F2020046
:10107000016841F480210160006800F48020009044
:10108000009801B07047000081B04FF0000CCDF81F
:1010900000C088B1D0F800C00029DCF83C00CDF8D1
:1010A00000C00098104414BF14300830009000981D
:1010B0000360002001B07047012001B070470000BC
:1010C00010B581B030B34279012A4FF002023CD012
:1010D0004FF0010E80F805E00271026801F0100C7B
:1010E00013680EFA0CF42343136040F20003C2F2BB
:1010F00000031B6842F663549B09C0F23E54A3FBF5
:1011000004340EEB941300BF0093009B23B1009BAB
:10111000013BF9E7012218E0136851B103F478119B
:10112000022303FA0CF399420BD1516841F00201FA
:1011300006E003F03E01022903D1516841F00101AC
:1011400051600121002201714271104601B010BDB1
:101150002DE9F04F83B00D68002D00F0C58000F13F
:1011600038424FEAB22241F200470192C4F600072A
:101170000622002600244FF0010AB84208BF0522CB
:10118000009209E00D68043435FA0AF20AF1010A06
:1011900006F1020600F0A880AAF1010C012202FA71
:1011A0000CFB15EA0B09EDD0D1F8048008F003051B
:1011B000A5F1010EBEF1010F11D887680322CB689B
:1011C000B24027EA0202B3401A4382604268C8F381
:1011D000001322EA0B0203FA0CF31A434260032DB8
:1011E0001CD0C26803238F68B3409A4307FA06F302
:1011F0001A43022DC26011D16FF0030202EA5C02B1
:10120000024404F01C070F23D2F820E003FA07F58C
:101210000B692EEA0505BB402B43136202680323CA
:101220004F68B3409A4307F00303B3401A4317F4DF
:10123000403F0260A6D041F26003C4F202031A6884
:1012400040F2004E42F001021A601A68C4F2010E28
:1012500002F001020292029A2CF003024FF60848B3
:101260007244CFF6FF7852F8083004F00C070F25CF
:10127000BD4023EA050C019B009D052B38BF1D4690
:1012800005FA07F747EA0C0342F80830DEF80820B1
:101290004B6842EA090740F20C4CDD0258BF22EAD3
:1012A0000907CEF80870C4F2010CDCF800209D029A
:1012B00042EA090758BF22EA0907CCF80070DEF8B5
:1012C00004209D0342EA090758BF22EA0907CEF825
:1012D0000470DEF80020DB0342EA090758BF22EA67
:1012E0000907CEF800704DE703B0BDE8F08F0000AD
:1012F00040F27C10C2F200000068704740F2040027
:1013000040F27C11C2F20000C2F2000100680A68DB
:10131000104408607047000080B5032000F064F8B6
:101320000F2000F009F800281CBF012080BD00F04C
:101330002FF8002080BD0000B0B540F20401C2F2D9
:101340000001096801B3044640F20000C2F2000047
:101350004FF47A720068B2FBF1F1B0FBF1F000F0EB
:1013600097FE0F2C4FF001050CD858B94FF0FF3005
:1013700021460022002500F027F840F20800C2F2C2
:10138000000004602846B0BD01252846B0BD00001D
:1013900080B582B041F25800C4F20200816841F089
:1013A00001018160816801F00101019101990168E9
:1013B00041F080510160006800F08050009000987A
:1013C00000F052F902B080BD70B514460D460646D5
:1013D00001F09CFA2946224601F058F901463046B0
:1013E00001F09CFA70BD000080B501F0A9FA80BD43
:1013F000F0B581B040B1044690F83A00052803D01A
:1014000094F83A00022802D1012001B0F0BD41F267
:101410006000C4F20200016843F6116641F0010168
:1014200001600068CEF2000600F001000090009814
:1014300094F83A00002804BF002084F839002046C0
:1014400000F05AF8A16841F02000602814D1D4E9D6
:1014500000020368E56A23F010032B43036003686E
:101460000A433340267D42EA030C711EB1FA81F132
:1014700049094FEA012E16E0D4E90002D4F80CC065
:101480000568E36A25F010052B43036003680A43EF
:101490003340267D1A43711EB1FA81F149094FEAA2
:1014A000012E4CEA020C2169D4E9093741EA0C010A
:1014B0001943D4E90C6541EA0E01394341EAC641BA
:1014C000226841EA056101609069002809D49069A9
:1014D00004F118078ACF20F03F000843184338432F
:1014E000906194F83A00002804BF012084F83A0083
:1014F000002001B0F0BD000080B586B0006840F269
:101500000032C4F2010200219042CDE90411CDE97C
:101510000211019101D006B080BD41F24C00C4F22D
:101520000200026842F001020260006800F001005F
:1015300000900098082001900320CDE9020101A944
:101540004FF09040FFF704FE06B080BD88B190F8E0
:101550003A1005290DD090F83A10012909D10168F7
:101560000A6842F001020A60042180F83A10002063
:101570007047012070470000B0F5007F35D000288B
:1015800066D147F20000C4F200000168D0F8802064
:1015900001F4C06122F48072B1F5806FC0F8802040
:1015A00021D10168012262F34A21016040F2000169
:1015B000C2F200010968322359434DF68363C4F235
:1015C0001B33A1FB031302EB934100BF43694A1E87
:1015D0008A4203D213F480611146F7D14069400575
:1015E00044BF032070470020704747F20000C4F258
:1015F00000000168D0F8802001F4C06142F48072DC
:10160000B1F5806FC0F88020EDD10168012262F34E
:101610004A21016040F20001C2F200010968322350
:1016200059434DF68363C4F21B33A1FB031302EB52
:10163000934100BF43694A1E8A4203D213F480617A
:101640001146F7D14069400544BF03207047CAE7FF
:1016500047F20000C4F200000168022262F34A214E
:10166000016000207047000047F20800C4F200004B
:10167000016841F480410160704700002DE9F043AA
:1016800081B08146807841F288070007C4F20207E2
:1016900001D4002565E057F8300C10F080580BD1CC
:1016A00057F8300C40F0805047F8300C57F8300CA9
:1016B00000F080500090009847F20004C4F200044B
:1016C000206840F480702060FFF712FE054600BFDE
:1016D000206810F4807607D1FFF70AFE401B03282C
:1016E000F6D3032516B933E000258EB3B86810F49D
:1016F000407012D0D9F8501088420BD0B868B96841
:1017000020F4407041F48031B960B96821F480312F
:10171000B960B860C00703D111E00020C0070ED047
:10172000FFF7E6FD064641F2893400BFB86880073E
:1017300005D4FFF7DDFD801BA042F7D303253DB99B
:10174000B868D9F8501020F4407008430025B860FC
:10175000B8F1000F05D157F8300C20F0805047F851
:10176000300CD9F80000C10716D181071DD44107FC
:1017700024D401072BD4C10632D4810639D44106C2
:1017800040D4010647D4C1054ED4810355D4810508
:101790005CD4410563D472E03968D9F8042021F0A3
:1017A0000301114339608107E1D53968D9F8082070
:1017B00021F00C01114339604107DAD53968D9F8B5
:1017C0000C2021F03001114339600107D3D539686D
:1017D000D9F8102021F0C00111433960C106CCD5E1
:1017E0003968D9F8142021F4407111433960810619
:1017F000C5D53968D9F8182021F440611143396002
:101800004106BED53968D9F81C2021F44051114356
:1018100039600106B7D53968D9F8202021F4404154
:1018200011433960C105B0D53968D9F8242021F4B5
:101830004031114339608103A9D57969D9F828204D
:1018400021F00301114379618105A2D53968D9F8E6
:101850002C2021F440211143396041050FD539680E
:10186000D9F8302021F440111143B2F5801F3960BE
:1018700005D157F87C1C41F4801147F87C1C010508
:101880000FD53968D9F8342021F440011143B2F55D
:10189000800F396005D157F87C1C41F4801147F85E
:1018A0007C1CC1040FD53968D9F8382021F040716B
:1018B0001143B2F1807F396005D157F87C1C41F4A7
:1018C000801147F87C1C81040FD53968D9F83C2079
:1018D00021F040611143B2F1006F396005D157F832
:1018E0007C1C41F4801147F87C1C41040FD53968F9
:1018F000D9F8402021F040611143B2F1006F396006
:1019000005D157F87C1C41F4801147F87C1C010478
:101910000FD53968D9F8442021F040511143B2F174
:10192000805F396005D157F87C1C41F4803147F85D
:101930007C1CC1030FD53968D9F8482021F04041FB
:101940001143B2F1804F396005D157F87C1C41F446
:10195000803147F87C1C40030FD57869D9F84C10CA
:1019600020F440100843B1F5001F786105D157F805
:101970007C0C40F4801047F87C0C284601B0BDE890
:10198000F08300002DE9F047002800F0CA8042F201
:10199000000AC4F2020A0446DAF800000D4600F01C
:1019A0000F0088420DD2DAF8000020F00F00284323
:1019B000CAF80000DAF8000000F00F00A84240F07A
:1019C000B080207841F20808C007C4F202080CD1A8
:1019D0004FF00009206881072BD4B9F1800F41D165
:1019E000D8F8000020F0F0003AE06068022800F02B
:1019F0008C80032840F0918058F8080C800140F159
:101A0000908000F05BFE4BF20041C0F2C44188427E
:101A10000CD9D8F8000010F0F00F00F08E8020787C
:101A2000800703D5A068002800F087804FF00009E8
:101A30008CE0410705D5D8F8001041F4E061C8F802
:101A40000010000706D5D8F80000072161F30D202B
:101A5000C8F80000D8F80000A16820F0F0000843A2
:101A6000C8F80000DAF8000000F00F00A84219D909
:101A7000DAF8000020F00F002843CAF80000FFF752
:101A800037FC064641F28837DAF8000000F00F0014
:101A9000A84207D0FFF72CFC801BB842F4D90320E2
:101AA000BDE8F0872068410707D5D8F80010E26844
:101AB00021F4E0611143C8F80010000708D5D8F8F8
:101AC0000000216920F4605040EAC100C8F800001D
:101AD00000F062F8D8F8001042F6F412C1F30311D6
:101AE000C0F60002515C40F2000201F01F0120FA32
:101AF00001F140F20800C2F200000068C2F20002E8
:101B00001160FFF719FCBDE8F08758F8080C800356
:101B10005CBF0120BDE8F08706E058F8080C4005DE
:101B200002D40120BDE8F08700F036F84BF2004106
:101B3000C0F2C44188427FF679AFD8F8000008218E
:101B400061F307104FF08009C8F80000D8F80000D2
:101B5000616820F003000843C8F80000FFF7C8FBE5
:101B6000064641F2883700BFD8F80000616800F0EF
:101B70000C00B0EB810F3FF42DAFFFF7B9FB801BDA
:101B8000B842F1D90320BDE8F087000040F2000020
:101B9000C2F200000068704741F20C01C4F2020179
:101BA00051F8040C42F20042C0F2F40200F00C00C2
:101BB0000428104608BF704751F8040C00F00C00D0
:101BC000082841F20020C0F27A0021D051F8043CEC
:101BD00003F00C030C2B1CBF00207047D1F800C091
:101BE0000B680CF0030CC3F303130133BCF1030FB8
:101BF00008BF02460868B2FBF3F20968C0F306208A
:101C00005043C1F34161022202EB4101B0FBF1F00C
:101C1000704700002DE9F04182B0002800F00181FA
:101C20000446007841F20006C007C4F2020654D10F
:101C30002078800772D42078000700F19580207802
:101C4000400700F1B3802078800600F10081E5694B
:101C5000002D00F01882B06800F00C000C2840F055
:101C60005981012D00F0DD80F068216A00F0030247
:101C70008A4240F0D680626A6FF00F0300F0F001F4
:101C800003EB0212914240F0CC80A16A00F4FE42C4
:101C9000B2EB012F40F0C580E16A00F07842B2EB70
:101CA000C16F40F0BE80226B0023CFF6E07303EBE0
:101CB000025200F4C0016FF31402914240F0B1806F
:101CC000616B4FF07E4202EB016100F0C06001F0F9
:101CD0007E41884240F0A580D5E1B06800F00C015B
:101CE000F068082959D0032281F00C0122EA000093
:101CF0000844B0FA80F040094FD16568B5F5A02FCF
:101D000000F0D380B5F5803F00F0D380306820F438
:101D100080303060306820F48020CDE0B068F16819
:101D200000F00C00042866D001F0030180F00C00E4
:101D300081F002010844B0FA80F040095BD1E1680B
:101D40003068002900F0D38040F480703060FFF7E5
:101D5000CFFA05463068400500F1FE80FFF7C8FA6B
:101D6000401B0228F6D930E16169D6F894000029B9
:101D700000F0898040F00100C6F89400FFF7B8FA3F
:101D8000054600BFD6F8940080073FF558AFFFF72F
:101D9000AFFA401B0228F5D917E1306880037FF5C0
:101DA00047AF606800287FF443AF3AE0B06D10F0B1
:101DB000805808D1B06D40F08050B065B06D00F033
:101DC00080500190019847F20007C4F2000738687C
:101DD000C0052AD4386840F480703860FFF788FA6C
:101DE000054600BF3868C0051FD4FFF781FA401BC5
:101DF0000228F7D9E9E03068400501D5E06880B1F4
:101E00007068216920F0FE4040EA0160706040F295
:101E10000800C2F200000068FFF78EFA00283FF4C5
:101E20000AAF012002B0BDE8F081A568052D00F0E1
:101E3000B080012D00F0B380D6F8900020F00100B2
:101E4000C6F89000D6F8900020F00400ABE0A1693D
:101E5000D6F89800002900F0878040F00100C6F80D
:101E60009800FFF745FA0546D6F8980080073FF539
:101E7000EEAEFFF73DFA401B02284FF00300F3D906
:101E800002B0BDE8F08120F00100C6F89400FFF731
:101E90002FFA0546D6F8940080077FF5D0AEFFF7FD
:101EA00027FA401B0228F5D98FE0306840F48020E3
:101EB0003060306840F480303060FFF719FA002D50
:101EC000054610D0306880033FF5B2AEFFF710FA38
:101ED000401B6428F6D978E0FFF70AFA401B642813
:101EE0004FF00300CCD830688003F5D4A0E620F48E
:101EF00080703060FFF7FCF9054600BF3068400590
:101F00007FF599AEFFF7F4F9401B02284FF003006C
:101F1000F4D9B5E7306820F080703060FFF7E8F959
:101F2000022D05460CD100BF3068800167D5FFF750
:101F3000DFF9401B02284FF00300F5D9A0E700BFEE
:101F40003068800140F19880FFF7D2F9401B0228E9
:101F50004FF00300F4D993E77068216920F0FE4048
:101F600040EA0160706066E620F00100C6F8980063
:101F7000FFF7BEF9054600BFD6F8980080077FF549
:101F800066AEFFF7B5F9401B02284FF00300F3D906
:101F900076E7D6F8900040F00400C6F89000D6F836
:101FA000900040F00100C6F89000FFF7A1F9002D65
:101FB000054641F2883715D0D6F89000800715D431
:101FC000FFF796F9401BB842F6D9032002B0BDE8EE
:101FD000F08100BFFFF78CF9401BB8424FF00300BF
:101FE0003FF64EAFD6F890008007F3D4B8F1000F5B
:101FF0007FF429AEB06D20F08050B06523E6F06824
:1020000048F20C01C0F29F1104F1200700EA010C14
:102010008ECF6FF00F00D4E90C5400EB02100022B9
:10202000CFF6E07241EA0C0102EB055208436FF370
:1020300014024FF07E4540EA032005EB046510438F
:1020400005F07E4540EAC7602843F060306840F004
:1020500080703060F06840F08070F060FFF748F901
:102060000446306880010ED4FFF742F9001B0228B5
:102070004FF00300F5D903E7F0684FF6FC71CFF697
:10208000EE610840F060002002B0BDE8F081000081
:1020900080B500F039FB80BD70B590F83C20012A76
:1020A0004FF0020264D0012380F83C3080F83D20DC
:1020B000026842F600435468D2F808C0C4F2010333
:1020C00045F2000E9A42C4F2010E18BF72452AD1A1
:1020D0004D6824F470042C434FF68F75CFF6FF55EE
:1020E0000E682C4042F6FF35C4F201053443AA4283
:1020F00054600DDC40F2FF73C4F200039A4219DC15
:10210000B2F1804F29D040F20043C4F2000322E034
:1021100043F6FF74C4F20104A24216DC9A421CD0BA
:1021200043F2004315E043F20045C4F20105AA4220
:10213000CED0D1E740F60003C4F200039A420CD09F
:1021400040F60043C4F2000305E0724505D044F2B6
:102150000003C4F201039A4204D189682CF0800381
:10216000194391600121002280F83D1080F83C2045
:10217000104670BD002804BF0120704710B504460A
:1021800090F83D0028B9002084F83C00204600F07B
:1021900023F8022084F83D002068211D00F010FB88
:1021A000012084F8480084F83E0084F83F0084F859
:1021B000400084F8410084F8420084F8430084F829
:1021C000440084F8450084F8460084F8470084F809
:1021D0003D00002010BD000081B0006841F2000108
:1021E000C4F20001884201D001B0704741F25800AA
:1021F000C4F20200016841F010010160006800F0C3
:1022000010000090009801B07047000090F83D1059
:1022100001291CBF01207047022180F83D10016890
:1022200042F6FF30C4F2010081420DDC40F2FF7043
:10223000C4F20000814216DCB1F1804F2AD040F296
:102240000040C4F2000023E043F6FF70C4F2010036
:10225000814213DC42F60040C4F20100814219D0F1
:1022600043F2004012E040F60000C4F20000814258
:1022700010D040F60040C4F2000009E045F2000032
:10228000C4F20100814205D044F20000C4F2010012
:10229000814212D188680722C0F201020240062A58
:1022A0004FF000000ED0B2F5803F08BF70470868BD
:1022B00040F00100086000207047086840F001000D
:1022C0000860002070470000FEE7000081684FF6BC
:1022D000C072C7F6FF721140023181607047000082
:1022E00081684FF6C072C5F6FF7211408160704779
:1022F00081684FF6C072C7F6FF72114001318160EC
:102300007047000081684FF6C072C6F6FF72114038
:1023100001F1805181607047806800F0E070704783
:10232000806800F01F00704700EB8100006E00F035
:10233000F84070478068C0F3C00070478068C00FE5
:10234000704700008068C0F3407070478068C0F339
:1023500040007047806800F001007047806800F01E
:10236000010070478068C0F3007070478068C0F358
:10237000800070478068C0F380007047C1F301237C
:1023800000EB8300D0F830C001F01F011F238B4009
:10239000C2F384622CEA030302FA01F119430163D8
:1023A0007047000081684FF6C072C7F6FF72114097
:1023B0000431816070470000C1F3406300EB83008B
:1023C000D0F814C0C1F3045107238B402CEA030357
:1023D00002FA01F1194341617047000080B54FF6E0
:1023E000FF7ECB43D0F8B0C0C0F2070E02F0180257
:1023F00063EA0E032EFA02F203EA0C0311401943BA
:10240000C0F8B01080BD0000826822F47C12114335
:1024100081607047826822F0E072114381607047EA
:1024200000EB8100D0F860C04FF20001C0F2FF3134
:1024300002F0F84201EA0C011A43114341F0004155
:102440000166704700EB8100016E21F000711143BD
:102450000166704700EB8100016E21F0807111432D
:102460000166704700EB8100016E21F000410166BA
:1024700070470000426922F00042114341617047F9
:1024800082684FF6C073C3F6FF731A4001F08041B3
:10249000114401F1004181607047000010B58CB01B
:1024A00040F27400C2F200004FF0A04100244FF44B
:1024B000403280E816000121042301624FF4B46128
:1024C0004FF480620B94CDE90944CDE90744CDE98E
:1024D0000544CDE90344CDE90144C0E90344C0E922
:1024E0000543848380F82440C0E90B1280F838400B
:1024F000C46380F84040FEF7CBFA002818BFFDF710
:10250000FBFF40F27400C2F2000009A90994FEF733
:102510003BF8002818BFFDF7EFFF42F20000CBF2B6
:102520009060019006207F210290002004910421F8
:102530000390CDE9051040F27400C2F2000001A939
:10254000FEF7D4F8002818BFFDF7D6FF0CB010BD79
:1025500080B58CB068463021FDF7AEFE40F2E00059
:1025600041F20001C2F20000C5F200010160FEF775
:102570005DFD002818BFFDF7BFFF0220002100907D
:10258000CDE90410CDE9060140F2E000ADF80410F9
:10259000CDE90211C2F2000069460022FEF74CFCB0
:1025A000002818BFFDF7A8FF0CB080BD83B041F232
:1025B0004C00C4F20200016841F0040101600168AE
:1025C00001F0040102910299016841F020010160CB
:1025D000016801F0200101910199016841F00101B8
:1025E0000160006800F001000090009803B070479F
:1025F00080B540F2F40040F20031C2F20000C4F2B3
:1026000001010022402380E80E000C21016101211C
:1026100001754FF400318261C0E90912C262FEF710
:10262000E7FE002818BFFDF767FF80BD10B584B036
:1026300040F2301041F200010024C2F20000C4F266
:10264000000142F21072C0E9001480210394CDE928
:102650000144C0E902428161FFF78CFD002818BFE8
:10266000FDF74AFF2020019040F23010C2F2000036
:1026700001A90394FFF710FD002818BFFDF73CFFE8
:1026800004B010BDFEE70000FEE7000000F0070008
:1026900080F00703042B28BF04234FF0FF3C0338CE
:1026A0000CFA03F338BF0020994381400CFA00F084
:1026B00022EA0000084370477047000041F20C0016
:1026C000C4F202000168026842F2004301F0030113
:1026D000C2F30312C0F2F4030132032904BF41F232
:1026E0000023C0F27A030168B3FBF2F20068C1F381
:1026F00006215143C0F34160022202EB4000B1FBCE
:10270000F0F0704770470000B0B501380024B4EB1A
:10271000106F1CBF0120B0BD4EF21005CEF20005B7
:1027200068604FF0FF300F2100F0F8F80720AC6030
:1027300028602046B0BD000080B5FEF7DFFD80BDFB
:10274000B0B594B006AC20463821FDF7B5FD0025A4
:1027500000200595CDE90355CDE90155FEF70CFFA5
:102760004FF48071099140210A91042102200F91B8
:1027700055210690CDE90D00CDE91010CDE91200EC
:102780002046FFF747FA70B90F2001900320CDE9EA
:10279000020501A80421CDE90455FFF7F3F800284C
:1027A00004BF14B0B0BDFDF7A7FE00004EF6885080
:1027B000CEF20000016841F4700101607047000032
:1027C00080B540F6FF330268C4F2000343F2FF3CD9
:1027D0009842C4F2010C0ADD60452EDC40F600434D
:1027E000C4F20003984234D042F600432DE0B0F129
:1027F000804F2ED040F20043C4F20003984228D00C
:1028000040F60003C4F20003984222D0604526DC63
:1028100040F2FF73C4F20003984235DD40F6000336
:10282000C4F20003984243D040F60043C4F20003D0
:1028300098423DD042F6004336E045F20003C4F230
:102840000103984205D043F20043C4F201039842C9
:10285000DCD14B6822F070021A436045D8DD44F2A7
:10286000FF33C4F20103984216DD44F20043C4F280
:10287000010398421CD045F20003C4F201039842C0
:1028800016D044F600030FE0B0F1804F10D040F2B4
:102890000043C4F2000309E043F20043C4F2010321
:1028A000984205D044F20003C4F20103984203D1D8
:1028B000CB6822F440721A434B6922F0800E8A687A
:1028C00043EA0E03D1F800C00360C262A0F1804267
:1028D000A2F596324FEAB222092AC0F828C008D8D9
:1028E000012303FA02F240F2E5231A421CBF0969F0
:1028F0000163012141610169C90708BF80BD016908
:1029000021F00101016180BDFEE700004EF60C5090
:10291000CEF200000068C0F3022070474EF6145358
:1029200000F00F02CEF2000309011A4400F16043E7
:10293000B0F1FF3FC8BF03F564421170704700005B
:102940004EF60C51CEF200010A684FF6FF031A4012
:1029500060F30A2242F0806040F0FD70086070472A
:10296000FEF7DAFCFFF7ECFEFFF720FEFFF7F0FDC5
:10297000FFF73EFEFFF75AFEFFF790FD40F2F4002E
:10298000C2F20000FEF7E2FD40F27404C2F200045D
:1029900020467F21FDF7B6FD40F2E005C2F20005BA
:1029A0002846002100224FF40063FEF76DFB284605
:1029B0000021FEF785FB40F23010C2F20000FFF765
:1029C00025FC2046FEF7A0F940F27005C2F2000592
:1029D0002046FEF759F82860FAE7F1EE100A4FF6A4
:1029E000FF71C0F2C03120EA010040F04070E1EE1A
:1029F000100A7047000000000000000001020304FC
:102A000006070809282A000800000020100000001E
:102A100014020008382A0008100000207007000087
:102A200030020008000000000024F4000100000053
:082A300010000000000000008E
:04000005080001D915
:00000001FF
