:020000040800F2
:1000000078070020790200086D210008051F00080C
:100010006921000881030008912100080000000008
:100020000000000000000000000000007521000832
:1000300085030008000000007121000879210008F4
:10004000930200089302000893020008930200083C
:10005000930200089302000893020008930200082C
:10006000930200089302000893020008930200081C
:10007000930200089302000893020008930200080C
:1000800093020008930200089302000893020008FC
:1000900093020008930200089302000893020008EC
:1000A00093020008930200089302000893020008DC
:1000B00093020008930200089302000893020008CC
:1000C00093020008930200089302000893020008BC
:1000D00093020008930200089302000893020008AC
:1000E000930200089302000893020008930200089C
:1000F000930200089302000893020008930200088C
:10010000930200089302000893020008930200087B
:10011000930200089302000893020008930200086B
:10012000930200089302000893020008930200085B
:10013000930200089302000893020008930200084B
:10014000930200089302000893020008930200083B
:10015000FD1D0008930200089302000893020008A6
:10016000930200089302000893020008930200081B
:10017000930200089302000893020008930200080B
:1001800093020008930200089302000893020008FB
:100190009302000800000000930200089302000888
:1001A00093020008930200089302000893020008DB
:1001B00093020008930200089302000893020008CB
:1001C00093020008930200089302000893020008BB
:1001D000930200089302000800F002F800F03CF8D7
:1001E0000AA090E8000C82448344AAF10107DA4592
:1001F00001D100F031F8AFF2090EBAE80F0013F0A8
:10020000010F18BFFB1A43F001031847042900002F
:1002100024290000103A24BF78C878C1FAD85207C0
:1002200024BF30C830C144BF04680C607047000070
:100230000023002400250026103A28BF78C1FBD8EF
:10024000520728BF30C148BF0B6070471FB502F08E
:100250003AF81FBD10B510BD00F058F81146FFF771
:10026000F5FF01F0DFFF00F076F803B4FFF7F2FFCF
:1002700003BC00F07DF800000948804709480047AA
:10028000FEE7FEE7FEE7FEE7FEE7FEE7FEE7FEE746
:10029000FEE7FEE704480549054A064B70470000A3
:1002A0007D210008D901000878010020780700208E
:1002B00078030020780300204FF0000200B51346B9
:1002C00094469646203922BFA0E80C50A0E80C5076
:1002D000B1F12001BFF4F7AF090728BFA0E80C5027
:1002E00048BF0CC05DF804EB890028BF40F8042B20
:1002F00008BF704748BF20F8022B11F0804F18BF8D
:1003000000F8012B7047704770477047754600F042
:100310002BF8AE4605006946534620F00700854697
:1003200018B020B5FFF7B6FFBDE820404FF000063B
:100330004FF000074FF000084FF0000BAC46ACE860
:10034000C009ACE8C009ACE8C009ACE8C00921F0BC
:1003500007018D46704710B50446AFF30080204674
:10036000BDE81040FFF781BF004870471000002033
:1003700001491820ABBEFEE72600020070470000CE
:10038000FEE7000070470000EFF3108072B600BF78
:10039000FEE700002DE9F04F84B00C680190002CBE
:1003A00000F0E280019841F2004600F13842C4F6C4
:1003B00000068E464FEAB2270621B04208BF05214B
:1003C000052F4FF000054FF001074FF000064FF0EA
:1003D000000838BF4FEAB2210091CDF808E00DE0E7
:1003E000DEF8004008F1010834FA07F106F10206D0
:1003F00007F1010705F1040500F0B680A7F1010A35
:10040000012000FA0AF214EA0209E9D0DEF804C079
:100410000CF0030BABF10104012C17D801987446C2
:1004200081680323E468B3409943B4402143816069
:1004300041684FEA480E9143CCF3001202FA0AF2E7
:100440000446D843114361600CE000BF0321B14072
:10045000019CC843BBF1030FB64603D1B6464FF02B
:10046000030B23E0E168029B01409A68BBF1020F95
:1004700002FA0EF241EA0201E16017D16FF00301C6
:1004800001EA5A01214405F01C040F22D1F820C0D2
:1004900002FA04FB1A692CEA0B0CA24042EA0C0295
:1004A000019C0A62D3F804C00CF0030B21680BFA1C
:1004B0000EF2014011432160DDF808E01CF4403FDA
:1004C0008ED041F26000C4F20200016840F2004C9C
:1004D00041F0010101600168C4F2010C01F0010169
:1004E000039103992AF003014FF6084A6144CFF6BD
:1004F000FF7A05F00C030F2051F80A2000FA03F4EC
:100500000098A24300FA03F31A4341F80A20DCF8EA
:100510000810DEF8042041EA090340F20C40D4023E
:1005200058BF21EA0903CCF80830C4F20100016881
:10053000940241EA090358BF21EA09030360DCF889
:100540000410940341EA090358BF21EA0903CCF8D7
:100550000430DCF80010D20341EA090358BF21EA55
:100560000903CCF800303BE704B0BDE8F08F000091
:1005700040F27410C2F2000000687047704700003B
:10058000704700007047000070470000704700008F
:10059000704700007047000070470000704700007F
:1005A00090F8DC20012A4FF0020221D0012380F8CC
:1005B000DC3080F8DD2002684B1CD2F8CCC309D0B7
:1005C0004CF00203C2F8CC33D2F8CC3323F00C0346
:1005D000194301E02CF00201C2F8CC13D2F8CC137D
:1005E00041F00101C2F8CC130121002280F8DD1096
:1005F0001046704770B590F8DD30022B04BF022022
:1006000070BD90F8DC30012B4FF002033AD080F837
:10061000DD30D2E900C3D2E902E60CF4E0546FF316
:100620005F23156923440EF40074234405F48045C8
:100630002B4406F40046334456690025C0F2FF15EA
:1006400005EA06469569334405F00076156A334499
:1006500005F08046D2693343066802F0004206EB9B
:10066000C1111A43D1F8B83042F20006C3F6004671
:1006700033401A43C1F8B8200121002380F8DD106F
:1006800080F8DC30184670BD7047000070470000ED
:10069000704700007047000070470000704700007E
:1006A00070470000F0B581B0062904461CD00D4605
:1006B000FF293FD12068D0F88813D0F8902302EAB0
:1006C0000105E9076AD1A80770D4680778D428071C
:1006D00000F18080E80600F18780680600F18E80D6
:1006E000A80640F1AC8193E02068D0F88813D0F8D8
:1006F00090234568C66802EA0107F90300F1928079
:10070000B80300F19F803540E80740F0A780A807B4
:1007100000F1AE80680700F1B580280700F1BC80C9
:10072000E80600F1C380A80600F1CA80680640F11F
:100730008681CEE0206800EBC510D0F88410D0F898
:100740008C2002EA0106F10740F0CE80B00700F1EC
:10075000D580700700F1DF80300700F1E980F006F6
:1007600000F1F380700600F1FD80300600F1078192
:10077000F00500F11181B00500F11C81700500F158
:100780002781300500F13281F00400F13D81B00491
:1007900000F14881700400F1558150E10121C0F859
:1007A0008C132046FFF772FFA8078ED52068022120
:1007B000C0F88C132046FFF76BFF68077FF587AF03
:1007C00020680421C0F88C132046FFF763FF280738
:1007D0007FF580AF20680821C0F88C132046FFF712
:1007E0005BFFE8067FF579AF20681021C0F88C1315
:1007F0002046FFF753FF68067FF572AF206840215F
:10080000C0F88C132046FFF74BFFA80640F1178174
:10081000216820222046C1F88C2301B0BDE8F040B9
:1008200000F05ABA4FF48031C0F88C13012084F8DC
:10083000DD00002084F8DC002046FFF7AFFEB8039F
:100840007FF561AF20684FF40031C0F88C1320466B
:10085000FFF794FE3540E8073FF459AF20680121C7
:10086000816020460621FFF78FFEA8077FF552AF73
:1008700020680221816020460621FFF787FE680775
:100880007FF54BAF20680421816020460621FFF7E9
:100890007FFE28077FF544AF20680821816020464D
:1008A0000621FFF777FEE8067FF53DAF20681021AF
:1008B00081602046062100F0B3F9A8067FF536AF27
:1008C000206820218160204600F004FA680640F18B
:1008D000B6802268402320460621936001B0BDE81F
:1008E000F04000F09BB900BF0121C0F888102046FD
:1008F0002946FFF749FEB0077FF52BAF206802219C
:1009000000EBC510C0F8881020462946FFF73EFED0
:1009100070077FF521AF2068042100EBC510C0F8F7
:10092000881020462946FFF733FE30077FF517AFC2
:100930002068082100EBC510C0F888102046294621
:10094000FFF728FEF0067FF50DAF2068102100EBC1
:10095000C510C0F888102046294600F061F97006DD
:100960007FF503AF2068402100EBC510C0F8881068
:100970002046294600F052F930067FF5F9AE20688E
:10098000802100EBC510C0F8881020462946FFF7EB
:10099000F7FDF0057FF5EFAE20684FF4807100EBB6
:1009A000C510C0F8881020462946FFF7EBFDB005BA
:1009B0007FF5E4AE20684FF4007100EBC510C0F87D
:1009C00088102046294600F0E9F870057FF5D9AE79
:1009D00020684FF4806100EBC510C0F888102046F5
:1009E000294600F0D9F830057FF5CEAE20684FF4E7
:1009F000006100EBC510C0F888102046294600F0C1
:100A0000D1F8F0047FF5C3AE20684FF4805100EBBD
:100A1000C510C0F888102046294600F0C1F8B0047F
:100A20007FF5B8AE20684FF4005100EBC510C0F858
:100A3000881020462946FFF7AFFD700402D401B0AC
:100A4000F0BD00BF20684FF4804300EBC512204684
:100A50002946C2F8883001B0BDE8F040FFF714BE67
:100A6000002804BF0120704710B582B00446022060
:100A700084F8DD00207AC0074FF00000C4E9380098
:100A8000C4E93A00C4E93C00C4F8F8001FD020686B
:100A900046F60001C4F2010188420CD141F2600126
:100AA000C4F202010A6842F080620A60096801F03B
:100AB0008061019101990168D4E9042321F4704116
:100AC00002F44042114403F44052114401602046B4
:100AD00000F03EF8207A800706D52068E1680268B9
:100AE000090A61F309220260012084F8DD00002078
:100AF00084F8DC00C4F8D800C4E90600C4E90800A2
:100B0000A062C4E90C00C4E90E00C4E91000C4E905
:100B10001300C4E91500C4E91700C4E91A00C4E9C8
:100B20001C00C4E91E00C4E92100C4E92300C4E993
:100B30002500C4E92800C4E92A00C4E92C00C4E95E
:100B40002F00C4E93100C4E9330002B010BD000039
:100B500080B582B0006846F60001C4F20101884207
:100B60001CBF02B080BD41F26000C4F20200016807
:100B7000002241F0806101600068002100F0806087
:100B800001900198442000F05FFC442002B0BDE8D1
:100B9000804000F049BC0000704700007047000032
:100BA000704700007047000070B50D460446FFF71F
:100BB000DFFC2168D1F88823D2031FD435B3064661
:100BC000681C11D1D1F88803C00317D4D1F8880369
:100BD000C0035CBFD1F888035FEAC0300ED4D1F8FF
:100BE0008803C003EED509E0FFF7C2FC801BA842D2
:100BF0000ED82068D0F88803C003F5D5012084F80A
:100C0000DD00002084F8DC0070BD00BFFFF7B0FC01
:100C1000072084F8DD00032070BD0000704700004D
:100C2000002918BF704710B52DED048B40F27004F9
:100C3000C2F2000420889FED238A00EE100AB8EE6D
:100C4000400A20EE080A01F0A5FA9FED1F1A20883D
:100C500020EE019A00EE100AB8EE400A20EE080AD3
:100C6000B0EE081A20EE010A01F094FA20889FEDF8
:100C7000171A013020EE010A81B239EE000A490943
:100C800084ED010A182988BF0020208040F2080066
:100C9000C2F2000090ED001A9FED0D2A20EE010A2D
:100CA00020EE020A30EE020A46F69C00BCEEC00AB4
:100CB000C4F2010080ED000ABDEC048BBDE81040D9
:100CC000704700BFFDAD003C36CD933F9D11453EC2
:100CD0000060EA46704700007047000010B590F8C9
:100CE000DD30022B4FF002032ED080F8DD30036898
:100CF000062911D11968D2E900CED2E9024221F0C9
:100D00001F0124F01804214311431960C3F814C0D3
:100D1000C3F818E014E000BF03EBC111D1F8803034
:100D2000D2E900ECD2E9024223F01F0324F01804B8
:100D300023431A43C1F88020C1F894E0C1F898C059
:100D40000121002380F8DD10184610BD80B590F811
:100D5000DDC0BCF1020F04BF022080BD90F8DCC0F2
:100D6000BCF1010F4FF0020C00F09E804FF0010E1D
:100D7000062980F8DCE080F8DDC00FD1511E07297C
:100D800026D80FF20602DFE801F0051F232B2323EC
:100D9000232F00BF19680268D16128E0A2F1010C7D
:100DA000BCF1070F46D80FF20602DFE80CF005276A
:100DB000434B4343435300BF02681B6802EBC1111E
:100DC000C1F89C3063E000BF1968026851620EE010
:100DD000072180F8DD10002180F8DC1007E000BF5B
:100DE00019680268916202E019680268D16290F89D
:100DF000DD10072904BF012080BD4EE0026802EB30
:100E0000C11CD3E9001ECCF8A410614651F8802F14
:100E1000BEF1000F22F440520A6038D00A6842EA5C
:100E20000E02BEF5405F0A602BD19968CCF8A8107D
:100E30002DE000BF072180F8DD10002180F8DC10D4
:100E400025E000BF02681B6802EBC111C1F8A830A1
:100E50001DE000BF026802EBC11CD3E9001ECCF804
:100E6000AC10614651F8802FBEF1000F22F44042D1
:100E70000A600CD00A6842EA8E02BEF5405F0A6042
:100E8000D3D0BEF5005F02D19968CCF89C1090F8E1
:100E9000DD10072904BF012080BD01214FF0000CA7
:100EA00080F8DD1080F8DCC0604680BD90F8DC2062
:100EB000012A4FF002022BD0012380F8DC3080F8A9
:100EC000DD20D0E9002CD2F890334CEA030CCB03A0
:100ED000C2F890C31ED48B0324D44B032CD40B0331
:100EE00034D4CB023CD48B0244D44B0207D5D0F887
:100EF000ACC0D2F80C3343EA0C03C2F80C331368CD
:100F0000194311600121002280F8DD1080F8DC20F7
:100F100010467047D0F8C8C0D36843EA0C03D360CA
:100F20008B03DAD5D0F820C0D2F88C3043EA0C031A
:100F3000C2F88C304B03D2D5D0F83CC0D2F80C317B
:100F400043EA0C03C2F80C310B03CAD5D0F858C0E1
:100F5000D2F88C3143EA0C03C2F88C31CB02C2D5F3
:100F6000D0F874C0D2F80C3243EA0C03C2F80C3249
:100F70008B02BAD5D0F890C0D2F88C3243EA0C0379
:100F8000C2F88C324B02B2D4B9E70000B0B50446C7
:100F900090F8DD00022804BF0220B0BD94F8DC0008
:100FA00001284FF0020008BFB0BD012584F8DC50D5
:100FB00084F8DD00206800F029FF002084F8DD506F
:100FC00084F8DC00B0BD000090F8DC20012A4FF06E
:100FD00002020DD080F8DD200268D2F89433194364
:100FE000C2F894130121002280F8DD1080F8DC2083
:100FF000104670472DE9F04F8EB090F8DD30022B8F
:1010000004D1022318460EB0BDE8F08F90F8DC3012
:10101000012B4FF00203F5D0012780F8DC7080F837
:10102000DD30D0F80090062940D1D9F80060D9F819
:10103000A0C3556926F0E00625F0C004202D46EA3D
:10104000040609D09569042D00F01A81032D00F0E3
:101050001B81022D40F01C8146F020064FF2FF3527
:10106000C3F2FF15D2E907472E4005F50065D2E926
:10107000093E2C40344327F06E452C4323F068434F
:1010800023432EF06047D2F82CB03B4343EA8B0356
:10109000576B23F000533B43176B2CF480352F43E1
:1010A000C9F80030C9F8A073B5E000BF09EBC11C56
:1010B000E6465EF8803F644623F07043CEF8003089
:1010C000DEF8003054F8E85F23F020030B950D9410
:1010D000644654F8E46F0C94D9F8A0535469202C5A
:1010E00044EA030709D09469042C00F0D580032C4E
:1010F00000F0D680022C40F0D78027F4D07303F1A3
:101100002007D369D2E911A40093136AD2F82CB056
:101110000193536A0493936A0593536B0693D2E940
:101120000E830A93136C0993936D089344F48053D0
:10113000B3F5F05F136D079326F480734AEA030A50
:1011400002D1B8F1400F03D12AF4F05343EA040A64
:10115000D36C05290393536D02930BD854A353F812
:1011600021302E46156B4C1C334005FA04F444EA3A
:10117000030600E02E464FF2FF33C0F2FF13009D3E
:1011800007EA030403F500632B402343019C049DFD
:10119000A4B223434FF6BF74C0F2006425402B4332
:1011A000059D04F100642C4023434FF6BF7443EACD
:1011B0000B03CFF600642340069CB4F1005F4FF6AA
:1011C000FF74CFF6026408BF03F5003308EA040594
:1011D0002B43089D04F580242C402343079C234384
:1011E000CEF800304FF6C0730B9FC7F6FF733B403D
:1011F0000A9F07F03F073B44099F3B430D9F3B601D
:10120000039F2AF480433B430C9F3B60029BCCF836
:10121000D430C9F8A063C1EBC103D2E9007500EB7B
:101220008303D2E90246C3E9087517690629C3E9B1
:101230000A461F630AD842F2E023C0F6000353F8BF
:101240002130D9F884733B43C9F8843306290DD083
:10125000BBF1000F0AD109EBC111D1F88030D26D7A
:1012600023F4007343EA4222C1F8802001210023C5
:1012700080F8DD1080F8DC3018460EB0BDE8F08F45
:1012800046F08006EAE600BF46F04006E6E600BF0C
:1012900026F0E006E2E600BF022363F3C81730E75A
:1012A000012363F3C8172CE727F4D07729E700BFA1
:1012B000FFFFFDFFFFFFFBFFFFFFF7FFFFFFEFFF5C
:1012C000FFFFDFFFFFFFBFFF2DE9F04190F8DD30AA
:1012D000022B04BF0220BDE8F08190F8DC30012B26
:1012E0004FF002033DD080F8DD30D0F800C04FF65B
:1012F000EF740CEBC11E5EF8EC3FCFF6EC7492E895
:10130000600123400134D76804EA0514234326F41E
:101310004034234327F4003495692343012D43EAE5
:10132000080309D1D2E9044223F0060324F00204A1
:1013300023431A4342F001030629CEF800300AD8AD
:1013400042F2E022C0F6000252F82110DCF88423B9
:101350001143CCF884130121002380F8DD1080F8BC
:10136000DC301846BDE8F08140F2000040F2741114
:10137000C2F20000C2F2000140680A68104408602E
:101380007047000080B5032000F08AF80F2000F0BD
:1013900009F800281CBF012080BD00F02BF80020B8
:1013A00080BD000070B540F20006C2F20006716810
:1013B000E1B1044640F20C00C2F200004FF47A7230
:1013C0000068B2FBF1F1B0FBF1F000F001FD0F2C71
:1013D0004FF0010508D838B94FF0FF302146002200
:1013E000002500F031F83460284670BD01252846FC
:1013F00070BD000082B041F25800C4F20200816862
:1014000041F001018160816801F0010101910199C0
:10141000016841F080510160006800F08050009048
:10142000009802B000F0EAB8002848BF704700F00A
:101430001F01012202FA01F14EF200124009CEF220
:10144000000242F82010704710B54EF60C5CCEF248
:10145000000CDCF80030C3F3022E8EF00704042CDD
:1014600028BF0424BEF103034FF0FF3E0EFA04F43C
:1014700038BF0023A14399400EFA03F39A4300F0CA
:101480000F03043B1143634409010C3300F1604234
:10149000B0F1FF3FC8BF02F56443197010BD0000F2
:1014A0004EF60C51CEF200010A684FF6FF031A40C7
:1014B00060F30A2242F0806040F0FD7008607047DF
:1014C000B0F5007F48D0002840F08A8047F2140031
:1014D000C4F2000050F8141CC26E01F4C06122F482
:1014E0008072B1F5806FC26633D150F8141C0122AE
:1014F00062F34A2140F8141C40F20C01C2F20001D0
:101500000968322251434DF68362C4F21B32A1FBBB
:101510000212910C02684B1C18BF12F4806213D0A7
:101520000268002918BF12F480620DD002680129F8
:1015300018BF12F4806207D00268022904D012F4A6
:101540008062A1F10401E5D10068400544BF032099
:1015500070470020704700BF47F21400C4F200003B
:1015600050F8141CC26E01F4C06142F48072B1F5EF
:10157000806FC266EDD150F8141C012262F34A213B
:1015800040F8141C40F20C01C2F20001096832223A
:1015900051434DF68362C4F21B32A1FB0212910C3F
:1015A00002684B1C18BF12F4806213D00268002935
:1015B00018BF12F480620DD00268012918BF12F41E
:1015C000806207D00268022904D012F48062A1F17F
:1015D0000401E5D10068400544BF03207047B8E727
:1015E00047F21400C4F2000050F8141C022262F307
:1015F0004A2140F8141C00207047000047F2080000
:10160000C4F20000016841F48041016070470000AD
:101610002DE9F04700286DD042F2000AC4F2020A18
:101620000446DAF800000D4600F00F0088420CD2A4
:10163000DAF8000020F00F002843CAF80000DAF8BA
:10164000000000F00F00A84254D1216841F20808C0
:10165000C807C4F2020803D1880740F1D880BDE072
:10166000606802283AD0032840D158F8082C92012B
:1016700040D5D8F80420D8F8043042F2004702F0F0
:101680000302C3F30313C0F2F4070133032A04BFB8
:1016900041F20027C0F27A07D8F80420B7FBF3F331
:1016A000D8F80470C2F306225A43C7F341630227F5
:1016B00007EB4303B2FBF3F24BF20043C0F2C44327
:1016C0009A4261D9D8F8002012F0F00F51D0890762
:1016D0005AD5A168002957D14BE000BF58F8081C23
:1016E00089035CBF0120BDE8F08707E058F8081CBB
:1016F000490503D40120BDE8F08700BFD8F80010E9
:1017000001F00C0104293FD0D8F8001001F00C01C1
:10171000082939D0D8F8001001F00C010C2933D178
:10172000D8F80410D8F8042042F2004301F0030175
:10173000C2F30312C0F2F4030132032904BF41F2E1
:101740000023C0F27A03D8F80410B3FBF2F2D8F801
:101750000430C1F306215143C3F34162022303EB7A
:101760004202B1FBF2F14BF20042C0F2C44291429C
:101770000AD9D8F80010082262F307114FF00109C6
:10178000C8F8001002E000BF4FF00009D8F80010C0
:1017900021F003010843C8F80000FEF7E9FE064601
:1017A00041F28837D8F80000616800F00C00B0EB17
:1017B000810F07D0FEF7DCFE801BB842F2D9032070
:1017C000BDE8F0872168880708D4B9F1000F1ED062
:1017D000D8F8000020F0F00017E000BF480705D55A
:1017E000D8F8000040F4E060C8F80000080706D50B
:1017F000D8F80000072262F30D20C8F80000D8F8DE
:101800000000A26820F0F0001043C8F80000DAF8E9
:10181000000000F00F00A8421BD9DAF8000020F009
:101820000F002843CAF80000FEF7A2FE064641F268
:10183000883700BFDAF8000000F00F00A84207D098
:10184000FEF796FE801BB842F4D90320BDE8F0876E
:101850002168480707D5D8F80000E26820F4E06066
:101860001043C8F80000080708D5D8F8000021691F
:1018700020F4605040EAC100C8F80000D8F8000029
:1018800042F20041C0F2F40100F00C0004280846C6
:101890002DD0D8F8000000F00C00082841F20020FC
:1018A000C0F27A0023D0D8F8002002F00C020C2AF3
:1018B0001CD1D8F80420D8F8043002F00302C3F396
:1018C00003130133032A08BF0146D8F80400B1FB13
:1018D000F3F1D8F80420C0F306204843C2F3416175
:1018E000022202EB4101B0FBF1F000E00020D8F849
:1018F000001042F2FC22C1F30311C0F60002515C59
:1019000040F20C0201F01F0120FA01F140F2000048
:10191000C2F200000068C2F200021160BDE8F047A8
:10192000FFF740BD2DE9F04182B0002800F00681AC
:101930000446007841F20006C007C4F2020655D101
:101940002078800774D42078000700F197802078F1
:10195000400700F1B7802078800600F10781E56933
:10196000002D00F03082B06800F00C000C2840F030
:101970005981012D00F0E280F068216A00F0030235
:101980008A4240F0DB80626A6FF00F0300F0F001E2
:1019900003EB0212914240F0D180A16A00F4FE42B2
:1019A000B2EB012F40F0CA80E16A00F07842B2EB5E
:1019B000C16F40F0C380226B0023CFF6E07303EBCE
:1019C000025200F4C0016FF31402914240F0B6805D
:1019D000616B4FF07E4202EB016100F0C06001F0EC
:1019E0007E41884240F0AA80EDE100BFB06800F07F
:1019F0000C01F06808295BD0032281F00C0122EA77
:101A000000000844B0FA80F0400951D16068B0F598
:101A1000803F07D0B0F5A02F40F0DA80306840F466
:101A200080203060306840F480303060DBE000BF00
:101A3000B068F16800F00C00042869D001F00301DF
:101A400080F00C0081F002010844B0FA80F04009F7
:101A50005ED1E1683068002900F0D28040F48070E7
:101A60003060FEF785FD05463068400500F1FC80DA
:101A7000FEF77EFD401B0228F6D92EE16169D6F8FB
:101A80009400002900F0908040F00100C6F8940016
:101A9000FEF76EFD054600BFD6F8940080073FF5BF
:101AA00056AFFEF765FD401B0228F5D915E100BFD2
:101AB000306880037FF544AF606800287FF440AF52
:101AC0003CE000BFB06D10F0805808D1B06D40F020
:101AD0008050B065B06D00F080500190019847F2E1
:101AE0000007C4F200073868C0052BD4386840F4FA
:101AF00080703860FEF73CFD054600BF3868C005C1
:101B000020D4FEF735FD401B0228F7D9E5E000BFE1
:101B10003068400501D5E06880B17068216920F027
:101B2000FE4040EA0160706040F20000C2F2000036
:101B30000068FFF737FC00283FF405AF012002B032
:101B4000BDE8F081A068012808D0052840F0AA80EF
:101B5000D6F8900040F00400C6F89000D6F8900047
:101B600040F00100C6F89000A9E000BFA169D6F8D6
:101B70009800002900F0808040F00100C6F898002D
:101B8000FEF7F6FC054600BFD6F8980080073FF543
:101B9000E6AEFEF7EDFC401B02284FF00300F3D940
:101BA00002B0BDE8F08100BF20F00100C6F894004B
:101BB000FEF7DEFC054600BFD6F8940080077FF5EF
:101BC000C6AEFEF7D5FC401B0228F5D985E000BF64
:101BD0003168002821F480313160316821F480219E
:101BE000316000F07F80FEF7C3FC0546306880035B
:101BF0003FF5A6AEFEF7BCFC401B6428F6D96CE0AE
:101C000020F480703060FEF7B3FC05463068400574
:101C10007FF599AEFEF7ACFC401B02284FF00300A5
:101C2000F4D9BDE7306820F080703060FEF7A0FC8A
:101C3000022D05460CD100BF3068800140F17E8046
:101C4000FEF796FC401B02284FF00300F4D9A7E7EB
:101C50003068800140F1B080FEF78AFC401B02280A
:101C60004FF00300F4D99BE77068216920F0FE4033
:101C700040EA0160706066E620F00100C6F8980056
:101C8000FEF776FC054600BFD6F8980080077FF582
:101C900066AEFEF76DFC401B02284FF00300F3D93F
:101CA0007EE700BFD6F8901021F00101C6F8901031
:101CB000D6F8901021F00401C6F8901010B3FEF78A
:101CC00057FC054641F28837D6F8900080072BD4A0
:101CD000FEF74EFC401BB842F6D9032002B0BDE827
:101CE000F08100BFFEF744FC054600BF306880036A
:101CF0007FF526AEFEF73CFC401B64284FF0030046
:101D0000F4D94DE7FEF734FC054641F2883700BFB1
:101D1000D6F89000800707D5FEF72AFC401BB84292
:101D20004FF00300F4D93BE7B8F1000F7FF413AE96
:101D3000B06D20F08050B0650DE600BFF06848F24D
:101D40000C01C0F29F1104F1200700EA010C8ECFB4
:101D50006FF00F00D4E90C5400EB02100022CFF614
:101D6000E07241EA0C0102EB055208436FF31402E2
:101D70004FF07E4540EA032005EB0465104305F073
:101D80007E4540EAC7602843F060306840F08070CC
:101D90003060F06840F08070F060FEF7E9FB0446C8
:101DA000306880010FD4FEF7E3FB001B02284FF0E0
:101DB0000300F5D9F4E600BFF0684FF6FC71CFF6EA
:101DC000EE610840F060002002B0BDE8F081000044
:101DD000411E0020B0EB116F1CBF012070474EF276
:101DE0001002CEF2000251604EF62351CEF20001F5
:101DF000F0230B70072190601160704740F278006B
:101E0000C2F200000021FEF74DBC00002DE9F041B8
:101E100000EBC114A04658F8E4EF7F2A58F82CCC08
:101E20004FF0000100F32E80013A3F2A00F2438078
:101E3000DFE802F0203A41204141413A414141412D
:101E400041414120414141414141414141414141A3
:101E50004141413A41414141414141414141414179
:101E60004141414141414141414141414141414162
:101E700041414120D3E90112C4F8BC10C4F8C0208C
:101E8000002118E0B2F5007F08DB0DD0B2F5006F3D
:101E90000AD0B2F5806FEDD00DE000BF802A03D0EC
:101EA000B2F5807FE6D006E0D3E90112C4F8C41091
:101EB0001021C4F8C820FE221D6803F10C078A40D7
:101EC000D1CF2EEA02028D402A438840104304FA03
:101ED00001F2104306FA01F2104307FA01F21CF076
:101EE000022F42EA000208BF082C03D0C8F80020E5
:101EF000BDE8F081D86988400243C8F80020BDE8F9
:101F0000F0810000FEE7000083B041F24C00C4F213
:101F10000200016841F004010160016801F0040160
:101F200002910299016841F020010160016801F00D
:101F3000200101910199016841F0010101600068EF
:101F400000F001000090009803B07047B0B5BCB03D
:101F500046F60005002414A86021C4F20105369459
:101F6000CDE93444CDE93244CDE93044CDE92E44C5
:101F7000CDE92C44FEF7A0F908A824211394CDE95B
:101F80001144FEF799F940F27800C2F20000CDE961
:101F90000644CDE90444CDE90244CDE90044C0E95A
:101FA00000548460FEF75CFD002818BFFEF7ECF9D2
:101FB00040F27800C2F200000C21FEF7F1FA00288E
:101FC00018BFFEF7E1F940F27800C2F200000A21E2
:101FD000FEF7EAFD002818BFFEF7D6F94EF660209E
:101FE0003390022035900820369040F2780000248B
:101FF000C2F2000033AA00213494FEF76FFE0028DD
:1020000018BFFEF7C1F940F27800C2F200002CAA16
:1020100000212C942F943294FFF756F9002818BF12
:10202000FEF7B2F91020149000200121CDE918101C
:102030004FF00061CDE91E104FF00051CDE92110A5
:102040004FF48071CDE915001790CDE91A00CDE964
:102050001C002090CDE92300CDE92510CDE92A0010
:10206000CDE9280040F27800C2F2000014AA002155
:10207000FEF7C0FF002818BFFEF786F947F2305080
:10208000119040F27800C2F2000011AB0021012251
:102090000024FEF75BFE002818BFFEF775F94FF429
:1020A000406008906420CDE90904CDE90D0440F2B8
:1020B0007800C2F2000008AA0021CDE90B44CDE966
:1020C0000F44FEF797FA002818BFFEF75DF90420C9
:1020D000002401900820CDE9020440F27800C2F209
:1020E00000006B46002101220094CDE90444CDE9B3
:1020F0000644FEF74BFF002818BFFEF745F9CDE96F
:10210000014440F27804C2F200046B4620460021EC
:102110000222FEF73BFF002818BFFEF735F92068C2
:10212000A84201D03CB0B0BD41F24C00C4F2020064
:10213000016841F001010160006837A900F0010069
:10214000379037984FF44070379002203890002035
:10215000399003203A900D203B904FF09040FEF7CD
:1021600019F93CB0B0BD0000FEE70000FEE700003A
:102170007047000070470000FFF7F6B84EF6885031
:10218000CEF20000016841F4700101607047000068
:10219000FEE700009FED201A9FED202A20EE010AA5
:1021A000BDEEC01A11EE100AB5EE400AF1EE10FABB
:1021B000B8BF013801EE100AB8EEC11A30EE410A7C
:1021C00020EE020ABDEEC01A9FED152A11EE100A8C
:1021D000002130EE021AB1EB502F42F20C311CBF3D
:1021E0000020B0EE410AC0F6000101EE100A01EB3A
:1021F0008001B8EE411A30EE410A91ED001A91EDDE
:10220000012AB7EE003A33EE403A23EE011A20EEEF
:10221000020A31EE000A704783F9223E00000044B2
:10222000000000C494B0FFF7ADF800244FF4007034
:10223000CDE90B44CDE90944CDE907440594CDE946
:102240000344CDE90144FFF73BF94FF48071099154
:1022500040210A91042102200F914B210690CDE9E3
:102260000D00CDE91010CDE9120006A8FFF75AFBCA
:1022700020B1EFF3108072B6FEE700BF0F2001908F
:102280000320CDE9020401A80421CDE90444FFF7AD
:10229000BFF928B1EFF3108072B600BFFEE700BFB0
:1022A000FFF732FEFFF752FE40F27804C2F200045C
:1022B00020464FF40031FEF7F9FD20460321FEF7DA
:1022C00083FE00BFFEE7F1EE100A4FF6FF71C0F289
:1022D000C03120EA010040F04070E1EE100A704782
:1022E00002000000040000000800000010000000D0
:1022F000200000004000000001000000000000007D
:1023000000000000010203040607080900000000A5
:10231000920E493CB10AC93C2BC3163D2EFB483DE9
:10232000752B7B3D04A9963D80B6AF3D36BDC83DBB
:102330002FBCE13D73B2FA3D87CF093E8340163E84
:10234000B5AB223EA2102F3ECF6E3B3EC2C5473EEC
:102350000115543E135C603E7F9A6C3ECCCF783EB4
:10236000C07D823E938E883E229A8E3E32A0943E5D
:1023700086A09A3EE59AA03E128FA63ED47CAC3E43
:10238000EF63B23E2A44B83E491DBE3E15EFC33E40
:1023900053B9C93ECA7BCF3E4136D53E80E8DA3ECE
:1023A0004F92E03E7533E63EBBCBEB3EEA5AF13E40
:1023B000CBE0F63E275DFC3EE4E7003F3D9C033F5B
:1023C000824B063F9BF5083F6B9A0B3FDA390E3F75
:1023D000CDD3103F2A68133FD9F6153FC07F183F71
:1023E000C6021B3FD17F1D3FCBF61F3F9967223F9F
:1023F00025D2243F5636273F1594293F4AEB2B3FE1
:10240000DE3B2E3FBB85303FC9C8323FF304353F2A
:10241000233A373F4268393F3B8F3B3FF9AE3D3F60
:1024200067C73F3F70D8413F01E2433F03E4453F68
:1024300065DE473F12D1493FF8BB4B3F029F4D3FFE
:10244000207A4F3F3D4D513F4918533F31DB543FB8
:10245000E595563F5348583F6AF2593F1A945B3FFF
:10246000532D5D3F05BE5E3F2146603F97C5613FEE
:102470005A3C633F59AA643F880F663FD86B673F59
:102480003CBF683FA7096A3F0C4B6B3F5E836C3FC4
:1024900093B26D3F9ED86E3F73F56F3F0809713F51
:1024A0005213723F4714733FDD0B743F0BFA743FB6
:1024B000C6DE753F07BA763FC58B773FF853783F46
:1024C0009812793F9DC7793F02737A3FBE147B3FD4
:1024D000CDAC7B3F283B7C3FC9BF7C3FAC3A7D3FC6
:1024E000CCAB7D3F23137E3FB0707E3F6DC47E3FFB
:1024F000580E7F3F6D4E7F3FAB847F3F0FB17F3FD4
:1025000097D37F3F43EC7F3F11FB7F3F0000803F2D
:1025100011FB7F3F43EC7F3F97D37F3F0FB17F3F5E
:10252000AB847F3F6D4E7F3F580E7F3F6DC47E3F33
:10253000B0707E3F23137E3FCCAB7D3FAC3A7D3FF6
:10254000C9BF7C3F283B7C3FCDAC7B3FBE147B3F6B
:1025500002737A3F9DC7793F9812793FF853783FCD
:10256000C58B773F07BA763FC6DE753F0BFA743FDF
:10257000DD0B743F4714733F5213723F0809713FDC
:1025800073F56F3F9ED86E3F93B26D3F5E836C3F95
:102590000C4B6B3FA7096A3F3CBF683FD86B673F56
:1025A000880F663F59AA643F5A3C633F97C5613F15
:1025B0002146603F05BE5E3F532D5D3F1A945B3F51
:1025C0006AF2593F5348583FE595563F31DB543F37
:1025D0004918533F3D4D513F207A4F3F029F4D3F99
:1025E000F8BB4B3F12D1493F65DE473F03E4453F0F
:1025F00001E2433F70D8413F67C73F3FF9AE3D3FDF
:102600003B8F3B3F4268393F233A373FF304353F26
:10261000C9C8323FBB85303FDE3B2E3F4AEB2B3FE4
:102620001594293F5636273F25D2243F9967223FEC
:10263000CBF61F3FD17F1D3FC6021B3FC07F183F17
:10264000D9F6153F2A68133FCDD3103FDA390E3F34
:102650006B9A0B3F9BF5083F824B063F3D9C033F27
:10266000E4E7003F275DFC3ECBE0F63EEA5AF13E50
:10267000BBCBEB3E7533E63E4F92E03E80E8DA3E60
:102680004136D53ECA7BCF3E53B9C93E15EFC33E56
:10269000491DBE3E2A44B83EEF63B23ED47CAC3EF8
:1026A000128FA63EE59AA03E86A09A3E32A0943EA6
:1026B000229A8E3E938E883EC07D823ECCCF783E5D
:1026C0007F9A6C3E135C603E0115543EC2C5473E86
:1026D000CF6E3B3EA2102F3EB5AB223E8340163E4E
:1026E00087CF093E73B2FA3D2FBCE13D36BDC83DF0
:1026F00080B6AF3D04A9963D752B7B3D2EFB483D32
:102700002BC3163DB10AC93C920E493C00000000A3
:10271000920E49BCB10AC9BC2BC316BD2EFB48BDE5
:10272000752B7BBD04A996BD80B6AFBD36BDC8BDB7
:102730002FBCE1BD73B2FABD87CF09BE834016BE80
:10274000B5AB22BEA2102FBECF6E3BBEC2C547BEE8
:10275000011554BE135C60BE7F9A6CBECCCF78BEB0
:10276000C07D82BE938E88BE229A8EBE32A094BE59
:1027700086A09ABEE59AA0BE128FA6BED47CACBE3F
:10278000EF63B2BE2A44B8BE491DBEBE15EFC3BE3C
:1027900053B9C9BECA7BCFBE4136D5BE80E8DABECA
:1027A0004F92E0BE7533E6BEBBCBEBBEEA5AF1BE3C
:1027B000CBE0F6BE275DFCBEE4E700BF3D9C03BF57
:1027C000824B06BF9BF508BF6B9A0BBFDA390EBF71
:1027D000CDD310BF2A6813BFD9F615BFC07F18BF6D
:1027E000C6021BBFD17F1DBFCBF61FBF996722BF9B
:1027F00025D224BF563627BF159429BF4AEB2BBFDD
:10280000DE3B2EBFBB8530BFC9C832BFF30435BF26
:10281000233A37BF426839BF3B8F3BBFF9AE3DBF5C
:1028200067C73FBF70D841BF01E243BF03E445BF64
:1028300065DE47BF12D149BFF8BB4BBF029F4DBFFA
:10284000207A4FBF3D4D51BF491853BF31DB54BFB4
:10285000E59556BF534858BF6AF259BF1A945BBFFB
:10286000532D5DBF05BE5EBF214660BF97C561BFEA
:102870005A3C63BF59AA64BF880F66BFD86B67BF55
:102880003CBF68BFA7096ABF0C4B6BBF5E836CBFC0
:1028900093B26DBF9ED86EBF73F56FBF080971BF4D
:1028A000521372BF471473BFDD0B74BF0BFA74BFB2
:1028B000C6DE75BF07BA76BFC58B77BFF85378BF42
:1028C000981279BF9DC779BF02737ABFBE147BBFD0
:1028D000CDAC7BBF283B7CBFC9BF7CBFAC3A7DBFC2
:1028E000CCAB7DBF23137EBFB0707EBF6DC47EBFF7
:1028F000580E7FBF6D4E7FBFAB847FBF0FB17FBFD0
:1029000097D37FBF43EC7FBF11FB7FBF000080BF29
:1029100011FB7FBF43EC7FBF97D37FBF0FB17FBF5A
:10292000AB847FBF6D4E7FBF580E7FBF6DC47EBF2F
:10293000B0707EBF23137EBFCCAB7DBFAC3A7DBFF2
:10294000C9BF7CBF283B7CBFCDAC7BBFBE147BBF67
:1029500002737ABF9DC779BF981279BFF85378BFC9
:10296000C58B77BF07BA76BFC6DE75BF0BFA74BFDB
:10297000DD0B74BF471473BF521372BF080971BFD8
:1029800073F56FBF9ED86EBF93B26DBF5E836CBF91
:102990000C4B6BBFA7096ABF3CBF68BFD86B67BF52
:1029A000880F66BF59AA64BF5A3C63BF97C561BF11
:1029B000214660BF05BE5EBF532D5DBF1A945BBF4D
:1029C0006AF259BF534858BFE59556BF31DB54BF33
:1029D000491853BF3D4D51BF207A4FBF029F4DBF95
:1029E000F8BB4BBF12D149BF65DE47BF03E445BF0B
:1029F00001E243BF70D841BF67C73FBFF9AE3DBFDB
:102A00003B8F3BBF426839BF233A37BFF30435BF22
:102A1000C9C832BFBB8530BFDE3B2EBF4AEB2BBFE0
:102A2000159429BF563627BF25D224BF996722BFE8
:102A3000CBF61FBFD17F1DBFC6021BBFC07F18BF13
:102A4000D9F615BF2A6813BFCDD310BFDA390EBF30
:102A50006B9A0BBF9BF508BF824B06BF3D9C03BF23
:102A6000E4E700BF275DFCBECBE0F6BEEA5AF1BE4C
:102A7000BBCBEBBE7533E6BE4F92E0BE80E8DABE5C
:102A80004136D5BECA7BCFBE53B9C9BE15EFC3BE52
:102A9000491DBEBE2A44B8BEEF63B2BED47CACBEF4
:102AA000128FA6BEE59AA0BE86A09ABE32A094BEA2
:102AB000229A8EBE938E88BEC07D82BECCCF78BE59
:102AC0007F9A6CBE135C60BE011554BEC2C547BE82
:102AD000CF6E3BBEA2102FBEB5AB22BE834016BE4A
:102AE00087CF09BE73B2FABD2FBCE1BD36BDC8BDEC
:102AF00080B6AFBD04A996BD752B7BBD2EFB48BD2E
:102B00002BC316BDB10AC9BC920E49BC000000809F
:102B1000302B000800000020100000001402000804
:102B2000402B000810000020680700003002000859
:102B300010000000010000000000803F0024F400AD
:04000005080001D915
:00000001FF
