:020000040800F2
:10000000C006002079020008411D0008911B00086D
:100010003D1D000881030008B11E0008000000001B
:10002000000000000000000000000000491D000862
:100030008503000800000000451D00084D1D000854
:10004000930200089302000893020008930200083C
:10005000930200089302000893020008930200082C
:10006000930200089302000893020008930200081C
:10007000930200089302000893020008930200080C
:1000800093020008930200089302000893020008FC
:1000900093020008930200089302000893020008EC
:1000A00093020008930200089302000893020008DC
:1000B00093020008930200089302000893020008CC
:1000C00093020008930200089302000893020008BC
:1000D00093020008930200089302000893020008AC
:1000E000930200089302000893020008930200089C
:1000F000930200089302000893020008930200088C
:10010000930200089302000893020008930200087B
:10011000930200089302000893020008930200086B
:10012000930200089302000893020008930200085B
:10013000930200089302000893020008930200084B
:10014000930200089302000893020008930200083B
:10015000930200089302000893020008930200082B
:10016000930200089302000893020008930200081B
:10017000930200089302000893020008930200080B
:1001800093020008930200089302000893020008FB
:100190009302000800000000930200089302000888
:1001A00093020008930200089302000893020008DB
:1001B00093020008930200089302000893020008CB
:1001C00093020008930200089302000893020008BB
:1001D000930200089302000800F002F800F03CF8D7
:1001E0000AA090E8000C82448344AAF10107DA4592
:1001F00001D100F031F8AFF2090EBAE80F0013F0A8
:10020000010F18BFFB1A43F001031847801D0000BF
:10021000A01D0000103A24BF78C878C1FAD8520750
:1002200024BF30C830C144BF04680C607047000070
:100230000023002400250026103A28BF78C1FBD8EF
:10024000520728BF30C148BF0B6070471FB501F08F
:1002500088FE1FBD10B510BD00F058F81146FFF71D
:10026000F5FF01F027FE00F076F803B4FFF7F2FF88
:1002700003BC00F07DF800000948804709480047AA
:10028000FEE7FEE7FEE7FEE7FEE7FEE7FEE7FEE746
:10029000FEE7FEE704480549054A064B70470000A3
:1002A000511D0008D9010008C0000020C006002030
:1002B000C0020020C00200204FF0000200B513462B
:1002C00094469646203922BFA0E80C50A0E80C5076
:1002D000B1F12001BFF4F7AF090728BFA0E80C5027
:1002E00048BF0CC05DF804EB890028BF40F8042B20
:1002F00008BF704748BF20F8022B11F0804F18BF8D
:1003000000F8012B7047704770477047754600F042
:100310002BF8AE4605006946534620F00700854697
:1003200018B020B5FFF7B6FFBDE820404FF000063B
:100330004FF000074FF000084FF0000BAC46ACE860
:10034000C009ACE8C009ACE8C009ACE8C00921F0BC
:1003500007018D46704710B50446AFF30080204674
:10036000BDE81040FFF781BF004870471000002033
:1003700001491820ABBEFEE72600020070470000CE
:10038000FEE7000070470000EFF3108072B600BF78
:10039000FEE700002DE9F04F84B00C680190002CBE
:1003A00000F0E280019841F2004600F13842C4F6C4
:1003B00000068E464FEAB2270621B04208BF05214B
:1003C000052F4FF000054FF001074FF000064FF0EA
:1003D000000838BF4FEAB2210091CDF808E00DE0E7
:1003E000DEF8004008F1010834FA07F106F10206D0
:1003F00007F1010705F1040500F0B680A7F1010A35
:10040000012000FA0AF214EA0209E9D0DEF804C079
:100410000CF0030BABF10104012C17D801987446C2
:1004200081680323E468B3409943B4402143816069
:1004300041684FEA480E9143CCF3001202FA0AF2E7
:100440000446D843114361600CE000BF0321B14072
:10045000019CC843BBF1030FB64603D1B6464FF02B
:10046000030B23E0E168029B01409A68BBF1020F95
:1004700002FA0EF241EA0201E16017D16FF00301C6
:1004800001EA5A01214405F01C040F22D1F820C0D2
:1004900002FA04FB1A692CEA0B0CA24042EA0C0295
:1004A000019C0A62D3F804C00CF0030B21680BFA1C
:1004B0000EF2014011432160DDF808E01CF4403FDA
:1004C0008ED041F26000C4F20200016840F2004C9C
:1004D00041F0010101600168C4F2010C01F0010169
:1004E000039103992AF003014FF6084A6144CFF6BD
:1004F000FF7A05F00C030F2051F80A2000FA03F4EC
:100500000098A24300FA03F31A4341F80A20DCF8EA
:100510000810DEF8042041EA090340F20C40D4023E
:1005200058BF21EA0903CCF80830C4F20100016881
:10053000940241EA090358BF21EA09030360DCF889
:100540000410940341EA090358BF21EA0903CCF8D7
:100550000430DCF80010D20341EA090358BF21EA55
:100560000903CCF800303BE704B0BDE8F08F000091
:1005700040F2BC00C2F200000068704740F2000088
:1005800040F2BC01C2F20000C2F2000140680A68F9
:10059000104408607047000080B5032000F07AF82E
:1005A0000F2000F009F800281CBF012080BD00F0DA
:1005B0002BF8002080BD000070B540F20006C2F2AA
:1005C00000067168E1B1044640F20800C2F2000082
:1005D0004FF47A720068B2FBF1F1B0FBF1F000F079
:1005E000F1FC0F2C4FF0010508D838B94FF0FF305F
:1005F00021460022002500F021F83460284670BD15
:100600000125284670BD000082B041F25800C4F2B6
:100610000200816841F001018160816801F00101FF
:1006200001910199016841F080510160006800F07A
:1006300080500090009802B000F0DAB810B54EF685
:100640000C5CCEF2000CDCF80030C3F3022E8EF00E
:100650000704042C28BF0424BEF103034FF0FF3E1F
:100660000EFA04F438BF0023A14399400EFA03F3B5
:100670009A4300F00F03043B1143634409010C3318
:1006800000F16042B0F1FF3FC8BF02F5644319704A
:1006900010BD00004EF60C51CEF200010A684FF674
:1006A000FF031A4060F30A2242F0806040F0FD70C0
:1006B00008607047B0F5007F48D0002840F08A807D
:1006C00047F21400C4F2000050F8141CC26E01F48A
:1006D000C06122F48072B1F5806FC26633D150F8E8
:1006E000141C012262F34A2140F8141C40F2080154
:1006F000C2F200010968322251434DF68362C4F20E
:100700001B32A1FB0212910C02684B1C18BF12F4A1
:10071000806213D00268002918BF12F480620DD0E5
:100720000268012918BF12F4806207D0026802290A
:1007300004D012F48062A1F10401E5D10068400503
:1007400044BF032070470020704700BF47F21400E9
:10075000C4F2000050F8141CC26E01F4C06142F4EF
:100760008072B1F5806FC266EDD150F8141C012281
:1007700062F34A2140F8141C40F20801C2F2000161
:100780000968322251434DF68362C4F21B32A1FB49
:100790000212910C02684B1C18BF12F4806213D035
:1007A0000268002918BF12F480620DD00268012986
:1007B00018BF12F4806207D00268022904D012F434
:1007C0008062A1F10401E5D10068400544BF032027
:1007D0007047B8E747F21400C4F2000050F8141C48
:1007E000022262F34A2140F8141C002070470000E6
:1007F00047F20800C4F20000016841F48041016042
:10080000704700002DE9F04700286DD042F2000A41
:10081000C4F2020A0446DAF800000D4600F00F00A8
:1008200088420CD2DAF8000020F00F002843CAF802
:100830000000DAF8000000F00F00A84254D121684F
:1008400041F20808C807C4F2020803D1880740F142
:10085000D880BDE0606802283AD0032840D158F81B
:10086000082C920140D5D8F80420D8F8043042F280
:10087000004702F00302C3F30313C0F2F40701338D
:10088000032A04BF41F20027C0F27A07D8F80420F7
:10089000B7FBF3F3D8F80470C2F306225A43C7F348
:1008A0004163022707EB4303B2FBF3F24BF2004331
:1008B000C0F2C4439A4261D9D8F8002012F0F00F78
:1008C00051D089075AD5A168002957D14BE000BF04
:1008D00058F8081C89035CBF0120BDE8F08707E0D9
:1008E00058F8081C490503D40120BDE8F08700BF73
:1008F000D8F8001001F00C0104293FD0D8F80010FE
:1009000001F00C01082939D0D8F8001001F00C01D1
:100910000C2933D1D8F80410D8F8042042F200434F
:1009200001F00301C2F30312C0F2F4030132032900
:1009300004BF41F20023C0F27A03D8F80410B3FBDD
:10094000F2F2D8F80430C1F306215143C3F34162F7
:10095000022303EB4202B1FBF2F14BF20042C0F280
:10096000C44291420AD9D8F80010082262F3071154
:100970004FF00109C8F8001002E000BF4FF0000975
:10098000D8F8001021F003010843C8F80000FFF771
:10099000EFFD064641F28837D8F80000616800F0A4
:1009A0000C00B0EB810F07D0FFF7E2FD801BB842CF
:1009B000F2D90320BDE8F0872168880708D4B9F18F
:1009C000000F1ED0D8F8000020F0F00017E000BFA4
:1009D000480705D5D8F8000040F4E060C8F80000EA
:1009E000080706D5D8F80000072262F30D20C8F8E2
:1009F0000000D8F80000A26820F0F0001043C8F80A
:100A00000000DAF8000000F00F00A8421BD9DAF865
:100A1000000020F00F002843CAF80000FFF7A8FDEF
:100A2000064641F2883700BFDAF8000000F00F00F8
:100A3000A84207D0FFF79CFD801BB842F4D90320E1
:100A4000BDE8F0872168480707D5D8F80000E268BC
:100A500020F4E0601043C8F80000080708D5D8F873
:100A60000000216920F4605040EAC100C8F800008D
:100A7000D8F8000042F20041C0F2F40100F00C008E
:100A8000042808462DD0D8F8000000F00C000828F3
:100A900041F20020C0F27A0023D0D8F8002002F002
:100AA0000C020C2A1CD1D8F80420D8F8043002F02B
:100AB0000302C3F303130133032A08BF0146D8F826
:100AC0000400B1FBF3F1D8F80420C0F3062048433A
:100AD000C2F34161022202EB4101B0FBF1F000E000
:100AE0000020D8F8001041F67C72C1F30311C0F663
:100AF0000002515C40F2080201F01F0120FA01F1EE
:100B000040F20000C2F200000068C2F20002116070
:100B1000BDE8F047FFF750BD2DE9F04182B0002855
:100B200000F006810446007841F20006C007C4F2D6
:100B3000020655D12078800774D42078000700F190
:100B400097802078400700F1B7802078800600F178
:100B50000781E569002D00F03082B06800F00C00DC
:100B60000C2840F05981012D00F0E280F068216AE4
:100B700000F003028A4240F0DB80626A6FF00F03EC
:100B800000F0F00103EB0212914240F0D180A16A23
:100B900000F4FE42B2EB012F40F0CA80E16A00F09F
:100BA0007842B2EBC16F40F0C380226B0023CFF6D6
:100BB000E07303EB025200F4C0016FF314029142A0
:100BC00040F0B680616B4FF07E4202EB016100F0B5
:100BD000C06001F07E41884240F0AA80EDE100BF94
:100BE000B06800F00C01F06808295BD0032281F0A6
:100BF0000C0122EA00000844B0FA80F0400951D10B
:100C00006068B0F5803F07D0B0F5A02F40F0DA80E3
:100C1000306840F480203060306840F480303060CC
:100C2000DBE000BFB068F16800F00C00042869D078
:100C300001F0030180F00C0081F002010844B0FAD9
:100C400080F040095ED1E1683068002900F0D28070
:100C500040F480703060FFF78BFC0546306840053B
:100C600000F1FC80FFF784FC401B0228F6D92EE13E
:100C70006169D6F89400002900F0908040F00100EE
:100C8000C6F89400FFF774FC054600BFD6F8940040
:100C900080073FF556AFFFF76BFC401B0228F5D9E4
:100CA00015E100BF306880037FF544AF606800281D
:100CB0007FF440AF3CE000BFB06D10F0805808D129
:100CC000B06D40F08050B065B06D00F08050019084
:100CD000019847F20007C4F200073868C0052BD41A
:100CE000386840F480703860FFF742FC054600BF6A
:100CF0003868C00520D4FFF73BFC401B0228F7D919
:100D0000E5E000BF3068400501D5E06880B170685B
:100D1000216920F0FE4040EA0160706040F200006E
:100D2000C2F200000068FFF747FC00283FF405AF5F
:100D3000012002B0BDE8F081A068012808D0052894
:100D400040F0AA80D6F8900040F00400C6F8900069
:100D5000D6F8900040F00100C6F89000A9E000BF6E
:100D6000A169D6F89800002900F0808040F00100C9
:100D7000C6F89800FFF7FCFB054600BFD6F89800C0
:100D800080073FF5E6AEFFF7F3FB401B02284FF06C
:100D90000300F3D902B0BDE8F08100BF20F00100EC
:100DA000C6F89400FFF7E4FB054600BFD6F89400B0
:100DB00080077FF5C6AEFFF7DBFB401B0228F5D9A5
:100DC00085E000BF3168002821F48031316031684E
:100DD00021F48021316000F07F80FFF7C9FB0546D8
:100DE000306880033FF5A6AEFFF7C2FB401B6428C6
:100DF000F6D96CE020F480703060FFF7B9FB05464F
:100E0000306840057FF599AEFFF7B2FB401B022822
:100E10004FF00300F4D9BDE7306820F080703060F7
:100E2000FFF7A6FB022D05460CD100BF30688001FC
:100E300040F17E80FFF79CFB401B02284FF003002F
:100E4000F4D9A7E73068800140F1B080FFF790FB4C
:100E5000401B02284FF00300F4D99BE7706821691A
:100E600020F0FE4040EA0160706066E620F001007C
:100E7000C6F89800FFF77CFB054600BFD6F898003F
:100E800080077FF566AEFFF773FB401B02284FF02B
:100E90000300F3D97EE700BFD6F8901021F00101DE
:100EA000C6F89010D6F8901021F00401C6F8901002
:100EB00010B3FFF75DFB054641F28837D6F8900086
:100EC00080072BD4FFF754FB401BB842F6D9032010
:100ED00002B0BDE8F08100BFFFF74AFB054600BF46
:100EE000306880037FF526AEFFF742FB401B642885
:100EF0004FF00300F4D94DE7FFF73AFB054641F206
:100F0000883700BFD6F89000800707D5FFF730FB81
:100F1000401BB8424FF00300F4D93BE7B8F1000F93
:100F20007FF413AEB06D20F08050B0650DE600BFC9
:100F3000F06848F20C01C0F29F1104F1200700EAAA
:100F4000010C8ECF6FF00F00D4E90C5400EB0210AF
:100F50000022CFF6E07241EA0C0102EB0552084391
:100F60006FF314024FF07E4540EA032005EB046561
:100F7000104305F07E4540EAC7602843F0603068C2
:100F800040F080703060F06840F08070F060FFF7F3
:100F9000EFFA0446306880010FD4FFF7E9FA001B2E
:100FA00002284FF00300F5D9F4E600BFF0684FF6D1
:100FB000FC71CFF6EE610840F060002002B0BDE8A1
:100FC000F0810000411E0020B0EB116F1CBF01201A
:100FD00070474EF21002CEF2000251604EF62351DD
:100FE000CEF20001F0230B70072190601160704772
:100FF000B0B590F83C20012A04BF0220B0BDD1E971
:101000000232D1E900CE22F47C5223F4705343EA39
:10101000020448F2FF73CEF6F0730EEA0302224395
:1010200003F5006404EA0C0442EA040C0C6903F5BD
:10103000C05222404C6942EA0C02224303F560543C
:1010400022400C6B03F5F04323401A438B6940F2B6
:10105000000CCC69CEF6FF7C0CEA034C144302680A
:1010600042F60043C4F201039A4244EA0C030BD057
:1010700045F20004C4F20104A24205D043F2004448
:10108000C4F20104A24217D14FF6FF74CDF60F440B
:1010900003EA040ED1E9084CD1E90A310025CDF666
:1010A000F04505EA035343EA0E0324F008552B43A9
:1010B0002CF000552B430B430021536480F83C1067
:1010C0000846B0BD70B590F83C20012A4FF00202EE
:1010D00065D080F83D20026842F600435468D2F89B
:1010E00008C0C4F2010345F2000E9A42C4F2010E98
:1010F00018BF72452CD14D6824F470042C434FF670
:101100008F75CFF6FF550E682C4042F6FF35C4F2BE
:1011100001053443AA4254600EDC40F2FF73C4F26E
:1011200000039A421CDCB2F1804F2DD040F2004304
:10113000C4F2000326E000BF43F6FF74C4F20104CA
:10114000A24219DC9A421FD043F2004318E000BFCC
:1011500043F20045C4F20105AA42CCD0CFE700BF5C
:1011600040F60003C4F200039A420DD040F600435B
:10117000C4F2000306E000BF724505D044F200034C
:10118000C4F201039A4204D189682CF08003194308
:1011900091600121002280F83D1080F83C2010462B
:1011A00070BD000041B1082910D0042914BF00F11E
:1011B000470200F145020BE090F84420012A1CBFD1
:1011C00001207047022280F8442013E000F146021B
:1011D0001278012A1CBF012070470222082907D07B
:1011E000042914BF80F8472080F8452002E000BFA2
:1011F00080F84620026801F00F000421136A01FA0A
:1012000000F023EA00011162116A08431062506C79
:1012100042F6FF31C4F2010140F400408A425064BA
:101220000EDC40F2FF70C4F20000824218DCB2F122
:10123000804F2DD040F20040C4F2000026E000BFF5
:1012400043F6FF70C4F20100824215DC42F6004012
:10125000C4F2010082421BD043F2004014E000BF00
:1012600040F60000C4F20000824211D040F6004077
:10127000C4F200000AE000BF45F20000C4F2010021
:10128000824205D044F20000C4F20100824213D130
:1012900090680721C0F20101014006294FF00000CB
:1012A0000FD0B1F5803F08BF7047106840F00100D3
:1012B00010600020704700BF106840F0010010600F
:1012C00000207047002804BF0120704710B5044675
:1012D00090F83D0028B9002084F83C00204600F03A
:1012E00023F8022084F83D002068211D00F03AFD1B
:1012F000012084F8480084F83E0084F83F0084F818
:10130000400084F8410084F8420084F8430084F8E7
:10131000440084F8450084F8460084F8470084F8C7
:101320003D00002010BD000081B0006842F6004181
:10133000C4F20101884201D001B0704741F260005F
:10134000C4F20200016841F400610160006800F429
:1013500000600090009801B07047000080B590F8E0
:101360003C20012A4FF0020200F0988080F83D20D6
:10137000D0F800C08822DCF80830CFF6CE721A40D0
:10138000CCF808200B68B3F5005F0DDA3F2B21DDA8
:101390005F2B33DD602B00F08380702B00F0A28088
:1013A000B3F5805F73D0E7E02F22C0F210029342C2
:1013B00018DD4F21C0F210018B4247DD5021C0F2F1
:1013C00010018B4257D06021C0F210018B4252D0E5
:1013D00070214BE01F2B41DC002B4CD0102B4AD04E
:1013E000CAE000BFB3F1101F3EDAB3F5005F00F0B2
:1013F0008D80B3F5801F3ED0BEE000BF402B00F0D3
:101400009980502B40F0B880D1F804E0C968DCF82E
:101410002030DCF8202022F00102CCF82020DCF87B
:10142000182022F0F00242EA011123F00A0242EAF7
:101430000E02CCF81810CCF82020DCF808104FF67B
:101440008872CFF6CF72114057311EE03021C0F2C2
:1014500010018B420FD0402108E000BF202B0AD0A2
:10146000302B08D088E000BF05D02021C0F2100149
:101470008B4240F08180DCF808104FF68872CFF67E
:10148000CF721140194341F00701CCF80810002237
:10149000012180F83D10002180F83C10104680BDED
:1014A000D1F804E0C968DCF82030DCF8202022F014
:1014B0001002CCF82020DCF8182022F4704242EA16
:1014C000013123F0A00242EA0E12CCF81810CCF839
:1014D0002020DCF808104FF68872CFF6CF7211404A
:1014E0006731D2E7D1E901E3C968DCF8082043EAB3
:1014F0000E0322F47F4243EA01211143CCF8081085
:10150000DCF8081041F07701BFE700BFD1E901E343
:10151000C968DCF8082043EA0E0322F47F4243EA5C
:1015200001211143CCF80810DCF8081041F4804187
:10153000ABE700BFD1F804E0C968DCF82030DCF884
:10154000202022F00102CCF82020DCF8182022F024
:10155000F00242EA011123F00A0242EA0E02CCF83C
:101560001810CCF82020DCF808104FF68872CFF65F
:10157000CF721140473188E7012289E72DE9F04118
:1015800090F83C30012B04BF0220BDE8F0814FEA07
:10159000B202052A00F2A281DFE812F00600540030
:1015A000AE0008016201A80103681D6A1A6AA3F16E
:1015B000804622F001021A621A46D3F8048052F8DB
:1015C00018EF8F68A6F59636D1F800C025F0020511
:1015D0004FEAB626092E45EA07050BD80127B74082
:1015E00040F2E52427421FBFCC6825F00C0524F00B
:1015F00004042543092E0CD80124B44040F2E5260A
:1016000034421FBF28F44074D1E90567344344EAEB
:1016100007084FF68C74CFF6FE740EEA040747EA0B
:101620000C07C3F804809F614F6809695F631D62FE
:101630009F6947F008079F619F6927F004079F6132
:1016400092E100BF036842F600461D6A1A6AC4F2BE
:10165000010622F010021A621A465C6852F818EF6E
:10166000B3428E68D1F800C025F0200545EA061582
:101670000BD045F20006C4F20106B34205D043F296
:101680000046C4F20106B34207D1CE686FF04007AE
:1016900025F0C00507EA06163543A3F18046A6F5F6
:1016A00096364FEAB626092E0ED8012707FA06F617
:1016B00040F2E5273E421FBF24F44064D1E90567AC
:1016C00044EA860444EA870448F6FF46CFF6FF66FC
:1016D0000EEA060747EA0C275C609F614F680969BC
:1016E0009F631D629F6947F400679F619F6927F4AC
:1016F00080679F6137E100BF036842F600461D6ABC
:101700001A6AC4F2010622F480721A621A465C68F0
:1017100052F81CCFB3428E68D1F800E025F4007572
:1017200045EA06250BD045F20006C4F20106B34295
:1017300005D043F20046C4F20106B34207D1CE6899
:1017400040F2FF47360225F44065BE433543A3F11E
:101750008046A6F596364FEAB626092E0ED8012702
:1017600007FA06F640F2E5273E421FBF24F4405434
:10177000D1E9056744EA061444EA07144FF68C766B
:10178000CFF6FE760CEA060747EA0E075C60DF61DB
:101790004F680969DF631D62DF6947F00807DF6191
:1017A000DF6927F00407DF61DEE000BF036842F66F
:1017B00000461D6A1A6AC4F2010622F480521A62B7
:1017C0001A465C6852F81CCFB3428E68D1F800E02C
:1017D00025F4005545EA06350BD045F20006C4F263
:1017E0000106B34205D043F20046C4F20106B342FB
:1017F00007D1CE6844F6FF77360325F44045BE4353
:101800003543A3F18046A6F596364FEAB626092E53
:101810000ED8012707FA06F640F2E5273E421FBF21
:1018200024F44044D1E9056744EA861444EA871465
:1018300048F6FF46CFF6FF660CEA060747EA0E2792
:101840005C60DF614F6809691F641D62DF6947F4EE
:101850000067DF61DF6927F48067DF6183E000BF35
:101860000368D3F820C01A6AA3F1804722F48032BB
:101870001A621A46A7F596375D6852F8508FD1F86C
:1018800000E08E684FEAB727092F0AD80124BC4030
:1018900040F2E5273C421EBF4C6925F4803545EAFD
:1018A00004252CF4003747EA06474FF68C76CFF62E
:1018B000FE76033606EA080646EA0E065D601E65F9
:1018C0004E6809699E641F621F6D47F008071F6517
:1018D0001F6D27F004071F6546E000BF01210022AD
:1018E00080F83C200846BDE8F08100BF0368D3F8CB
:1018F00020C01A6AA3F1804722F480121A621A46A5
:10190000A7F596375D6852F8508FD1F800E08E68E1
:101910004FEAB727092F0AD80124BC4040F2E52737
:101920003C421EBF4C6925F4802545EA84252CF4F1
:10193000001747EA065748F6FF46CFF6FF6606F55A
:10194000407606EA080646EA0E265D601E654E6889
:101950000969DE641F621F6D47F400671F651F6D14
:1019600027F480671F65090213681943116000217D
:10197000002280F83C200846BDE8F081002804BF22
:101980000120704710B5044690F83D0028B90020AA
:1019900084F83C00204600F023F8022084F83D0043
:1019A0002068211D00F0DEF9012084F8480084F849
:1019B0003E0084F83F0084F8400084F8410084F839
:1019C000420084F8430084F8440084F8450084F819
:1019D000460084F8470084F83D00002010BD000058
:1019E0007047000061B10A1F4FEAB202032A15D8FE
:1019F000DFE802F00218101C00F13F0318E000BFFE
:101A000090F83E20012A1CBF01207047022280F876
:101A10003E202CE000F141030AE000BF00F1430347
:101A200006E000BF00F1400302E000BF00F1420306
:101A30001B78012B1CBF01207047032A0CD8DFE85C
:101A400002F0030F071300BF022280F83F200EE0D0
:101A5000022280F841200AE0022280F8432006E0BA
:101A6000022280F8402002E0022280F84220026830
:101A700001F01F010120136A00FA01F18B43136288
:101A8000136A0B43A2F18041A1F596314FEAB121CF
:101A90000729136258D8884010F0E50F54D0506CD5
:101AA00042F6FF31C4F2010140F400408A42506422
:101AB0000EDC40F2FF70C4F20000824218DCB2F18A
:101AC000804F2DD040F20040C4F2000026E000BF5D
:101AD00043F6FF70C4F20100824215DC42F600407A
:101AE000C4F2010082421BD043F2004014E000BF68
:101AF00040F60000C4F20000824211D040F60040DF
:101B0000C4F200000AE000BF45F20000C4F2010088
:101B1000824205D044F20000C4F20100824231D179
:101B200090680721C0F20101014006294FF0000032
:101B30002DD0B1F5803F08BF7047106840F001001C
:101B400010600020704700BF42F6FF30C4F2010071
:101B50008242AEDD43F6FF70C4F201008242BDDD79
:101B600044F20000C4F201008242D9D045F20000E4
:101B7000C4F20100824205D1506C40F40040506430
:101B8000CEE700BF106840F00100106000207047F1
:101B9000FEE7000082B041F24C00C4F2020001688E
:101BA00041F004010160016801F004010191019913
:101BB000016841F020010160006800F02000009001
:101BC000009802B070470000F0B5A1B042F60045A1
:101BD000002401A83421C4F201051B94CDE9194465
:101BE000CDE91644CDE91444CDE91244CDE91044C1
:101BF000CDE90E44FEF760FB40F27000C2F2000037
:101C000042F233118022C0E90054C0E90241C0E928
:101C100004448261FFF756FB002818BFFEF7B4FBAF
:101C20004FF48050189040F27000C2F2000018A9E2
:101C3000FFF794FB002818BFFEF7A6FB40F27000E8
:101C4000C2F20000FFF79AFE002818BFFEF79CFBC7
:101C50002020159040F270000024C2F2000015A967
:101C6000CDE91644FFF72EFA002818BFFEF78CFBCB
:101C700060200E904FF4FA60CDE90F0440F270003E
:101C8000C2F200000EA90022CDE91144CDE91344AF
:101C9000FFF774FC002818BFFEF776FB00204FF416
:101CA000005140F27004CDE906104FF00071C2F20D
:101CB00000040590CDE90300CDE90100CDE908005D
:101CC000CDE90A10CDE90C0001A92046FFF790F9F3
:101CD000002818BFFEF758FB2068A84202D021B0A8
:101CE000F0BD00BF41F24C00C4F20200016840F6B2
:101CF000000441F0040101600068C4F6000400F033
:101D000004001C901C984FF400501C9004201CAD43
:101D1000022600272090204629461D96CDE91E77F1
:101D2000FEF738FB01201CA9C1C120462946CDE998
:101D30001F76FEF72FFB21B0F0BD0000FEE700008C
:101D4000FEE700007047000070470000FEF716BC79
:101D50004EF68850CEF20000016841F47001016037
:101D60007047000080B540F6FF330268C4F20003FC
:101D700043F2FF3C9842C4F2010C0BDD60452FDCBE
:101D800040F60043C4F20003984235D042F60043C7
:101D90002EE000BFB0F1804F2ED040F20043C4F2DD
:101DA0000003984228D040F60003C4F20003984292
:101DB00022D0604526DC40F2FF73C4F20003984253
:101DC00036DD40F60003C4F20003984244D040F6EA
:101DD0000043C4F2000398423ED042F6004337E08D
:101DE00045F20003C4F20103984205D043F20043D8
:101DF000C4F201039842DCD14B6822F070021A430E
:101E00006045D8DD44F2FF33C4F20103984217DD88
:101E100044F20043C4F2010398421DD045F200038E
:101E2000C4F20103984217D044F6000310E000BF4B
:101E3000B0F1804F10D040F20043C4F2000309E03B
:101E400043F20043C4F20103984205D044F2000378
:101E5000C4F20103984203D1CB6822F440721A43C2
:101E60004B6922F0800E8A6843EA0E03D1F800C065
:101E70000360C262A0F18042A2F596324FEAB2221C
:101E8000092AC0F828C008D8012303FA02F240F258
:101E9000E5231A421CBF09690163012141610169FF
:101EA000C90708BF80BD016921F00101016180BD42
:101EB000FEE7000094B0FEF76FFB00240020CDE9A0
:101EC0000B44CDE90944CDE907440594CDE9034429
:101ED000CDE90144FEF7EEFB4FF4807109914021FA
:101EE0000A91042102200F9155210690CDE90D00A1
:101EF000CDE91010CDE9120006A8FEF70DFE28B1BD
:101F0000EFF3108072B600BFFEE700BF0F20019014
:101F10000320CDE9020401A80421CDE90444FEF721
:101F200071FC28B1EFF3108072B600BFFEE700BF6E
:101F3000FFF730FEFFF748FE40F27004C2F20004E3
:101F400020460021FFF74EFD20460021FFF72AF929
:101F5000206842F23311C162E16040F6B83141635A
:101F6000FEE7F1EE100A4FF6FF71C0F2C03120EA31
:101F7000010040F04070E1EE100A704700000000E0
:101F8000000000000102030406070809B01F000852
:101F9000000000201000000014020008C01F00080C
:101FA00010000020B0060000300200080000000011
:101FB00010000000010000000024F40000000000F8
:04000005080001D915
:00000001FF
