:020000040800F2
:100000007007002079020008B51A0008A918000836
:10001000B11A000881030008D91A00080000000086
:10002000000000000000000000000000BD1A0008F1
:100030008503000800000000B91A0008C11A000872
:10004000930200089302000893020008930200083C
:10005000930200089302000893020008930200082C
:10006000930200089302000893020008930200081C
:10007000930200089302000893020008930200080C
:1000800093020008930200089302000893020008FC
:1000900093020008930200089302000893020008EC
:1000A00093020008930200089302000893020008DC
:1000B00093020008930200089302000893020008CC
:1000C00093020008930200089302000893020008BC
:1000D00093020008930200089302000893020008AC
:1000E000930200089302000893020008930200089C
:1000F000930200089302000893020008930200088C
:10010000930200089302000893020008930200087B
:10011000930200089302000893020008930200086B
:10012000930200089302000893020008930200085B
:10013000930200089302000893020008930200084B
:10014000930200089302000893020008930200083B
:10015000930200089302000893020008930200082B
:10016000930200089302000893020008930200081B
:10017000930200089302000893020008930200080B
:1001800093020008930200089302000893020008FB
:100190009302000800000000930200089302000888
:1001A00093020008930200089302000893020008DB
:1001B00093020008930200089302000893020008CB
:1001C00093020008930200089302000893020008BB
:1001D000930200089302000800F002F800F03CF8D7
:1001E0000AA090E8000C82448344AAF10107DA4592
:1001F00001D100F031F8AFF2090EBAE80F0013F0A8
:10020000010F18BFFB1A43F001031847CC19000077
:10021000EC190000103A24BF78C878C1FAD8520708
:1002200024BF30C830C144BF04680C607047000070
:100230000023002400250026103A28BF78C1FBD8EF
:10024000520728BF30C148BF0B6070471FB501F08F
:10025000A0FC1FBD10B510BD00F058F81146FFF707
:10026000F5FF01F03BFC00F076F803B4FFF7F2FF76
:1002700003BC00F07DF800000948804709480047AA
:10028000FEE7FEE7FEE7FEE7FEE7FEE7FEE7FEE746
:10029000FEE7FEE704480549054A064B70470000A3
:1002A000C51A0008D901000870010020700700205D
:1002B00070030020700300204FF0000200B51346C9
:1002C00094469646203922BFA0E80C50A0E80C5076
:1002D000B1F12001BFF4F7AF090728BFA0E80C5027
:1002E00048BF0CC05DF804EB890028BF40F8042B20
:1002F00008BF704748BF20F8022B11F0804F18BF8D
:1003000000F8012B7047704770477047754600F042
:100310002BF8AE4605006946534620F00700854697
:1003200018B020B5FFF7B6FFBDE820404FF000063B
:100330004FF000074FF000084FF0000BAC46ACE860
:10034000C009ACE8C009ACE8C009ACE8C00921F0BC
:1003500007018D46704710B50446AFF30080204674
:10036000BDE81040FFF781BF004870471000002033
:1003700001491820ABBEFEE72600020070470000CE
:10038000FEE7000070470000EFF3108072B600BF78
:10039000FEE700002DE9F04F84B00C680190002CBE
:1003A00000F0E280019841F2004600F13842C4F6C4
:1003B00000068E464FEAB2270621B04208BF05214B
:1003C000052F4FF000054FF001074FF000064FF0EA
:1003D000000838BF4FEAB2210091CDF808E00DE0E7
:1003E000DEF8004008F1010834FA07F106F10206D0
:1003F00007F1010705F1040500F0B680A7F1010A35
:10040000012000FA0AF214EA0209E9D0DEF804C079
:100410000CF0030BABF10104012C17D801987446C2
:1004200081680323E468B3409943B4402143816069
:1004300041684FEA480E9143CCF3001202FA0AF2E7
:100440000446D843114361600CE000BF0321B14072
:10045000019CC843BBF1030FB64603D1B6464FF02B
:10046000030B23E0E168029B01409A68BBF1020F95
:1004700002FA0EF241EA0201E16017D16FF00301C6
:1004800001EA5A01214405F01C040F22D1F820C0D2
:1004900002FA04FB1A692CEA0B0CA24042EA0C0295
:1004A000019C0A62D3F804C00CF0030B21680BFA1C
:1004B0000EF2014011432160DDF808E01CF4403FDA
:1004C0008ED041F26000C4F20200016840F2004C9C
:1004D00041F0010101600168C4F2010C01F0010169
:1004E000039103992AF003014FF6084A6144CFF6BD
:1004F000FF7A05F00C030F2051F80A2000FA03F4EC
:100500000098A24300FA03F31A4341F80A20DCF8EA
:100510000810DEF8042041EA090340F20C40D4023E
:1005200058BF21EA0903CCF80830C4F20100016881
:10053000940241EA090358BF21EA09030360DCF889
:100540000410940341EA090358BF21EA0903CCF8D7
:100550000430DCF80010D20341EA090358BF21EA55
:100560000903CCF800303BE704B0BDE8F08F000091
:1005700040F26C10C2F200000068704790F8DC2076
:10058000012A4FF0020221D0012380F8DC3080F8EC
:10059000DD2002684B1CD2F8CCC309D04CF002031A
:1005A000C2F8CC33D2F8CC3323F00C03194301E06A
:1005B0002CF00201C2F8CC13D2F8CC1341F00101A7
:1005C000C2F8CC130121002280F8DD1010467047DC
:1005D000002804BF0120704710B582B004460220F5
:1005E00084F8DD00207AC0074FF00000C4E938002D
:1005F000C4E93A00C4E93C00C4F8F8001FD0206800
:1006000046F60001C4F2010188420CD141F26001BA
:10061000C4F202010A6842F080620A60096801F0CF
:100620008061019101990168D4E9042321F47041AA
:1006300002F44042114403F4405211440160204648
:1006400000F03EF8207A800706D52068E16802684D
:10065000090A61F309220260012084F8DD0000200C
:1006600084F8DC00C4F8D800C4E90600C4E9080036
:10067000A062C4E90C00C4E90E00C4E91000C4E99A
:100680001300C4E91500C4E91700C4E91A00C4E95D
:100690001C00C4E91E00C4E92100C4E92300C4E928
:1006A0002500C4E92800C4E92A00C4E92C00C4E9F3
:1006B0002F00C4E93100C4E9330002B010BD0000CE
:1006C00081B0006846F60001C4F20101884201D001
:1006D00001B0704741F26000C4F20200016841F0CD
:1006E00080610160006800F080600090009801B0B7
:1006F0007047000070B50D460446FFF739FF2168CA
:10070000D1F88823D2031FD435B30646681C11D113
:10071000D1F88803C00317D4D1F88803C0035CBFA5
:10072000D1F888035FEAC0300ED4D1F88803C00343
:10073000EED509E0FFF71CFF801BA8420ED8206809
:10074000D0F88803C003F5D5012084F8DD0000202F
:1007500084F8DC0070BD00BFFFF70AFF072084F8B3
:10076000DD00032070BD000010B590F8DD30022BD5
:100770004FF002032ED080F8DD300368062911D136
:100780001968D2E900CED2E9024221F01F0124F01B
:100790001804214311431960C3F814C0C3F818E0CA
:1007A00014E000BF03EBC111D1F88030D2E900ECB6
:1007B000D2E9024223F01F0324F0180423431A4312
:1007C000C1F88020C1F894E0C1F898C0012100234D
:1007D00080F8DD10184610BD80B590F8DDC0BCF182
:1007E000020F04BF022080BD90F8DCC0BCF1010FF5
:1007F0004FF0020C00F09E804FF0010E062980F8A9
:10080000DCE080F8DDC00FD1511E072926D80FF299
:100810000602DFE801F0051F232B2323232F00BF4F
:1008200019680268D16128E0A2F1010CBCF1070F40
:1008300046D80FF20602DFE80CF00527434B43438E
:10084000435300BF02681B6802EBC111C1F89C3022
:1008500063E000BF1968026851620EE0072180F86A
:10086000DD10002180F8DC1007E000BF1968026885
:10087000916202E019680268D16290F8DD100729E0
:1008800004BF012080BD4EE0026802EBC11CD3E929
:10089000001ECCF8A410614651F8802FBEF1000F65
:1008A00022F440520A6038D00A6842EA0E02BEF5CD
:1008B000405F0A602BD19968CCF8A8102DE000BFEA
:1008C000072180F8DD10002180F8DC1025E000BF52
:1008D00002681B6802EBC111C1F8A8301DE000BF1F
:1008E000026802EBC11CD3E9001ECCF8AC106146D3
:1008F00051F8802FBEF1000F22F440420A600CD064
:100900000A6842EA8E02BEF5405F0A60D3D0BEF5A7
:10091000005F02D19968CCF89C1090F8DD1007298F
:1009200004BF012080BD01214FF0000C80F8DD10D4
:1009300080F8DCC0604680BD90F8DC20012A4FF0D2
:1009400002020BD080F8DD200268136819431160A1
:100950000121002280F8DD1080F8DC20104670476D
:10096000B0B5044690F8DD00022804BF0220B0BDF7
:1009700094F8DC0001284FF0020008BFB0BD01254B
:1009800084F8DC5084F8DD00206800F011FF0020BE
:1009900084F8DD5084F8DC00B0BD000090F8DC2065
:1009A000012A4FF002020DD080F8DD200268D2F853
:1009B00094331943C2F894130121002280F8DD100A
:1009C00080F8DC20104670472DE9F04F8EB090F88B
:1009D000DD30022B04D1022318460EB0BDE8F08FA3
:1009E00090F8DC30012B4FF00203F5D0012780F89E
:1009F000DC7080F8DD30D0F80090062940D1D9F8BD
:100A00000060D9F8A0C3556926F0E00625F0C004BF
:100A1000202D46EA040609D09569042D00F01A81BC
:100A2000032D00F01B81022D40F01C8146F02006B2
:100A30004FF2FF35C3F2FF15D2E907472E4005F507
:100A40000065D2E9093E2C40344327F06E452C4323
:100A500023F0684323432EF06047D2F82CB03B4389
:100A600043EA8B03576B23F000533B43176B2CF483
:100A700080352F43C9F80030C9F8A073B5E000BF36
:100A800009EBC11CE6465EF8803F644623F07043E4
:100A9000CEF80030DEF8003054F8E85F23F0200391
:100AA0000B950D94644654F8E46F0C94D9F8A05358
:100AB0005469202C44EA030709D09469042C00F0FF
:100AC000D580032C00F0D680022C40F0D78027F48C
:100AD000D07303F12007D369D2E911A40093136AFC
:100AE000D2F82CB00193536A0493936A0593536B25
:100AF0000693D2E90E830A93136C0993936D0893BE
:100B000044F48053B3F5F05F136D079326F48073BC
:100B10004AEA030A02D1B8F1400F03D12AF4F05394
:100B200043EA040AD36C05290393536D02930BD84F
:100B300054A353F821302E46156B4C1C334005FA54
:100B400004F444EA030600E02E464FF2FF33C0F2FD
:100B5000FF13009D07EA030403F500632B402343C2
:100B6000019C049DA4B223434FF6BF74C0F20064FD
:100B700025402B43059D04F100642C4023434FF690
:100B8000BF7443EA0B03CFF600642340069CB4F124
:100B9000005F4FF6FF74CFF6026408BF03F5003321
:100BA00008EA04052B43089D04F580242C402343C8
:100BB000079C2343CEF800304FF6C0730B9FC7F657
:100BC000FF733B400A9F07F03F073B44099F3B43AD
:100BD0000D9F3B60039F2AF480433B430C9F3B6087
:100BE000029BCCF8D430C9F8A063C1EBC103D2E9B1
:100BF000007500EB8303D2E90246C3E90875176963
:100C00000629C3E90A461F630AD841F6AC33C0F689
:100C1000000353F82130D9F884733B43C9F8843377
:100C200006290DD0BBF1000F0AD109EBC111D1F893
:100C30008030D26D23F4007343EA4222C1F8802051
:100C40000121002380F8DD1080F8DC3018460EB05A
:100C5000BDE8F08F46F08006EAE600BF46F04006A9
:100C6000E6E600BF26F0E006E2E600BF022363F3FB
:100C7000C81730E7012363F3C8172CE727F4D077B0
:100C800029E700BFFFFFFDFFFFFFFBFFFFFFF7FFAF
:100C9000FFFFEFFFFFFFDFFFFFFFBFFF2DE9F04189
:100CA00090F8DD30022B04BF0220BDE8F08190F8FF
:100CB000DC30012B4FF002033DD080F8DD30D0F85E
:100CC00000C04FF6EF740CEBC11E5EF8EC3FCFF6A0
:100CD000EC7492E8600123400134D76804EA0514FB
:100CE000234326F44034234327F4003495692343F7
:100CF000012D43EA080309D1D2E9044223F0060397
:100D000024F0020423431A4342F001030629CEF8DB
:100D100000300AD841F6AC32C0F6000252F8211079
:100D2000DCF884231143CCF884130121002380F8DC
:100D3000DD1080F8DC301846BDE8F08140F200009C
:100D400040F26C11C2F20000C2F2000140680A6871
:100D5000104408607047000080B5032000F07AF866
:100D60000F2000F009F800281CBF012080BD00F012
:100D70002BF8002080BD000070B540F20006C2F2E2
:100D800000067168E1B1044640F20800C2F20000BA
:100D90004FF47A720068B2FBF1F1B0FBF1F000F0B1
:100DA000F1FC0F2C4FF0010508D838B94FF0FF3097
:100DB00021460022002500F021F83460284670BD4D
:100DC0000125284670BD000082B041F25800C4F2EF
:100DD0000200816841F001018160816801F0010138
:100DE00001910199016841F080510160006800F0B3
:100DF00080500090009802B000F0DAB810B54EF6BE
:100E00000C5CCEF2000CDCF80030C3F3022E8EF046
:100E10000704042C28BF0424BEF103034FF0FF3E57
:100E20000EFA04F438BF0023A14399400EFA03F3ED
:100E30009A4300F00F03043B1143634409010C3350
:100E400000F16042B0F1FF3FC8BF02F56443197082
:100E500010BD00004EF60C51CEF200010A684FF6AC
:100E6000FF031A4060F30A2242F0806040F0FD70F8
:100E700008607047B0F5007F48D0002840F08A80B5
:100E800047F21400C4F2000050F8141CC26E01F4C2
:100E9000C06122F48072B1F5806FC26633D150F820
:100EA000141C012262F34A2140F8141C40F208018C
:100EB000C2F200010968322251434DF68362C4F246
:100EC0001B32A1FB0212910C02684B1C18BF12F4DA
:100ED000806213D00268002918BF12F480620DD01E
:100EE0000268012918BF12F4806207D00268022943
:100EF00004D012F48062A1F10401E5D1006840053C
:100F000044BF032070470020704700BF47F2140021
:100F1000C4F2000050F8141CC26E01F4C06142F427
:100F20008072B1F5806FC266EDD150F8141C0122B9
:100F300062F34A2140F8141C40F20801C2F2000199
:100F40000968322251434DF68362C4F21B32A1FB81
:100F50000212910C02684B1C18BF12F4806213D06D
:100F60000268002918BF12F480620DD002680129BE
:100F700018BF12F4806207D00268022904D012F46C
:100F80008062A1F10401E5D10068400544BF03205F
:100F90007047B8E747F21400C4F2000050F8141C80
:100FA000022262F34A2140F8141C0020704700001E
:100FB00047F20800C4F20000016841F4804101607A
:100FC000704700002DE9F04700286DD042F2000A7A
:100FD000C4F2020A0446DAF800000D4600F00F00E1
:100FE00088420CD2DAF8000020F00F002843CAF83B
:100FF0000000DAF8000000F00F00A84254D1216888
:1010000041F20808C807C4F2020803D1880740F17A
:10101000D880BDE0606802283AD0032840D158F853
:10102000082C920140D5D8F80420D8F8043042F2B8
:10103000004702F00302C3F30313C0F2F4070133C5
:10104000032A04BF41F20027C0F27A07D8F804202F
:10105000B7FBF3F3D8F80470C2F306225A43C7F380
:101060004163022707EB4303B2FBF3F24BF2004369
:10107000C0F2C4439A4261D9D8F8002012F0F00FB0
:1010800051D089075AD5A168002957D14BE000BF3C
:1010900058F8081C89035CBF0120BDE8F08707E011
:1010A00058F8081C490503D40120BDE8F08700BFAB
:1010B000D8F8001001F00C0104293FD0D8F8001036
:1010C00001F00C01082939D0D8F8001001F00C010A
:1010D0000C2933D1D8F80410D8F8042042F2004388
:1010E00001F00301C2F30312C0F2F4030132032939
:1010F00004BF41F20023C0F27A03D8F80410B3FB16
:10110000F2F2D8F80430C1F306215143C3F341622F
:10111000022303EB4202B1FBF2F14BF20042C0F2B8
:10112000C44291420AD9D8F80010082262F307118C
:101130004FF00109C8F8001002E000BF4FF00009AD
:10114000D8F8001021F003010843C8F80000FFF7A9
:101150000FFA064641F28837D8F80000616800F0BF
:101160000C00B0EB810F07D0FFF702FA801BB842EA
:10117000F2D90320BDE8F0872168880708D4B9F1C7
:10118000000F1ED0D8F8000020F0F00017E000BFDC
:10119000480705D5D8F8000040F4E060C8F8000022
:1011A000080706D5D8F80000072262F30D20C8F81A
:1011B0000000D8F80000A26820F0F0001043C8F842
:1011C0000000DAF8000000F00F00A8421BD9DAF89E
:1011D000000020F00F002843CAF80000FFF7C8F90C
:1011E000064641F2883700BFDAF8000000F00F0031
:1011F000A84207D0FFF7BCF9801BB842F4D90320FE
:10120000BDE8F0872168480707D5D8F80000E268F4
:1012100020F4E0601043C8F80000080708D5D8F8AB
:101220000000216920F4605040EAC100C8F80000C5
:10123000D8F8000042F20041C0F2F40100F00C00C6
:10124000042808462DD0D8F8000000F00C0008282B
:1012500041F20020C0F27A0023D0D8F8002002F03A
:101260000C020C2A1CD1D8F80420D8F8043002F063
:101270000302C3F303130133032A08BF0146D8F85E
:101280000400B1FBF3F1D8F80420C0F30620484372
:10129000C2F34161022202EB4101B0FBF1F000E038
:1012A0000020D8F8001041F6C832C1F30311C0F68F
:1012B0000002515C40F2080201F01F0120FA01F126
:1012C00040F20000C2F200000068C2F200021160A9
:1012D000BDE8F047FFF750BD2DE9F04182B000288E
:1012E00000F006810446007841F20006C007C4F20F
:1012F000020655D12078800774D42078000700F1C9
:1013000097802078400700F1B7802078800600F1B0
:101310000781E569002D00F03082B06800F00C0014
:101320000C2840F05981012D00F0E280F068216A1C
:1013300000F003028A4240F0DB80626A6FF00F0324
:1013400000F0F00103EB0212914240F0D180A16A5B
:1013500000F4FE42B2EB012F40F0CA80E16A00F0D7
:101360007842B2EBC16F40F0C380226B0023CFF60E
:10137000E07303EB025200F4C0016FF314029142D8
:1013800040F0B680616B4FF07E4202EB016100F0ED
:10139000C06001F07E41884240F0AA80EDE100BFCC
:1013A000B06800F00C01F06808295BD0032281F0DE
:1013B0000C0122EA00000844B0FA80F0400951D143
:1013C0006068B0F5803F07D0B0F5A02F40F0DA801C
:1013D000306840F480203060306840F48030306005
:1013E000DBE000BFB068F16800F00C00042869D0B1
:1013F00001F0030180F00C0081F002010844B0FA12
:1014000080F040095ED1E1683068002900F0D280A8
:1014100040F480703060FFF7ABF805463068400557
:1014200000F1FC80FFF7A4F8401B0228F6D92EE15A
:101430006169D6F89400002900F0908040F0010026
:10144000C6F89400FFF794F8054600BFD6F894005C
:1014500080073FF556AFFFF78BF8401B0228F5D900
:1014600015E100BF306880037FF544AF6068002855
:101470007FF440AF3CE000BFB06D10F0805808D161
:10148000B06D40F08050B065B06D00F080500190BC
:10149000019847F20007C4F200073868C0052BD452
:1014A000386840F480703860FFF762F8054600BF86
:1014B0003868C00520D4FFF75BF8401B0228F7D935
:1014C000E5E000BF3068400501D5E06880B1706894
:1014D000216920F0FE4040EA0160706040F20000A7
:1014E000C2F200000068FFF747FC00283FF405AF98
:1014F000012002B0BDE8F081A068012808D00528CD
:1015000040F0AA80D6F8900040F00400C6F89000A1
:10151000D6F8900040F00100C6F89000A9E000BFA6
:10152000A169D6F89800002900F0808040F0010001
:10153000C6F89800FFF71CF8054600BFD6F89800DB
:1015400080073FF5E6AEFFF713F8401B02284FF087
:101550000300F3D902B0BDE8F08100BF20F0010024
:10156000C6F89400FFF704F8054600BFD6F89400CB
:1015700080077FF5C6AEFEF7FBFF401B0228F5D9BA
:1015800085E000BF3168002821F480313160316886
:1015900021F48021316000F07F80FEF7E9FF0546ED
:1015A000306880033FF5A6AEFEF7E2FF401B6428DB
:1015B000F6D96CE020F480703060FEF7D9FF054664
:1015C000306840057FF599AEFEF7D2FF401B022838
:1015D0004FF00300F4D9BDE7306820F08070306030
:1015E000FEF7C6FF022D05460CD100BF3068800112
:1015F00040F17E80FEF7BCFF401B02284FF0030045
:10160000F4D9A7E73068800140F1B080FEF7B0FF61
:10161000401B02284FF00300F4D99BE77068216952
:1016200020F0FE4040EA0160706066E620F00100B4
:10163000C6F89800FEF79CFF054600BFD6F8980054
:1016400080077FF566AEFEF793FF401B02284FF040
:101650000300F3D97EE700BFD6F8901021F0010116
:10166000C6F89010D6F8901021F00401C6F890103A
:1016700010B3FEF77DFF054641F28837D6F890009B
:1016800080072BD4FEF774FF401BB842F6D9032025
:1016900002B0BDE8F08100BFFEF76AFF054600BF5B
:1016A000306880037FF526AEFEF762FF401B64289A
:1016B0004FF00300F4D94DE7FEF75AFF054641F21B
:1016C000883700BFD6F89000800707D5FEF750FF97
:1016D000401BB8424FF00300F4D93BE7B8F1000FCC
:1016E0007FF413AEB06D20F08050B0650DE600BF02
:1016F000F06848F20C01C0F29F1104F1200700EAE3
:10170000010C8ECF6FF00F00D4E90C5400EB0210E7
:101710000022CFF6E07241EA0C0102EB05520843C9
:101720006FF314024FF07E4540EA032005EB046599
:10173000104305F07E4540EAC7602843F0603068FA
:1017400040F080703060F06840F08070F060FEF72C
:101750000FFF0446306880010FD4FEF709FF001B1D
:1017600002284FF00300F5D9F4E600BFF0684FF609
:10177000FC71CFF6EE610840F060002002B0BDE8D9
:10178000F0810000411E0020B0EB116F1CBF012052
:1017900070474EF21002CEF2000251604EF6235115
:1017A000CEF20001F0230B700721906011607047AA
:1017B0002DE9F04100EBC114A04658F8E4EF7F2A70
:1017C00058F82CCC4FF0000100F32E80013A3F2A4C
:1017D00000F24380DFE802F0203A41204141413AE3
:1017E000414141414141412041414141414141410A
:1017F000414141414141413A4141414141414141E0
:1018000041414141414141414141414141414141C8
:101810004141414141414120D3E90112C4F8BC108A
:10182000C4F8C020002118E0B2F5007F08DB0DD01D
:10183000B2F5006F0AD0B2F5806FEDD00DE000BFB9
:10184000802A03D0B2F5807FE6D006E0D3E901120A
:10185000C4F8C4101021C4F8C820FE221D6803F18A
:101860000C078A40D1CF2EEA02028D402A438840DD
:10187000104304FA01F2104306FA01F2104307FA8A
:1018800001F21CF0022F42EA000208BF082C03D02C
:10189000C8F80020BDE8F081D86988400243C8F844
:1018A0000020BDE8F0810000FEE7000083B041F2B7
:1018B0004C00C4F20200016841F0040101600168BB
:1018C00001F0040102910299016841F020010160D8
:1018D000016801F0200101910199016841F00101C5
:1018E0000160006800F001000090009803B07047AC
:1018F000B0B5B4B046F6000500240CA86021C4F2CF
:1019000001052E94CDE92C44CDE92A44CDE92844A3
:10191000CDE92644CDE92444FEF7CEFC40F2700028
:10192000C2F200000B94CDE90944CDE90744CDE9AA
:101930000544CDE90344CDE90144C0E90054846085
:10194000FEF746FE002818BFFEF71EFD40F27000AD
:10195000C2F200000C21FEF711FE002818BFFEF7AE
:1019600013FD40F27000C2F200000A21FEF7C2FE31
:10197000002818BFFEF708FD4EF660202B900220CD
:101980002D9008202E9040F270000024C2F200003A
:101990002BAA00212C94FEF7E7FE002818BFFEF7C3
:1019A000F3FC40F27000C2F2000024AA002124944B
:1019B00027942A94FFF772F9002818BFFEF7E4FC79
:1019C00000200121CDE910104FF00061CDE9161083
:1019D0004FF00051CDE90E00CDE90C00CDE9120029
:1019E000CDE914001890CDE91910CDE91B00CDE91F
:1019F0001D00CDE92200CDE9200040F27000C2F2C6
:101A000000000CAA0021FEF7DFFF002818BFFEF738
:101A1000BBFC47F23050099040F27000C2F2000067
:101A200009AB002101220024FEF7D6FE002818BFD2
:101A3000FEF7AAFC0420029008200194CDE90304DB
:101A4000CDE90544CDE9074440F27004C2F2000438
:101A500001AB204600210122FEF782FF002818BFBB
:101A6000FEF792FC2068A84202D034B0B0BD00BF9F
:101A700041F24C00C4F20200016841F00101016032
:101A800000682FA900F001002F902F984FF480706C
:101A90002F900220309000203190032032900D20B2
:101AA00033904FF09040FEF775FC34B0B0BD0000AD
:101AB000FEE70000FEE700007047000070470000EE
:101AC000FFF73CB94EF68850CEF20000016841F4B1
:101AD0007001016070470000FEE7000094B0FFF75E
:101AE0003BF900244FF40070CDE90B44CDE90944E3
:101AF000CDE907440594CDE90344CDE90144FFF75E
:101B0000B9F94FF48071099140210A910421022012
:101B10000F914B210690CDE90D00CDE91010CDE9D4
:101B2000120006A8FFF7D8FB20B1EFF3108072B6C1
:101B3000FEE700BF0F2001900320CDE9020401A8B9
:101B40000421CDE90444FFF73DFA28B1EFF31080FA
:101B500072B600BFFEE700BFFFF7A8FEFFF7C8FEA2
:101B600040F27004C2F2000420464FF40031FEF748
:101B7000E3FE20460121FEF711FF46F69400C4F271
:101B800001004EF66021016042F21071816000BFD9
:101B9000FEE7F1EE100A4FF6FF71C0F2C03120EA05
:101BA000010040F04070E1EE100A704702000000B2
:101BB00004000000080000001000000020000000E9
:101BC00040000000010000000000000000000000D4
:101BD0000102030406070809F81B000800000020A2
:101BE0001000000014020008081C0008100000206B
:101BF0006007000030020008100000000100000033
:081C00000024F40000000000C4
:04000005080001D915
:00000001FF
