:020000040800F2
:10000000A00700207902000891280008E9220008D2
:100010008D28000881030008C9290008000000009D
:100020000000000000000000000000000D29000892
:100030008503000800000000C128000841290008CD
:10004000930200089302000893020008930200083C
:10005000930200089302000893020008930200082C
:10006000930200089302000893020008930200081C
:10007000930200089302000893020008930200080C
:1000800093020008930200089302000893020008FC
:1000900093020008930200089302000893020008EC
:1000A00093020008930200089302000893020008DC
:1000B00093020008930200089302000893020008CC
:1000C00093020008930200089302000893020008BC
:1000D00093020008930200089302000893020008AC
:1000E000930200089302000893020008930200089C
:1000F000930200089302000893020008930200088C
:10010000930200089302000893020008930200087B
:10011000930200089302000893020008930200086B
:10012000930200089302000893020008930200085B
:10013000930200089302000893020008930200084B
:10014000930200089302000893020008930200083B
:10015000930200089302000893020008930200082B
:10016000930200089302000893020008930200081B
:10017000930200089302000893020008930200080B
:1001800093020008930200089302000893020008FB
:100190009302000800000000930200089302000888
:1001A00093020008930200089302000893020008DB
:1001B00093020008930200089302000893020008CB
:1001C00093020008930200089302000893020008BB
:1001D000930200089302000800F002F800F03CF8D7
:1001E0000AA090E8000C82448344AAF10107DA4592
:1001F00001D100F031F8AFF2090EBAE80F0013F0A8
:10020000010F18BFFB1A43F001031847D028000064
:10021000F0280000103A24BF78C878C1FAD85207F5
:1002200024BF30C830C144BF04680C607047000070
:100230000023002400250026103A28BF78C1FBD8EF
:10024000520728BF30C148BF0B6070471FB502F08E
:100250002FFC1FBD10B510BD00F058F81146FFF778
:10026000F5FF02F0DDFB00F076F803B4FFF7F2FFD4
:1002700003BC00F07DF800000948804709480047AA
:10028000FEE7FEE7FEE7FEE7FEE7FEE7FEE7FEE746
:10029000FEE7FEE704480549054A064B70470000A3
:1002A000B5290008D9010008A0010020A0070020FE
:1002B000A0030020A00300204FF0000200B5134669
:1002C00094469646203922BFA0E80C50A0E80C5076
:1002D000B1F12001BFF4F7AF090728BFA0E80C5027
:1002E00048BF0CC05DF804EB890028BF40F8042B20
:1002F00008BF704748BF20F8022B11F0804F18BF8D
:1003000000F8012B7047704770477047754600F042
:100310002BF8AE4605006946534620F00700854697
:1003200018B020B5FFF7B6FFBDE820404FF000063B
:100330004FF000074FF000084FF0000BAC46ACE860
:10034000C009ACE8C009ACE8C009ACE8C00921F0BC
:1003500007018D46704710B50446AFF30080204674
:10036000BDE81040FFF781BF004870471000002033
:1003700001491820ABBEFEE72600020070470000CE
:10038000FEE7000070470000EFF3108072B600BF78
:10039000FEE7000000680068C0F38070704700004E
:1003A00070B582B0044600200190DCB3206800687C
:1003B000002837D4607F28B90020207720622046AB
:1003C00000F00CF994E84F00656911432943D0F817
:1003D00000C01943026847F60F63CFF6007331433C
:1003E0001A401143016001685FEA0C221DD411F428
:1003F00000011AD040F20001C2F20001096842F681
:1004000063528909C0F23E52A1FB0212910901EB2D
:100410008101142202EB81010191019929B1019915
:100420000139F9E7012002B070BDA0F18041A1F5CA
:1004300081314FEAB101052903D263A252F821505C
:1004400007E040F21421C4F201010225884208BFEE
:100450000125A16940F218268A07C4F201060DD0D1
:10046000C90617D4B04205D040F21421C4F20101EC
:10047000884220D1284601F08BFF23E0B04205D00E
:1004800040F21421C4F2010188420FD1284601F044
:1004900043FF0EE0B04205D040F21421C4F2010146
:1004A00088420CD1284601F0B5FF0BE0284601F048
:1004B00029FF206860E0284601F060FF02E028463E
:1004C00001F0A0FF217E206889060BD4B04205D040
:1004D00040F21421C4F2010188420FD1284601F0F4
:1004E0002FFF12E0B04205D040F21421C4F2010106
:1004F000884207D1284601F06DFF06E0284601F04A
:1005000015FF02E0284601F05DFF2068B04205D0EB
:1005100040F21421C4F20101884203D1284601F0BF
:10052000EBFE02E0284601F0E1FE217E206889070B
:100530000BD4B04205D040F21421C4F2010188422C
:100540000FD1284601F0E8FE12E0B04205D040F29B
:100550001421C4F20101884207D1284601F02AFF84
:1005600006E0284601F0CEFE02E0284601F01AFF20
:10057000217E2068C9070BD1B04205D040F214217A
:10058000C4F2010188420FD1284601F0EDFE12E0CD
:10059000B04205D040F21421C4F20101884207D1D3
:1005A000284601F027FF06E0284601F0D3FE02E0CE
:1005B000284601F017FF607F002804BF0120607704
:1005C000002002B070BD00BF00002000000040000D
:1005D00000000020000000400000008080B586B0D0
:1005E000006840F20C22C4F2010200219042CDE9E1
:1005F0000411CDE90211019101D006B080BD41F294
:100600004C00C4F20200026842F00202026000687C
:1006100000F0020000900098012001900320CDE935
:10062000020140F20040C4F6000001A900F030F8D9
:1006300006B080BD81B00021009130B301680A6826
:10064000002A22D4427F012A1FD10A6842F0010207
:100650000A600221417740F20000C2F20000006807
:100660004DF68361C4F21B31A0FB0101C80C00EB05
:1006700080000090009828B1009801380090009800
:100680000028F9D1002001B07047012001B0704767
:100690002DE9F04F83B00D68002D00F0C58000F10A
:1006A00038424FEAB22241F200470192C4F60007F5
:1006B0000622002600244FF0010AB84208BF052296
:1006C000009209E00D68043435FA0AF20AF1010AD1
:1006D00006F1020600F0A880AAF1010C012202FA3C
:1006E0000CFB15EA0B09EDD0D1F8048008F00305E6
:1006F000A5F1010EBEF1010F11D887680322CB6866
:10070000B24027EA0202B3401A4382604268C8F34B
:10071000001322EA0B0203FA0CF31A434260032D82
:100720001CD0C26803238F68B3409A4307FA06F3CC
:100730001A43022DC26011D16FF0030202EA5C027B
:10074000024404F01C070F23D2F820E003FA07F557
:100750000B692EEA0505BB402B4313620268032395
:100760004F68B3409A4307F00303B3401A4317F4AA
:10077000403F0260A6D041F26003C4F202031A684F
:1007800040F2004E42F001021A601A68C4F2010EF3
:1007900002F001020292029A2CF003024FF608487E
:1007A0007244CFF6FF7852F8083004F00C070F259A
:1007B000BD4023EA050C019B009D052B38BF1D465B
:1007C00005FA07F747EA0C0342F80830DEF808207C
:1007D0004B6842EA090740F20C4CDD0258BF22EA9E
:1007E0000907CEF80870C4F2010CDCF800209D0265
:1007F00042EA090758BF22EA0907CCF80070DEF880
:1008000004209D0342EA090758BF22EA0907CEF8EF
:100810000470DEF80020DB0342EA090758BF22EA31
:100820000907CEF800704DE703B0BDE8F08F000077
:1008300040F29810C2F200000068704790F8DC2087
:10084000012A4FF0020221D0012380F8DC3080F829
:10085000DD2002684B1CD2F8CCC309D04CF0020357
:10086000C2F8CC33D2F8CC3323F00C03194301E0A7
:100870002CF00201C2F8CC13D2F8CC1341F00101E4
:10088000C2F8CC130121002280F8DD101046704719
:1008900070B590F8DD30022B04BF022070BD90F8D7
:1008A000DC30012B4FF002033AD080F8DD30D2E982
:1008B00000C3D2E902E60CF4E0546FF35F2315693C
:1008C00023440EF40074234405F480452B4406F4BD
:1008D0000046334456690025C0F2FF1505EA064676
:1008E0009569334405F00076156A334405F0804677
:1008F000D2693343066802F0004206EBC1111A4385
:10090000D1F8B83042F20006C3F6004633401A432D
:10091000C1F8B8200121002380F8DD1080F8DC3018
:10092000184670BDB0B5044690F8DD00022804BF3B
:100930000220B0BD94F8DC0001284FF0020008BF8F
:10094000B0BD012584F8DC5084F8DD00204601F0BC
:10095000D1F9002084F8DD5084F8DC00B0BD00003F
:1009600090F8DD20022A04BF0220704790F8DC20B6
:10097000012A4FF002020FD080F8DD200268890FB3
:10098000D2F8B83361F39F73C2F8B8330121002263
:1009900080F8DD1080F8DC201046704790F8DD30DC
:1009A000022B04BF0220704790F8DC304FF0020C9D
:1009B000012B00F07880013901231F2980F8DC30F9
:1009C00080F8DDC02BD8DFE801F0101D2A312A2A7B
:1009D0002A3E2A2A2A2A2A2A2A4B2A2A2A2A2A2A42
:1009E0002A2A2A2A2A2A2A2A2A560168D1F80834C9
:1009F000926823F0020343EA420242F00102C1F886
:100A0000082444E00168D1F80834926823F4407364
:100A100043EA422202F58072C1F8082437E0072138
:100A200080F8DD10002180F8DC1030E00168D1F89A
:100A30000834926823F4403343EA424202F580329C
:100A4000C1F8082423E00168D1F80834926823F043
:100A5000407343EA426202F18072C1F8082416E052
:100A60000168D1F80C34926823F0020343EA420291
:100A700042F0010209E00168D1F80C34926823F4D5
:100A8000407343EA422202F58072C1F80C2490F8C8
:100A9000DD104FF0010C07291EBF80F8DDC04FF0BC
:100AA000000C80F8DCC0604670470000F0B590F89C
:100AB000DD30022B04BF0220F0BD90F8DC30012BAA
:100AC0004FF0020300F0DC80012580F8DC5080F854
:100AD000DD30D0F800C04D1EDCF8D043DCF8D4E3A4
:100AE0001F2D43D8136803F00101C3F34003DFE86F
:100AF00005F010253D443D3D3D5C3D3D3D3D3D3DCA
:100B00003D743D3D3D3D3D3D3D3D3D3D3D3D3D3DDE
:100B10003D8CD2E9015624F0FE07D26805F00205AB
:100B20002EF4803447EA810144EA034E06F078034C
:100B3000294402F0800219448C187FE0D2E9015662
:100B400024F47E44D26805F002052EF4003744EA0E
:100B5000812147EA434E06F0780341EA052102F07D
:100B6000800241EA032141EA022467E0072180F87C
:100B7000DD10002180F8DC1060E0D2E9015624F499
:100B80007E04D26805F002052EF4802744EA8141F4
:100B900047EA834E06F0780341EA054102F08002FD
:100BA00041EA034141EA024448E0D2E9015624F017
:100BB0007E44D26805F002052EF4002744EA8161E4
:100BC00047EAC34E06F0780341EA056102F080026D
:100BD00041EA036141EA026430E04FF60175CFF665
:100BE000EF750EEA0507D2E9016547EA8101D2688F
:100BF00006F0020641EA035105F07805314402F09F
:100C00008002294401EB020E18E040F2FF15CFF6F6
:100C1000DF750EEA0507D2E9016547EA8121D2684E
:100C200006F0020641EA435105F0780541EA062143
:100C300002F0800241EA052141EA022E90F8DD101F
:100C4000012307291CD024F08031CCF8D01348F2BE
:100C500080012EEA0102CCF8D423DCF8D02324F062
:100C60007F342243CCF8D023DCF8D42301EA0E01F0
:100C70001143CCF8D41380F8DD30002380F8DC3049
:100C80001846F0BD90F8DD30022B04BF02207047FB
:100C900090F8DC304FF0020C012B00F07E8001391F
:100CA00001231F2980F8DC3080F8DDC02DD8DFE873
:100CB00001F0101E2C332C2C2C412C2C2C2C2C2CE9
:100CC0002C4F2C2C2C2C2C2C2C2C2C2C2C2C2C2C41
:100CD0002C5B0168D1F8083423F0BC0CD2E9003257
:100CE0004CEA830343EAC212C1F8082449E00168D0
:100CF000D1F8083423F43C4CD2E900324CEA832387
:100D000043EAC232C1F808243BE0072180F8DD1035
:100D1000002180F8DC1034E00168D1F8083423F4B5
:100D20003C0CD2E900324CEA834343EAC252C1F898
:100D3000082426E00168D1F8083423F03C4CD2E9BD
:100D400000324CEA836343EAC272C1F8082418E017
:100D50000168D1F80C3423F0BC0CD2E900324CEA23
:100D6000830343EAC2120AE00168D1F80C3423F489
:100D70003C4CD2E900324CEA832343EAC232C1F848
:100D80000C2490F8DD104FF0010C07291EBF80F8ED
:100D9000DDC04FF0000C80F8DCC0604670470000FA
:100DA00090F8DD20022A04BF0220704790F8DC2072
:100DB000012A4FF0020200F05880013901231F2957
:100DC00080F8DC3080F8DD2021D8DFE801F0101851
:100DD00020272020202F20202020202020372020E6
:100DE000202020202020202020202020203D0168BD
:100DF000D1F8082442F04002C1F808242BE0016831
:100E0000D1F8082442F48042C1F8082423E00721E5
:100E100080F8DD10002180F8DC101CE00168D1F8BA
:100E2000082442F48002C1F8082414E00168D1F8D3
:100E3000082442F08042C1F808240CE00168D1F88F
:100E40000C2442F0400204E00168D1F80C2442F482
:100E50008042C1F80C2490F8DD10012207291EBF42
:100E600080F8DD20002280F8DC201046704700006A
:100E7000CB071AD18B0722D44B072AD40B0732D4C5
:100E8000CB0607D5D0F800C0DCF8D43362F30003FA
:100E9000CCF8D433890658BF70470068D0F8D41313
:100EA00062F30821C0F8D4137047D0F800C0DCF812
:100EB000D03362F30003CCF8D0338B07DCD5D0F805
:100EC00000C0DCF8D03362F30823CCF8D0334B07F2
:100ED000D4D5D0F800C0DCF8D03362F31043CCF89E
:100EE000D0330B07CCD5D0F800C0DCF8D03362F398
:100EF0001863CCF8D033CB06CCD5C3E790F8DD200F
:100F0000022A04BF0220704790F8DC20012A4FF02B
:100F100002020FD080F8DD200268090ED2F8D43327
:100F200061F31963C2F8D4330121002280F8DD1087
:100F300080F8DC2010467047002804BF012070476D
:100F400010B582B00446022084F8DD00207AC00784
:100F50004FF00000C4E93800C4E93A00C4E93C009D
:100F6000C4F8F8001FD0206846F60001C4F2010161
:100F700088420CD141F26001C4F202010A6842F0D9
:100F800080620A60096801F080610191019901683D
:100F9000D4E9042321F4704102F44042114403F4E3
:100FA000405211440160204600F01EF8207A80076C
:100FB00006D52068E1680268090A61F30922026027
:100FC000012084F8DD0000206FF01B0184F8DC00B4
:100FD00062181C31A829D064C2E90D00C2E90F00D3
:100FE0005064F5D102B010BD80B586B0006846F6F9
:100FF0000002C4F2010200219042CDE90411CDE9C2
:101000000211019101D006B080BD41F24C00C4F242
:101010000200426942F080624261426902F08062ED
:101020000092009A026842F001020260006800F03B
:101030000100009000984FF4805001900220CDE90B
:1010400002010D200491059001A94FF09040FFF797
:101050001FFB06B080BD000080B586B0006846F674
:101060000002C4F2010200219042CDE90411CDE951
:101070000211019101D006B080BD41F24C00C4F2D2
:101080000200026842F001020260006800F0010004
:10109000009000984FF4706001900220CDE90201A9
:1010A000032004900D20059001A94FF09040FFF718
:1010B000EFFA06B080BD0000F0B581B00D460446E1
:1010C000FFF7B6FB2168D1F88813C90315D406468B
:1010D0006F1C04E02068D0F88803C0030DD4002FF3
:1010E000F8D0FFF7A5FB15B1801BA842F2D9072065
:1010F00084F8DD00032001B0F0BD012084F8DD009C
:10110000002084F8DC0001B0F0BD000010B50446FA
:1011100090F8DD0002284FF0020008BF10BD06293C
:1011200084F8DD00204603D1114600F0F5FE01E011
:1011300000F0CAFF012084F8DD00002010BD00008F
:1011400080B590F8DDC0BCF1020F04BF022080BD65
:1011500090F8DCC0BCF1010F4FF0020C00F094805D
:101160004FF0010E062980F8DCE080F8DDC00ED1DA
:10117000511E072923D80FF20602DFE801F0041CF4
:1011800020272020202B19680268D16125E0A2F1D8
:10119000010CBCF1070F3BD80FF20402DFE80CF0A2
:1011A0000424383F3838384602681B6802EBC11106
:1011B000C1F89C305BE01968026851620DE00721BC
:1011C00080F8DD10002180F8DC1006E01968026864
:1011D000916202E019680268D16290F8DD10072977
:1011E00004BF012080BD48E0026802EBC11CD3E9C6
:1011F000001ECCF8A410614651F8802FBEF1000FFC
:1012000022F440520A6032D00A6842EA0E0220E01C
:10121000072180F8DD10002180F8DC1027E002684B
:101220001B6802EBC111C1F8A83020E0026802EB94
:10123000C11CD3E9001ECCF8AC10614651F8802FD8
:10124000BEF1000F22F440420A6010D00A6842EA60
:101250008E02BEF5405F0A6006D0BEF5005F06D183
:101260009968CCF89C1002E09968CCF8A81090F826
:10127000DD10072904BF012080BD01214FF0000CC3
:1012800080F8DD1080F8DCC0604680BD90F8DC207E
:10129000012A4FF002020BD080F8DD2002681368AB
:1012A000194311600121002280F8DD1080F8DC2054
:1012B00010467047B0B5044690F8DD00022804BF20
:1012C0000220B0BD94F8DC0001284FF0020008BFF6
:1012D000B0BD012584F8DC5084F8DD00204600F024
:1012E00077FE002084F8DD5084F8DC00B0BD0000FB
:1012F00090F8DC20012A4FF002020DD080F8DD20AA
:101300000268D2F894331943C2F8941301210022E1
:1013100080F8DD1080F8DC201046704770B5044678
:1013200090F8DD00022804BF022070BD94F8DC00B4
:1013300001284FF0020008BF70BD0E46012115467E
:1013400084F8DC10062E84F8DD00204603D12946FF
:1013500000F0F6FD03E031462A4600F0CDFEC6EB74
:10136000C60004EB800095E80E1000F1200E8EE818
:101370000E002969C0E90BC12046314600F0B0FDDE
:10138000062E0DD0E86A58B9206800EBC610D0F8D8
:101390008010EA6D21F4007141EA4221C0F880100A
:1013A000012084F8DD00002084F8DC0070BD00001E
:1013B00070B5044690F8DD00022804BF022070BD1D
:1013C00094F8DC0001284FF0020008BF70BD012630
:1013D00084F8DC6084F8DD0020460D4600F058FFFC
:1013E0002046294600F07CFD002084F8DD6084F86A
:1013F000DC0070BD40F2040040F29811C2F200001F
:10140000C2F2000100680A681044086070470000DA
:1014100080B5032000F064F80F2000F009F80028E0
:101420001CBF012080BD00F02FF8002080BD00000F
:10143000B0B540F20401C2F20001096801B30446EC
:1014400040F20000C2F200004FF47A720068B2FB72
:10145000F1F1B0FBF1F000F049FC0F2C4FF0010569
:101460000CD858B94FF0FF3021460022002500F07B
:1014700027F840F20800C2F2000004602846B0BD20
:1014800001252846B0BD000080B582B041F2580069
:10149000C4F20200816841F001018160816801F0BD
:1014A000010101910199016841F0805101600068DA
:1014B00000F080500090009800F08EF802B080BDDF
:1014C00070B514460D46064601F080FA29462246BC
:1014D00001F0E0F90146304601F080FA70BD0000ED
:1014E00080B501F08DFA80BDB0F5007F35D00028C1
:1014F00066D147F20000C4F200000168D0F88020F5
:1015000001F4C06122F48072B1F5806FC0F88020D0
:1015100021D10168012262F34A21016040F20001F9
:10152000C2F200010968322359434DF68363C4F2C5
:101530001B33A1FB031302EB934100BF43694A1E17
:101540008A4203D213F480611146F7D14069400505
:1015500044BF032070470020704747F20000C4F2E8
:1015600000000168D0F8802001F4C06142F480726C
:10157000B1F5806FC0F88020EDD10168012262F3DF
:101580004A21016040F20001C2F2000109683223E1
:1015900059434DF68363C4F21B33A1FB031302EBE3
:1015A000934100BF43694A1E8A4203D213F480610B
:1015B0001146F7D14069400544BF03207047CAE790
:1015C00047F20000C4F200000168022262F34A21DF
:1015D000016000207047000047F20800C4F20000DC
:1015E000016841F480410160704700002DE9F04737
:1015F000002800F0CA8042F2000AC4F2020A04463F
:10160000DAF800000D4600F00F0088420DD2DAF83B
:10161000000020F00F002843CAF80000DAF80000AC
:1016200000F00F00A84240F0B080207841F2080896
:10163000C007C4F202080CD14FF0000920688107EE
:101640002BD4B9F1800F41D1D8F8000020F0F00080
:101650003AE06068022800F08C80032840F0918016
:1016600058F8080C800140F1908001F02BF94BF202
:101670000041C0F2C44188420CD9D8F8000010F0F3
:10168000F00F00F08E802078800703D5A068002836
:1016900000F087804FF000098CE0410705D5D8F8AD
:1016A000001041F4E061C8F80010000706D5D8F832
:1016B0000000072161F30D20C8F80000D8F80000F1
:1016C000A16820F0F0000843C8F80000DAF8000034
:1016D00000F00F00A84219D9DAF8000020F00F003E
:1016E0002843CAF80000FFF7A3F8064641F28837FE
:1016F000DAF8000000F00F00A84207D0FFF798F8D2
:10170000801BB842F4D90320BDE8F0872068410768
:1017100007D5D8F80010E26821F4E0611143C8F859
:101720000010000708D5D8F80000216920F46050A7
:1017300040EAC100C8F8000000F05CF8D8F80010DA
:1017400042F6CA22C1F30311C0F60002515C40F216
:10175000000201F01F0120FA01F140F20800C2F27C
:1017600000000068C2F200021160FFF761FEBDE8F0
:10177000F08758F8080C80035CBF0120BDE8F087B3
:1017800006E058F8080C400502D40120BDE8F087B7
:1017900000F030F84BF20041C0F2C44188427FF6BD
:1017A00079AFD8F80000082161F307104FF08009E5
:1017B000C8F80000D8F80000616820F00300084372
:1017C000C8F80000FFF734F8064641F2883700BF3A
:1017D000D8F80000616800F00C00B0EB810F3FF416
:1017E0002DAFFFF725F8801BB842F1D90320BDE8E3
:1017F000F087000041F20C01C4F2020151F8040C20
:1018000042F20042C0F2F40200F00C00042810463C
:1018100008BF704751F8040C00F00C00082841F292
:101820000020C0F27A0021D051F8043C03F00C03F0
:101830000C2B1CBF00207047D1F800C00B680CF0C7
:10184000030CC3F303130133BCF1030F08BF0246BB
:101850000868B2FBF3F20968C0F306205043C1F3F5
:101860004161022202EB4101B0FBF1F07047000040
:101870002DE9F04182B0002800F001810446007893
:1018800041F20006C007C4F2020654D12078800756
:1018900072D42078000700F195802078400700F18D
:1018A000B3802078800600F10081E569002D00F00A
:1018B0001882B06800F00C000C2840F05981012D0E
:1018C00000F0DD80F068216A00F003028A4240F0F7
:1018D000D680626A6FF00F0300F0F00103EB021292
:1018E000914240F0CC80A16A00F4FE42B2EB012F9D
:1018F00040F0C580E16A00F07842B2EBC16F40F081
:10190000BE80226B0023CFF6E07303EB025200F49B
:10191000C0016FF31402914240F0B180616B4FF04F
:101920007E4202EB016100F0C06001F07E4188421E
:1019300040F0A580D5E1B06800F00C01F0680829FE
:1019400059D0032281F00C0122EA00000844B0FAC9
:1019500080F040094FD16568B5F5A02F00F0D38025
:10196000B5F5803F00F0D380306820F480303060DF
:10197000306820F48020CDE0B068F16800F00C0001
:10198000042866D001F0030180F00C0081F0020110
:101990000844B0FA80F040095BD1E1683068002962
:1019A00000F0D38040F480703060FEF741FF0546C0
:1019B0003068400500F1FE80FEF73AFF401B022828
:1019C000F6D930E16169D6F89400002900F08980E9
:1019D00040F00100C6F89400FEF72AFF054600BF5C
:1019E000D6F8940080073FF558AFFEF721FF401B63
:1019F0000228F5D917E1306880037FF547AF6068AA
:101A000000287FF443AF3AE0B06D10F0805808D161
:101A1000B06D40F08050B065B06D00F08050019026
:101A2000019847F20007C4F200073868C0052AD4BD
:101A3000386840F480703860FEF7FAFE054600BF53
:101A40003868C0051FD4FEF7F3FE401B0228F7D903
:101A5000E9E03068400501D5E06880B1706821692F
:101A600020F0FE4040EA0160706040F20800C2F2DF
:101A700000000068FFF7DCFC00283FF40AAF0120FB
:101A800002B0BDE8F081A568052D00F0B080012D01
:101A900000F0B380D6F8900020F00100C6F8900066
:101AA000D6F8900020F00400ABE0A169D6F89800C9
:101AB000002900F0878040F00100C6F89800FEF78A
:101AC000B7FE0546D6F8980080073FF5EEAEFEF764
:101AD000AFFE401B02284FF00300F3D902B0BDE86F
:101AE000F08120F00100C6F89400FEF7A1FE054643
:101AF000D6F8940080077FF5D0AEFEF799FE401B24
:101B00000228F5D98FE0306840F4802030603068DA
:101B100040F480303060FEF78BFE002D054610D07B
:101B2000306880033FF5B2AEFEF782FE401B6428AA
:101B3000F6D978E0FEF77CFE401B64284FF00300E6
:101B4000CCD830688003F5D4A0E620F480703060F3
:101B5000FEF76EFE054600BF306840057FF599AE82
:101B6000FEF766FE401B02284FF00300F4D9B5E7EC
:101B7000306820F080703060FEF75AFE022D054676
:101B80000CD100BF3068800167D5FEF751FE401BC5
:101B900002284FF00300F5D9A0E700BF30688001AC
:101BA00040F19880FEF744FE401B02284FF00300EE
:101BB000F4D993E77068216920F0FE4040EA0160A3
:101BC000706066E620F00100C6F89800FEF730FE6F
:101BD000054600BFD6F8980080077FF566AEFEF791
:101BE00027FE401B02284FF00300F3D976E7D6F812
:101BF000900040F00400C6F89000D6F8900040F045
:101C00000100C6F89000FEF713FE002D054641F2D4
:101C1000883715D0D6F89000800715D4FEF708FE57
:101C2000401BB842F6D9032002B0BDE8F08100BFE6
:101C3000FEF7FEFD401BB8424FF003003FF64EAFEB
:101C4000D6F890008007F3D4B8F1000F7FF429AEE6
:101C5000B06D20F08050B06523E6F06848F20C01CA
:101C6000C0F29F1104F1200700EA010C8ECF6FF043
:101C70000F00D4E90C5400EB02100022CFF6E07202
:101C800041EA0C0102EB055208436FF314024FF0D6
:101C90007E4540EA032005EB0465104305F07E45D0
:101CA00040EAC7602843F060306840F080703060E0
:101CB000F06840F08070F060FEF7BAFD04463068CE
:101CC00080010ED4FEF7B4FD001B02284FF0030084
:101CD000F5D903E7F0684FF6FC71CFF6EE610840E6
:101CE000F060002002B0BDE8F081000080B500F097
:101CF0000FFE80BD10B5D0F800E00A29DEF8B03341
:101D0000DEF8B403DEF8B8C388BF10BDDFE801F029
:101D1000060E243C546C849BD1ADBF000020CEF84D
:101D2000B003CEF8B403CEF8B80310BD23F03F00E3
:101D300092E81A00126901F00301084403F004015B
:101D4000084404F01801084402F02001CEF8B00362
:101D50000844CEF8B00310BD23F47C6092E81A006A
:101D6000126961F3871003F0040140EA811004F066
:101D7000180140EA811002F02001CEF8B00340EAD9
:101D80008110CEF8B00310BD23F47C3092E81A0025
:101D9000126961F30D3003F0040140EA013004F0F0
:101DA000180140EA013002F02001CEF8B00340EA09
:101DB0000130CEF8B00310BD23F47C0092E81A0085
:101DC000126961F3934003F0040140EA814004F09A
:101DD000180140EA814002F02001CEF8B00340EA49
:101DE0008140CEF8B00310BD23F07C5092E81A0079
:101DF000126961F3196003F0040140EA016004F024
:101E0000180140EA016002F02001CEF8B00340EA78
:101E10000160CEF8B00310BD92E81A0020F01F0058
:101E200001F00301084403F00401D268084404F0FF
:101E3000180108444FEA1C1161F31F12CEF8B403D5
:101E4000CEF8B82310BD92E81A0020F4F860D268EA
:101E500061F3871003F0040140EA811004F01801D7
:101E600040EA811062F3891C34E092E81A0020F401
:101E7000F800D26861F3934003F0040140EA814026
:101E800004F0180140EA814062F3954C22E092E8A8
:101E90001A0020F0F850D26861F3196003F00401D1
:101EA00040EA016004F0180140EA016062F31B6C33
:101EB00010E092E81A0020F4F830D26861F30D3097
:101EC00003F0040140EA013004F0180140EA013057
:101ED00062F30F3CCEF8B403CEF8B8C310BD0000D7
:101EE000062988BF7047006804A252F82110D0F874
:101EF00084231143C0F88413704700BF0200000020
:101F00000400000008000000100000002000000095
:101F1000400000000100000080B500680268D1E9BF
:101F200000ECD1E9023122F01F0223F018031A431A
:101F300011430160C0F814E0C0F818C080BD000073
:101F400070B5D0F800E0DEF80020DEF8A0C34B69E1
:101F500022F0E00223F0C000202B40EA020306D06A
:101F60008A69042A2BD0032A2CD0022A2DD143F0CF
:101F700020034FF2FF30C3F2FF1001F11C0603EA09
:101F8000000278CE00F500601840104324F06E4245
:101F9000104325F06842104326F06042CB6A10439C
:101FA00040EA83004A6B20F00050096B10432CF488
:101FB00080321143CEF80000CEF8A01370BD43F07C
:101FC0008003D6E743F04003D3E723F0E003D0E7F4
:101FD0002DE9F04100687F2A00EBC114A04658F8B3
:101FE000E4EF4FF0000158F82CCC00F32E80013ABA
:101FF0003F2A00F24280DFE802F0203940204040D2
:1020000040394040404040404020404040404040F7
:1020100040404040404040404039404040404040C7
:1020200040404040404040404040404040404040B0
:1020300040404040404040404020D3E90112C4F8B5
:10204000BC10C4F8C020002117E0B2F5007F07DB08
:102050000CD0B2F5006F09D0B2F5806FEDD00CE076
:10206000802A03D0B2F5807FE7D006E0D3E90112E1
:10207000C4F8C4101021C4F8C820FE221D6803F162
:102080000C078A40D1CF2EEA02028D402A438840B5
:10209000104304FA01F2104306FA01F2104307FA62
:1020A00001F21CF0022F42EA000208BF082C03D004
:1020B000C8F80020BDE8F081D86988400243C8F81C
:1020C0000020BDE8F081000080B5006800EBC11081
:1020D000D0F88010D2E900ECD2E9023221F01F01E1
:1020E00023F0180319431143C0F88010C0F894E09E
:1020F000C0F898C080BD00002DE9F04F8CB0046896
:1021000004EBC110034653F8807F864627F07047E2
:102110001F601F685EF8E86F84460A965CF8E48FDB
:102120000B94D4F8A043566927F02007202E47EAE5
:102130000607099409D09669042E00F09280032EB8
:1021400000F09380022E40F0948027F4D07720375F
:10215000546A956D0194946A06950294D46AD2E902
:10216000079A0394546B0494D2E90EB40894146C47
:102170000794D2E9114646F48055B5F5F05F156D28
:10218000059528F4807544EA050802D1BBF1400F9B
:1021900003D128F4F05444EA0608D56C546D05299F
:1021A00000940BD834A656F82160126B099C0131BB
:1021B000264002FA01F141EA060400E0099C4FF2D0
:1021C000FF31C0F2FF1107EA010201F5006101EAE7
:1021D000090111431FFA8AF211434FF6BF72019EA3
:1021E000C0F2006216403143029E02F100623240AA
:1021F0001143039A11434FF6BF72CFF600621140AC
:10220000049AB2F1005F4FF6FF72CFF6026208BF88
:1022100001F500310BEA02063143069E02F58022E9
:1022200032401143059A114319604FF6C0710A9A62
:10223000C7F6FF711140089A02F03F021144079A55
:102240001143CEF8001028F480412943CCF8001047
:102250000099C0F8D4100B98C0F8A0430CB0BDE8AA
:10226000F08F022666F3C81772E7012666F3C817D7
:102270006EE727F4D0776BE7FFFFFDFFFFFFFBFF63
:10228000FFFFF7FFFFFFEFFFFFFFDFFFFFFFBFFFD6
:10229000B0B500684FF6EF7300EBC11050F8EC1FBB
:1022A000CFF6EC7301EA030CD2E9001E0133D2E948
:1022B000024503EA011141EA0C012EF440331943AF
:1022C00025F4003395691943012D41EA040109D130
:1022D000D2E9043221F0060123F00203194311432D
:1022E00041F001010160B0BDFEE7000040F2144181
:1022F000C4F201010860704740F23441C4F20101A8
:102300000860704740F20441C4F201010A6822EA01
:10231000000008607047000040F22441C4F201014F
:102320000A6822EA000008607047000040F20C4191
:10233000C4F201010A6822EA000008607047000048
:1023400040F22C41C4F201010A6822EA0000086050
:102350007047000040F20041C4F201010A6822EA1D
:10236000000008607047000040F22041C4F2010103
:102370000A6822EA000008607047000040F2084145
:10238000C4F201010A6822EA0000086070470000F8
:1023900040F22841C4F201010A6822EA0000086004
:1023A0007047000040F20441C4F201010A68104382
:1023B0000860704740F22441C4F201010A681043EA
:1023C0000860704740F20C41C4F201010A681043F2
:1023D0000860704740F22C41C4F201010A681043C2
:1023E0000860704740F20041C4F201010A681043DE
:1023F0000860704740F22041C4F201010A681043AE
:102400000860704740F20841C4F201010A681043B5
:102410000860704740F22841C4F201010A68104385
:102420000860704780B540F2780040F20C21C2F29B
:102430000000C4F2010100223023C0F280034FF4F7
:10244000003C80E80E10C0E904228261FDF7A8FF7D
:10245000002818BFFDF798FF80BD000081B041F251
:102460004C00C4F20200016841F0040101600168FF
:1024700001F0040100910099016841F02001016020
:10248000016801F0200100910099016841F002010A
:102490000160016801F0020100910099016841F0BA
:1024A00001010160006800F001000090009801B097
:1024B0007047000070B5C4B0002415A86021439493
:1024C000CDE94144CDE93F44CDE93D44CDE93B442C
:1024D000CDE93944CDE93744CDE93544CDE933443C
:1024E000CDE93144CDE92F44CDE92D44FDF7E4FE9B
:1024F00009A824211494CDE91244FDF7DDFE40F231
:102500009C0046F60001C2F20000C4F20101CDE9D0
:102510000744CDE90544CDE90344CDE90144C0E9D0
:1025200000148460FEF708FD002818BFFDF72CFF9B
:1025300040F29C00C2F200000C21FEF77FF9002857
:1025400018BFFDF721FF40F29C00C2F200000A21F3
:10255000FEF7B2FD002818BFFDF716FF40F29C0001
:10256000C2F2000000210024FEF7FAF9002818BF8B
:10257000FDF70AFF0120CDE93F0440F29C00C2F2C2
:1025800000003FAA022141944394FEF7CBF90028B2
:1025900018BFFDF7F9FE40F29C00C2F200000021D6
:1025A0000024FEF7ABFC002818BFFDF7EDFE02206B
:1025B0003C900820CDE93D0440F29C00C2F20000AE
:1025C0003BAA01213B94FEF771FA002818BFFDF7E2
:1025D000DBFE0020CDE938003A9040F29C00C2F2C8
:1025E000000038AA0121FEF74DFB002818BFFDF7B7
:1025F000CBFE40F29C00C2F2000038AA0121012566
:10260000FEF7CCF9002818BFFDF7BEFE40F29C048F
:10261000C2F20004204601210122FEF729FC0A2013
:10262000CDE9380538AA20460221FEF72BFB002809
:1026300018BFFDF7A9FE40F29C00C2F2000038AAC4
:1026400002210224FEF7AAF9002818BFFDF79CFE1C
:1026500040F29C00C2F200003BAA02213B94FEF72C
:1026600025FA002818BFFDF78FFE40F29C04C2F245
:1026700000042046022101220226FEF7F9FB4EF655
:102680006020349008200025379034AA204600218D
:10269000CDE93556FEF73AFD002818BFFDF774FE68
:1026A00040F29C00C2F200002DAA00212D95CDE938
:1026B0002F553395FEF77CFE002818BFFDF764FE0A
:1026C00000240120CDE919044FF00061CDE9240474
:1026D0004FF48020CDE91F144FF00051CDE92B04B9
:1026E00040F29C00CDE92214C2F2000015AA00219C
:1026F000CDE91744CDE91544CDE91B44CDE91D448E
:102700002194CDE92644CDE92944FEF707FE0028AF
:1027100018BFFDF739FE022024904FF480702690F8
:1027200040F29C00C2F2000015AA01212B94FEF792
:10273000F5FD002818BFFDF727FE47F23050129034
:1027400040F29C00C2F2000012AB00210122FEF711
:10275000F7FC002818BFFDF717FE48F6B8001290E6
:1027600040F29C00C2F2000012AB00210422FEF7EE
:10277000E7FC002818BFFDF707FE09AC204624211E
:10278000FDF79AFD40F29C00C2F2000001212246B2
:10279000FEF77EF8002818BFFDF7F6FD04210020A3
:1027A000029108210190CDE90310CDE90500CDE9A2
:1027B000070040F29C00C2F2000001AB00210122A0
:1027C000FEF778FD002818BFFDF7DEFD40F29C0003
:1027D0002024C2F2000001AB012104220394FEF781
:1027E00069FD002818BFFDF7CFFD0820039040F2D7
:1027F0009C00C2F2000001AB0021022206940024DA
:10280000FEF758FD002818BFFDF7BEFD40F29C0002
:10281000C2F2000001AB01210822CDE90244FEF71B
:1028200049FD002818BFFDF7AFFD40F29C00C2F241
:10283000000034AA0121FEF769FC002818BFFDF74B
:10284000A3FD40F29C00C2F200002DAA0121FEF778
:10285000AFFD002818BFFDF797FD47F230501290EA
:1028600040F29C00C2F2000012AB01210422FEF7EC
:1028700067FC002818BFFDF787FD40F29C00C2F2FC
:102880000000FEF7E9FB44B070BD0000FEE7000069
:10289000FEE7000000F0070080F00703042B28BFCC
:1028A00004234FF0FF3C03380CFA03F338BF002039
:1028B000994381400CFA00F022EA00000843704777
:1028C0007047000041F20C00C4F202000168026887
:1028D00042F2004301F00301C2F30312C0F2F40319
:1028E0000132032904BF41F20023C0F27A030168D8
:1028F000B3FBF2F20068C1F306215143C0F341601B
:10290000022202EB4000B1FBF0F07047704700007C
:10291000B0B501380024B4EB106F1CBF0120B0BD6E
:102920004EF21005CEF2000568604FF0FF300F2127
:1029300000F054F80720AC6028602046B0BD0000CD
:1029400080B5FEF757FD80BDB0B594B006AC20460B
:102950003821FDF7B1FC00254FF400700595CDE955
:102960000355CDE90155FEF7BFFD4FF48071099184
:1029700040210A91042102200F914B210690CDE9BC
:102980000D00CDE91010CDE912002046FEF770FFD2
:1029900070B90F2001900320CDE9020501A80421A0
:1029A000CDE90455FEF722FE002804BF14B0B0BDE7
:1029B000FDF7EAFC4EF68850CEF20000016841F4C3
:1029C0007001016070470000FEE700004EF60C50F9
:1029D000CEF200000068C0F3022070474EF6145398
:1029E00000F00F02CEF2000309011A4400F1604327
:1029F000B0F1FF3FC8BF03F564421170704700009B
:102A00004EF60C51CEF200010A684FF6FF031A4051
:102A100060F30A2242F0806040F0FD700860704769
:102A2000FEF7F6FCFFF790FFFFF718FDFFF7FAFC43
:102A3000FFF740FD40F27804C2F200042046FDF7A3
:102A4000F9FD40F29C05C2F2000528464FF4003122
:102A5000FEF71CFC28464FF48021FEF717FC2846A1
:102A60000321FEF745FC28460C21FEF741FC40F20D
:102A7000700640F27407C2F20006C2F200074FF07F
:102A8000000800BF2046FDF785FC39683060012949
:102A9000F8D128460221FEF783F928460321FEF7E4
:102AA00027FC28460C21FEF723FCC7F80080E9E745
:102AB000F1EE100A4FF6FF71C0F2C03120EA0100BA
:102AC00040F04070E1EE100A704700000000000086
:102AD000000001020304060708090000002B00089B
:102AE000000000201000000014020008102B000855
:102AF00010000020900700003002000800000000D5
:102B00000024F4000100000010000000000000009C
:04000005080001D915
:00000001FF
