:020000040800F2
:10000000500C0020790200081D510008C949000861
:1000100019510008C5060008FD5400080000000042
:100020000000000000000000000000002D52000849
:10003000D1080008000000008D510008855200081A
:10004000930200089302000893020008930200083C
:10005000930200089302000893020008930200082C
:100060009302000893020008930200088107000829
:1000700091070008A10700089302000893020008F6
:10008000930200089302000881030008930200080D
:1000900093020008930200089302000893020008EC
:1000A00093020008930200089302000893020008DC
:1000B00093020008930200089302000893020008CC
:1000C00093020008930200089302000893020008BC
:1000D00093020008930200089302000893020008AC
:1000E000930200089302000893020008930200089C
:1000F000930200089302000893020008930200088C
:10010000930200089302000893020008930200087B
:10011000930200089302000893020008930200086B
:10012000930200089302000893020008930200085B
:10013000930200089302000893020008930200084B
:10014000930200089302000893020008930200083B
:10015000930200089302000893020008930200082B
:10016000930200089302000893020008930200081B
:10017000930200089302000893020008930200080B
:1001800093020008930200089302000893020008FB
:100190009302000800000000930200089302000888
:1001A00093020008930200089302000893020008DB
:1001B00093020008930200089302000893020008CB
:1001C00093020008930200089302000893020008BB
:1001D000930200089302000800F002F800F03CF8D7
:1001E0000AA090E8000C82448344AAF10107DA4592
:1001F00001D100F031F8AFF2090EBAE80F0013F0A8
:10020000010F18BFFB1A43F0010318477854000090
:1002100098540000103A24BF78C878C1FAD8520721
:1002200024BF30C830C144BF04680C607047000070
:100230000023002400250026103A28BF78C1FBD8EF
:10024000520728BF30C148BF0B6070471FB505F08B
:1002500004FA1FBD10B510BD00F058F81146FFF7A5
:10026000F5FF05F0ADF900F076F803B4FFF7F2FF03
:1002700003BC00F07DF800000948804709480047AA
:10028000FEE7FEE7FEE7FEE7FEE7FEE7FEE7FEE746
:10029000FEE7FEE704480549054A064B70470000A3
:1002A00001530008D901000850060020500C00201E
:1002B00050080020500800204FF0000200B51346FF
:1002C00094469646203922BFA0E80C50A0E80C5076
:1002D000B1F12001BFF4F7AF090728BFA0E80C5027
:1002E00048BF0CC05DF804EB890028BF40F8042B20
:1002F00008BF704748BF20F8022B11F0804F18BF8D
:1003000000F8012B7047704770477047754600F042
:100310002BF8AE4605006946534620F00700854697
:1003200018B020B5FFF7B6FFBDE820404FF000063B
:100330004FF000074FF000084FF0000BAC46ACE860
:10034000C009ACE8C009ACE8C009ACE8C00921F0BC
:1003500007018D46704710B50446AFF30080204674
:10036000BDE81040FFF781BF00487047B802002089
:1003700001491820ABBEFEE72600020070470000CE
:1003800080B540F2F030C2F2000001F047F940F2CF
:100390005C40C2F2000001F041F980BD80B582B03E
:1003A00001900198806A00900098C06D10F0500F85
:1003B0004BD1FFE70099C86D40F40070C865009804
:1003C000006800680007002821D5FFE70098006852
:1003D00004F0B0FBD0B1FFE700980068C06880046B
:1003E000002812D4FFE70099C86D20F48070C8651A
:1003F0000098C06DC004002806D4FFE70099C86DBE
:1004000040F00100C865FFE7FFE7FFE719E000984B
:100410000068C0688007002812D4FFE70099C86D03
:1004200020F48070C8650098C06DC004002806D410
:10043000FFE70099C86D40F00100C865FFE7FFE7DE
:10044000FFE7009801F0C8F810E00098C06DC00602
:10045000002804D5FFE7009801F0DCF805E00098DB
:10046000406D416B01988847FFE7FFE702B080BD10
:1004700080B582B001900198806A00900099C86DA3
:1004800040F04000C8650099086E40F0040008661E
:10049000009801F0BFF802B080BD000080B582B0C6
:1004A00001900198806A0090009801F0AFF802B0C6
:1004B00080BD000080B584B002900298006804F00E
:1004C00009FB00900298006804F00CFB00284BD058
:1004D000FFE70098002847D1FFE70298006880688E
:1004E00000F00D00012809D1FFE70298006804F030
:1004F0006DFA02980168032008600DE00299C86D4A
:1005000040F01000C8650299086E40F001000866CE
:1005100001208DF80F002BE002F07CFE0190FFE738
:10052000029800688068C007E8B1FFE702F072FE39
:100530000199401A032815D3FFE7029800688068E4
:10054000C00770B1FFE70299C86D40F01000C865A0
:100550000299086E40F00100086601208DF80F0036
:1005600006E0FFE7DCE7FFE700208DF80F00FFE77C
:100570009DF80F0004B080BD80B586B004900020C7
:1005800002900498006804F0ADFA002840F09280D0
:10059000FFE70498006880683F21C8F20001084224
:1005A0000ED0FFE70499C86D40F01000C8650499AB
:1005B000086E40F00100086601208DF817007DE00C
:1005C0000498006804F01CFA049801680120B1F155
:1005D000A04F01900CD0FFE7049800684FF600711F
:1005E000CAF6FF710844B0FA80F040090190FFE7B5
:1005F0000198C10740F20070C5F2000000291CBF3D
:1006000040F20030C5F2000004F018FA4FEA002072
:1006100000281CD5FFE740F20000C2F2000000688D
:10062000800942F66351C0F23E51A0FB01108009DF
:1006300000EB40010C2000EB81000290FFE70298E4
:1006400020B1FFE7029801380290F8E7FFE702F0D7
:10065000E1FD0390FFE7049800680068C00740BB15
:10066000FFE70498006804F03DFA28B9FFE7049812
:10067000006804F0C5F9FFE702F0CCFD0399401AC9
:10068000032815D3FFE7049800680068C00770B915
:10069000FFE70499C86D40F01000C8650499086E22
:1006A00040F00100086601208DF8170006E0FFE722
:1006B000D1E7FFE700208DF81700FFE79DF817004E
:1006C00006B080BDFFE7FEE780B582B001900198DB
:1006D000806A0090009802F079F800990120087172
:1006E00002B080BD80B582B001900198806A009010
:1006F000009801F093FE00990120087102B080BDBE
:1007000080B582B001900198806A009000990869D4
:1007100040F004000861009802F060F800990120A0
:10072000087102B080BD000080B582B001900198D0
:10073000806A00900099086940F004000861009800
:1007400001F074FE00990120087102B080BD000024
:1007500080B582B001900198806A0090009802F004
:1007600039F802B080BD000080B582B001900198D8
:10077000806A0090009801F055FE02B080BD000034
:1007800080B540F29C50C2F2000002F0A3F980BD97
:1007900080B540F2DC40C2F2000002F09BF980BD5F
:1007A00080B540F23C50C2F2000002F093F980BDE7
:1007B00084B003900398006840F20741C4F202013C
:1007C000884206D8FFE740F60000C4F2020000901D
:1007D00005E040F62000C4F202000090FFE7009818
:1007E00002900398007808384CF6CD41CCF6CC4105
:1007F000A0FB011000090190029803994A6C22F0B5
:10080000030210448864039940F68000C4F2020099
:10081000C864019800F01F01012088400399086511
:1008200004B0704782B0019001980079009000995F
:1008300040F6FC00C4F2020000EB8100019948651B
:10084000019940F64010C4F2020088650098013812
:1008500000F01F01012088400199C86502B070476F
:1008600084B003900291019200930398C16C006DD3
:1008700048600398406D28B1FFE70398816DC06D13
:100880004860FFE70398016C406C00F01F020120F4
:100890009040486000980399096848600398806810
:1008A000102809D1FFE70198039909688860029828
:1008B00003990968C86008E002980399096888608C
:1008C000019803990968C860FFE704B07047000009
:1008D0007047000081B0EFF3108072B60090FFE720
:1008E000FEE7000080B586B00490039100200190DF
:1008F000FFE7049890F85800012804D1FFE7022090
:100900008DF817005AE00499012081F85800FFE79C
:10091000FFE70498FFF7CEFD8DF80B009DF80B0064
:10092000D8BBFFE70498C06D40F0020020F4885067
:100930000499C86504980068039904F0EDF9FFE78D
:100940000498006804F0B6F8F0B1FFE701980130B0
:10095000019001984DF60261C0F20401884212D361
:10096000FFE70498C06D40F0100020F002000499E9
:10097000C865FFE70499002081F85800FFE70120CF
:100980008DF817001AE0DBE70498C06D40F0010015
:1009900020F002000499C86505E00499C86D40F094
:1009A0001000C865FFE7FFE70499002081F85800B0
:1009B000FFE79DF80B008DF81700FFE79DF8170083
:1009C00006B080BD81B0009001B0704781B000904A
:1009D00001B0704781B0009001B0704781B00090C5
:1009E00001B0704781B0009001B0704780B5AEB0E3
:1009F0002C902B9100208DF8AB002B98006808B14B
:100A0000FFE7FFE7FFE72C9890F85800012804D192
:100A1000FFE702208DF8B7005DE12C99012081F8F5
:100A20005800FFE7FFE70020259026902C980068EB
:100A3000B0F1A04F06D1FFE740F20010C5F2000070
:100A40000E9015E02C98006840F20041C5F20001BC
:100A5000884207D1FFE740F20050C5F200000E9037
:100A60000C9003E000200E900C90FFE70C98FFE73D
:100A70000E9878B9FFE72C99C86D40F02000C86542
:100A8000FFE72C99002081F85800FFE701208DF83E
:100A9000B70020E10E9804F045F80D902C980068FE
:100AA00004F040F8002840F00281FFE70D9800288C
:100AB00040F0FD80FFE72C9801680120B1F1A04FC4
:100AC0000B900CD0FFE72C9800684FF60071CAF627
:100AD000FF710844B0FA80F040090B90FFE70B98D3
:100AE000C10740F20070C5F2000000291CBF40F2AF
:100AF0000030C5F2000029902B980068002872D0C1
:100B0000FFE72998806820F460402B9949682C9A67
:100B100092F8382041EA42310843299988602C989C
:100B200001680120B1F1A04F0A900CD0FFE72C988A
:100B300000684FF60071CAF6FF710844B0FA80F001
:100B400040090A90FFE70A98C10740F20070C5F219
:100B5000000000291CBF40F20030C5F2000040F246
:100B60000031C5F20001884210D1FFE74FF0A040EC
:100B700003F0C0FF089040F20010C5F2000003F03F
:100B8000B9FF01460898084309901BE040F2004075
:100B9000C5F2000003F0AEFF069040F20050C5F22F
:100BA000000003F0A7FF014606980843079040F2B3
:100BB0000060C5F2000003F09DFF0146079808435E
:100BC0000990FFE7099868B9FFE72998806840F61F
:100BD0001F7188432B9A1168926811430843299921
:100BE0008860FFE762E02999886820F460408860A7
:100BF0002C9801680120B1F1A04F05900CD0FFE7BF
:100C00002C9800684FF60071CAF6FF710844B0FADC
:100C100080F040090590FFE70598C10740F2007099
:100C2000C5F2000000291CBF40F20030C5F20000F0
:100C300040F20031C5F20001884210D1FFE74FF0C9
:100C4000A04003F057FF039040F20010C5F20000EF
:100C500003F050FF01460398084304901BE040F264
:100C60000040C5F2000003F045FF019040F2005043
:100C7000C5F2000003F03EFF0146019808430290D0
:100C800040F20060C5F2000003F034FF0146029814
:100C900008430490FFE7049838B9FFE7299988686A
:100CA00040F61F7290438860FFE7FFE708E02C9949
:100CB000C86D40F02000C86501208DF8AB00FFE74B
:100CC000FFE72C99002081F85800FFE79DF8AB0062
:100CD0008DF8B700FFE79DF8B7002EB080BD00008B
:100CE00080B5C4B02490239100208DF88B001F9014
:100CF0002398C0680021C4F27F01884201D0FFE739
:100D000000E0FFE7FFE7249890F85800012805D19C
:100D1000FFE702208DF8970000F059BC24990120CC
:100D200081F85800FFE7FFE72498006803F0F2FE1F
:100D3000002840F03884FFE72498006823990A6867
:100D4000496803F003FF2498006803F0E3FE1E9057
:100D50002498006803F09AFE1D901E98002840F029
:100D6000B881FFE71D98002840F0B381FFE7239882
:100D70008068B0F1004F0ED1FFE7249800682399F6
:100D80000968002203F00EFF249800684FF000412C
:100D900003F0B4FF0CE024980068239A116892686D
:100DA00003F000FF24980068002103F0A7FFFFE78D
:100DB0002398406924990968C96801F018018908D5
:100DC000884021902398006904281CD0FFE72498CC
:100DD000006823990A680969219B03F035FF24986C
:100DE0000068239A1169926903F060FF24980068F3
:100DF000239A1169127F013AB2FA82F2520952061D
:100E000003F040FF64E124980068002103F02EFE07
:100E1000400348B9FFE724980068002103F026FE4C
:100E2000C0F384601C9018E024980068002103F04F
:100E30001DFE90FAA0F02690269820B9FFE720200A
:100E40008DF89F0005E02698B0FA80F08DF89F009D
:100E5000FFE79DF89F001C90FFE71C981B902398CC
:100E60000068400330B9FFE723980068C0F384604E
:100E70001A9015E02398006890FAA0F0289028981E
:100E800020B9FFE720208DF8A70005E02898B0FAE8
:100E900080F08DF8A700FFE79DF8A7001A90FFE704
:100EA0001B981A99884207D1FFE72498006800220E
:100EB000114603F00FFFFFE724980068012103F0BB
:100EC000D5FD400348B9FFE724980068012103F0ED
:100ED000CDFDC0F38460199018E0249800680121CA
:100EE00003F0C4FD90FAA0F02A902A9820B9FFE7F9
:100EF00020208DF8AF0005E02A98B0FA80F08DF838
:100F0000AF00FFE79DF8AF001990FFE71998189020
:100F100023980068400330B9FFE723980068C0F3C6
:100F20008460179015E02398006890FAA0F02C9048
:100F30002C9820B9FFE720208DF8B70005E02C9809
:100F4000B0FA80F08DF8B700FFE79DF8B700179072
:100F5000FFE718981799884207D1FFE7249800689F
:100F60000121002203F0B6FEFFE724980068022169
:100F700003F07CFD400348B9FFE724980068022194
:100F800003F074FDC0F38460169018E024980068A4
:100F9000022103F06BFD90FAA0F02E902E9820B95C
:100FA000FFE720208DF8BF0005E02E98B0FA80F012
:100FB0008DF8BF00FFE79DF8BF001690FFE7169879
:100FC000159023980068400330B9FFE72398006824
:100FD000C0F38460149015E02398006890FAA0F0A4
:100FE0003090309820B9FFE720208DF8C70005E049
:100FF0003098B0FA80F08DF8C700FFE79DF8C70081
:101000001490FFE715981499884207D1FFE72498B8
:1010100000680221002203F05DFEFFE724980068CB
:10102000032103F023FD400348B9FFE7249800683B
:10103000032103F01BFDC0F38460139018E0249893
:101040000068032103F012FD90FAA0F04090409850
:1010500020B9FFE720208DF8070105E04098B0FA9D
:1010600080F08DF80701FFE79DF807011390FFE777
:101070001398129023980068400330B9FFE7239833
:101080000068C0F38460119015E02398006890FA1E
:10109000A0F04290429820B9FFE720208DF80F0180
:1010A00005E04298B0FA80F08DF80F01FFE79DF857
:1010B0000F011190FFE712981199884207D1FFE7BD
:1010C000249800680321002203F004FEFFE7FFE7F5
:1010D000FFE72498006803F005FD002840F04481F4
:1010E000FFE724980068239A1168D26803F076FD20
:1010F0002398C0680021C4F27F01884240F0338108
:10110000FFE724980068109023980068400330B9E6
:10111000FFE723980068C0F384600F9015E02398E0
:10112000006890FAA0F03E903E9820B9FFE720209A
:101130008DF8FF0005E03E98B0FA80F08DF8FF00D2
:10114000FFE79DF8FF000F90FFE70F98013000F0D8
:101150001F0009287DD8FFE723980068400330B9B5
:10116000FFE723980068C0F384600E9015E0239891
:10117000006890FAA0F03C903C9820B9FFE720204E
:101180008DF8F70005E03C98B0FA80F08DF8F70094
:10119000FFE79DF8F7000E90FFE70E98013000F092
:1011A0001F0080060D9023980068400330B9FFE7C8
:1011B00023980068C0F384600C9015E023980068C1
:1011C00090FAA0F03A903A9820B9FFE720208DF8E5
:1011D000EF0005E03A98B0FA80F08DF8EF00FFE7F5
:1011E0009DF8EF000C90FFE70D980C99013101F08C
:1011F0001F020121914008430B902398006840038F
:1012000030B9FFE723980068C0F384600A9015E0C6
:101210002398006890FAA0F03890389820B9FFE73A
:1012200020208DF8E70005E03898B0FA80F08DF8BE
:10123000E700FFE79DF8E7000A90FFE70B980A999F
:10124000013101F01F0101EB410140EA0150099019
:1012500082E023980068400330B9FFE723980068D4
:10126000C0F38460089015E02398006890FAA0F01D
:101270003690369820B9FFE720208DF8DF0005E092
:101280003698B0FA80F08DF8DF00FFE79DF8DF00B8
:101290000890FFE70898013000F01F0080060790D3
:1012A00023980068400330B9FFE723980068C0F333
:1012B0008460069015E02398006890FAA0F03490BE
:1012C000349820B9FFE720208DF8D70005E0349846
:1012D000B0FA80F08DF8D700FFE79DF8D7000690B0
:1012E000FFE707980699013101F01F0201219140A3
:1012F0000843059023980068400330B9FFE723981E
:101300000068C0F38460049015E02398006890FAA8
:10131000A0F03290329820B9FFE720208DF8CF005E
:1013200005E03298B0FA80F08DF8CF00FFE79DF825
:10133000CF000490FFE705990498013000F01F00EA
:1013400000EB40020020CFF6206000EB0250084383
:1013500040F000700990FFE710980999239A92686D
:1013600003F020FCFFE7FFE72398408848F20801DC
:10137000084200F01781FFE7249801680120B1F1CD
:10138000A04F03900CD0FFE7249800684FF600713F
:10139000CAF6FF710844B0FA80F040090390FFE7F5
:1013A0000398C10740F20070C5F2000000291CBF7D
:1013B00040F20030C5F2000003F040FB209023987B
:1013C000006840F20001CCF22131884208D0FFE7EA
:1013D000239800681021C9F2C00188425AD1FFE762
:1013E0009DF882000006002854D4FFE72498006886
:1013F000B0F1A04F09D0FFE72498006840F20061E7
:10140000C5F20001884244D1FFE724980168012019
:10141000B1F1A04F02900CD0FFE7249800684FF67E
:101420000071CAF6FF710844B0FA80F040090290DA
:10143000FFE70298C10740F20070C5F200000029E2
:101440001CBF40F20030C5F20000209941F40001B9
:1014500003F0ECFB40F20000C2F2000000684FEA2B
:10146000901042F66351C0F23E51A0FB01104FEACA
:10147000901000EB40014FF00C0000EB81001F903A
:10148000FFE71F9820B1FFE71F9801381F90F8E78A
:10149000FFE786E0239800680021CCF25271884271
:1014A0003ED1FFE79DF88300C007C8BBFFE7249843
:1014B000006840F20011C5F20001884209D1FFE73F
:1014C0002498006840F20051C5F20001884226D0FD
:1014D000FFE7249801680120B1F1A04F01900CD0E2
:1014E000FFE7249800684FF60071CAF6FF710844C0
:1014F000B0FA80F040090190FFE70198C10740F27F
:101500000070C5F2000000291CBF40F20030C5F297
:101510000000209941F0807103F088FBFFE73FE075
:10152000239800680021CCF68431884236D1FFE749
:101530009DF882004006002830D4FFE72498006818
:1015400040F20011C5F20001884226D0FFE724983E
:1015500001680120B1F1A04F00900CD0FFE7249862
:1015600000684FF60071CAF6FF710844B0FA80F0C7
:1015700040090090FFE70098C10740F20070C5F2F3
:10158000000000291CBF40F20030C5F20000209985
:1015900041F4800103F04AFBFFE700E0FFE7FFE7CB
:1015A000FFE7FFE708E02499C86D40F02000C86518
:1015B00001208DF88B00FFE7FFE72499002081F8D8
:1015C0005800FFE79DF88B008DF89700FFE79DF826
:1015D000970044B080BD000080B582B001900198B2
:1015E00040F2F031C2F2000188420CD1FFE740F234
:1015F000F030C2F2000040F22631C2F20001642253
:1016000000F006FEFFE702B080BD000081B0009050
:1016100001B0704781B0009001B0704780B594B0C0
:10162000139000201290139800680068119013988E
:10163000006840681090139801680120B1F1A04F34
:101640000A900CD0FFE7139800684FF60071CAF6B5
:10165000FF710844B0FA80F040090A90FFE70A9849
:10166000C10740F20070C5F2000000291CBF40F223
:101670000030C5F2000003F0F1F90B909DF8440032
:101680004FEA807000281AD5FFE79DF840008007D8
:10169000002814D5FFE71398C06DC006002806D4B3
:1016A000FFE71399C86D40F40060C865FFE7139821
:1016B000FFF788F91398016802200860FFE79DF89A
:1016C00044004007002806D5FFE7109800F004000A
:1016D00004280ED0FFE79DF844000007002840F1E1
:1016E000C080FFE79DF840000007002840F1B98066
:1016F000FFE71398C06DC006002806D4FFE71399D2
:10170000C86D40F40070C865FFE71398006803F0E7
:1017100011FA002800F09D80FFE71398006840F25E
:101720000011C5F20001884204D1FFE74FF0A0404C
:10173000099015E01398006840F20051C5F20001CD
:10174000884206D1FFE740F20040C5F20000089051
:1017500003E0139800680890FFE708980990FFE7F6
:1017600009981399096888420BD0FFE70B9840B19C
:10177000FFE70B98052804D0FFE70B98092805D14F
:10178000FFE713980068C0680D9028E01398006880
:1017900040F20011C5F20001884204D1FFE74FF08A
:1017A000A040079015E01398006840F20051C5F280
:1017B0000001884206D1FFE740F20040C5F2000078
:1017C000069003E0139800680690FFE706980790DC
:1017D000FFE707980C900C98C0680D90FFE70D98F4
:1017E00000F40050B0F5005F32D0FFE713980068B6
:1017F0000068000700282AD5FFE71398006803F067
:1018000089F9C0B9FFE713980168486820F00C0017
:1018100048601399C86D20F48070C8651398C06D36
:10182000C004002806D4FFE71399C86D40F00100FA
:10183000C865FFE70AE01399C86D40F01000C8655D
:101840001399086E40F001000866FFE7FFE7FFE725
:10185000FFE71398FFF7C0FE139801680C2008609B
:10186000FFE79DF844008006002806D5FFE71098A2
:1018700000F0200020280ED0FFE79DF8440040062D
:10188000002840F1D680FFE79DF840004006002880
:1018900040F1CF80FFE71398C06DC006002806D442
:1018A000FFE71399C86D40F40050C865FFE713982F
:1018B000006803F0F3F80F901398006803F03AF90A
:1018C0000E901398006840F20011C5F200018842A2
:1018D00004D1FFE74FF0A040059015E01398006891
:1018E00040F20051C5F20001884206D1FFE740F204
:1018F0000040C5F20000049003E0139800680490D3
:10190000FFE704980590FFE7059813990968884256
:101910000BD0FFE70B9840B1FFE70B98062804D0E7
:10192000FFE70B98072805D1FFE713980068C06808
:101930000D9028E01398006840F20011C5F20001F4
:10194000884204D1FFE74FF0A040039015E01398C0
:10195000006840F20051C5F20001884206D1FFE75D
:1019600040F20040C5F20000029003E013980068C6
:101970000290FFE702980390FFE703980C900C9801
:10198000C0680D90FFE70F9800284AD0FFE79DF848
:101990003700800700280AD5FFE70E9800283FD0BF
:1019A000FFE79DF835008006002839D4FFE713983B
:1019B000006800684006002831D5FFE79DF8360032
:1019C000800600282AD4FFE71398006803F05EF829
:1019D000C0B9FFE713980168486820F060004860CC
:1019E0001399C86D20F48050C8651398C06DC00568
:1019F000002806D4FFE71399C86D40F00100C865C0
:101A0000FFE70AE01399C86D40F01000C86513990C
:101A1000086E40F001000866FFE7FFE7FFE7FFE719
:101A2000FFE71398FEF7D2FF139801686020086063
:101A3000FFE79DF844000006002813D5FFE79DF856
:101A40004000000600280DD5FFE71399C86D40F44B
:101A50008030C865139800F0A9FA139801688020B7
:101A60000860FFE79DF84500C00798B1FFE79DF8C3
:101A70004100C00770B1FFE71399C86D40F4003012
:101A8000C8651398FEF7AAFF139801684FF4807099
:101A90000860FFE79DF845008007002814D5FFE7A0
:101AA0009DF84100800700280ED5FFE71399C86D07
:101AB00040F48020C8651398FEF794FF13980168DE
:101AC0004FF400700860FFE79DF84400C00600284E
:101AD0005AD5FFE79DF84000C006002854D5FFE71F
:101AE0001398C06B18B9FFE70120129035E00B98EE
:101AF00040B3FFE7139801680120B1F1A04F0190B6
:101B00000CD0FFE7139800684FF60071CAF6FF711A
:101B10000844B0FA80F040090190FFE70198C1073E
:101B200040F20070C5F2000000291CBF40F20030F6
:101B3000C5F2000002F08AFF18B1FFE70120129001
:101B4000FFE709E013980068C068C00718B1FFE715
:101B500001201290FFE7FFE7FFE7129801280ED15E
:101B6000FFE71399C86D40F48060C8651399086E4B
:101B700040F0020008661398FFF74CFDFFE713984A
:101B8000016810200860FFE79DF845004007002825
:101B900019D5FFE79DF841004007002813D5FFE75E
:101BA0001399C86D40F48040C8651399086E40F0E1
:101BB00008000866139801684FF480600860139865
:101BC000FEF708FFFFE714B080BD000080B58EB0BF
:101BD0000C9000208DF82F0007900C9820B9FFE79B
:101BE00001208DF83700DCE10C98406940B1FFE737
:101BF0000C9890F82400012801D1FFE7FFE7FFE7E8
:101C00000C98C06D50B9FFE70C9800F0D3F90C990F
:101C1000002008660C9981F85800FFE70C980068CE
:101C200002F050FF28B1FFE70C98006802F0DCFEDC
:101C3000FFE70C98006802F065FFF0B9FFE70C9829
:101C4000006802F0EBFE40F20000C2F20000006803
:101C5000800942F66351C0F23E51A0FB0110810998
:101C6000022000EB41000790FFE7079820B1FFE753
:101C7000079801380790F8E7FFE70C98006802F032
:101C800041FF70B9FFE70C99C86D40F01000C865BE
:101C90000C99086E40F00100086601208DF82F00B5
:101CA000FFE70C98006802F035FF09900C98C06DB2
:101CB000C006002800F16781FFE70998002840F07E
:101CC0006281FFE70C98C06D40F0020020F4807044
:101CD0000C99C8650C98006802F004FF00287CD1BC
:101CE000FFE70C9801680120B1F1A04F06900CD0DD
:101CF000FFE70C9800684FF60071CAF6FF710844C0
:101D0000B0FA80F040090690FFE70698C10740F25C
:101D10000070C5F2000000291CBF40F20030C5F27F
:101D2000000040F20031C5F20001884210D1FFE707
:101D30004FF0A04002F0D6FE049040F20010C5F231
:101D4000000002F0CFFE01460498084305901BE016
:101D500040F20040C5F2000002F0C4FE029040F2E2
:101D60000050C5F2000002F0BDFE01460298084393
:101D7000039040F20060C5F2000002F0B3FE01469D
:101D8000039808430590FFE7059828BBFFE70C98E8
:101D900001680120B1F1A04F01900CD0FFE70C9831
:101DA00000684FF60071CAF6FF710844B0FA80F07F
:101DB00040090190FFE70198C10740F20070C5F2A9
:101DC000000000291CBF40F20030C5F200000C9951
:101DD000496802F01DFFFFE7FFE70C994A7FC86BD7
:101DE00040EA42308A68CB681843104391F82410C7
:101DF00040EA01400A900C9890F8240001280BD189
:101E0000FFE70C98816A0020CFF6FE7000EB41419D
:101E10000A9808430A90FFE70C98C06A50B1FFE7A0
:101E20000C99C86A096B00F4787001430A9808435A
:101E30000A90FFE70C980068C06844F20701CFF6EB
:101E4000F07108400A9908430C990968C8600C9819
:101E50000068006920F040600C9A1168526B1043D2
:101E600008610C98006802F011FE0890099800289B
:101E700068D1FFE70898002864D1FFE70C99087F34
:101E800091F83810800340EA41000A900C980068ED
:101E9000C06844F2020188430A9908430C99096812
:101EA000C8600C980069A0B1FFE70C980168086948
:101EB00040F4803008610C980068D0F8C00043F608
:101EC000FF7188430C9A116812691043C1F8C00071
:101ED00011E00C980168086920F4803008610C98C2
:101EE0000068D0F8C00043F6FF7188430C99096878
:101EF000C1F8C000FFE70C9890F84000012819D104
:101F0000FFE70C980068006940F2FD7120EA0102C9
:101F10000C9B1968586CD3F848E0D3F84CC040EAE1
:101F20000E0040EA0C001B6D1843104340F0010006
:101F3000086106E00C980168086920F0010008615A
:101F4000FFE7FFE70C98406901280CD1FFE70C98E8
:101F50000068006B20F00F000C9A1168126A013AB9
:101F60001043086306E00C980168086B20F00F002E
:101F70000863FFE70C98C06D40F0010020F00200FC
:101F80000C99C86508E00C99C86D40F01000C86550
:101F900001208DF82F00FFE79DF82F008DF8370006
:101FA000FFE79DF837000EB080BD000081B00090C3
:101FB00001B0704780B5A8B02790002026902590EA
:101FC0002490239022900DA85421FEF775F92798AC
:101FD0000068B0F1A04F78D1FFE74FF400400D90BA
:101FE0004FF000501E900DA801F0B6FA18B1FFE7AF
:101FF000FEF770FCFFE740F21830C2F20000016803
:10200000013101600068012810D1FFE7FFE741F2CC
:102010004C00C4F20200016841F400510160006804
:1020200000F400500C900C98FFE7FFE7FFE741F247
:102030004C00C4F20200016841F001010160006837
:1020400000F001000B900B98FFE702202290032084
:1020500023900020069024904FF0904022A900F099
:102060000FFF069940F2DC40C2F2000007901C22EC
:10207000C4F202020260052242608160C1608022D7
:1020800002614FF4807242614FF4806282612022CB
:10209000C261016200F0CAFD18B1FFE7FEF71AFC49
:1020A000FFE7FFE7279840F2DC41C2F200014165FB
:1020B00027988862FFE7122005900022114601F060
:1020C00047F9059801F03AF9A0E02798006840F236
:1020D0000011C5F20001884240F09780FFE74FF4FD
:1020E00000400D904FF000501E900DA801F034FA02
:1020F00018B1FFE7FEF7EEFBFFE740F21830C2F23F
:1021000000000168013101600068012810D1FFE77B
:10211000FFE741F24C00C4F20200016841F40051B3
:102120000160006800F400500A900A98FFE7FFE79A
:10213000FFE741F24C00C4F20200016841F00401E3
:102140000160006800F0040009900998FFE7FFE7CC
:1021500041F24C00C4F20200016841F0010101604B
:10216000006800F0010008900898FFE71320229013
:1021700003200190239000200390249040F600005B
:10218000C4F6000022A9029100F07AFE019A029999
:10219000039881232293239224904FF0904000F0E3
:1021A0006FFE039940F23C50C2F2000004903022CE
:1021B000C4F202020260242242608160C160802277
:1021C00002614FF4007242614FF48062826120220A
:1021D000C261016200F02AFD18B1FFE7FEF77AFB49
:1021E000FFE7FFE7279840F23C51C2F2000141654A
:1021F00027988862FFE7122000900022114601F024
:10220000A7F8009801F09AF8FFE7FFE728B080BD33
:1022100080B58AB00890079106920898016801205D
:10222000B1F1A04F03900CD0FFE7089800684FF67B
:102230000071CAF6FF710844B0FA80F040090390BB
:10224000FFE70398C10740F20070C5F200000029C3
:102250001CBF40F20030C5F2000002F0FFFB04900A
:102260000898006802F056FC002840F0CA80FFE79A
:10227000FFE7089890F85800012804D1FFE70220F2
:102280008DF82700C6E00899012081F85800FFE783
:10229000FFE70898006840F20061C5F2000188423B
:1022A0000CD0FFE7049848B1FFE70498052805D053
:1022B000FFE70498092840F09980FFE70898FEF7A7
:1022C0005BF98DF817009DF81700002840F0868014
:1022D000FFE70898C06D40F4807040F601618843C4
:1022E0000899C8650898006840F20011C5F200011D
:1022F000884204D1FFE74FF0A040029015E0089813
:10230000006840F20051C5F20001884206D1FFE7A3
:1023100040F20040C5F20000019003E00898006818
:102320000190FFE701980290FFE702980899096879
:10233000884203D0FFE7049830B9FFE70899C86DD9
:1023400020F48010C865FFE70898C06DC00400281D
:1023500006D5FFE70899086E20F00600086603E03E
:10236000089900200866FFE70898416D40F29D300B
:10237000C0F60000C8620898416D40F29D40C0F66A
:10238000000008630898416D40F27140C0F60000FB
:102390004863089801681C200860FFE7089900203E
:1023A00081F85800FFE708980168486840F010007D
:1023B000486008980168C86840F00100C860089843
:1023C0000168406D4031079A069B00F0DBFC8DF8F8
:1023D00017000898006802F0D7FB06E0FFE70899AD
:1023E000002081F85800FFE7FFE709E001208DF8A1
:1023F0001700FFE70899002081F85800FFE7FFE782
:1024000003E002208DF81700FFE79DF817008DF814
:102410002700FFE79DF827000AB080BD81B000903B
:1024200001B0704781B0009001B0704781B000905A
:1024300001B0704780B58AB00890079106920020DD
:102440008DF81700089818B1FFE7079820B9FFE743
:1024500001208DF82700B5E10798C069012801D156
:10246000FFE7FFE707988068042801D1FFE706E04F
:1024700007984069022801D1FFE7FFE7FFE7FFE780
:1024800008984079012804D1FFE702208DF8270041
:1024900098E1089901204871FFE7FFE708990220B9
:1024A000087107988068042878D1FFE700F0B2FE31
:1024B0000290069848BBFFE7FFE708980068406B6A
:1024C000000400281BD5FFE700F0A4FE0299401A83
:1024D000022813D3FFE708980068406B0004002827
:1024E0000BD5FFE70899086940F0080008610899D2
:1024F000032008718DF8270064E1FFE7DDE7079806
:10250000406A08990968086426E0FFE708980068AF
:10251000406BC00FD0B1FFE700F07CFE0299401A7B
:10252000022812D3FFE708980068406BC00F58B12B
:10253000FFE70899086940F008000861089903203E
:1025400008718DF827003DE1FFE7DFE70798406A53
:10255000089909684864FFE708980068806C069944
:1025600001F0100240F2FF31914088430799896AD7
:102570009140084308990968886408980068C06C0D
:10258000069901F01002FF21914088430799C96A1A
:102590009140084308990968C864FFE70798C06933
:1025A00001281ED1FFE708980068806B0490069808
:1025B00000F010011F2000FA01F1049888430490F4
:1025C0000798006A03900398069901F0100100FA39
:1025D00001F10498084304900498089909688863F5
:1025E000FFE708980068C06B0490069800F010019F
:1025F000072000FA01F10498884304900798806945
:10260000012803D1FFE70020009013E007988069BC
:10261000022803D1FFE7012000900AE007984069F3
:1026200018B9FFE70120009002E000200090FFE7CA
:10263000FFE7FFE70799886849690843009908435D
:102640000390069800F010014FF4807000FA01F139
:1026500004988843049007980279039840F48071A5
:10266000012A08BF08460390069800F010014FF4B5
:10267000007000FA01F104988843049007984279A9
:10268000039840F40071012A08BF0846039004989B
:1026900020F44040049007980068022820D1FFE70A
:1026A00001F080FB0190019846F60101C0F6891106
:1026B000884205D3FFE7049840F4004004900EE000
:1026C00001984BF20141C0F2C441884205D3FFE7B3
:1026D000049840F48040049000E0FFE7FFE705E045
:1026E00007980168049808430490FFE70398069947
:1026F00001F0100100FA01F10498084304900498D5
:1027000008990968C863069800F010014FF48040EA
:1027100000FA01F208980168086890430860089878
:10272000006800680490069800F0100140F6FE7002
:1027300000FA01F10498884304900798C068039058
:102740000398069901F0100100FA01F1049808437A
:1027500004900498089909680860069800F0100130
:10276000C02000FA01F208980168086890430860E8
:102770000798C068C0F3830003900798006900F0D1
:102780003C01039840EA8110039008980068006EAD
:10279000069901F0100240F60F71914088430399A9
:1027A0009140084308990968086608990120087152
:1027B000FFE7089900204871FFE79DF817008DF8A2
:1027C0002700FFE79DF827000AB080BD81B0009088
:1027D00001B0704781B0009001B0704781B00090A7
:1027E00001B0704780B582B00090009820B9FFE733
:1027F00001208DF8070016E00098007938B9FFE74E
:10280000009900204871009800F012F8FFE7009945
:1028100002200871009900200861009A01211171BD
:102820008DF80700FFE79DF8070002B080BD0000AB
:1028300080B58AB009900020089007900690059016
:1028400004900998006840F60041C5F200018842F2
:1028500056D1FFE7FFE741F24C00C4F202000168E5
:1028600041F400310160006800F4003003900398E7
:10287000FFE7FFE741F24C00C4F20200016841F0BB
:1028800001010160006800F0010002900298FFE77A
:1028900040200490032005900020009006904FF007
:1028A000904004A900F0ECFA009940F29C50C2F26A
:1028B000000001900822C4F2020202602922426054
:1028C00010228260C160802202614FF40072426176
:1028D0004FF4806282612022C261016200F0A6F999
:1028E00018B1FFE7FDF7F6FFFFE7FFE7099840F2B1
:1028F0009C51C2F20001816009988862FFE7FFE7FE
:102900000AB080BD80B58AB0DDF830C0089007916C
:1029100006920593089820B9FFE701208DF827005B
:10292000D4E0FFE708984079012804D1FFE70220AE
:102930008DF82700CAE0089901204871FFE7FFE7FA
:10294000089902200871079898BBFFE708988168EA
:1029500040F2C960C0F60000C8620898816840F281
:102960005170C0F6000008630898816840F2017059
:10297000C0F60000486308980168086840F4805079
:1029800008600C98019020B1FFE70198042805D059
:1029900009E0089800680830039009E0089800688A
:1029A0000C30039004E00898006810300390FFE7B3
:1029B00032E00898C16840F2E560C0F60000C862E5
:1029C0000898C16840F26970C0F600000863089872
:1029D000C16840F22970C0F6000048630898016899
:1029E000086840F0805008600C98009020B1FFE724
:1029F0000098042805D009E0089800681430039076
:102A000009E0089800681830039004E0089800680E
:102A10001C300390FFE7FFE7079880B9FFE70898AD
:102A20000168086840F400500860089880680699BA
:102A3000039A059B00F0A6F98DF813000FE00898A3
:102A40000168086840F0005008600898C06806995E
:102A5000039A059B00F096F98DF81300FFE7FFE756
:102A6000089900204871FFE79DF8130018BBFFE7A5
:102A7000079800F01001012000FA01F308990A6894
:102A800011681943116040F20001C2F200010968A7
:102A9000890942F66352C0F23E52A1FB022100EBCB
:102AA00091100290FFE7029820B1FFE702980138E9
:102AB0000290F8E705E00899086940F00400086111
:102AC000FFE79DF813008DF82700FFE79DF827002A
:102AD0000AB080BD80B584B003900398006C006894
:102AE0000290039800680068019002980399496C6D
:102AF00001F01F01C8404007002825D5FFE79DF8D9
:102B00000400400700281FD5FFE70398006800680D
:102B10008006002807D4FFE703980168086820F0C2
:102B200004000860FFE70398016C406C00F01F028E
:102B30000420904048600398006B20B1FFE70398A1
:102B4000016B8847FFE76EE002980399496C01F03A
:102B50001F01C840800700282FD5FFE79DF804001B
:102B60008007002829D5FFE70398006800688006E1
:102B700000280BD4FFE703980168086820F00A00DA
:102B800008600399012081F82500FFE70398016C94
:102B9000406C00F01F02022090404860FFE703995C
:102BA000002081F82400FFE70398C06A20B1FFE706
:102BB0000398C16A8847FFE734E002980399496C9B
:102BC00001F01F01C8400007002829D5FFE79DF844
:102BD00004000007002823D5FFE703980168086870
:102BE00020F00E0008600398026C406C00F01F019A
:102BF000012000FA01F151600399C863039981F83B
:102C00002500FFE70399002081F82400FFE70398DF
:102C1000406B20B1FFE70398416B8847FFE700E076
:102C2000FFE7FFE7FFE704B080BD000080B584B098
:102C30000290029820B9FFE701208DF80F009CE078
:102C40000298006840F20741C4F20201884218D895
:102C5000FFE7029908684FF6F872CBF6FD72104450
:102C60004CF6CD42CCF6CC42A0FB02026FF0030042
:102C700000EA9200486402990020C4F2020008644D
:102C800018E0029908684FF6F832CBF6FD7210444E
:102C90004CF6CD42CCF6CC42A0FB02026FF0030012
:102CA00000EA92004864029940F20040C4F2020037
:102CB0000864FFE70299022081F825000298006865
:102CC00000680190019847F6F071884301900299DD
:102CD0008868D1F80CC00B694A6940EA0C001843B7
:102CE00010438A691043CA691043096A0143019875
:102CF0000843019001980299096808600298FDF75D
:102D000057FD02988068B0F5804F04D1FFE7029923
:102D100000204860FFE702990879896C08600298F2
:102D2000C16C006D48600298406888B1FFE7029866
:102D3000406804280CD8FFE70298FDF773FD02985D
:102D4000416D002008600298816DC06D486007E009
:102D5000029900204865029988650299C865FFE7D5
:102D600002990020C863029A012182F82510029975
:102D700081F824008DF80F00FFE79DF80F0004B0E4
:102D800080BD000080B586B004900391029201934B
:102D900000208DF80300FFE7049890F82400012834
:102DA00004D1FFE702208DF8170065E004990120A7
:102DB00081F82400FFE7FFE7049890F82500012838
:102DC0004BD1FFE70499022081F8250004990020E7
:102DD000C86304980168086820F00100086004983E
:102DE0000399029A019BFDF73BFD0498006B38B1F3
:102DF000FFE704980168086840F00E0008600CE0E6
:102E000004980168086820F00400086004980168CC
:102E1000086840F00A000860FFE70498806C0068CA
:102E2000C003002807D5FFE70498816C086840F4C8
:102E300080700860FFE70498406D38B1FFE70498A0
:102E4000416D086840F480700860FFE704980168ED
:102E5000086840F00100086009E0FFE704990020DD
:102E600081F82400FFE702208DF80300FFE79DF8BA
:102E700003008DF81700FFE79DF8170006B080BD2E
:102E80008BB00A90099100200890FFE7099800682C
:102E90000899C840002800F0A581FFE7099800685C
:102EA000089A01219140084007900798002800F0F7
:102EB0009581FFE70998406800F00300012807D0DA
:102EC000FFE70998406800F0030002282FD1FFE7D0
:102ED0000A988068069008984100032000FA01F1E2
:102EE0000698884306900998C0680899490000FA36
:102EF00001F106980843069006980A9988600A9896
:102F0000406806900899012000FA01F1069888436C
:102F1000069009984068C0F30010089900FA01F182
:102F200006980843069006980A994860FFE70998B2
:102F3000406800F00300032818D0FFE70A98C06833
:102F4000069008984100032000FA01F10698884392
:102F50000690099880680899490000FA01F10698DE
:102F60000843069006980A99C860FFE709984068E8
:102F700000F00300022826D1FFE70A9808996FF0B5
:102F8000030202EA51010844006A0690089800F022
:102F9000070081000F2000FA01F10698884306908F
:102FA00009980069089901F00701890000FA01F108
:102FB00006980843069006980A99089B02EA53026D
:102FC00011440862FFE70A980068069008984100DB
:102FD000032000FA01F1069888430690099840689A
:102FE00000F003000899490000FA01F1069808432F
:102FF000069006980A990860099880798007002849
:1030000000F0EB80FFE7FFE741F26000C4F202004E
:10301000016841F001010160006800F001000590C5
:103020000598FFE7089820F003000821C4F2010189
:1030300040580690089800F0030081000F2000FA25
:1030400001F10698884306900A98B0F1904F03D199
:10305000FFE70020049042E00A9840F20041C4F6E5
:103060000001884203D1FFE70120039034E00A9871
:1030700040F60001C4F60001884203D1FFE70220B8
:10308000029026E00A9840F60041C4F6000188420A
:1030900003D1FFE70320019018E00A9841F20001F4
:1030A000C4F60001884203D1FFE7042000900AE043
:1030B0000A9941F20042C4F600020620914208BF7C
:1030C00005200090FFE700980190FFE7019802902B
:1030D000FFE702980390FFE703980490FFE7049846
:1030E000089901F00301890000FA01F106980843EC
:1030F00006900698089921F003010822C4F2010203
:10310000885040F20840C4F2010000680690079918
:1031100006988843069009988079C006002805D54E
:10312000FFE70799069808430690FFE7069840F2E4
:103130000841C4F20101086040F20C40C4F20100F1
:103140000068069007990698884306900998807948
:103150008006002805D5FFE70799069808430690E2
:10316000FFE7069840F20C41C4F20101086040F20A
:103170000440C4F20100006806900799069888434D
:103180000690099880798007002805D5FFE7079900
:10319000069808430690FFE7069840F20441C4F2FF
:1031A0000101086040F20040C4F20100006806908E
:1031B000079906988843069009988079C00728B136
:1031C000FFE70799069808430690FFE7069840F244
:1031D0000041C4F201010860FFE7FFE708980130F1
:1031E000089053E60BB0704782B00190ADF8021022
:1031F0008DF801209DF8010028B1FFE7BDF802001D
:103200000199886104E0BDF8020001998862FFE736
:1032100002B0704740F24860C2F200000068704798
:1032200040F2AC20C2F20000026840F24861C2F2F3
:1032300000010868104408607047000080B582B043
:1032400000208DF80700032000F09AF80F2000F00E
:103250000DF820B1FFE701208DF8070002E000F033
:1032600049F8FFE79DF8070002B080BD80B582B045
:10327000019000208DF8030040F2AC20C2F2000063
:10328000006878B3FFE740F20000C2F20000006877
:1032900040F2AC21C2F200010A684FF47A71B1FB2E
:1032A000F2F1B0FBF1F001F0DDF9B0B9FFE7019800
:1032B0000F280DD8FFE701994FF0FF30002200F0F2
:1032C00047F8019840F2B021C2F20001086003E023
:1032D00001208DF80300FFE703E001208DF80300D3
:1032E000FFE703E001208DF80300FFE79DF80300EE
:1032F00002B080BD80B582B0FFE741F26000C4F249
:103300000200016841F001010160006800F0010065
:1033100001900198FFE7FFE741F25800C4F2020074
:10332000016841F080510160006800F08050009019
:103330000098FFE700F006F902B080BD80B582B0CA
:103340008DF807009DF9070002F0DAF802B080BDA1
:1033500080B586B08DF817000491039202F0E8F86A
:1033600002909DF91700019002980499039A01F0C8
:10337000D7FE0146019802F0E3F806B080BD0000D8
:1033800080B582B00190019802F0FCF802B080BDD7
:1033900085B00390039800285ED1FFE747F2000054
:1033A000C4F20000006800F4C060B0F5806F49D13D
:1033B000FFE747F28001C4F20001086820F4807042
:1033C000086047F20002C4F200021168012060F3B5
:1033D0004A21116040F20001C2F200010968322264
:1033E00051434DF68362C4F21B32A1FB022100EB74
:1033F00091400290FFE747F21400C4F20000016818
:10340000002049050029019006D5FFE70298002811
:1034100018BF01200190FFE70198C00720B1FFE726
:10342000029801380290E6E747F21400C4F2000067
:1034300000684005002804D5FFE703208DF813003D
:103440007CE008E047F28001C4F20001086820F443
:1034500080700860FFE76DE00398B0F5007F5ED1F3
:10346000FFE747F20000C4F20000006800F4C0600B
:10347000B0F5806F49D1FFE747F28001C4F2000147
:10348000086840F48070086047F20002C4F200024D
:103490001168012060F34A21116040F20001C2F27C
:1034A00000010968322251434DF68362C4F21B3297
:1034B000A1FB022100EB91400290FFE747F21400CC
:1034C000C4F200000168002049050029009006D5DB
:1034D000FFE70298002818BF01200090FFE700983E
:1034E000C00720B1FFE7029801380290E6E747F2F3
:1034F0001400C4F2000000684005002804D5FFE76E
:1035000003208DF8130019E008E047F28001C4F2AF
:103510000001086840F480700860FFE709E047F2A6
:103520000001C4F200010868022262F34A20086028
:10353000FFE7FFE700208DF81300FFE79DF8130079
:1035400005B0704747F20801C4F20001086840F472
:10355000804008607047000080B586B0059000206C
:103560008DF80B008DF80A00059880780007002878
:1035700040F1B580FFE700208DF8090041F25800C6
:10358000C4F202000068C000002813D4FFE7FFE780
:1035900041F25800C4F20200016841F0805101601C
:1035A000006800F0805001900198FFE701208DF83D
:1035B0000900FFE747F20001C4F20001086840F487
:1035C00080700860FFF726FE0390FFE747F20000D7
:1035D000C4F200000068C00500280CD4FFE7FFF724
:1035E00019FE0399401A032804D3FFE703208DF83E
:1035F0000B0000E0EAE79DF80B0000285BD1FFE735
:1036000041F29000C4F20200006800F4407004909F
:103610000498C8B1FFE704980599096D884213D052
:10362000FFE741F29001C4F20201086820F4407003
:103630000490086840F480300860086820F4803006
:10364000086004980860FFE79DF81000C007E0B12B
:10365000FFE7FFF7DFFD0390FFE741F29000C4F2C0
:1036600002000068800700280ED4FFE7FFF7D2FDB4
:103670000399401A41F28931884204D3FFE70320BD
:103680008DF80B0000E0E8E7FFE79DF80B0060B95C
:10369000FFE741F29001C4F20201086820F4407093
:1036A000059A126D1043086004E09DF80B008DF838
:1036B0000A00FFE704E09DF80B008DF80A00FFE721
:1036C0009DF80900012809D1FFE741F25801C4F231
:1036D0000201086820F080500860FFE7FFE70598C6
:1036E0000078C00760B1FFE741F28801C4F202012F
:1036F000086820F00300059A526810430860FFE74D
:1037000005980078800700280CD5FFE741F2880172
:10371000C4F20201086820F00C00059A9268104378
:103720000860FFE705980078400700280CD5FFE700
:1037300041F28801C4F20201086820F03000059AC5
:10374000D26810430860FFE705980078000700285A
:103750000CD5FFE741F28801C4F20201086820F0AD
:10376000C000059A126910430860FFE705980078C9
:10377000C00600280CD5FFE741F28801C4F202011F
:10378000086820F44070059A526910430860FFE70A
:1037900005980078800600280CD5FFE741F28801E3
:1037A000C4F20201086820F44060059A926910434F
:1037B0000860FFE705980078400600280CD5FFE771
:1037C00041F28801C4F20201086820F44050059AD1
:1037D000D26910430860FFE70598007800060028CA
:1037E0000CD5FFE741F28801C4F20201086820F419
:1037F0004040059A126A10430860FFE70598407838
:10380000C00760B1FFE741F28801C4F20201086815
:1038100020F44030059A526A10430860FFE705988B
:103820008078800700280CD5FFE741F29C01C4F2A4
:103830000201086820F00300059A926A10430860AC
:10384000FFE705984078800700280CD5FFE741F294
:103850008801C4F20201086820F44020059AD26A67
:1038600010430860FFE705984078400700281BD503
:10387000FFE741F28801C4F20201086820F4401019
:10388000059A126B104308600598006BB0F5801F15
:1038900009D1FFE741F20C01C4F20201086840F4CB
:1038A00080100860FFE7FFE70598407800070028D0
:1038B0001BD5FFE741F28801C4F20201086820F439
:1038C0004000059A526B104308600598406BB0F5B4
:1038D000800F09D1FFE741F20C01C4F20201086830
:1038E00040F480100860FFE7FFE705984078C006C5
:1038F00000281BD5FFE741F28801C4F202010868E5
:1039000020F04070059A926B104308600598806B18
:10391000B0F1807F09D1FFE741F20C01C4F202014E
:10392000086840F480100860FFE7FFE705984078DA
:10393000800600281BD5FFE741F28801C4F202018E
:10394000086820F04060059AD26B10430860059823
:10395000C06BB0F1006F09D1FFE741F20C01C4F276
:103960000201086840F480100860FFE7FFE705984F
:103970004078400600281BD5FFE741F28801C4F2D9
:103980000201086820F04060059A126C104308603C
:103990000598006CB0F1006F09D1FFE741F20C010E
:1039A000C4F20201086840F480100860FFE7FFE7F6
:1039B00005984078000600281BD5FFE741F28801F2
:1039C000C4F20201086820F04050059A526C10437E
:1039D00008600598406CB0F1805F09D1FFE741F2C3
:1039E0000C01C4F20201086840F480300860FFE76F
:1039F000FFE705988078C007D8B1FFE741F288015A
:103A0000C4F20201086820F04040059A926C10430D
:103A100008600598806CB0F1804F09D1FFE741F252
:103A20000C01C4F20201086840F480300860FFE72E
:103A3000FFE705988078400700281BD5FFE741F293
:103A40009C01C4F20201086820F44010059AD26C6F
:103A5000104308600598C06CB0F5001F09D1FFE75E
:103A600041F20C01C4F20201086840F480100860C1
:103A7000FFE7FFE79DF80A0006B080BD80B586B07D
:103A80000490039100200090049820B9FFE70120E2
:103A90008DF8170081E1039842F20001C4F202019F
:103AA000096801F00F01884216D9FFE742F20000D1
:103AB000C4F20200016821F00F01039A1143016072
:103AC000006800F00F000399884204D0FFE701204E
:103AD0008DF8170061E1FFE704980078C00700281F
:103AE00000F0A380FFE704984068032839D1FFE77E
:103AF00041F20000C4F2020000688001002804D4F2
:103B0000FFE701208DF8170047E101F041FB01902C
:103B100001984BF20141C0F2C441884220D3FFE733
:103B200041F20800C4F20200006810F0F00F0AD061
:103B3000FFE7049800788007002810D5FFE7049875
:103B4000806860B9FFE741F20801C4F20201086829
:103B5000082262F30710086080200090FFE7FFE76B
:103B600038E00498406802280ED1FFE741F20000D7
:103B7000C4F2020000688003002804D4FFE701209B
:103B80008DF8170009E10DE041F20000C4F20200D7
:103B900000684005002804D4FFE701208DF81700D5
:103BA000FBE0FFE700F004F9019001984BF20141BE
:103BB000C0F2C44188420CD3FFE741F20801C4F2CD
:103BC00002010868082262F3071008608020009054
:103BD000FFE7FFE741F20801C4F20201086820F0A4
:103BE0000300049A526810430860FFF713FB029029
:103BF000FFE741F20800C4F20200006800F00C0088
:103C000004994968B0EB810F0ED0FFE7FFF702FB84
:103C10000299401A41F28931884204D3FFE7032018
:103C20008DF81700B9E0E4E7FFE704980078800713
:103C300000282CD5FFE7049800784007002809D514
:103C4000FFE741F20801C4F20201086840F4E060B5
:103C50000860FFE704980078000700280BD5FFE70D
:103C600041F20801C4F20201086840F4E06020F467
:103C700060500860FFE741F20801C4F202010868E1
:103C800020F0F000049A9268104308600DE000985C
:103C9000802809D1FFE741F20801C4F20201086857
:103CA00020F0F0000860FFE7FFE7039842F2000110
:103CB000C4F20201096801F00F01884228D2FFE72F
:103CC00042F20001C4F20201086820F00F00039ADA
:103CD00010430860FFF79EFA0290FFE742F20000EF
:103CE000C4F20200006800F00F00039988420ED071
:103CF000FFE7FFF78FFA0299401A41F289318842B3
:103D000004D3FFE703208DF8170046E0E6E7FFE75E
:103D100004980078400700280CD5FFE741F208011D
:103D2000C4F20201086820F4E060049AD2681043EB
:103D30000860FFE704980078000700280DD5FFE72A
:103D400041F20801C4F20201086820F46050049AAC
:103D5000126940EAC2000860FFE700F029F841F26A
:103D60000801C4F202010968C9B20A0945F2746186
:103D7000C0F60001895C01F01F01C84040F200015B
:103D8000C2F20001086040F2B020C2F200000068F8
:103D9000FFF76CFA8DF81700FFE79DF8170006B0E3
:103DA00080BD000040F20000C2F2000000687047D1
:103DB00086B041F20800C4F20200006800F00C0076
:103DC000042806D1FFE742F20040C0F2F40001905F
:103DD00069E041F20800C4F20200006800F00C0043
:103DE000082806D1FFE741F20020C0F27A000190D6
:103DF00058E041F20800C4F20200006800F00C0034
:103E00000C284BD1FFE741F20C00C4F2020001681C
:103E100001F0030104910068C1B2012000EB111010
:103E2000029004980090022815D0FFE7009803281C
:103E300012D1FFE7029941F20020C0F27A00B0FBF4
:103E4000F1F041F20C01C4F202010968C1F306214C
:103E50004843059011E0FFE7029942F20040C0F2AA
:103E6000F400B0FBF1F041F20C01C4F20201096868
:103E7000C1F3062148430590FFE741F20C00C4F26C
:103E80000200006800F0C061022000EB11600390A6
:103E900005980399B0FBF1F0019002E00020019039
:103EA000FFE7FFE7FFE7019806B07047B0B588B0BD
:103EB0000690069820B9FFE701208DF81F00CCE39B
:103EC00006980078C007002800F09B80FFE741F2C9
:103ED0000800C4F20200006800F00C00049041F2F7
:103EE0000C00C4F20200006800F003000390049884
:103EF0000C2804D1FFE70398032804D0FFE70498B7
:103F0000082812D1FFE741F20000C4F20200006865
:103F10008003002808D5FFE70698406820B9FFE72E
:103F200001208DF81F0098E36AE0FFE706984068DB
:103F3000B0F5803F09D1FFE741F20001C4F2020170
:103F4000086840F48030086020E006984068B0F5CA
:103F5000A02F0DD1FFE741F20001C4F20201086871
:103F600040F480200860086840F4803008600CE06D
:103F700041F20001C4F20201086820F480300860B8
:103F8000086820F480200860FFE7FFE7FFE7069855
:103F90004068D0B1FFE7FFF73DF90590FFE741F238
:103FA0000000C4F202000068800300280CD4FFE780
:103FB000FFF730F90599401A652804D3FFE703207D
:103FC0008DF81F0049E3EAE719E0FFF723F90590B0
:103FD000FFE741F20000C4F20200006880030028FD
:103FE0000CD5FFE7FFF716F90599401A652804D3A9
:103FF000FFE703208DF81F002FE3EAE7FFE7FFE765
:10400000FFE7069800788007002840F19F80FFE7CF
:1040100041F20800C4F20200006800F00C000490B5
:1040200041F20C00C4F20200006800F003000390AB
:1040300004980C2804D1FFE70398022804D0FFE776
:10404000049804282CD1FFE741F20000C4F20200DA
:1040500000684005002808D5FFE70698C06820B929
:10406000FFE701208DF81F00F7E241F20401C4F2DE
:104070000201086820F0FE40069A126940EA0260D8
:10408000086040F2B020C2F200000068FFF7EEF8CE
:1040900020B1FFE701208DF81F00DEE2FFE754E0CA
:1040A0000698C06870B3FFE741F20001C4F2020154
:1040B000086840F480700860FFF7ACF80590FFE7EF
:1040C00041F20000C4F202000068400500280CD450
:1040D000FFE7FFF79FF80599401A032804D3FFE78D
:1040E00003208DF81F00B8E2EAE741F20401C4F2B0
:1040F0000201086820F0FE40069A126940EA026058
:10410000086021E041F20001C4F20201086820F4D5
:1041100080700860FFF77EF80590FFE741F200002D
:10412000C4F202000068400500280CD5FFE7FFF745
:1041300071F80599401A032804D3FFE703208DF88E
:104140001F008AE2EAE7FFE7FFE7FFE7069800784B
:104150000007002849D5FFE70698406910B3FFE73C
:1041600041F29401C4F20201086840F001000860C5
:10417000FFF750F80590FFE741F29400C4F2020007
:104180000068800700280CD4FFE7FFF743F8059983
:10419000401A032804D3FFE703208DF81F005CE2D8
:1041A000EAE721E041F29401C4F20201086820F03C
:1041B00001000860FFF72EF80590FFE741F2940038
:1041C000C4F202000068800700280CD5FFE7FFF763
:1041D00021F80599401A032804D3FFE703208DF83E
:1041E0001F003AE2EAE7FFE7FFE70698007840079A
:1041F000002840F1C680FFE700208DF80B0041F257
:104200005800C4F202000068C000002813D4FFE781
:10421000FFE741F25800C4F20200016841F080510A
:104220000160006800F0805001900198FFE70120D4
:104230008DF80B00FFE747F20000C4F200000068B1
:10424000C005002822D4FFE747F20001C4F20001B4
:10425000086840F480700860FEF7DCFF0590FFE717
:1042600047F20000C4F200000068C00500280CD42A
:10427000FFE7FEF7CFFF0599401A032804D3FFE7B5
:1042800003208DF81F00E8E1EAE7FFE7FFE7069863
:104290008068012809D1FFE741F29001C4F20201D0
:1042A000086840F0010008601FE006988068052853
:1042B0000DD1FFE741F29001C4F20201086840F01D
:1042C00004000860086840F0010008600CE041F25A
:1042D0009001C4F20201086820F00100086008683B
:1042E00020F004000860FFE7FFE7FFE7069880681A
:1042F000E0B1FFE7FEF78EFF0590FFE741F2900087
:10430000C4F202000068800700280ED4FFE7FEF721
:1043100081FF0599401A41F28931884204D3FFE7B1
:1043200003208DF81F0098E1E8E71BE0FEF772FF1D
:104330000590FFE741F29000C4F202000068800798
:1043400000280ED5FFE7FEF765FF0599401A41F2F8
:104350008931884204D3FFE703208DF81F007CE1F8
:10436000E8E7FFE79DF80B00012809D1FFE741F2DC
:104370005801C4F20201086820F080500860FFE78D
:10438000FFE7069800788006002849D5FFE70698E1
:10439000806910B3FFE741F29801C4F20201086896
:1043A00040F001000860FEF735FF0590FFE741F29D
:1043B0009800C4F202000068800700280CD4FFE7D0
:1043C000FEF728FF0599401A032804D3FFE70320CE
:1043D0008DF81F0041E1EAE721E041F29801C4F2C3
:1043E0000201086820F001000860FEF713FF059045
:1043F000FFE741F29800C4F202000068800700283D
:104400000CD5FFE7FEF706FF0599401A032804D3F1
:10441000FFE703208DF81F001FE1EAE7FFE7FFE752
:104420000698C069002800F01481FFE741F20800F7
:10443000C4F20200006800F00C000C2800F0B0800C
:10444000FFE70698C06902287CD1FFE741F200012E
:10445000C4F20201086820F080700860FEF7DAFEFE
:104460000590FFE741F20000C4F2020000688001FD
:1044700000280CD5FFE7FEF7CDFE0599401A03286A
:1044800004D3FFE703208DF81F00E6E0EAE741F2DE
:104490000C01C4F20201086848F20C02C0F29F123B
:1044A0001040DDF818C0DCF82020DCF82450DCF8DF
:1044B00028E0DCF82C306FF00F0404EB05142243E5
:1044C00042EA0E22DCF8304040F2000ECFF6E07EE9
:1044D0000EEA045EAEF5001E42EA0E02DCF834E09D
:1044E0004FF07E4C0CEA0E6C0CF17E4C42EA0C0252
:1044F00042EAC3621043086041F20002C4F20202C1
:10450000106840F080701060086840F080700860AB
:10451000FEF780FE0590FFE741F20000C4F20200C2
:104520000068800100280CD4FFE7FEF773FE0599B0
:10453000401A032804D3FFE703208DF81F008CE006
:10454000EAE72CE041F20001C4F20201086820F021
:1045500080700860FEF75EFE0590FFE741F2000004
:10456000C4F202000068800100280CD5FFE7FEF7C6
:1045700051FE0599401A032804D3FFE703208DF864
:104580001F006AE0EAE741F20C01C4F20201086888
:104590004FF6FC72CFF6EE6210400860FFE757E07E
:1045A0000698C069012804D1FFE701208DF81F009B
:1045B00053E041F20C00C4F202000068039003983B
:1045C00000F003000699096A88423BD1FFE703988F
:1045D00000F0F00006994A6A6FF00F0101EB02113A
:1045E00088422FD1FFE7039800F4FE400699896ABC
:1045F000B0EB012F26D1FFE7039800F07840069931
:10460000C96AB0EBC16F1DD1FFE7039800F4C00089
:1046100006990A6B0021CFF6E07101EA0251A1F57B
:10462000001188420ED1FFE7039800F0C0600699A0
:104630004A6B4FF07E4101EA026101F17E418842FE
:1046400004D0FFE701208DF81F0006E0FFE7FFE739
:10465000FFE700208DF81F00FFE79DF81F0008B05E
:10466000B0BD000080B582B00190019800F0E0FD7F
:1046700002B080BD85B003900291FFE7039890F8E7
:104680003C00012804D1FFE702208DF81300A7E0C9
:104690000399012081F83C00FFE7FFE7039902201E
:1046A00081F83D0003980068406801900398006815
:1046B000806800900398006842F60041C4F201014E
:1046C000884212D0FFE70398006843F20041C4F229
:1046D0000101884209D0FFE70398006845F2000114
:1046E000C4F2010188420AD1FFE7019820F470006A
:1046F000019002984168019808430190FFE70198F2
:104700004FF68F71CFF6FF51084001900298016873
:10471000019808430190019803990968486003983B
:10472000006842F60041C4F2010188423CD0FFE734
:1047300003980068B0F1804F36D0FFE70398006817
:1047400040F20041C4F2000188422DD0FFE70398F7
:10475000006840F60001C4F20001884224D0FFE75F
:104760000398006840F60041C4F2000188421BD063
:10477000FFE70398006843F20041C4F20101884258
:1047800012D0FFE70398006844F20001C4F201016F
:10479000884209D0FFE70398006845F20001C4F29F
:1047A000010188420ED1FFE7009820F080000090C0
:1047B000029881680098084300900098039909685E
:1047C0008860FFE70399012081F83D00FFE7039926
:1047D000002081F83C00FFE700208DF81300FFE780
:1047E0009DF8130005B0704780B582B00090009826
:1047F00020B9FFE701208DF8070045E0009890F808
:104800003D0040B9FFE70099002081F83C00009886
:1048100000F03EF8FFE70099022081F83D00009982
:1048200051F8040B00F076FD0099012081F8480052
:10483000FFE70099012081F83E00009981F83F00D0
:10484000009981F84000009981F84100009981F8B1
:104850004200009981F84300FFE7FFE7009901203B
:1048600081F84400009981F84500009981F84600DC
:10487000009981F84700FFE70099012081F83D0089
:1048800000208DF80700FFE79DF8070002B080BD0B
:1048900082B001900198006841F20001C4F2000169
:1048A000884210D1FFE7FFE741F25800C4F202004E
:1048B000016841F010010160006800F010000090F4
:1048C0000098FFE7FFE702B07047000083B0019057
:1048D000019890F83D00012804D0FFE701208DF8F1
:1048E0000B006CE00199022081F83D0001980068FE
:1048F00042F60041C4F2010188423CD0FFE7019832
:104900000068B0F1804F36D0FFE70198006840F2B0
:104910000041C4F2000188422DD0FFE701980068F1
:1049200040F60001C4F20001884224D0FFE701985C
:10493000006840F60041C4F2000188421BD0FFE746
:104940000198006843F20041C4F20101884212D08C
:10495000FFE70198006844F20001C4F201018842B7
:1049600009D0FFE70198006845F20001C4F2010197
:10497000884219D1FFE70198006880680721C0F2DA
:10498000010108400090009806280CD0FFE700982D
:10499000B0F5803F07D0FFE701980168086840F054
:1049A00001000860FFE706E001980168086840F030
:1049B00001000860FFE700208DF80B00FFE79DF87D
:1049C0000B0003B070470000FFE7FEE781B00090E6
:1049D000009880684FF6C071C7F6FF71084002303A
:1049E0000099886001B0704781B000900099886894
:1049F0004FF6C072C5F6FF721040886001B0704774
:104A000081B00090009880684FF6C071C7F6FF71C2
:104A1000084001300099886001B0704781B0009073
:104A20000098806840F080504FF6C071C7F6FF7163
:104A300008400099886001B07047000081B0009084
:104A40000098806800F0E07001B0704781B000907D
:104A50000098806800F4604001B0704781B0009019
:104A60000098806800F01F0001B0704783B002908A
:104A700001910298019900EB81006030009000984C
:104A8000006800F0F84003B07047000081B000906B
:104A900000988068C0F3C00001B0704781B00090FA
:104AA0000098C06C00F4C070B0FA80F0400901B00A
:104AB0007047000081B0009000988068C00F01B07E
:104AC0007047000081B0009000988068C0F340708B
:104AD00001B0704781B0009000988068C0F340003A
:104AE00001B0704781B000900098806800F001002C
:104AF00001B0704781B000900098806800F001001C
:104B000001B0704781B0009000988068C0F30070D9
:104B100001B0704781B0009000988068C0F38000B9
:104B200001B0704781B0009000988068C0F38000A9
:104B300001B0704781B000900098C06800F44060F8
:104B4000B0FA80F0400901B07047000084B00390D3
:104B5000029101920398029901F4407100EB9110C7
:104B60003030009000980068029901F01F021F2168
:104B7000914088430199C1F38461914008430099B1
:104B8000086004B07047000081B000900098806811
:104B90004FF6C071C7F6FF71084004300099886075
:104BA00001B0704784B0039002910192039802997A
:104BB00001F0007100EBD1501430009000980068B3
:104BC0000299C1F304520721914088430199914011
:104BD00008430099086004B07047000083B0029059
:104BE000019100920298D0F8B00001996FF3DF4173
:104BF0008843009A02F018034FF6FF72C0F20702D2
:104C0000DA40114008430299C1F8B00003B0704780
:104C100082B0019000910198806820F47C10009986
:104C200008430199886002B07047000082B001908B
:104C300000910198806820F0E07000990843019984
:104C4000886002B07047000085B004900391029222
:104C500001930498039900EB810060300090009864
:104C600000684FF20001C0F2FF310140029800F0ED
:104C7000F840019A1043084340F000400099086052
:104C800005B0704784B00390029101920398029995
:104C900000EB8100603000900098006820F0007008
:104CA000019908430099086004B0704784B00390EC
:104CB000029101920398029900EB8100603000900C
:104CC0000098006820F080700199084300990860FE
:104CD00004B0704784B00390029101920398029946
:104CE00000EB8100603000900098006820F00040E8
:104CF000019908430099086004B0704782B00190A0
:104D000000910198406920F0004000990843019902
:104D1000486102B07047000082B001900091019894
:104D200080684FF6C071C3F6FF710140009800F033
:104D30008040084400F100400199886002B070474B
:104D400080B58EB0002101910D910C910B910A91CB
:104D5000099108910791069105910491039140F200
:104D6000F030C2F2000002904FF0A04202604FF417
:104D7000403242608160C160016141610422826110
:104D8000017741770122026280F824104FF4B46267
:104D9000C2624FF48062026380F83810C16380F809
:104DA0004010FCF713FF18B1FFE7FBF793FDFFE797
:104DB00000200B9040F2F030C2F200000BA9FBF78C
:104DC00015FE18B1FFE7FBF785FDFFE70420C0F6ED
:104DD0006000039006200490022005907F2006903A
:104DE000042007900020089040F2F030C2F200004A
:104DF00003A9FBF775FF18B1FFE7FBF76BFDFFE7B2
:104E00000EB080BD80B58AB0002100910991089153
:104E100007910691059104910391029140F25C4043
:104E2000C2F20000019040F20012C5F200020260DE
:104E30004FF4403242608160C160016101224261F1
:104E400004238361017741770623036280F82410ED
:104E50004FF4B463C3624FF48063036380F8382077
:104E6000C16380F84010FCF7B1FE18B1FFE7FBF713
:104E700031FDFFE70220C0F230400290062003908F
:104E8000012004907F2005900420069000200790C8
:104E900040F25C40C2F2000002A9FBF721FF18B10A
:104EA000FFE7FBF717FDFFE70C20039040F25C40A3
:104EB000C2F2000002A9FBF713FF18B1FFE7FBF7EE
:104EC00009FDFFE71220039040F25C40C2F20000AF
:104ED00002A9FBF705FF18B1FFE7FBF7FBFCFFE7B3
:104EE0001820039040F25C40C2F2000002A9FBF7D8
:104EF000F7FE18B1FFE7FBF7EDFCFFE74FF480701A
:104F0000039040F25C40C2F2000002A9FBF7E8FE09
:104F100018B1FFE7FBF7DEFCFFE74FF48370039067
:104F200040F25C40C2F2000002A9FBF7D9FE18B1C2
:104F3000FFE7FBF7CFFCFFE70AB080BD80B58CB080
:104F400068463021FBF7B8F940F2C840C2F20000D1
:104F500040F60041C5F200010160FDF743FC18B1C5
:104F6000FFE7FBF7B7FCFFE70220009000228DF877
:104F700004208DF8052002921E20039004920592D1
:104F800001200690079240F2C840C2F20000694634
:104F9000FDF750FA18B1FFE7FBF79CFCFFE70CB0F8
:104FA00080BD000080B586B0FFE741F24800C4F242
:104FB0000200016841F004010160006800F0040093
:104FC00005900598FFE7FFE741F24800C4F20200B0
:104FD000016841F001010160006800F001000490E7
:104FE0000498FFE70B200090002202921146FEF782
:104FF000AFF90098FEF7A2F9029A0C200190114631
:10500000FEF7A6F90198FEF799F9029A0D20039090
:105010001146FEF79DF90398FEF790F906B080BDA2
:1050200080B58CB000200B900A90099008900790F2
:10503000FFE741F24C00C4F20200016841F00401B4
:105040000160006800F0040006900698FFE7FFE7A3
:1050500041F24C00C4F20200016841F020010160FD
:10506000006800F0200005900598FFE7FFE741F297
:105070004C00C4F20200016841F0010101600068C7
:1050800000F0010004900498FFE74FF09040039077
:105090001021019100220292FEF7A6F8019A0299CE
:1050A0000398079201220892099103210A9107A906
:1050B000FDF7E6FE0CB080BD80B584B00021039101
:1050C0000291019140F2FC50C2F2000041F2000254
:1050D000C4F2000202604160816042F23311C1609B
:1050E00080218161FFF780FB18B1FFE7FBF7F2FB3E
:1050F000FFE7202001900020039040F2FC50C2F214
:10510000000001A9FFF7B6FA18B1FFE7FBF7E2FBD1
:10511000FFE704B080BD0000FFE7FEE7FFE7FEE722
:1051200088B0079006910592079800F00700049058
:105130000498C0F10700052803D3FFE7042001907D
:1051400004E00498C0F107000190FFE70198039084
:1051500004980430062803D8FFE70020009003E0FD
:10516000049803380090FFE700980290069803998E
:10517000012202FA01F101390840029B9840059989
:105180009A40013A1140084308B070477047000048
:1051900086B041F20C00C4F20200016801F0030184
:1051A00004910068C1B2012000EB11100290049834
:1051B0000090022815D0FFE70098032812D1FFE7DE
:1051C000029941F20020C0F27A00B0FBF1F041F206
:1051D0000C01C4F202010968C1F30621484305909D
:1051E00011E0FFE7029942F20040C0F2F400B0FB88
:1051F000F1F041F20C01C4F202010968C1F3062189
:1052000048430590FFE741F20C00C4F20200006839
:1052100000F0C061022000EB116003900598039933
:10522000B0FBF1F00190019806B0704770470000A4
:1052300080B582B0009000980138B0F1807F03D330
:10524000FFE70120019019E0009801384EF21401A7
:10525000CEF2000108604FF0FF300F2100F070F92E
:105260004EF21801CEF20001002008604EF210024A
:10527000CEF20002072111600190FFE7019802B011
:1052800080BD000080B5FDF7CBFF80BD80B594B038
:1052900006A800903821FBF70FF800200590049035
:1052A000039002900190FEF773F800980221069196
:1052B0004FF48072099240220A920D910E910422BD
:1052C0000F9255221092119112911391FEF7EEFD5B
:1052D00018B1FFE7FBF7FEFAFFE70F20019003206C
:1052E0000290002003900490059001A80421FEF78D
:1052F000C5FB18B1FFE7FBF7EDFAFFE714B080BD7F
:105300004EF68851CEF20001086840F47000086043
:105310007047000083B002900191029800680090ED
:10532000029842F60041C4F2010188422DD0FFE705
:105330000298B0F1804F28D0FFE7029840F2004178
:10534000C4F20001884220D0FFE7029840F6000135
:10535000C4F20001884218D0FFE7029840F60041ED
:10536000C4F20001884210D0FFE7029843F20041E6
:10537000C4F20101884208D0FFE7029845F200011B
:10538000C4F2010188420AD1FFE7009820F07000C2
:10539000009001984168009808430090FFE7029848
:1053A00042F60041C4F20101884245D0FFE702986D
:1053B000B0F1804F40D0FFE7029840F20041C4F2C4
:1053C0000001884238D0FFE7029840F60001C4F29D
:1053D0000001884230D0FFE7029840F60041C4F255
:1053E0000001884228D0FFE7029843F20041C4F24E
:1053F0000101884220D0FFE7029844F20001C4F284
:105400000101884218D0FFE7029844F20041C4F23B
:105410000101884210D0FFE7029844F60001C4F26F
:105420000101884208D0FFE7029845F20001C4F26A
:10543000010188420AD1FFE7009820F440700090F3
:105440000198C168009808430090FFE7009820F099
:10545000800001994969084300900098029908600A
:10546000019880680299C862019800680299886270
:10547000029842F60041C4F20101884228D0FFE7B9
:10548000029843F20041C4F20101884220D0FFE7B4
:10549000029844F20001C4F20101884218D0FFE7EB
:1054A000029844F20041C4F20101884210D0FFE7A3
:1054B000029844F60001C4F20101884208D0FFE7D7
:1054C000029845F20001C4F20101884205D1FFE7CC
:1054D0000198006902990863FFE702990120486179
:1054E00002980069C00730B1FFE70299086920F00F
:1054F00001000861FFE703B070470000FFE7FEE727
:1055000081B08DF803009DF9030000280ED4FFE759
:105510009DF9031001F01F02012090404A094EF24C
:105520000011CEF2000141F82200FFE701B0704700
:105530004EF60C50CEF200000068C0F30220704717
:1055400082B08DF8070000919DF9070000280AD469
:10555000FFE7009800019DF907104EF20042CEF2DD
:10556000000288540BE0009800019DF8071001F03C
:105570000F014EF61452CEF200028854FFE702B03B
:105580007047000083B00290029800F0070000907E
:105590004EF60C51CEF200010868019001984FF6CA
:1055A000FF02104001900198009A40EA0220002278
:1055B000C0F2FA52104301900198086003B070479E
:1055C00080B586B0002001900590FDF737FEFFF70B
:1055D0005DFEFFF725FDFFF7E5FCFFF713FCFFF786
:1055E000ADFCFFF769FDFFF7ABFB40F2FC50C2F2E8
:1055F0000000FFF76BF901996846016040F2C8406E
:10560000C2F2000040F20402C2F200024FF4AA7398
:10561000FDF778F940F2F030C2F2000003907F21EC
:105620000291FBF75FF9029940F25C40C2F2000080
:105630000490FBF757F9039840F22631C2F20001BB
:105640006422FCF7E5FD049840F21C31C2F200012F
:105650000522FCF7DDFDFFE7FEE7F1EE100A4FF64D
:10566000FF71C0F2C03120EA010040F04070E1EE6D
:10567000100A70470000000000000000010203044F
:1056800006070809A856000800000020B80200001C
:105690001402000860590008B802002098090000B0
:1056A00030020008000000000024F400120838084E
:1056B0005E088308A908CF08F4081A093F0965099C
:1056C0008A09AF09D409F8091D0A410A660A8A0A3B
:1056D000AD0AD10AF40A170B3A0B5C0B7E0BA00B38
:1056E000C20BE30B040C240C450C640C840CA30CBF
:1056F000C10CE00CFD0C1B0D380D540D700D8B0D05
:10570000A60DC10DDB0DF40D0D0E260E3E0E550E31
:105710006C0E820E980EAD0EC10ED50EE90EFB0E6C
:105720000D0F1F0F300F400F500F5F0F6D0F7B0FCE
:10573000880F940FA00FAB0FB50FBF0FC80FD00F7E
:10574000D80FDF0FE50FEA0FEF0FF30FF70FFA0F88
:10575000FC0FFD0FFE0FFE0FFD0FFC0FFA0FF70FF2
:10576000F30FEF0FEA0FE50FDF0FD80FD00FC80FC1
:10577000BF0FB50FAB0FA00F940F880F7B0F6D0FEE
:105780005F0F500F400F300F1F0F0D0FFB0EE90E74
:10579000D50EC10EAD0E980E820E6C0E550E3E0E3D
:1057A000260E0D0EF40DDB0DC10DA60D8B0D700D2B
:1057B000540D380D1B0DFD0CE00CC10CA30C840C1A
:1057C000640C450C240C040CE30BC20BA00B7E0BE9
:1057D0005C0B3A0B170BF40AD10AAD0A8A0A660A67
:1057E000410A1D0AF809D409AF098A0965093F0968
:1057F0001A09F408CF08A90883085E0838081208B7
:10580000EC07C607A0077B0755072F070A07E40622
:10581000BF06990674064F062A060606E105BD0571
:105820009805740551052D050A05E704C404A20472
:1058300080045E043C041B04FA03DA03B9039A03F0
:105840007A035B033D031E030103E302C602AA02BF
:105850008E02730258023D0223020A02F101D801AE
:10586000C001A90192017C01660151013D0129019C
:1058700015010301F100DF00CE00BE00AE009F0065
:105880009100830076006A005E00530049003F00EB
:1058900036002E0026001F00190014000F000B0018
:1058A00007000400020001000000000001000200E7
:1058B000040007000B000F00140019001F00260051
:1058C0002E0036003F00490053005E006A0076005B
:1058D000830091009F00AE00BE00CE00DF00F1000B
:1058E0000301150129013D01510166017C0192016D
:1058F000A901C001D801F1010A0223023D025802A8
:1059000073028E02AA02C602E30201031E033D03D4
:105910005B037A039A03B903DA03FA031B043C041A
:105920005E048004A204C404E7040A052D055105A1
:1059300074059805BD05E10506062A064F0674069E
:105940009906BF06E4060A072F0755077B07A0073D
:10595000C607EC0701000000100000000000000076
:04000005080001D915
:00000001FF
