:020000040800F2
:10000000F806002079020008F9210008CD20000838
:10001000F5210008150500081D2200080000000059
:1000200000000000000000000000000001220008A5
:100030001905000800000000FD2100080522000845
:10004000930200089302000893020008930200083C
:10005000930200089302000893020008930200082C
:10006000930200089302000893020008930200081C
:10007000930200089302000893020008930200080C
:1000800093020008930200089302000893020008FC
:1000900093020008930200089302000893020008EC
:1000A00093020008930200089302000893020008DC
:1000B00093020008930200089302000893020008CC
:1000C00093020008930200089302000893020008BC
:1000D00093020008930200089302000893020008AC
:1000E000930200089302000893020008930200089C
:1000F000930200089302000893020008930200088C
:10010000930200089302000893020008930200087B
:10011000930200089302000893020008930200086B
:10012000930200089302000893020008930200085B
:10013000930200089302000893020008930200084B
:10014000930200089302000893020008930200083B
:10015000930200089302000893020008930200082B
:10016000930200089302000893020008930200081B
:10017000930200089302000893020008930200080B
:1001800093020008930200089302000893020008FB
:100190009302000800000000930200089302000888
:1001A00093020008930200089302000893020008DB
:1001B00093020008930200089302000893020008CB
:1001C00093020008930200089302000893020008BB
:1001D000930200089302000800F002F800F03CF8D7
:1001E0000AA090E8000C82448344AAF10107DA4592
:1001F00001D100F031F8AFF2090EBAE80F0013F0A8
:10020000010F18BFFB1A43F001031847102100002B
:1002100030210000103A24BF78C878C1FAD85207BC
:1002200024BF30C830C144BF04680C607047000070
:100230000023002400250026103A28BF78C1FBD8EF
:10024000520728BF30C148BF0B6070471FB502F08E
:100250004FF81FBD10B510BD00F058F81146FFF75C
:10026000F5FF01F0DDFF00F076F803B4FFF7F2FFD1
:1002700003BC00F07DF800000948804709480047AA
:10028000FEE7FEE7FEE7FEE7FEE7FEE7FEE7FEE746
:10029000FEE7FEE704480549054A064B70470000A3
:1002A00009220008D9010008F8000020F806002003
:1002B000F8020020F80200204FF0000200B51346BB
:1002C00094469646203922BFA0E80C50A0E80C5076
:1002D000B1F12001BFF4F7AF090728BFA0E80C5027
:1002E00048BF0CC05DF804EB890028BF40F8042B20
:1002F00008BF704748BF20F8022B11F0804F18BF8D
:1003000000F8012B7047704770477047754600F042
:100310002BF8AE4605006946534620F00700854697
:1003200018B020B5FFF7B6FFBDE820404FF000063B
:100330004FF000074FF000084FF0000BAC46ACE860
:10034000C009ACE8C009ACE8C009ACE8C00921F0BC
:1003500007018D46704710B50446AFF30080204674
:10036000BDE81040FFF781BF004870471000002033
:1003700001491820ABBEFEE72600020070470000CE
:10038000B0B50168044688688A6880074FF00000AD
:1003900033D412F0010208BFB0BD886800F00D0030
:1003A00001281FD188684FF6C072C7F6FF7210404F
:1003B000023088600320086000F0D6FF2168896859
:1003C000C90704BF0020B0BD054602E08068C00731
:1003D00012D000F0C9FF411B20680329F6D38168C1
:1003E000C907F3D0E06D40F01000E065206E40F0EA
:1003F000010020660120B0BD0020B0BD70B582B004
:1004000004460020019021688A68D20740F07F806E
:100410004FF6C076C7F6FF76886806F17F02104275
:100420000AD0E06D40F01000E065206E40F0010061
:100430002066012002B070BD88684FF4C162304070
:1004400040F00100886040F20010C5F200008142D7
:1004500008BF4FF40272B1F1A04F08BF4FF402720F
:10046000105800021ED400F07FFF21680A68D207EE
:1004700048D1054603E000BF0868C00746D1886838
:10048000C00704D18868304040F00100886000F067
:100490006BFF401B21680328EED30868C007EBD12F
:1004A000BFE700BF40F20800C2F20000006842F659
:1004B00063518009C0F23E51A0FB0101880900EBA5
:1004C00040000C2101EB8000019001980028CAD067
:1004D00001980138019001980028C4D00198013892
:1004E000019001980028BED0019801380190019830
:1004F0000028B8D001980138019001980028E7D170
:10050000B1E700BF002002B070BD00BF002002B004
:1005100070BD0000FEE7000070470000EFF31080A0
:1005200072B600BFFEE70000B0B582B004460020FE
:10053000019094F85800012802D1022002B0B0BD09
:10054000012084F8580020460D46FFF719FFE16DA1
:1005500010B141F010014BE041F20212914302311F
:10056000E16521684FF6C073D1F808C0C3F6FF7388
:1005700003EA0C0305F080454DF601622B44C0F2FE
:10058000040203F100438B608B68B3F1FF3F2BDC67
:10059000019B01330193019B93421DD88B68B3F1FA
:1005A000FF3F21DC019B01330193019B934213D850
:1005B0008B68B3F1FF3F17DC019B01330193019B73
:1005C000934209D88B68B3F1FF3F0DDC019B0133E7
:1005D0000193019B9342D7D9E06D40F0100020F0C9
:1005E0000201012004E000BFE16D012262F301017C
:1005F000E165002184F8581002B0B0BDF0B581B0BB
:100600000022009290F85820012A03D102210846C6
:1006100001B0F0BD0123076880F85830BB685B0764
:1006200034D4D1E900531F26C3F3012407EB84041B
:10063000226B03F01F039E40B243C5F3846606FAA3
:1006400003F31A432263BA68BB68DB0843EA9202E9
:10065000D20740F0BC800A6807F114030426C2F3F5
:100660004064D1F808E006EAD25C53F82440C2F3B3
:1006700004550722AA40BEF1004F24EA02040BD120
:1006800043F80C401A6842F000430DE0C16D41F0A0
:100690002001C16501219DE10EFA05F2224343F8D4
:1006A0000C201A6822F000437B61D1E90435FC6814
:1006B000042B5FD13A6E3A6E0B68C2F3846293FAF0
:1006C000A3F6C3F3846C6FF3DF43B6FA86F5002B11
:1006D0002C464FF6FF7E08BF6446A242C0F2070ECA
:1006E0000CD13A6E22F000423A660A6802EA0E0322
:1006F000C2F3846C92FAA2F2B2FA82F57A6E7A6E42
:10070000002BC2F384622C4608BF6446A2420CD17F
:100710007A6E22F000427A660A6802EA0E03C2F399
:10072000846C92FAA2F2B2FA82F5BA6EBA6E002B1B
:10073000C2F384622C4608BF6446A2420CD1BA6E52
:1007400022F00042BA660A6802EA0E03C2F3846C21
:1007500092FAA2F2B2FA82F5FA6EFA6E002BC2F3A6
:10076000846208BF6546AA4231D1FA6E22F0004287
:10077000FA662CE0062202EA940205FA02FC0E68F0
:1007800007F1600555F823404FF20002C0F2FF3236
:1007900006F0F846224046EA0C06324342F0004298
:1007A00045F823200A698B6955F8226026F0807687
:1007B000334345F822300A690B7F55F82260012B3C
:1007C00026F0007608BF06F1007645F82260BA6888
:1007D000D20750D10D68CA68D7F8B0602B466FF3C6
:1007E000DF4326EA030C4FF6FF7602F01804C0F24E
:1007F0000706E64000242E40C4F27F0446EA0C06B9
:10080000A242C7F8B06036D193B195FAA5F2B2FA18
:1008100082F2013202F01E03092B02F01F0310D8EE
:1008200001229A4003EB430342EA035315E000BF61
:10083000012202EB956202F01E030A2B02F01F0355
:10084000EED3012200269A4003EB4303CFF6206645
:1008500006EB03531A4342F00073C3F3406607EB01
:1008600086068A687569C3F3045307249C40A54330
:100870009A402A4372610B680021C8F208010B42BA
:1008800066D040F2003EC5F2000EAEF500710EF5E6
:1008900080648F4204BF40F20034C5F20004214658
:1008A000B7F1A04F04BF40F20031C5F200018D68DE
:1008B0000022CCF22132934205F0E07C04D01022D9
:1008C000C9F2C002934245D12A0261D440F20062CB
:1008D000C5F20002974202D0B7F1A04F5AD18A6800
:1008E00022F0E07242EA0C0242F400028A6040F216
:1008F0000801C2F20001096842F663528909C0F298
:100900003E52A1FB0212910901EB41010C2202EBC4
:10091000810100910099002948D000990139009186
:100920000099002944D000990139009100990029CB
:1009300040D0009901390091009900293CD00099DC
:1009400001390091009900294FF00001E5D141E003
:1009500000213FE00022CCF25272934208BF15F012
:10096000807219D00021CCF684318B424FF0000107
:1009700008BF15F480022DD1B7F1A04F1FD040F26F
:100980000011C5F200018F4218D1002122E000BF02
:1009900000211FE000211DE08A6822F0E07242EA97
:1009A0000C0242F080728A60002113E0002111E005
:1009B00000210FE000210DE000210BE0A646DEF84B
:1009C000081021F0E07141EA0C0141F48001CEF8F9
:1009D00008100021002280F85820084601B0F0BD20
:1009E0000068006C70470000B0B582B0044600207B
:1009F00001904CB1E06D58B121688868800012D434
:100A00008868C00019D54CE0012002B0B0BD00BF1D
:100A1000204600F023F90020206684F85800216861
:100A200088688000ECD588684FF6C072C5F6FF7202
:100A3000104088608868C00033D44FF6C072886860
:100A4000C5F6FF7202F18052104000F180508860BC
:100A500040F20800C2F20000006842F663528009CA
:100A6000C0F23E52A0FB02029009022202EB4000BB
:100A700001900198A8B100BF019801380190019838
:100A800078B1019801380190019850B1019801386E
:100A90000190019828B1019801380190019800282F
:100AA000EAD18868C00009D4E06D40F01000E0652C
:100AB000206E40F001002066012000E000208A68DE
:100AC000E36DC2F3800203F01003D218E26D05D08B
:100AD00042F010010120E16502B0B0BD22F4817244
:100AE0000232E2658A68D20729D140F2001341F44C
:100AF0008072C5F2000340F2080C9A42C5F2000C65
:100B00006CD1DCF80030DCF800211A43D20716D192
:100B10000CF1F8024FF4E063D4F804E0914208BF0E
:100B20004FF44073B1F1A04F08BF4FF440735CF82D
:100B3000032022F47C1242EA0E024CF80320627F6A
:100B4000E36B43EA4232D4E902C31A4394F82430F7
:100B500042EA0C02012B42EA034207D1D4F828C032
:100B60000023CFF6FE7303EB4C431A43E36A33B121
:100B700003F47873D4F830C01A4342EA0C02D1F877
:100B80000CC044F20703CFF6F07303EA0C031A43D8
:100B9000CA600A69636B22F040621A430A618A687C
:100BA00012074AD494F83820237F520042EA833C4B
:100BB000CB6844F2020223EA020242EA0C02CA6053
:100BC00022690B69B2B143F480330B61D1F8C0C024
:100BD00043F6FF732CEA03031A4313E0DCF800E446
:100BE000DCF80025DCF8003642EA0E021A43D20790
:100BF0008ED0A4E723F480320A61D1F8C02043F6F6
:100C0000FF739A43C1F8C02094F840300A69012B61
:100C100010D140F2FD7322EA030CD4E91132D4E979
:100C200013E543EA0C031A4342EA0E022A4342F058
:100C3000010201E022F001020A6162690B6B012AE4
:100C400023F00F0202D1236A013B1A430A63E16DCC
:100C5000012262F30101E16502B0B0BD10B59CB0A4
:100C6000044600201B90CDE91900CDE9170002A829
:100C700004305021FFF720FB206840F20011C5F23C
:100C80000001884202D01CB010BD00BF4FF40040EC
:100C900002904FF00050139002A800F0AFFC002823
:100CA00018BFFFF73BFC41F24C00C4F202000168A0
:100CB00041F400510160016801F400510191019972
:100CC000016841F001010160006817A900F001000E
:100CD000019001980120179003201890002019908E
:100CE0004FF0904000F052FA1CB010BD70B540F2C9
:100CF00000450446C5F200050068A5F540714FF4B3
:100D00004272884208BF6FF0F702B0F1A04F08BFEF
:100D10006FF0F70256598068400703D494F85800E2
:100D2000012801D1022070BD012084F8580020461E
:100D3000FFF764FB20B1002184F8581070BD00BF9C
:100D40002068E16D40F60172914340F20012C5F255
:100D5000000240F2005C06F01F0301F58071904232
:100D6000C5F2000CE16503D0604507D12E4601E0D5
:100D70004FF0A046002B18BF864203D1E16D21F44D
:100D80008011E165E16D0026C9044FF0000144BF08
:100D9000216E21F0060121661C219042016084F839
:100DA000586005D060450FD12946814204D10BE03F
:100DB0004FF0A041814207D0092B17D8012199405B
:100DC00040F22123194211D0C168890104D5E16D97
:100DD000012262F30D31E16581684FF6C072C7F6FA
:100DE000FF72114004318160002070BDE16D9042BE
:100DF00041F48011E16503D0604508BF284601E059
:100E00004FF0A040C06880015CBF002070BDE06D65
:100E1000012161F30D30E065002070BD2DE9F04344
:100E200081B0044600284FF0010000F0ED800D462F
:100E3000002900F0E980607901284FF0020000F0FD
:100E4000E380A9681646012204296271207131D11C
:100E500000F08AFA21684A6B07469EB1B2F1FF3F63
:100E600005DD686A486411E0486B0028F9D500F098
:100E70007BFAC01B21680228F6D3486BB0F1FF3F14
:100E8000F2DC33E0100428D4686A0864886C06F049
:100E9000100240F2FF3393409843D5E90A3793405C
:100EA00018438864C86CFF239340984307FA02F202
:100EB0001043C864E9692068012921D1816B06F0DB
:100EC00010061F222B6AB240914303FA06F2114327
:100ED000816317E0486B0004D6D500F045FAC01BCB
:100EE00021680228F6D3486B0004F3D5206940F04E
:100EF000080020610320207101B0BDE8F08300BF2D
:100F000006F01006D0F83CC0AA690721012A01FAB0
:100F100006FE05D0022A07D14FF0010809E000BF04
:100F20004FF0000805E000BF6A69B2FA82F24FEAAA
:100F30005218AB686F6929794FF4007243EA0803CD
:100F40004FF4807002FA06F96A791F4301296FF4A1
:100F5000404100FA06F008BF47F4807781EA0E01AD
:100F6000012A08BF47F4007721EA0000296820EA37
:100F70000900022900EA0C080AD100F035FE46F605
:100F80000101C0F68911884206D348F400480BE0FD
:100F900048EA010808E000BF4BF20041C0F2C4413A
:100FA000884288BF48F4804807FA06F0216840EA82
:100FB0000800C8634FF480400A68B04022EA00008D
:100FC0000860086840F6FE72B2409043D5E90323FA
:100FD00002FA06F738430860C0200F68B04027EADD
:100FE00000000860C2F3830003F03C0240EA821074
:100FF0000A6E40F60F73B3409A43B0401043086640
:10100000012020710020607101B0BDE8F083000074
:10101000002804BF0120704710B50446007920B9AC
:1010200000206071204600F007F8022020710020A7
:1010300001212061217110BD80B586B0006840F6A5
:101040000042C5F20002002190420591049101D0B6
:1010500006B080BD41F24C00C4F20200026842F4C6
:1010600000320260026802F400320092009A0268C4
:1010700042F001020260006800F001000090009858
:10108000402001900320CDE9020101A94FF09040DA
:1010900000F07CF806B080BD81B04FF0000CCDF8B8
:1010A00000C088B1D0F800C00029DCF83C00CDF8C1
:1010B00000C00098104414BF14300830009000980D
:1010C0000360002001B07047012001B070470000AC
:1010D00010B581B0002845D04279012A4FF00202B4
:1010E00041D04FF0010E80F805E00271026801F076
:1010F000100C13680EFA0CF42343136040F208033B
:10110000C2F200031B6842F663549B09C0F23E54CE
:10111000A3FB04340EEB94130093009BABB100BF10
:10112000009B013B0093009B7BB1009B013B009324
:10113000009B53B1009B013B0093009B2BB1009B94
:10114000013B0093009B002BEAD1136871B103F4BB
:101150007811022303FA0CF399420FD1516841F040
:1011600002010AE00122104601B010BD03F03E0169
:10117000022903D1516841F001015160012100228F
:1011800001714271104601B010BD00002DE9F04F11
:1011900084B00C680190002C00F0E280019841F2CC
:1011A000004600F13842C4F600068E464FEAB227E8
:1011B0000621B04208BF0521052F4FF000054FF072
:1011C00001074FF000064FF0000838BF4FEAB22188
:1011D0000091CDF808E00DE0DEF8004008F10108CC
:1011E00034FA07F106F1020607F1010705F10405DB
:1011F00000F0B680A7F1010A012000FA0AF214EA11
:101200000209E9D0DEF804C00CF0030BABF10104D5
:10121000012C17D80198744681680323E468B34011
:101220009943B4402143816041684FEA480E91439D
:10123000CCF3001202FA0AF20446D843114361606B
:101240000CE000BF0321B140019CC843BBF1030F78
:10125000B64603D1B6464FF0030B23E0E168029B8C
:1012600001409A68BBF1020F02FA0EF241EA020154
:10127000E16017D16FF0030101EA5A01214405F042
:101280001C040F22D1F820C002FA04FB1A692CEAD0
:101290000B0CA24042EA0C02019C0A62D3F804C083
:1012A0000CF0030B21680BFA0EF201401143216090
:1012B000DDF808E01CF4403F8ED041F26000C4F23B
:1012C0000200016840F2004C41F001010160016838
:1012D000C4F2010C01F00101039103992AF003010A
:1012E0004FF6084A6144CFF6FF7A05F00C030F2051
:1012F00051F80A2000FA03F40098A24300FA03F31D
:101300001A4341F80A20DCF80810DEF8042041EA0C
:10131000090340F20C40D40258BF21EA0903CCF87B
:101320000830C4F201000168940241EA090358BF81
:1013300021EA09030360DCF80410940341EA09037D
:1013400058BF21EA0903CCF80430DCF80010D203BE
:1013500041EA090358BF21EA0903CCF800303BE712
:1013600004B0BDE8F08F000040F2F400C2F20000CB
:101370000068704740F2000040F2F401C2F2000041
:10138000C2F2000140680A6810440860704700001B
:1013900080B5032000F07AF80F2000F009F800284B
:1013A0001CBF012080BD00F02BF8002080BD000094
:1013B00070B540F20006C2F200067168E1B1044661
:1013C00040F20800C2F200004FF47A720068B2FBEB
:1013D000F1F1B0FBF1F000F063FE0F2C4FF00105CE
:1013E00008D838B94FF0FF3021460022002500F020
:1013F00021F83460284670BD0125284670BD0000E4
:1014000082B041F25800C4F20200816841F001014B
:101410008160816801F0010101910199016841F049
:1014200080510160006800F080500090009802B088
:1014300000F0DAB810B54EF60C5CCEF2000CDCF819
:101440000030C3F3022E8EF00704042C28BF0424BE
:10145000BEF103034FF0FF3E0EFA04F438BF002341
:10146000A14399400EFA03F39A4300F00F03043BA3
:101470001143634409010C3300F16042B0F1FF3FB6
:10148000C8BF02F56443197010BD00004EF60C5140
:10149000CEF200010A684FF6FF031A4060F30A22F9
:1014A00042F0806040F0FD7008607047B0F5007F4A
:1014B00048D0002840F08A8047F21400C4F20000AF
:1014C00050F8141CC26E01F4C06122F48072B1F5B0
:1014D000806FC26633D150F8141C012262F34A2196
:1014E00040F8141C40F20801C2F2000109683222DF
:1014F00051434DF68362C4F21B32A1FB0212910CE0
:1015000002684B1C18BF12F4806213D002680029D5
:1015100018BF12F480620DD00268012918BF12F4BE
:10152000806207D00268022904D012F48062A1F11F
:101530000401E5D10068400544BF03207047002046
:10154000704700BF47F21400C4F2000050F8141CAA
:10155000C26E01F4C06142F48072B1F5806FC26660
:10156000EDD150F8141C012262F34A2140F8141CFA
:1015700040F20801C2F200010968322251434DF6DF
:101580008362C4F21B32A1FB0212910C02684B1C55
:1015900018BF12F4806213D00268002918BF12F439
:1015A00080620DD00268012918BF12F4806207D052
:1015B0000268022904D012F48062A1F10401E5D18D
:1015C0000068400544BF03207047B8E747F21400A5
:1015D000C4F2000050F8141C022262F34A2140F8C1
:1015E000141C00207047000047F20800C4F20000FD
:1015F000016841F480410160704700002DE9F0412D
:1016000082B00446807841F288060007C4F20206E0
:1016100002D400202FE000BF56F8300C10F08058A4
:101620000BD156F8300C40F0805046F8300C56F88C
:10163000300C00F080500190019847F20007C4F28E
:101640000007386840F480703860FFF78DFE05466B
:101650003868C00500F10C81FFF786FE401B0228A8
:10166000F6D90320B8F1000F05D156F8301C21F04F
:10167000805146F8301C2168CA0717D18A071DD44B
:101680004A0723D40A0729D4CA062FD48A0635D498
:101690004A063BD40A0641D4CA0547D48A034DD42E
:1016A0008A0553D44A0559D467E000BF326863689D
:1016B00022F003021A4332608A07E1D53268A36838
:1016C00022F00C021A4332604A07DBD53268E36825
:1016D00022F030021A4332600A07D5D532682369F6
:1016E00022F0C0021A433260CA06CFD5326863695D
:1016F00022F440721A4332608A06C9D53268A3695F
:1017000022F440621A4332604A06C3D53268E36964
:1017100022F440521A4332600A06BDD53268236A69
:1017200022F440421A433260CA05B7D53268636A70
:1017300022F440321A4332608A03B1D57269A36A37
:1017400022F003021A4372618A05ABD53268E36A5C
:1017500022F440221A4332604A050ED53268236BC8
:1017600022F440121A43B3F5801F326005D156F8B7
:101770007C2C42F4801246F87C2C0A050ED5326887
:10178000636B22F440021A43B3F5800F326005D137
:1017900056F87C2C42F4801246F87C2CCA040ED5F4
:1017A0003268A36B22F040721A43B3F1807F32603B
:1017B00005D156F87C2C42F4801246F87C2C8A0421
:1017C0000ED53268E36B22F040621A43B3F1006F2A
:1017D000326005D156F87C2C42F4801246F87C2CFD
:1017E0004A040ED53268236C22F040621A43B3F1EA
:1017F000006F326005D156F87C2C42F4801246F816
:101800007C2C0A040ED53268636C22F040521A43D5
:10181000B3F1805F326005D156F87C2C42F48032FF
:1018200046F87C2CCA030ED53268A36C22F04042E5
:101830001A43B3F1804F326005D156F87C2C42F444
:10184000803246F87C2C49030ED57169E26C21F494
:1018500040111143B2F5001F716105D156F87C1C8F
:1018600041F4801146F87C1C02B0BDE8F08100BF55
:10187000B06810F4407010D0216D88420BD0B06871
:10188000B16820F4407041F48031B160B16821F456
:101890008031B160B060C0070CD1B068216D20F418
:1018A00040700843B0600020B8F1000F7FF4E3AE51
:1018B000DBE600BFFFF758FD054641F2883700BF61
:1018C000B0688007E9D4FFF74FFD401BB842F7D955
:1018D000C7E600002DE9F04700286DD042F2000A6B
:1018E000C4F2020A0446DAF800000D4600F00F00C8
:1018F00088420CD2DAF8000020F00F002843CAF822
:101900000000DAF8000000F00F00A84254D121686E
:1019100041F20808C807C4F2020803D1880740F161
:10192000D880BDE0606802283AD0032840D158F83A
:10193000082C920140D5D8F80420D8F8043042F29F
:10194000004702F00302C3F30313C0F2F4070133AC
:10195000032A04BF41F20027C0F27A07D8F8042016
:10196000B7FBF3F3D8F80470C2F306225A43C7F367
:101970004163022707EB4303B2FBF3F24BF2004350
:10198000C0F2C4439A4261D9D8F8002012F0F00F97
:1019900051D089075AD5A168002957D14BE000BF23
:1019A00058F8081C89035CBF0120BDE8F08707E0F8
:1019B00058F8081C490503D40120BDE8F08700BF92
:1019C000D8F8001001F00C0104293FD0D8F800101D
:1019D00001F00C01082939D0D8F8001001F00C01F1
:1019E0000C2933D1D8F80410D8F8042042F200436F
:1019F00001F00301C2F30312C0F2F4030132032920
:101A000004BF41F20023C0F27A03D8F80410B3FBFC
:101A1000F2F2D8F80430C1F306215143C3F3416216
:101A2000022303EB4202B1FBF2F14BF20042C0F29F
:101A3000C44291420AD9D8F80010082262F3071173
:101A40004FF00109C8F8001002E000BF4FF0000994
:101A5000D8F8001021F003010843C8F80000FFF790
:101A600083FC064641F28837D8F80000616800F030
:101A70000C00B0EB810F07D0FFF776FC801BB8425B
:101A8000F2D90320BDE8F0872168880708D4B9F1AE
:101A9000000F1ED0D8F8000020F0F00017E000BFC3
:101AA000480705D5D8F8000040F4E060C8F8000009
:101AB000080706D5D8F80000072262F30D20C8F801
:101AC0000000D8F80000A26820F0F0001043C8F829
:101AD0000000DAF8000000F00F00A8421BD9DAF885
:101AE000000020F00F002843CAF80000FFF73CFC7C
:101AF000064641F2883700BFDAF8000000F00F0018
:101B0000A84207D0FFF730FC801BB842F4D903206D
:101B1000BDE8F0872168480707D5D8F80000E268DB
:101B200020F4E0601043C8F80000080708D5D8F892
:101B30000000216920F4605040EAC100C8F80000AC
:101B4000D8F8000042F20041C0F2F40100F00C00AD
:101B5000042808462DD0D8F8000000F00C00082812
:101B600041F20020C0F27A0023D0D8F8002002F021
:101B70000C020C2A1CD1D8F80420D8F8043002F04A
:101B80000302C3F303130133032A08BF0146D8F845
:101B90000400B1FBF3F1D8F80420C0F30620484359
:101BA000C2F34161022202EB4101B0FBF1F000E01F
:101BB0000020D8F8001042F20A32C1F30311C0F637
:101BC0000002515C40F2080201F01F0120FA01F10D
:101BD00040F20000C2F200000068C2F20002116090
:101BE000BDE8F047FFF7E4BB40F20800C2F2000096
:101BF000006870472DE9F04182B0002800F00681AE
:101C00000446007841F20006C007C4F2020655D12E
:101C10002078800774D42078000700F1978020781E
:101C2000400700F1B7802078800600F10781E56960
:101C3000002D00F03082B06800F00C000C2840F05D
:101C40005981012D00F0E280F068216A00F0030262
:101C50008A4240F0DB80626A6FF00F0300F0F0010F
:101C600003EB0212914240F0D180A16A00F4FE42DF
:101C7000B2EB012F40F0CA80E16A00F07842B2EB8B
:101C8000C16F40F0C380226B0023CFF6E07303EBFB
:101C9000025200F4C0016FF31402914240F0B6808A
:101CA000616B4FF07E4202EB016100F0C06001F019
:101CB0007E41884240F0AA80EDE100BFB06800F0AC
:101CC0000C01F06808295BD0032281F00C0122EAA4
:101CD00000000844B0FA80F0400951D16068B0F5C6
:101CE000803F07D0B0F5A02F40F0DA80306840F494
:101CF00080203060306840F480303060DBE000BF2E
:101D0000B068F16800F00C00042869D001F003010C
:101D100080F00C0081F002010844B0FA80F0400924
:101D20005ED1E1683068002900F0D28040F4807014
:101D30003060FFF719FB05463068400500F1FC8074
:101D4000FFF712FB401B0228F6D92EE16169D6F895
:101D50009400002900F0908040F00100C6F8940043
:101D6000FFF702FB054600BFD6F8940080073FF559
:101D700056AFFFF7F9FA401B0228F5D915E100BF6D
:101D8000306880037FF544AF606800287FF440AF7F
:101D90003CE000BFB06D10F0805808D1B06D40F04D
:101DA0008050B065B06D00F080500190019847F20E
:101DB0000007C4F200073868C0052BD4386840F427
:101DC00080703860FFF7D0FA054600BF3868C0055C
:101DD00020D4FFF7C9FA401B0228F7D9E5E000BF7D
:101DE0003068400501D5E06880B17068216920F055
:101DF000FE4040EA0160706040F20000C2F2000064
:101E00000068FFF7D5FA00283FF405AF012002B0C3
:101E1000BDE8F081A068012808D0052840F0AA801C
:101E2000D6F8900040F00400C6F89000D6F8900074
:101E300040F00100C6F89000A9E000BFA169D6F803
:101E40009800002900F0808040F00100C6F898005A
:101E5000FFF78AFA054600BFD6F8980080073FF5DD
:101E6000E6AEFFF781FA401B02284FF00300F3D9DA
:101E700002B0BDE8F08100BF20F00100C6F8940078
:101E8000FFF772FA054600BFD6F8940080077FF589
:101E9000C6AEFFF769FA401B0228F5D985E000BFFE
:101EA0003168002821F480313160316821F48021CB
:101EB000316000F07F80FFF757FA054630688003F5
:101EC0003FF5A6AEFFF750FA401B6428F6D96CE048
:101ED00020F480703060FFF747FA0546306840050F
:101EE0007FF599AEFFF740FA401B02284FF0030040
:101EF000F4D9BDE7306820F080703060FFF734FA25
:101F0000022D05460CD100BF3068800140F17E8073
:101F1000FFF72AFA401B02284FF00300F4D9A7E785
:101F20003068800140F1B080FFF71EFA401B0228A4
:101F30004FF00300F4D99BE77068216920F0FE4060
:101F400040EA0160706066E620F00100C6F8980083
:101F5000FFF70AFA054600BFD6F8980080077FF51C
:101F600066AEFFF701FA401B02284FF00300F3D9D9
:101F70007EE700BFD6F8901021F00101C6F890105E
:101F8000D6F8901021F00401C6F8901010B3FFF7B6
:101F9000EBF9054641F28837D6F8900080072BD43C
:101FA000FFF7E2F9401BB842F6D9032002B0BDE8C2
:101FB000F08100BFFFF7D8F9054600BF3068800305
:101FC0007FF526AEFFF7D0F9401B64284FF00300E1
:101FD000F4D94DE7FFF7C8F9054641F2883700BF4D
:101FE000D6F89000800707D5FFF7BEF9401BB8422E
:101FF0004FF00300F4D93BE7B8F1000F7FF413AEC4
:10200000B06D20F08050B0650DE600BFF06848F27A
:102010000C01C0F29F1104F1200700EA010C8ECFE1
:102020006FF00F00D4E90C5400EB02100022CFF641
:10203000E07241EA0C0102EB055208436FF314020F
:102040004FF07E4540EA032005EB0465104305F0A0
:102050007E4540EAC7602843F060306840F08070F9
:102060003060F06840F08070F060FFF77DF9044662
:10207000306880010FD4FFF777F9001B02284FF07A
:102080000300F5D9F4E600BFF0684FF6FC71CFF617
:10209000EE610840F060002002B0BDE8F081000071
:1020A000411E0020B0EB116F1CBF012070474EF2A3
:1020B0001002CEF2000251604EF62351CEF2000122
:1020C000F0230B700721906011607047FEE700005D
:1020D000B0B588B040F2740040F20011C2F20000C6
:1020E000C5F2000100244FF44032042580E81600B8
:1020F0000121CDE90644C0E90344C0E905458483D4
:10210000016280F82440C0E90B4480F83840C46381
:1021100080F84040FEF768FC002818BFFEF7FEF983
:102120000220C0F2304000900620CDE901047F205B
:10213000CDE9030540F27400C2F20000694605943F
:10214000FEF75CFA002818BFFEF7E8F908B0B0BD4A
:1021500080B58CB068463021FEF7AEF840F2E00062
:1021600040F60041C2F20000C5F200010160FEF736
:102170004FFF002818BFFEF7D1F902200090002081
:102180000121ADF80400CDE90200CDE90400CDE95C
:10219000061040F2E000C2F2000069460022FEF79D
:1021A0003DFE002818BFFEF7B9F90CB080BD000055
:1021B00083B041F24C00C4F20200016841F0040116
:1021C0000160016801F0040102910299016841F087
:1021D00020010160016801F020010191019901686D
:1021E00041F001010160006800F0010000900098DA
:1021F00003B07047FEE70000FEE7000070470000F4
:1022000070470000FFF7B6B84EF68850CEF20000D7
:10221000016841F47001016070470000FEE70000B2
:1022200094B0FFF7B5F800240020CDE90B44CDE9C8
:102230000944CDE907440594CDE90344CDE90144BF
:10224000FFF734F94FF48071099140210A9104217C
:1022500002200F9155210690CDE90D00CDE9101017
:10226000CDE9120006A8FFF7C5FC28B1EFF31080F6
:1022700072B600BFFEE700BF0F2001900320CDE93A
:10228000020401A80421CDE90444FFF723FB28B18F
:10229000EFF3108072B600BFFEE700BFFFF788FFC4
:1022A000FFF716FFFFF754FF40F27404C2F2000478
:1022B00020467F21FEF738F940F2E005C2F2000522
:1022C00028460021002240F6B833FEF7E5FE2846F6
:1022D0000021FEF7FDFE40F27005C2F2000500BFCE
:1022E0002046FEF703FD2046FEF77AFB2880F7E73D
:1022F000F1EE100A4FF6FF71C0F2C03120EA010082
:1023000040F04070E1EE100A70470000000000004D
:10231000000001020304060708090000402300082A
:1023200000000020100000001402000850230008E4
:1023300010000020E8060000300200080000000045
:1023400010000000010000000024F4000000000064
:04000005080001D915
:00000001FF
