:020000040800F2
:100000008807002079020008E12400081B2200086C
:10001000DD2400087F030008DD2500080000000043
:100020000000000000000000000000005125000852
:100030008303000800000000E524000853250008A1
:10004000930200089302000893020008930200083C
:10005000930200089302000893020008930200082C
:10006000930200089302000893020008930200081C
:10007000930200089302000893020008930200080C
:1000800093020008930200089302000893020008FC
:1000900093020008930200089302000893020008EC
:1000A00093020008930200089302000893020008DC
:1000B00093020008930200089302000893020008CC
:1000C00093020008930200089302000893020008BC
:1000D00093020008930200089302000893020008AC
:1000E000930200089302000893020008930200089C
:1000F000930200089302000893020008930200088C
:10010000930200089302000893020008930200087B
:10011000930200089302000893020008930200086B
:10012000930200089302000893020008930200085B
:10013000930200089302000893020008930200084B
:10014000930200089302000893020008F5180008C3
:10015000930200089302000893020008930200082B
:10016000930200089302000893020008930200081B
:10017000930200089302000893020008930200080B
:1001800093020008930200089302000893020008FB
:100190009302000800000000930200089302000888
:1001A00093020008930200089302000893020008DB
:1001B00093020008930200089302000893020008CB
:1001C00093020008930200089302000893020008BB
:1001D000930200089302000800F002F800F03CF8D7
:1001E0000AA090E8000C82448344AAF10107DA4592
:1001F00001D100F031F8AFF2090EBAE80F0013F0A8
:10020000010F18BFFB1A43F0010318476C240000CC
:100210008C240000103A24BF78C878C1FAD852075D
:1002200024BF30C830C144BF04680C607047000070
:100230000023002400250026103A28BF78C1FBD8EF
:10024000520728BF30C148BF0B6070471FB502F08E
:1002500001FA1FBD10B510BD00F058F81146FFF7A8
:10026000F5FF02F0D9F900F076F803B4FFF7F2FFDA
:1002700003BC00F07DF800000948804709480047AA
:10028000FEE7FEE7FEE7FEE7FEE7FEE7FEE7FEE746
:10029000FEE7FEE704480549054A064B70470000A3
:1002A000C9250008D901000888010020880700201E
:1002B00088030020880300204FF0000200B5134699
:1002C00094469646203922BFA0E80C50A0E80C5076
:1002D000B1F12001BFF4F7AF090728BFA0E80C5027
:1002E00048BF0CC05DF804EB890028BF40F8042B20
:1002F00008BF704748BF20F8022B11F0804F18BF8D
:1003000000F8012B7047704770477047754600F042
:100310002BF8AE4605006946534620F00700854697
:1003200018B020B5FFF7B6FFBDE820404FF000063B
:100330004FF000074FF000084FF0000B21F00701CD
:10034000AC46ACE8C009ACE8C009ACE8C009ACE810
:10035000C0098D46704710B50446AFF300802046B3
:10036000BDE81040FFF781BF00487047280100201A
:1003700001491820ABBEFEE726000200704700BF0F
:10038000FEE7704772B600BFFEE7000078B5024690
:100390000B460021CAE001268E401D6805EA0604CE
:1003A000002C73D01D7905F00305012D04D01D79B3
:1003B00005F00305022D13D190684E000325B540CA
:1003C000A8434E00DD68B540284390605068012581
:1003D0008D40A8431D79C5F300158D40284350601A
:1003E0001D7905F00305032D09D0D0684E000325C3
:1003F000B540A8434E009D68B5402843D0601D79A4
:1004000005F00305022D13D1CE0802F1200555F8A1
:1004100026004D07EE0E0F25B540A8434E07F60EF9
:100420001D69B5402843CE0802F1200545F8260095
:1004300010684E000325B540A8431D7905F003055B
:100440004E00B540284310605D6805F44035002D2E
:100450006BD000BF384D2D6E45F00105364E356628
:1004600035462D6E05F00105009500BF00BF4FEA2F
:10047000B6358E0855F826008D072E0F0F25B5408E
:10048000A843B2F1904F02D100251AE04DE02B4D68
:10049000AA4201D1012514E0294DAA4201D1022529
:1004A0000FE0284DAA4201D103250AE0264DAA42B9
:1004B00001D1042505E0254DAA4201D1052500E022
:1004C00006258E07360FB5402843214D8E0845F886
:1004D0002600204D2868A0435D6805F4801505B10D
:1004E00020431C4D28602D1D2868A0435D6805F43D
:1004F000001505B12043174D2D1D2860154D2D1FEA
:100500002868A0435D6805F4003505B12043114D0E
:100510002D1F28602D1F2868A0435D6805F48035D5
:1005200005B120430B4D083D2860491C1D68CD4096
:10053000002D7FF430AF78BD001002400004004869
:1005400000080048000C0048001000480014004853
:10055000080001400804014001480068704700009D
:100560001C00002070477047704770477047704705
:10057000704770477047024600BF92F8DC000128C0
:1005800001D102207047012082F8DC0000BF022068
:1005900082F8DD00481C80B91068D0F8CC0320F048
:1005A00002031068C0F8CC331068D0F8CC0340F0D8
:1005B00001031068C0F8CC3318E01068D0F8CC0301
:1005C00040F002031068C0F8CC331068D0F8CC03B8
:1005D00020F00C0008431368C3F8CC031068D0F86F
:1005E000CC0340F001031068C0F8CC33012082F83E
:1005F000DD000020C6E7000030B503460C4693F846
:10060000DD00022800D130BD00BF93F8DC000128D6
:1006100001D10220F7E7012083F8DC0000BF0220AF
:1006200083F8DD00108800F4E0519088C0F30800E2
:100630000143108900F400700143108A00F48040E7
:100640000143908900F400400143908A134D05EA6C
:1006500000400143906900F000700143106A00F00F
:1006600080400143D06900F00040014318688030A9
:1006700000EBC410806B0A4D284008431D6880358C
:1006800005EBC415A863012083F8DD0000BF00203E
:1006900083F8DC0000BF00BFB5E700000000FF01E9
:1006A0000020003C704770477047704770477047A4
:1006B000704770B505460C46FF2C03D1284601F063
:1006C0006BF909E0062C03D1284601F02CFA03E06F
:1006D0002146284601F037FB70BD0000F8B50446FE
:1006E0000CB90120F8BD0220E03404F8030C00200E
:1006F00020606060A060E06020616061A061E03C1B
:10070000207A00F0010008B33549206888420DD1F5
:1007100000BF3448006E40F08060324908660846E9
:10072000006E00F08060009000BF00BF2068066887
:1007300026F44046208A00F44040064326F4405602
:10074000A08A00F44050064320680660204600F06E
:100750004BF8207A00F0020048B12068066826F4C1
:100760004076A08900F440700643206806600120AE
:1007700084F8DD0000BF002084F8DC0000BF002505
:1007800029E00021C5EBC50204F1180040F8221051
:10079000C5EBC50200EB82004160C5EBC50204F168
:1007A000180000EB82008160C5EBC50204F118005F
:1007B00000EB8200C160C5EBC50204F1180000EB3C
:1007C00082000161C5EBC50204F1180000EB820054
:1007D0008161681CC5B2062DD3D9002082E70000D4
:1007E000006801400010024038B504460D492068F9
:1007F000884215D100BF0C48006E40F080600A4965
:1008000008660846006E00F08060009000BF00BFE0
:1008100000221146432000F05FFB432000F048FB1C
:1008200038BD0000006801400010024010B586B0DD
:100830000446142101A8FFF73FFD124920688842B1
:100840001DD100BF1048C06C40F001000E49C864C3
:100850000846C06C00F00100009000BF00BF4FF4DC
:100860007060019002200290002003900320049009
:100870000D20059001A94FF09040FFF787FD06B0CD
:1008800010BD000000680140001002407047704732
:100890007047704770B504460D46FFF75DFE06468B
:1008A0000CE0681C50B1FFF757FE801BA84200D82F
:1008B00025B9072084F8DD00032070BD2068D0F83A
:1008C0008803C0F300400028EBD0012084F8DD004D
:1008D00000BF002084F8DC0000BF00BFEDE77047D8
:1008E0000246062909D142F21070044B18604300F9
:1008F0000248803003600248036070471C68014072
:100900001C6901407047704770B504460D46164695
:1009100094F8DD00022800D170BD022084F8DD00CB
:10092000062D04D13146204601F09AF804E0324603
:100930002946204601F0FEFA012084F8DD0000205F
:10094000EAE730B5044694F8DD00022800D130BD56
:1009500000BF94F8DC00012801D10220F7E7012054
:1009600084F8DC0000BF022084F8DD00062928D1CD
:10097000012A06D0022A08D0042A0AD0082A10D157
:100980000BE018682568E86114E01868256868625B
:1009900010E018682568A8620CE018682568E8620D
:1009A00008E0072084F8DD0000BF002084F8DC00A8
:1009B00000BF00BF00BF94F8DD0007287DD10120F3
:1009C000C5E7012A06D0022A0BD0042A4CD0082AF7
:1009D00074D150E01D682068803000EBC110C56103
:1009E0009AE01D682068803000EBC11045625868AD
:1009F00068B32068803000EBC110006820F44055D7
:100A00002068803000EBC11005602068803000EB6A
:100A1000C11000685D6828432568803505EBC11565
:100A200028605868B0F5005F06D19D682068803066
:100A300000EBC110C56116E05868B0F5405F12D1F7
:100A40009D682068803000EBC11085620BE0206853
:100A5000803000EBC110006820F4405025688035DC
:100A600005EBC115286057E01D682068803000EB59
:100A7000C110856250E01D682068803000EBC11015
:100A8000C562586888B32068803000EBC1100068E8
:100A900020F440452068803000EBC11005602068DC
:100AA000803000EBC11000685D6840EA8505206871
:100AB000803000EBC110056001E034E023E05868AD
:100AC000B0F5005F06D19D682068803000EBC11052
:100AD000C56117E05868B0F5405F13D19D68206884
:100AE000803000EBC11085620CE0FFE720688030A9
:100AF00000EBC110006820F440402568803505EB0C
:100B0000C115286008E0072084F8DD0000BF002040
:100B100084F8DC0000BF00BF00BF94F8DD000728A8
:100B200001D1012013E7012084F8DD0000BF00207F
:100B300084F8DC0000BF00BF09E7024600BF92F85E
:100B4000DC00012801D102207047012082F8DC007E
:100B500000BF022082F8DD001068006808431368B7
:100B60001860012082F8DD0000BF002082F8DC0060
:100B700000BF00BFE8E7000030B502460B4600BFEB
:100B800092F8DC00012801D1022030BD012082F85A
:100B9000DC0000BF022082F8DD001068D0F890036E
:100BA000546820431468C4F8900303F4803030B1D3
:100BB0001068C468D2F8C80004431068C4600021FB
:100BC00018E0154850F82100184088B110688030AE
:100BD00000EBC110C068C1EBC10502F1180404EBC1
:100BE0008504A46820431468803404EBC114E060D9
:100BF000481CC1B20629E4D3106800681843146881
:100C00002060012082F8DD0000BF002082F8DC00B7
:100C100000BF00BFB9E70000000000202DE9F0414F
:100C200004460D4616461F4694F8DD00022801D101
:100C3000BDE8F08100BF94F8DC00012801D102205A
:100C4000F6E7012084F8DC0000BF022084F8DD0014
:100C50003B4632462946204600F0F2FF012084F848
:100C6000DD0000BF002084F8DC0000BF00BFDFE72C
:100C7000024600BF92F8DC00012801D10220704733
:100C8000012082F8DC0000BF022082F8DD0010683D
:100C9000D0F8940308431368C3F89403012082F842
:100CA000DD0000BF002082F8DC0000BF00BFE6E7E7
:100CB00070B504460D46164694F8DD00022800D1B2
:100CC00070BD00BF94F8DC00012801D10220F7E7D5
:100CD000012084F8DC0000BF022084F8DD00062D2E
:100CE00004D13146204600F0CFFE04E032462946CA
:100CF000204601F03FF9C5EBC50204F1180000EBF6
:100D0000820031688160C5EBC50204F1180000EB78
:100D100082007168C160C5EBC50204F1180000EBE8
:100D20008200B1680161C5EBC50204F1180000EB57
:100D30008200F1684161C5EBC50204F1180000EBC7
:100D40008200316981612946204600F0DBFD062DD5
:100D500010D0F06A70B92068803000EBC5100068D0
:100D600020F40070F16D40EA41212068803000EBF2
:100D7000C5100160012084F8DD0000BF002084F868
:100D8000DC0000BF00BF9BE770B504460D46164669
:100D900094F8DD00022800D170BD00BF94F8DC009B
:100DA000012801D10220F7E7012084F8DC0000BF10
:100DB000022084F8DD0032462946204601F000FA80
:100DC0002946204600F09EFD012084F8DD0000BF8A
:100DD000002084F8DC0000BF00BFDDE703480068A6
:100DE0000349096808440149086070471C00002055
:100DF0002400002010B50024032000F0ABF80F20E1
:100E000000F008F808B1012401E000F02FF82046B6
:100E100010BD000070B50446002511480068D8B127
:100E20000F4800684FF47A71B1FBF0F00D49096882
:100E3000B1FBF0F6304600F043FD58B9102C07D254
:100E400000222146501E00F047F80748046004E0E5
:100E5000012502E0012500E00125284670BD0000C3
:100E600024000020280000202000002008B500BF3A
:100E70000E48006E40F001000C4908660846006EFE
:100E800000F00100009000BF00BF00BF0846806D69
:100E900040F0805088650846806D00F080500090DA
:100EA00000BF00BF00F0F6F808BD000000100240CF
:100EB0000146084600280DDB00BF00BF00F01F03FD
:100EC00001229A4043099B0003F1E023C3F800216B
:100ED00000BF00BF00BF70472DE9F05F80460D46A0
:100EE000164601F07DFB074639462A46334601F097
:100EF0000700C0F1070ABAF1040F02D94FF0040A43
:100F000001E0C0F1070AD14600F1040ABAF1070F67
:100F100002D24FF0000A01E0A0F1030AD4464FF0DC
:100F2000010A0AFA09FAAAF1010A0AEA020A0AFA05
:100F30000CFA4FF0010B0BFA0CFBABF1010B0BEAB7
:100F4000030B4AEA0B042146404601F051FBBDE881
:100F5000F09F000000BF00F00702064B19684FF633
:100F6000FF031940044B0B4343EA0221014B196074
:100F700000BF70470CED00E00000FA0502468ABB96
:100F80004148006800F4C060B0F5806F2BD13E4846
:100F90008030006820F480703B4BC3F88000184616
:100FA000006820F4C06040F40070186037480068A2
:100FB00032235843364BB0FBF3F0411C00E0491E8E
:100FC0003148406900F48060B0F5806F01D100299C
:100FD000F5D12D48406900F48060B0F5806F51D1A3
:100FE0000320704708E028488030006820F48070B3
:100FF000254BC3F8800045E0B2F5007F3AD1224886
:10100000006800F4C060B0F5806F2AD11E488030BF
:10101000006840F480701C4BC3F8800018460068DC
:1010200020F4C06040F40070186018480068322353
:101030005843174BB0FBF3F0411C00E0491E124827
:10104000406900F48060B0F5806F01D10029F5D1CE
:101050000D48406900F48060B0F5806F12D1032024
:10106000BFE709488030006840F48070064BC3F841
:10107000800007E00448006820F4C06040F480600D
:10108000014B18600020ACE70070004028000020F1
:1010900040420F000348806840F480400149886066
:1010A00070470000007000402DE9F04104460D46F5
:1010B0004FF0000814B90120BDE8F0817D480068B8
:1010C00000F00F00A8420ED27A48006820F00F000E
:1010D0002843784908600846006800F00F00A842DD
:1010E00001D00120E8E7207800F00100002864D05A
:1010F0006068032823D17048006800F0007008B9C8
:101100000120D9E701F0F0F906466C48864237D94C
:101110006948806800F0F00030B1207800F00200EB
:1011200002282DD1A06858BB6348806820F0F000E9
:1011300040F08000604988604FF0800820E06068DF
:10114000022806D15C48006800F4003040B9012054
:10115000B2E75948006800F4806008B90120ABE7A5
:1011600000F0B4F806465548864209D952488068CE
:1011700020F0F00040F080004F4988604FF0800878
:101180004D48806820F00300616808434A49886040
:10119000FFF7E2F9074608E0FFF7DEF9C01B41F26E
:1011A0008831884201D9032086E74348806800F0EF
:1011B0000C006168B0EB810FEED1207800F00200E6
:1011C000022820D1207800F00400042805D13A48F4
:1011D000806840F4E06038498860207800F00800BA
:1011E000082807D13448806820F4605040F4E0605B
:1011F000314988603048806820F0F000A1680843D9
:101200002D49886008E0B8F1800F05D12A48806830
:1012100020F0F000284988602648006800F00F00A0
:10122000A84219D92348006820F00F00284321491B
:101230000860FFF791F9074608E0FFF78DF9C01B3A
:1012400041F28831884201D9032035E71948006806
:1012500000F00F00A842F0D1207800F0040004282C
:1012600007D11548806820F4E060E168084312491E
:101270008860207800F00800082808D10E488068AF
:1012800020F46050216940EAC1000B49886000F0F9
:101290001DF809498968C1F30311094A515C01F03D
:1012A0001F01C8400749086007480068FFF7B2FD02
:1012B00002E70000002002400010024000B4C40415
:1012C0005E260008280000202000002070B5224D76
:1012D000AD6805F00C05042D01D120483AE01E4D03
:1012E000AD6805F00C05082D01D11D4832E01A4DFE
:1012F000AD6805F00C050C2D2BD1174DED6805F0F0
:101300000304154DED68C5F303156A1C022C0CD0BF
:10131000032C09D1124DB5FBF2F50F4EF668C6F35A
:10132000062605FB06F10AE000BF0C4DB5FBF2F501
:10133000094EF668C6F3062605FB06F100BF00BF9E
:10134000054DED68C5F341656D1C6B00B1FBF3F015
:1013500000E0002070BD0000001002400024F400F6
:1013600000127A002DE9F843044614B90120BDE8C3
:10137000F883207800F00100002865D0FC488068E0
:1013800000F00C07FA48C06800F003060C2F01D1EA
:10139000032E01D0082F0AD1F548006800F4003070
:1013A000002851D0606800284ED10120DFE700BF3F
:1013B0006068B0F5803F06D1ED48006840F48030A9
:1013C000EB4908601AE06068B0F5A02F0BD1E8483F
:1013D000006840F48020E64908600846006840F450
:1013E000803008600AE0E248006820F48030E0497C
:1013F00008600846006820F48020086000BF60682C
:1014000088B1FFF7A9F8054606E0FFF7A5F8401BED
:10141000642801D90320AAE7D548006800F4003009
:101420000028F2D010E0FFF797F8054606E0FFF736
:1014300093F8401B642801D9032098E7CC48006842
:1014400000F400300028F2D1207800F002000228D9
:1014500060D1C748806800F00C07C548C06800F03C
:1014600003060C2F01D1022E01D0042F18D1C04841
:10147000006800F4806018B1E06808B9012076E7E0
:10148000BB48406820F0FE40217C40EA0160B8493A
:101490004860B8480068FFF7BDFC18B3012066E754
:1014A000E06800B3B248006840F48070B04908605A
:1014B000FFF752F8054606E0FFF74EF8401B0228FA
:1014C00001D9032053E7AA48006800F4806000288F
:1014D000F2D0A748406820F0FE40217C40EA01603D
:1014E000A349486016E0A248006820F48070A04933
:1014F0000860FFF731F8054606E0FFF72DF8401BBE
:10150000022801D9032032E79948006800F480607E
:101510000028F2D1207800F00800082836D1606950
:10152000D0B193489430006840F001009049C1F870
:101530009400FFF711F8054606E0FFF70DF8401B91
:10154000022801D9032012E789489430006800F08E
:1015500002000028F1D019E085489430006820F09E
:1015600001008349C1F89400FEF7F6FF054606E046
:10157000FEF7F2FF401B022801D90320F7E67C4862
:101580009430006800F002000028F1D1207800F0CB
:101590000400042872D14FF000087548806D0121C5
:1015A00021EA107078B100BF7148806D40F0805022
:1015B0006F4988650846806D00F08050009000BF3C
:1015C00000BF4FF001086C48006800F48070B0B9AB
:1015D0006948006840F4807067490860FEF7BCFF06
:1015E000054606E0FEF7B8FF401B022801D903209C
:1015F000BDE66148006800F480700028F2D000BFAA
:10160000A068012808D15A489030006840F00100D5
:101610005749C1F8900021E0A06805280FD154482F
:101620009030006840F004005149C1F8900008462D
:10163000D0F8900040F00100C1F890000EE04C4856
:101640009030006820F001004949C1F89000084638
:10165000D0F8900020F00400C1F8900000BFA0680E
:10166000A8B1FEF779FF054609E0FEF775FF401BBC
:1016700041F28831884202D9032078E625E03C48CF
:101680009030006800F002000028EED013E0FEF772
:1016900063FF054608E0FEF75FFF401B41F288311B
:1016A000884201D9032062E631489030006800F09A
:1016B00002000028EFD1B8F1010F05D12C48806D50
:1016C00020F080502A49886500BF207800F0200073
:1016D000202836D1A069D0B125489830006840F064
:1016E00001002349C1F89800FEF736FF054606E0E1
:1016F000FEF732FF401B022801D9032037E61C48C1
:101700009830006800F002000028F1D019E0184875
:101710009830006820F001001549C1F89800FEF7E4
:101720001BFF054606E0FEF717FF401B022801D904
:1017300003201CE60E489830006800F002000028E4
:10174000F1D1E069002860D00948806800F00C0001
:101750000C287AD0E069022858D10548006820F0AA
:10176000807003490860FEF7F7FE05460DE00000B3
:10177000001002402000002000700040FEF7ECFE48
:10178000401B022801D90320F1E54A48006800F017
:1017900000700028F2D1D4E90810401E41EA00117F
:1017A000A06A41EA0021208E0122C2EB500041EAEA
:1017B00040513420005DC2EB500041EA40612C20D2
:1017C000005D41EAC0603B49C9683B4A114008439B
:1017D0003849C8600846006840F0807008600846D4
:1017E000C06840F08070C860FEF7B6FE054606E0AF
:1017F000FEF7B2FE401B022801D90320B7E52D48B1
:10180000006800F000700028F2D051E0294800681C
:1018100020F0807027490860FEF79EFE054606E02E
:10182000FEF79AFE401B022801D903209FE52148BC
:10183000006800F000700028F2D11E48C0681F49FF
:1018400008401C49C86033E0FFE7E069012800D187
:101850008DE51848C66806F00301206A814225D14B
:1018600006F0F001606A401EB1EB001F1ED106F4C5
:10187000FE41A06AB1EB002F18D106F078412C2070
:10188000005DB1EBC06F11D106F4C001208E0122C2
:10189000C2EB5000B1EB405F08D106F0C0613420CC
:1018A000005DC2EB5000B1EB406F01D001205EE55E
:1018B00000205CE5001002400C809F01FCFFEEFE62
:1018C00070B504462546681EB0F1807F01D3012023
:1018D0000FE0681E4FF0E02148610F214FF0FF300C
:1018E00000F086FE00204FF0E021886107200861AB
:1018F000002070BD10B506210148FEF7DAFE10BDCC
:101900002C000020072944D2DFE801F00D161F2823
:10191000313A04000268D2F8842342F001030268DD
:10192000C2F8843336E00268D2F8842342F002031E
:101930000268C2F884332DE00268D2F8842342F0B2
:1019400004030268C2F8843324E00268D2F88423D6
:1019500042F008030268C2F884331BE00268D2F840
:10196000842342F010030268C2F8843312E0026854
:10197000D2F8842342F020030268C2F8843309E0DD
:101980000268D2F8842342F040030268C2F884332C
:1019900000E000BF00BF704770B504462068D0F873
:1019A00088532068D0F8906305F0010048B106F034
:1019B000010030B101212068C0F88C132046FEF7E9
:1019C00072FE05F0020048B106F0020030B10221BB
:1019D0002068C0F88C132046FEF766FE05F0040070
:1019E00048B106F0040030B104212068C0F88C131F
:1019F0002046FEF75AFE05F0080048B106F0080040
:101A000030B108212068C0F88C132046FEF74EFE46
:101A100005F0100048B106F0100030B11021206828
:101A2000C0F88C132046FEF742FE05F0400048B196
:101A300006F0400030B140212068C0F88C132046E9
:101A4000FEF736FE05F0200048B106F0200030B168
:101A500020212068C0F88C132046FEF754FF70BD8B
:101A600010B503681A6822F007028B681A4322F047
:101A70001802CB681A4303681A600B680468636134
:101A80004B680468A36110BD10B502461468206855
:101A90001468D4F8A03320F020004C69204320F0D3
:101AA000C0004C69202C02D08C69022C04D120F09B
:101AB000C00040F0200013E08C69032C04D140F0FA
:101AC000400020F080000BE08C69042C04D140F031
:101AD000800020F0400003E020F0200020F0C00053
:101AE00020F40060CC69204320F480600C6A20431D
:101AF00020F0C0604C6A204320F000608C6A2043D4
:101B000020F04040CC6A40EA840020F000504C6B4A
:101B1000204323F480330C6B234314682060146843
:101B2000C4F8A03310BD2DE9F04104462068D0F878
:101B300088732068D0F89083206845682068C6685C
:101B400007F4803090B108F4803078B14FF48031E0
:101B50002068C0F88C13012084F8DD0000BF00204D
:101B600084F8DC0000BF2046FEF704FD07F40030D7
:101B700050B108F4003038B14FF400312068C0F89B
:101B80008C132046FEF7EEFC05F0010048B106F08C
:101B9000010030B101202168886006212046FEF74F
:101BA000E4FC05F0020048B106F0020030B102206A
:101BB0002168886006212046FEF7D8FC05F0040065
:101BC00048B106F0040030B1042021688860062185
:101BD0002046FEF7CCFC05F0080048B106F00800EE
:101BE00030B108202168886006212046FEF7C0FC3D
:101BF00005F0100048B106F0100030B11020216847
:101C0000886006212046FEF76BFE05F0200040B1FB
:101C100006F0200028B12020216888602046FEF7C9
:101C200071FE05F0400048B106F0400030B14020A0
:101C30002168886006212046FEF751FEBDE8F0814C
:101C4000F0B5154600240768803707EBC1177A6E98
:101C50000768803707EBC117BE6B402D23D00EDC21
:101C6000082D34D006DC012D1AD0022D2ED0042DE3
:101C700043D116E0102D15D0202D3ED128E0B5F52A
:101C8000007F27D005DC802D23D0B5F5807F34D1AF
:101C90000AE0B5F5806F08D0B5F5006F2DD11AE0D8
:101CA00000BF00BF00BF00BF00BFD3F804C007687B
:101CB000803707EBC117C7F83CC0D3F808C00768E6
:101CC000803707EBC117C7F840C017E000BF00BF5F
:101CD00000BF00BF00BFD3F804C00768803707EB20
:101CE000C117C7F844C0D3F808C00768803707EBAE
:101CF000C117C7F848C0102400E000BF00BFFE278E
:101D0000A740BA431F68A7403A43DF68A7403A4359
:101D10001F69A7403A435F69A7403A439F69A740BC
:101D20003A431F69082F08D106F400772FB906F04F
:101D3000007717B9DF69A7403A430768803707EB98
:101D4000C1177A66F0BD2DE9F04104460D462068C2
:101D5000803000EBC51046682068803000EBC5106D
:101D6000C76806F0010060B107F0010048B1012129
:101D70002068803000EBC510816029462046FEF7C0
:101D8000F4FB06F0020060B107F0020048B1022146
:101D90002068803000EBC510816029462046FEF7A0
:101DA000E5FB06F0040060B107F0040048B104212F
:101DB0002068803000EBC510816029462046FEF780
:101DC000D6FB06F0080060B107F0080048B1082112
:101DD0002068803000EBC510816029462046FEF760
:101DE000C7FB06F0100060B107F0100048B11021E9
:101DF0002068803000EBC510816029462046FEF740
:101E00006FFD06F0400060B107F0400048B140218E
:101E10002068803000EBC510816029462046FEF71F
:101E20005EFD06F0800060B107F0800048B18021BF
:101E30002068803000EBC510816029462046FEF7FF
:101E400092FB06F4807068B107F4807050B14FF4D3
:101E500080712068803000EBC510816029462046E3
:101E6000FEF782FB06F4007068B107F4007050B111
:101E70004FF400712068803000EBC5108160294666
:101E80002046FEF704FD06F4806068B107F4806028
:101E900050B14FF480612068803000EBC510816044
:101EA00029462046FEF7F2FC06F4006068B107F40C
:101EB000006050B14FF400612068803000EBC51025
:101EC000816029462046FEF7E4FC06F4805068B1A4
:101ED00007F4805050B14FF480512068803000EBFF
:101EE000C510816029462046FEF7D2FC06F400505A
:101EF00068B107F4005050B14FF4005120688030B1
:101F000000EBC510816029462046FEF732FB06F43F
:101F1000804068B107F4804050B14FF480412068A0
:101F2000803000EBC510816029462046FEF7BAFBE1
:101F3000BDE8F08130B50468803404EBC114236837
:101F400023F007039468234323F01803D468234342
:101F50000468803404EBC11423601568046880347D
:101F600004EBC114656155680468803404EBC11446
:101F7000A56130BD2DE9F04103460C46D3F800C001
:101F80000CF1800C0CEBC41CDCF800C02CF0704889
:101F9000D3F800C00CF1800C0CEBC41CCCF8008012
:101FA000D3F800C00CF1800C0CEBC41CDCF8000072
:101FB000D3F800C00CF1800C0CEBC41CDCF868609A
:101FC000D3F800C00CF1800C0CEBC41CDCF864509E
:101FD000D3F800C0DCF8A01320F02000D2F814C021
:101FE0004CEA0000D2F814C0BCF1200F04D0D2F8A3
:101FF00018C0BCF1020F04D120F4C07040F02000E2
:1020000017E0D2F818C0BCF1030F04D140F08000F3
:1020100020F480700DE0D2F818C0BCF1040F04D198
:1020200040F4807020F0800003E020F0200020F4D5
:10203000C07020F40060D2F81CC04CEA000020F40C
:102040008060D2F820C04CEA000020F0C060D2F8D6
:1020500024C04CEA000020F00060D2F828C04CEA0E
:10206000000020F07040D2F82CC04CEA000020F4B0
:102070000030D2F834C0BCF1005F01D140F4003030
:1020800020F04000D2F838C04CEA000020F4802054
:10209000D2F858C04CEA0000DFF820C100EA0C007A
:1020A000D2F850C04CEA000026F03F0692F83CC03F
:1020B0000CF03F0C4CEA060626F00046D2F840C071
:1020C0004CEA060625F48075D2F844C04CEA0505B2
:1020D000D2F848C0BCF5606F04D0D2F848C0BCF557
:1020E000F05F04D1D2F838C0BCF1400F05D125F41F
:1020F000F055D2F848C04CEA050525F48045D2F8E1
:102100004CC04CEA0505576D062C2ED2DFE804F0D2
:10211000030A11181F2621F40031D2F830C041EA19
:102120004C0123E021F48021D2F830C041EA8C0137
:102130001CE021F40021D2F830C041EACC0115E0C6
:1021400021F48011D2F830C041EA0C110EE021F4E4
:102150000011D2F830C041EA4C1107E021F48001AF
:10216000D2F830C041EA8C1100E000BF00BFD3F8C4
:1021700000C00CF1800C0CEBC41CCCF80000D3F8B0
:1021800000C00CF1800C0CEBC41CCCF86860D3F8D8
:1021900000C00CF1800C0CEBC41CCCF86450D3F8DC
:1021A00000C00CF1800C0CEBC41CCCF85470D3F8BC
:1021B00000C0CCF8A013BDE8F0810000FFFF06FED0
:1021C00010B503461C68803404EBC114E06E20F0A7
:1021D0001000146840EA041020F480105468204372
:1021E00020F48030D468204320F4003094682043E9
:1021F0009469012C0BD120F004001469204320F0D5
:1022000002005469204320F00100946920431C68B7
:10221000803404EBC114E06610BD00BFFEE700008F
:1022200008B500BF1348C06C40F004001149C864F1
:102230000846C06C00F00400009000BF00BF00BF63
:102240000846C06C40F02000C8640846C06C00F02E
:102250002000009000BF00BF00BF0846C06C40F0E7
:102260000100C8640846C06C00F00100009000BF87
:1022700000BF08BD0010024000B5B7B00020339089
:1022800034903590369060211BA8FEF715F8002099
:10229000189019901A901C2111A8FEF70DF824210E
:1022A00008A8FEF709F820216846FEF705F88948D6
:1022B0008949086000204860002187488160FEF756
:1022C0000DFA08B1FEF75EF80C218348FEF753F9CA
:1022D00008B1FEF757F80A217F48FEF7DBFA08B18C
:1022E000FEF750F84EF66020339000203490022024
:1022F00035900820369033AA06217748FEF704FB74
:1023000008B1FEF73FF810201B9000201C901D9094
:102310001E9001201F900020209021902290239059
:1023200024904FF0006025900020269027904FF0D9
:1023300000502890002032901BAA06216648FEF724
:10234000B7FC08B1FEF71EF844F62060189018ABF1
:10235000012206216048FEF7F4FA08B1FEF712F8F0
:102360001020369033AA00215B48FEF7CDFA08B161
:10237000FEF708F8002011901490179011AA002180
:102380005548FEF701FD08B1FDF7FCFF00201B904A
:102390001C9029902A902B904FF480702C90002054
:1023A0002D902F9010203090002031901BAA0021FA
:1023B0004948FEF77DFC08B1FDF7E4FF202030908E
:1023C0001BAA01214448FEF773FC08B1FDF7DAFFB0
:1023D00047F23050189018AB012200213E48FEF71A
:1023E000B0FA08B1FDF7CEFF4FF4406008906420CA
:1023F000099000200A900B900C9064200D90002012
:102400000E900F90109008AA00213348FEF7F4F8C0
:1024100008B1FDF7B7FF0020089008AA01212E4857
:10242000FEF7EAF808B1FDF7ADFF00200090842028
:1024300001900820029000200390049005900690DF
:1024400007906B46012200212348FEF7E7FB08B105
:10245000FDF798FF4FF4827001906B460422012132
:102460001D48FEF7DBFB08B1FDF78CFF0020019053
:1024700002906B46022200211748FEF7CFFB08B1FD
:10248000FDF780FF6B46082201211348FEF7C6FBCB
:1024900008B1FDF777FF33AA01210F48FEF734FAA0
:1024A00008B1FDF76FFF11AA01210B48FEF76CFC84
:1024B00008B1FDF767FF18AB012211460648FEF789
:1024C00040FA08B1FDF75EFF0348FEF7AFF937B0F9
:1024D00000BD0000006801402C00002000BFFEE7A6
:1024E00000BFFEE77047000070B5164DED6805F0BF
:1024F0000304144DED68C5F303156B1C022C0CD0BE
:10250000032C09D1104DB5FBF3F50E4EF668C6F35A
:10251000062605FB06F10AE000BF0C4DB5FBF3F5FE
:10252000084EF668C6F3062605FB06F100BF00BF9D
:10253000044DED68C5F341656D1C6A00B1FBF2F016
:1025400070BD00000010024000127A000024F40068
:10255000704710B5FEF742FC10BD00B593B03821AE
:1025600005A8FDF7A9FE14216846FDF7A5FE4FF466
:102570000070FEF703FD02200590C0010890402086
:10258000099002200C9002210D9104210E914B2103
:102590000F91022110911191129105A8FEF7E2FE10
:1025A00008B1FDF7EFFE0F200090032001900020FE
:1025B00002900390049004216846FEF775FD08B16F
:1025C000FDF7E0FE13B000BD0348006840F4700062
:1025D000014908607047000088ED00E000BFFEE799
:1025E00002480068C0F30220704700000CED00E0D4
:1025F00010B5002804DB0A07130E054A135406E041
:102600000A07140E034A00F00F031B1FD45410BD19
:1026100000E400E018ED00E0FEF7ECFBFFF79DFFA3
:10262000FFF7FEFDFFF728FE4FF480310848FEF764
:10263000A3FA4FF4C0210648FEF77FFA03210448AD
:10264000FEF716FB0C210248FEF712FB00BFFEE767
:102650002C0000204FF04070E1EE100A704700009F
:102660000000000000000102030406070809000042
:10267000000001020304000098260008000000206A
:102680002C00000014020008C42600082C000020C2
:102690005C07000030020008000002000000040097
:1026A00000000800000010000000200000004000B2
:1026B0000000010000000000100000000100000008
:0426C0000024F400FE
:04000005080001D915
:00000001FF
